:020000040000fa
:10000000f0ff0020b98c00002b5a00009f6e00000a
:1000100000000000000000000000000000000000e0
:10002000000000000000000000000000a7550000d4
:100030000000000000000000a755000079e100006a
:100040009df40000a75500008dd9000039b80000cc
:10005000a1e30000a7550000a75500000dab00006c
:10006000a755000095f400008df40000c14b00007e
:100070004561000099620000a7550000a7550000e7
:10008000a7550000a7550000a7550000a755000080
:10009000a7550000a7550000a7550000a755000070
:1000a000a755000029e10000a7550000a755000052
:1000b000a7550000a7550000a7550000a755000050
:020000040000fa
:1000c000f8b5c046f8bc08bc9e467047b1c70000f2
:1000d000f8b5c046f8bc08bc9e46704789c700000a
:020000040000fa
:0800e0005c7f0000010000003c
:020000040000fa
:1000e80010b5c74b1a783a2a0dd89300c54ad35889
:1000f8009f460ef0edff0321002007f0edfbc04bfb
:10010800586001221a7010bdbd4b5b68013303d0e3
:10011800bb4b02221a70f6e7b94b3a221a70f2e783
:10012800b74ce07bae210df095fd0ef0f9ff0323ef
:100138002370e8e7b24b98680bf0d6fd01280cd085
:100148000ff03cf90028ded000200ff03df90ef04a
:10015800efffab4b39221a70d5e70ef0e9ffa84b39
:1001680004221a70cfe7a64ce07bd5210df072fd72
:100178000ef0d6ff05232370c5e7a14b98680bf056
:10018800b3fd01280cd00ff019f90028bbd00020ce
:100198000ff01af90ef0ccff994b39221a70b2e71a
:1001a8000ef0c6ff964b06221a70ace7944ce07b23
:1001b80080210df04ffd0ef0b3ff07232370a2e757
:1001c8008f4b98680bf090fd01280cd00ff0f6f8d3
:1001d800002898d000200ff0f7f80ef0a9ff884b00
:1001e80039221a708fe70ef0a3ff854b08221a7088
:1001f80089e7834ce07ba8210df02cfd0ef090ffe1
:10020800092323707fe77e4b98680bf06dfd01286a
:100218000dd00ff0d3f8002800d174e700200ff0bc
:10022800d3f80ef085ff764b39221a706be70ef083
:100238007fff734b0a221a7065e7714ce07b3f2100
:100248000df008fd0ef06cff0b2323705be76c4b81
:1002580098680bf049fd01280dd00ff0aff8002881
:1002680000d150e700200ff0aff80ef061ff644bab
:1002780039221a7047e70ef05bff614b0c221a70a7
:1002880041e75f4ce07bd3210df0e4fc0ef048ff22
:100298000d23237037e75a4b98680bf025fd01288a
:1002a8000dd00ff08bf8002800d12ce700200ff0bc
:1002b8008bf80ef03dff524b39221a7023e70ef0ef
:1002c80037ff4f4b0e221a701de74d4ce07b002183
:1002d8000df0c0fc0ef024ff0f23237013e7484bea
:1002e80098680bf001fd01280dd00ff067f8002881
:1002f80000d108e700200ff067f80ef019ff404b17
:1003080039221a70ffe60ef013ff3d4b10221a70c7
:10031800f9e63b4ce07b40210df09cfc0ef000ff21
:1003280011232370efe6364b98680bf0ddfc0128ab
:100338000dd00ff043f8002800d1e4e600200ff0bc
:1003480043f80ef0f5fe2e4b39221a70dbe60ef05c
:10035800effe2b4b12221a70d5e6294ce07b8d213b
:100368000df078fc0ef0dcfe13232370cbe6244b53
:1003780098680bf0b9fc01280dd00ff01ff8002881
:1003880000d1c0e600200ff01ff80ef0d1fe1c4b84
:1003980039221a70b7e60ef0cbfe194b14221a70e8
:1003a800b1e6174ce07b14210df054fc0ef0b8feba
:1003b80015232370a7e6124b98680bf095fc0128cb
:1003c8000dd00ef0fbff002800d19ce600200ef0b7
:1003d800fbff0ef0adfe0a4b39221a7093e60ef0c1
:1003e800a7fe074b16221a708de6054ce07b2021ec
:1003f8000df030fc0ef094fe1723237083e6c04600
:1004080000d00020b87b0000d74b98680bf06cfc3c
:1004180001280dd00ef0d2ff002800d173e600208d
:100428000ef0d2ff0ef084fecf4b39221a706ae626
:100438000ef07efecc4b18221a7064e6ca4ce07ba4
:1004480000210df007fc0ef06bfe192323705ae60d
:10045800c54b98680bf048fc01280dd00ef0aeff94
:10046800002800d14fe600200ef0aeff0ef060fe2f
:10047800bd4b39221a7046e60ef05afeba4b1a22c4
:100488001a7040e6b84ce07ba1210df0e3fb0ef0ba
:1004980047fe1b23237036e6b34b98680bf024fc09
:1004a80001280dd00ef08aff002800d12be600208d
:1004b8000ef08aff0ef03cfeab4b39221a7022e692
:1004c8000ef036fea84b1c221a701ce6a64ce07be8
:1004d800c8210df0bffb0ef023fe1d23237012e68a
:1004e800a14b98680bf000fc01280dd00ef066ffb8
:1004f800002800d107e600200ef066ff0ef018fe77
:10050800994b39221a70fee50ef012fe964b1e2208
:100518001a70f8e5944ce07bda210df09bfb0ef0a5
:10052800fffd1f232370eee58f4b98680bf0dcfb73
:1005380001280dd00ef042ff002800d1e3e500208d
:100548000ef042ff0ef0f4fd874b39221a70dae5ff
:100558000ef0eefd844b20221a70d4e5824ce07b2d
:1005680002210df077fb0ef0dbfd21232370cae595
:100578007d4b98680bf0b8fb01280dd00ef01effdc
:10058800002800d1bfe500200ef01eff0ef0d0fdc0
:10059800754b39221a70b6e50ef0cafd724b22224d
:1005a8001a70b0e5704ce07b81210df053fb0ef022
:1005b800b7fd23232370a6e56b4b98680bf094fbdb
:1005c80001280dd00ef0fafe002800d19be500208e
:1005d8000ef0fafe0ef0acfd634b39221a7092e56c
:1005e8000ef0a6fd604b24221a708ce55e4ce07b71
:1005f8008f210df02ffb0ef093fd2523237082e54c
:10060800594b98680bf070fb01280dd00ef0d6fe00
:10061800002800d177e500200ef0d6fe0ef088fd08
:10062800514b39221a706ee50ef082fd4e4b262290
:100638001a7068e54c4ce07bd9210df00bfb0ef0ed
:100648006ffd272323705ee5474b98680bf04cfb42
:1006580001280dd00ef0b2fe002800d153e500208d
:100668000ef0b2fe0ef064fd3f4b39221a704ae5d7
:100678000ef05efd3c4b28221a7044e53a4ce07bb4
:10068800f1210df0e7fa0ef04bfd292323703ae52e
:10069800354b98680bf028fb01280dd00ef08efe24
:1006a800002800d12fe500200ef08efe0ef040fd50
:1006b8002d4b39221a7026e50ef03afd2a4b2a22d4
:1006c8001a7020e5284ce07bdb210df0c3fa0ef010
:1006d80027fd2b23237016e5234b98680bf004fbaa
:1006e80001280dd00ef06afe002800d10be500208d
:1006f8000ef06afe0ef01cfd1b4b39221a7002e543
:100708000ef016fd184b2c221a70fce4164ce07bf8
:1007180040210df09ffa0ef003fd2d232370f2e423
:10072800114b98680bf0e0fa01280dd00ef046fe48
:10073800002800d1e7e400200ef046fe0ef0f8fc99
:10074800094b39221a70dee40ef0f2fc064b2e2219
:100758001a70d8e4044ce07ba4210df07bfa0ef06b
:10076800dffc2f232370cee400d00020604b986874
:100778000bf0bafa01280dd00ef020fe002800d1a7
:10078800c1e400200ef020fe0ef0d2fc584b3922b6
:100798001a70b8e40ef0ccfc554b30221a70b2e453
:1007a800534ce07ba6210df055fa0ef0b9fc31232d
:1007b8002370a8e44e4b98680bf096fa01280dd0e8
:1007c8000ef0fcfd002800d19de400200ef0fcfd99
:1007d8000ef0aefc464b39221a7094e40ef0a8fcd9
:1007e800434b32221a708ee4414ce07b2e210df0ef
:1007f80031fa0ef095fc3323237084e43c4b98685f
:100808000bf072fa01280dd00ef0d8fd002800d1a7
:1008180079e400200ef0d8fd0ef08afc344b392222
:100828001a7070e40ef084fc314b34221a706ae4ba
:100838002f4ce07baf210df00dfa0ef071fc352343
:10084800237060e42a4b98680bf04efa01280dd00b
:100858000ef0b4fd002800d155e400200ef0b4fde0
:100868000ef066fc224b39221a704ce40ef060fc44
:100878001f4b36221a7046e41e491d4ce07b0ef0d1
:1008880077f80ef04dfc372323703ce4184b98683a
:100898000bf02afa01280dd00ef090fd002800d1a7
:1008a80031e400200ef090fd0ef042fc104b39228e
:1008b8001a7028e40ef03cfc0d4b38221a7022e422
:1008c8000b4b1b7b1fe40a4c60680af0d5f9012327
:1008d800637337332370fff716fc054c60680af022
:1008e800cbf90123637337332370fff70cfcc04641
:0808f80000d00020488e000032
:020000040000fa
:1009000060d000201c0000000000000008cd002086
:100910003c0000000000000074cd00200400000036
:100920000000000024c90020740000000000000046
:10093000e8ca00206000000000000000c0d10020d4
:1009400008000000000000007cd000201c00000017
:100950000000000098c800208c000000000000008b
:10096000c8d10020040000000000000024d10020b5
:100970001000000000000000ccd10020100000009a
:100980000000000008bc0020280500000000000056
:10099000dcd10020040000000000000030c1002075
:1009a0006403000000000000b4d000201800000024
:1009b00000000000e0d10020040000000000000062
:1009c00054ab0020670800000000000090d1002018
:1009d000080000000000000098d000201c0000006b
:1009e0000000000098c90020500100000000000035
:1009f000a8c60020c00000000000000098d1002020
:100a0000080000000000000054d100200c0000008d
:100a10000000000008ce00202c00000000000000b4
:100a2000bbb30020010000000000000034ce002015
:100a30002c00000000000000bdd1002001000000db
:100a40000000000060ce00202c000000000000002c
:100a500044cd00203000000000000000548b002036
:100a6000002000000000000088cc002040000000b2
:100a700000000000a0d100200800000000000000dd
:100a800060d100200c00000000000000a8d1002070
:100a90000800000000000000bed10020020000009d
:100aa00000000000405b002000200000000000006b
:100ab0006cd100200c00000000000000e0d30020fa
:100ac00002000000010000000100000068c70020d3
:100ad000a00000000000000078cd002030000000e1
:100ae00000000000ccd00020180000000000000032
:100af00008cf0020240000000000000034d10020b6
:100b000010000000000000002ccf00202400000096
:100b100000000000b8ce0020280000000000000007
:100b20008cce00202c00000000000000e4d000204b
:100b3000180000000000000048cb0020500000001a
:100b400000000000e0cf00202000000000000000b6
:100b5000a8cd0020300000000000000050cf002091
:100b60002400000000000000c8cc0020400000006d
:100b70000000000000000020405b000000000000ba
:100b800078d100200c0000000000000094c4002078
:100b9000140200000000000074cf00204800000094
:100ba0000000000044d10020100000000000000000
:100bb000e0ce00202800000000000000b0d100209e
:100bc0000800000000000000e4d100200800000040
:100bd0000000000008c80020900000000000000095
:100be00098cb00205000000000000000fcd0002046
:100bf0001400000000000000bccf00202400000012
:100c000000000000fcd10020e00100000100000015
:100c1000000000000000005f000000070007001453
:100c20007f147f14242a7f2a122313086462364912
:100c30005522500005030000001c22410000412203
:100c40001c0014083e081408083e08080050300034
:100c5000000808080808006060000020100804026e
:100c60003e5149453e00427f400042615149462184
:100c700041454b311814127f1027454545393c4af0
:100c80004949300171090503364949493606494940
:100c9000291e003636000000563600000814224196
:100ca00000141414141400412214080201510906fe
:100cb000324979413e7e1111117e7f494949363ec4
:100cc000414141227f4141221c7f494949417f09dd
:100cd0000909013e4149497a7f0808087f00417fa0
:100ce00041002040413f017f081422417f404040a5
:100cf000407f020c027f7f0408107f3e4141413e4d
:100d00007f090909063e4151215e7f09192946469e
:100d10004949493101017f01013f4040403f1f20c7
:100d200040201f3f4038403f631408146307087099
:100d300008076151494543007f4141000204081002
:100d4000200041417f000402010204404040404035
:100d5000000102040020545454787f484444383839
:100d600044444420384444487f3854545418087e3e
:100d70000901020c5252523e7f0804047800447d5f
:100d800040002040443d007f1028440000417f4047
:100d9000007c041804787c080404783844444438ff
:100da0007c14141408081414187c7c0804040848e3
:100db00054545420043f4440203c4040207c1c209c
:100dc00040201c3c4030403c44281028440c5050eb
:100dd000503c4464544c44000836410000007f00fd
:100de000000041360800100808100878464146788f
:100df00000d000202000000000000000d8cd00201e
:100e00003000000000000000e8cb0020500000008f
:100e10000000000010d100201400000000000000bd
:100e200020d000202000000000000000bcb3002003
:100e30004c0800000000000040d00020200000000e
:100e400000000000407b00201410000000000000a3
:100e5000b8d100200500000000000000ecd1002007
:100e60000800000000000000dcd3002004000000a7
:100e70000100000001000000f4d100200400000087
:100e80000000000038cc00205000000000000000ee
:100e9000f8d10020040000000000000084d10020f0
:100ea0000c00000000000000000000000000000036
:020000040000fa
:100eb000f0b59db012930b6814900b934b68119191
:100ec00004938b680d930b691593cb680893136893
:100ed00054680693079406980799002200230cf0a3
:100ee00074f800280dd10b9b5b073ed408230b9aa6
:100ef0001a400c920d9a09920b9a1a4213d0183389
:100f00000ae080200006844606990a000799614499
:100f10000b00069207932d23089a13700d9b013b3b
:100f2000099301230c93079b06995b00c74a5b0852
:100f300000291cd193421ad1089a129b94460c980e
:100f4000413bc3496044192b00d9c2490ef064faf1
:100f500008980df00dfe0b9b0200009308990d9b65
:100f6000149809f0c9fe1db0f0bd2b23d4e79342bd
:100f700002d80cd100290ad0089a129b94460c98ea
:100f8000413bb5496044192be0d9b449dee7002262
:100f90000698079900230cf0c0fe0026b04f0028e9
:100fa00000d120e10023039312980ef012f9c3b28e
:100fb0001093049b002b00daebe1109b0a93672b44
:100fc00012d1049b002b01d10133049365230a93b2
:100fd000039b04331ddb039b049a934219da6623b7
:100fe0000a93039b002b14da049b013304930a9b9e
:100ff000662b0ed1039b002b03da00230026984fab
:101000000393109b672b04d0039a049b944663447c
:101010000493069a079b0e920f93002334003d0021
:10102000139322000e980f992b0008f0d1f908f0c5
:10103000effa8022120694460e9b16901791189391
:101040000f9b63441993189a199b009201932200f5
:101050002b000ef091f880231b06cb1800222900ec
:101060000e900f9320007f4b08f0b2f9139b040001
:1010700001331393139a049b0d009342d1d10022a4
:10108000794b04f0e7f90e9a0f9b04000d000bf06a
:101090007dff002800d0d5e00e9a0f9b200029008c
:1010a0000cf03bfe002806d0169817990cf008fcaf
:1010b000c00700d4c6e00698079922002b0003f071
:1010c000b9fb002206900791664b3000390004f00e
:1010d000c1f9069a079b0e900f910bf0edfd0028c9
:1010e00000d1c7e0039b013303930a9b662b00d01a
:1010f000c2e0049b039d0133049300263700049b48
:101100000c9ceb1a1693169b9d4200d0dee0002f3c
:1011100000d11de10026089b1f190a9b3e70652b1c
:101120002dd1159b5d1e089b5e55039bb34202dad1
:101130005b4203930136039b002b00d011e1159b0a
:10114000eb1a0333002b00dd0be12b236a1e002e6c
:1011500000d002330899023d8b54129b413b192b5e
:1011600001d845230a93089b59190a9b0b70ac427e
:1011700002da38000ef050f9099b023b0993032371
:101180000b9a1340022b00d0e2e6099b002b00dcf7
:10119000dee608980df0ecfc0c9b834200dcf1e0ed
:1011a0001800089b30219c46099a60440df0a6fe69
:1011b00000230d93cce626002f00039b01330393fd
:1011c0000022284b3000390004f044f904000d00df
:1011d00002000b00069807990bf0f7fe0028ead0f2
:1011e0000024012523e00390eae7204b039a9a426a
:1011f00012da002c10d10698079900221c4b04f03b
:1012000029f9002206900791194b3000390004f0ab
:1012100021f92c0006000f0030003900114b00228c
:1012200008f0d6f806000f00039b013b0393320041
:10123000069807993b000bf0c8fe0028d5d1b3e60d
:101240000623c2e60024002535e7c0460000f07ff3
:101250009ce60000a0e60000a4e60000a8e600006e
:101260000000f03f0000244000001440d4feffffc7
:10127000000050430e960f970a9d653d6b1e9d41e1
:10128000039b6d421d4038e7002f0ad1002d08da7c
:101290002e23089a139901345354099b0137013bbb
:1012a0000993321923009446302102e0089ad15460
:1012b00001336345fad1099a3419961b089a3030e4
:1012c000d054731e01340026099320e0119b13941f
:1012d0001b69053ba34200d819e70e9a0f9b06989d
:1012e000079908f075f808f093f9049005910cf04f
:1012f000e7fa092800dd092010230b9a1340034365
:10130000c2d1109b672bbfd1002dbdda01368022e0
:101310000e980f9912069446069b013d1a93079b5f
:1013200063441b931a9a1b9b00920193049a059b9a
:101330000df022ff80231b06cb18069007930e9812
:101340000f990022174b08f043f80e900f91dae640
:101350000b9bdb0600d4dde62e23089a13550134df
:10136000d8e603980a2108f079fd089b3031013d49
:10137000595503980a2108f027fd099b0390013b6a
:101380000993d8e6089b09991a5c5b181a5401382e
:1013900002e7109b672b00d152e70a9306230493c0
:0813a00022e6c04600002440d3
:020000040000fa
:1013a800f0b58fb0141e02d01379002b01d10fb005
:1013b800f0bd170010372e2502ab9c46654402236a
:1013c8002a000221380006f00bf82e88cb490022ab
:1013d800cb4804e0013284310a2a00d120e25301cb
:1013e8009b189b001b5cdb07f4d50b88b342f1d13b
:1013f800c34953019b189b005b5cdb07d7d553019e
:101408009b189b00be4d5d19227902926388bd49e5
:101418008c46634499b20529c9d88b00ba49cb5880
:101428009f460025029b052bc1d10027002d2ed0f9
:10143800237e082b4bd0092bb9d10626ae812a0072
:101448001432200018300733092105f0c9ff2000a5
:10145800203002232a000e32022105f0c1ffeb8959
:101468005bbaeb812e852a00303220002830102309
:10147800092105f0b5ff2000303002232a002a3266
:10148800022105f0adff6b8d5bba6b8548e00bf070
:10149800d3ff051e00d18ae70378012213430370a6
:1014a800022303728680e6235b0143678a235b017c
:1014b800836705237c22835401328354934b1b6832
:1014c80003328350002b00d171e70137b0e70426bf
:1014d800ae812a00103220001830043b082105f0a4
:1014e8007fff2000203002232a000e32022105f05f
:1014f80077ffeb895bbaeb812e852a002c3220001e
:1015080028300423082105f06bff20003030022327
:101518002a002a32022105f063ff6b8d5bba6b85c6
:101528006b78002b03d12b78042213432b70002fe8
:101538004fd02b78db072cd52b7a9c46022b02d078
:10154800eb88fd2b25d16e4a00231000160003e01e
:10155800013384320a2b1cd014009542f8d059016b
:10156800c9188900095cc907f2d55901c918890049
:10157800895d8907ecd5117a6145e9d1ef89d1896f
:101588008f42e5d11378db0707d428000bf094fdd0
:101598000de728000bf090fd09e70022022120004a
:1015a8000cf096fd227860231a402b7860218b433b
:1015b80013432b70637a6b72e388eb80636f6b67fe
:1015c800a36fab677c23e25cea540133e25cea5424
:1015d800ede62b785b0700d4e9e60022032128001a
:1015e8000cf076fde3e62b78602119420ed1029bc0
:1015f800022b00d0dbe62a004632200018305e3984
:1016080005f0eefe280006f031fcd0e61600033a9d
:10161800012a00d9cbe62000183002230e2202a9a5
:101628008c466244032105f0dbfe029b042b1dd08f
:101638000e2302aa944663441a88354bf318db003c
:10164800fb18596828004c3001230093002304f04c
:1016580029f9002800d1aae62a78102313432b7011
:101668000022052128000cf033fda0e620002030e0
:10167800023b06aa032105f0b3fed9e70025002d99
:1016880000d194e62b78602119422bd00392053ab9
:10169800012a00d98be6ab6d002b00d187e6da78fa
:1016a8001b789a4200d182e6237e082b32d0092b80
:1016b80000d07ce606ae033b3380200018300a33a6
:1016c80008aa092105f08cfe2000203002231222ee
:1016d80002a98c466244190005f082fe73885bba41
:1016e80073802de02a0046322000283002235e391c
:1016f80005f076fe280006f0b9fb58e60cbc002081
:1017080008bc002000f2ffff5cd90000ccd100200b
:10171800ffffff1f06ae043b33802000183007aae6
:10172800082105f05dfe200020300223122202a9c4
:101738008c466244190005f053fe73885bba7380c7
:1017480020002830022305aa032105f049fe029b48
:10175800062b1cd005ab1a88039b38498c4663447a
:10176800db00fb18596828004c300123009306abb6
:1017780004f098f8002800d119e62a7810231343ba
:101788002b700022052128000cf0a2fc0fe6200097
:101798003030043b0e2202a98c466244032105f036
:1017a8001ffed7e70025029b012b00d0ffe5002d87
:1017b80000d1fce52b78042293432b707a32ab5a84
:1017c80010210b43ab52f2e50025029b012b00d000
:1017d800ede5002d00d1eae52b78042213432b70a8
:1017e80000236b700022032128000cf071fc0022fa
:1017f800072128000cf06cfcd9e50025029b022b80
:1018080000d0d4e5002d00d1d1e57e22ab5a0821c5
:101818000b43ab527d3a082128000cf059fcc6e571
:1018280022790292638806498c46634499b2052955
:1018380000d9bce58b000349cb589f46ffffff1f2b
:0818480000f2ffff74d900005b
:020000040000fa
:10185000f0b599b012930b68cf680a934b68169055
:101860000e938b680b930b6911931368546806935e
:10187000079406980799002200230bf0a6fb002886
:101880000ed10a9b5b072ed408230a9a0a991a40a4
:1018900005920b9a194213d018333b7013000ce0d9
:1018a00080200006844606990a00079961440b00cf
:1018b000069207932d233b700b9b5a1e0123059321
:1018c000079b06995b005b0800290ed1af48834255
:1018d0000bd1129b059a413bad4cae49b818192b60
:1018e00011d921000fe02b23e5e7a848834202d855
:1018f00018d1002916d0129b059a413ba64ca74946
:10190000b818192bedd80df087fd20000df030f937
:101910000a9b0200009339000b9b169809f0ecf922
:1019200019b0f0bd059b0598591c30233b54129b00
:10193000413b0f930f987823192800d8203b059836
:101940007b540230931e0590099300220698079954
:1019500000230cf0e2f9002800d16de10023904c47
:10196000089302930394182310930e9b002b00db23
:1019700010930026029c039d109b01331793069a37
:10198000079b0c920d930c980d9922002b0007f0e9
:101990001ffd07f03dfe22002b001490159103f06f
:1019a00059fd02000b000c980d990df0f5fb7d4bd5
:1019b0000c900d9100222000290003f04bfd0e9b9e
:1019c00004000d000136002b07da0c980d99002257
:1019d00000230cf0a2f9002804d1179b9e42d2d11b
:1019e000109e01360022200029006f4b03f032fdcb
:1019f00004000d0002000b000c980d990bf0e5faa5
:101a0000002800d01ee10c980d9922002b000cf04c
:101a100084f9002806d0149815990bf051ffc007df
:101a200000d40fe10698079922002b0002f002ff74
:101a300006900791079b069a5b005b08002a03d17a
:101a4000524a934200d144e7119b059a053b1493f7
:101a5000934200d83de1002573421400160017930d
:101a600010950c95029a039b0698079907f0b0fc15
:101a700007f0cefd129013910bf022ff031e00d051
:101a8000e3e00c9a002a00d1dfe00135029a039bc3
:101a90001298139903f0defc02000b0006980799d8
:101aa0000df07afb002206900791029803993d4bb6
:101ab00003f0d0fc0c9b179a013b029003910c930e
:101ac000934203d0149b26009c42cbd3109b002b47
:101ad0001ad1002d00dcfde00e9b002b00dcf9e0ac
:101ae0000a9bdb0700d5f5e02e2230213b191a7046
:101af0002a19ba18597001339342fbd16419ed4386
:101b0000099b0134eb18099300263b191e700293c0
:101b1000119b5d1e089b7e55b34202da5b4208931f
:101b20000136089b002b00d0bce0119beb1a01335f
:101b300000d1b7e02b236a1e002e00d00233bb5425
:101b40000f9a7023023d192a00d8203b79190b7097
:101b5000ac4202da02980df05ffc03230a9a1340ac
:101b6000022b11d1099b9c1e002c0ddd38000cf0be
:101b7000ffff059b984200dba4e0f818220030210b
:101b80000df0bcf900230b933800bfe60000f07f96
:101b9000a0e600009ce60000a8e60000a4e6000025
:101ba0000000f03f0000b03f00002040089b02947e
:101bb000039501330893029a039b1000190002f069
:101bc00039fe04000d0002000b00069807990bf087
:101bd000fcf90028ead0029a039b069807990bf0bb
:101be000f4f9002800d1bee60298039900223d4b8b
:101bf00003f030fc002200230cf08ff800280fd0f7
:101c0000029803990022384b03f024fc0022029032
:101c1000039106980799344b03f01cfc069007913a
:101c2000029803992f4b002203f014fc089b0290aa
:101c30000391013b0893cee700232c4c08900293bc
:101c40000394b8e700240025ece6109a002a0ad194
:101c50000c9a002a07d02e22ba55099a0134013a6b
:101c600009920122109230222e1901e03a550134d6
:101c7000b442fbd11800099a5730551b092b01dcdf
:101c8000303318000f9b192b06d820230343613be8
:101c9000192b01d80df0a4fa6b1e741c0025b85541
:101ca0000993f3e608980a2108f0d8f8013d30318d
:101cb000089879550a2108f087f8099b0890013b9c
:101cc00009932ee7099b3a5c023bfb181a54013832
:101cd0004fe7059c0a9bdb0600d415e72e233b55f6
:101ce000013411e70000e03f000050430000f03fe6
:020000040000fa
:101cf000f0b58db005001400002815d0002a13d0cf
:101d00008768002f10d0518812790592200010307a
:101d1000d14bcb189eb2082e06d8b300cf4ef35845
:101d20009f46059b012b01d00db0f0bd08aa0221f2
:101d300005f05afb99239b00fb5c022b0cd0032b74
:101d40002ed0042bf0d108ab1b78002becd19923bb
:101d50009b000122fa5407e008ab1b78002b14d13a
:101d600099239b000122fa5498239b00fc58002cd5
:101d7000dad09a239b00fb1899229200ba5cac211e
:101d8000890079582800a047cee799239b000322b9
:101d9000fa546033f818313200210df0aff8e3e760
:101da00008ab1b78002bbfd199239b000122fa546a
:101db000dae7059b022bb7d108ad013b2a000221cf
:101dc00005f012fba64bfa1820001830012302215f
:101dd00005f00afb2a78012313409a229200bb5493
:101de000a2e7059b012b9fd19e4b9c4661444b4231
:101df00059414c1c022308aa022105f0f5faad2333
:101e00009b00fe58002e00d18ee708ab1b88ae2247
:101e10009200b958009400222800b04784e7059b3f
:101e2000012b00d080e7013308aa022105f0dcfa7b
:101e3000af239b00fc58002c00d175e70433f95800
:101e400008ab1a88022393429b415b425b000293da
:101e500000230193009300222800a04764e7059b1c
:101e6000012b00d060e708ac01332200022105f00d
:101e7000bbfa23885a4253410233af229200bc5826
:101e8000002c00d150e70432b9580293002301938b
:101e9000009300222800a04746e7053a012a00d90e
:101ea00042e7012308aa022105f09efa200018301b
:101eb0000123192202a98c466244022105f094fafa
:101ec0002000203001231a2202a98c4662440221fc
:101ed00005f08afa00230993059b052b1ad1af233d
:101ee0009b00fe58002e26d00833fb5c002b03d04d
:101ef000b1239b00fb180993e36ab0229200b95802
:101f000001220292628e0192626b009208aa28005e
:101f1000b04710e020003030022307aa022105f06c
:101f200063fa200038300223162202a98c4662444c
:101f3000022105f059fab1239b00f8183422002140
:101f40000cf0dcfff0e6012a00d8ede601231622b2
:101f500002a98c466244022105f046fa02ab9b7d41
:101f60002a2b00d9e0e602ab9b7d9b003e4ad3586a
:101f70009f462000183001233c4aba18032105f07f
:101f800033fa002800d1cfe6b1239b000122fa5496
:101f9000cae6b2239b00fa1820001830042303215c
:101fa00005f022fa0028efd1bee6b5239b00fa180f
:101fb000200018302023052105f016fa002800d152
:101fc000b2e6bd239b000022fa54dde7b3239b0059
:101fd000fa18200018300423032105f005fa002820
:101fe000d2d1a1e69b239b00fa18200018300423cd
:101ff000032105f0f9f997e61d4bfa182000183077
:102000003023052105f0f0f98ee69d239b00fa1898
:10201000200018300223032105f0e6f984e6154b71
:10202000fa18200018300223032105f0ddf97be6c1
:102030009f239b00fa18200018300123032105f08c
:10204000d3f971e69e239b00fa1820001830012373
:102050000a2105f0c9f967e600f8ffff188b0000b8
:1020600069020000fcf7ffff3c8b0000c502000086
:102070007d02000076020000059b032b00d053e692
:10208000bf239b00fb58002b00d14de6e26908926c
:10209000628b0992626a0a92628c0b9208a92800ec
:1020a000984741e69c239b00fa182000183004232f
:1020b000032105f099f937e60d4bfa182000183086
:1020c00001230a2105f090f92ee60a4bfa182000a8
:1020d000183001230a2105f087f925e6064bfa1886
:1020e0002000183001230a2105f07ef91ce6c046c5
:0c20f000790200007a0200007b02000070
:020000040000fa
:1020fc00f0b5de4657464e464546e0b5a7b0041e41
:10210c0000d1d7e10678002e00d1d4e14378012b21
:10211c0000d1d8e1037d012b05d0022b66d05a42a9
:10212c005341deb2c7e1c369002b00d1cde11a687f
:10213c00002a00d1cbe1427d002a00d1c9e1c28a3c
:10214c00002a01d10026b6e1050014359a88033225
:10215c0003218a439a80c3699a88196880200023d6
:10216c00400501f079fb00281cd1e26991888908af
:10217c00e38a5b1ae382637d013bdbb2637511007a
:10218c000831e1619268002a18d0002b00d092e14e
:10219c00a369002b00d0d9610c22002128000cf07f
:1021ac00a7fe88e10c22002128000cf0a1fe0123df
:1021bc00637020000af006fb00267ce1a769002f63
:1021cc0000d178e17b689846002b05d0b8680023d5
:1021dc0000933a002100c0470c22002128000cf08b
:1021ec0087fe3968200007f0e1fc64e1437d002b99
:1021fc0000d170e1c28a002a00d16ee114218c4614
:10220c008444614607918169002941d0a3691d6806
:10221c00ad00e269a3689b1a9d4252d86168891887
:10222c00802000232a00400501f044fc00284fd1f7
:10223c006268e36993469b445b46002b1dd0042dda
:10224c001bd95b7808935b469b7809935b46db78dc
:10225c0098465b461b799946a76c002f05d05b46c8
:10226c001a78e06c00952100b8475b461b785a1e23
:10227c00012a34d9032b00d1fce0a3690433a361f8
:10228c00637d013bdbb2002b00d10de1637512e1e4
:10229c0041688161012b04d80a60637d9b00e36176
:1022ac00b4e74275920080200023400501f002fc47
:1022bc000028f2d00c22002107980cf019fe002601
:1022cc00f9e00c22002107980cf012fe0026f2e037
:1022dc000c22002107980cf00bfe0026ebe0012be2
:1022ec001dd0092dc9d943461b024a461a43130077
:1022fc000a92002269462f2009180a709846b246a5
:10230c00a14606ab6a462f2152181278da774b4653
:10231c00de68002e00d0a3e056464c46ade7062df5
:10232c00e1d8aae706abdb7f013306aad3770835e1
:10233c000134e4b2337ba34200d88ae0ab7940226b
:10234c005b0603d40835ab791a42fbd02f68002ffb
:10235c00eed03b78012be5d0002be8d1fb781b02ab
:10236c003a791a43904553d15b46591c781c042288
:10237c000cf09af90028dad1a0465346b2464c46e6
:10238c001e00089b1b02099a1a4391465b461b7858
:10239c00012b18d00ea90a8043460b727b794b7225
:1023ac003b000833cb60584609f0a4fd53465d68ea
:1023bc00002d00d161e70eab0093032352462100a0
:1023cc009068a84759e77b7908930722594638004b
:1023dc000cf084fd0722aa80aa7920231343ab7149
:1023ec005a4653791b0292791a431f2306a98c462d
:1023fc006344049308370397089b02930a9b019349
:10240c00434600934b465146200004f0cdfd34e783
:10241c0001233b700633ab80ab7920210b43ab71ae
:10242c0079780902bb780b431f2106a884466144c6
:10243c000491390008310391797902910192009449
:10244c0002223100484604f0affd061e00d06ee7b4
:10245c0057e706ab0022da774b46de68002e06d033
:10246c00b569337b0024002b00d067e7f1e75646b3
:10247c004c4602e7602200210ea80cf039fd0ea993
:10248c00584609f037fd250020352700483703e072
:10249c000835af4200d1f0e62b68002bf8d0686805
:1024ac000eaa21009847f3e70c22002107980cf0a4
:1024bc001ffd00e00026300027b0f0bcbb46b24642
:1024cc00a946a046f0bd0026f5e70026f3e7002656
:0e24dc00f1e70026efe70026ede70026ebe72c
:020000040000fa
:0224ea00704739
:020000040000fa
:1024ec00f0b5c64600b5a2b004001d00012b0dd0fe
:1024fc00002c07d02378db0704d5022d0cd0032d3c
:10250c0000d109e122b080bcb846f0bdb84b1868c8
:10251c0011000af09bf8ebe7289b002bf2d05d88aa
:10252c002e00731e9e41f6b2289b1b88b14a94461e
:10253c0063449ab2092ae5d89300af4ad3589f4610
:10254c00237860221a4223d08021a94b18684900b5
:10255c0006f048fd051ed5d0a84b80210094022220
:10256c00490009f09bf8071e05d1a14b29001868fa
:10257c000af06cf8c6e7210007f028ffa04b3900e1
:10258c00186803f0d7ff002808d046230022e25237
:10259c003200002120000bf099fdb3e7944b290089
:1025ac0018680af053f8ade7237a012b05d03200f6
:1025bc00012120000bf08afda4e7e388fd2bf6d067
:1025cc002278042313432370f1e7237a012b99d14a
:1025dc00e388fd2b00d195e7227804231343237065
:1025ec003200032120000bf071fd8be73200062135
:1025fc0020000bf06bfd20000af05cfd82e7289bad
:10260c00587a022800d87de7d9680eaa0af0fef89d
:10261c0000280dd1002d5dd07a4b9c466544adb29f
:10262c00012d60d90122042120000bf04ffd69e738
:10263c0007ae289b5b7a033bdb000eaad018022363
:10264c003200190004f0cafe1a276f44289b5b7aeb
:10265c00023bdb000eaad01802233a00190004f04a
:10266c00bdfe3b8898463688002d29d1237a002759
:10267c00012b14d0200060300021029101910091b7
:10268c000b00320002f052fc6822a35a9b1ba3528f
:10269c00237a012b0ad046444423e652bae7e36e70
:1026ac00bb4201d0df78e5e70027e3e7e16e0029c4
:1026bc00f1d0203aa35cc9785b18db1ba354eae782
:1026cc004423e35a4345a5d100236822a352203a60
:1026dc00a3549fe70022042120000bf0f7fc2000fc
:1026ec0002f086f90ee7200002f082f90ae723785f
:1026fc00db060bd4002d00d004e7237814221a42f9
:10270c0000d1ffe6200005f0affbfbe6320005210f
:10271c0020000bf0dbfcede7289b002b00d1f1e651
:10272c005b88289a157917001037374a934215d0d1
:10273c00364a934200d1b6e00b3a934200d0e1e620
:10274c00012d00d0dee6a388002b00d0dae6221d96
:10275c0002331900380004f041fed3e6022316229e
:10276c006a440221380004f039fe289bd968587a53
:10277c000eaa0af04bf8002800d1c3e602231a2255
:10278c006a44022112a804f029fea28816236b4485
:10279c001b889a4200d0b5e628981830022306aa66
:1027ac00190004f01bfe032d34d84622a35a06a9a7
:1027bc0009885b1aa352002306aa128814496918c7
:1027cc00c900791820004c3001250095496803f0a8
:1027dc0067f8002800d195e65422a35a06a9098867
:1027ec005b1aa35222781023134323708ae6c04647
:1027fc00ccd1002000f2ffff00e10000ed2400002e
:10280c00dcd10020f4f1ffff070e00000b0e0000de
:10281c00ffffff1f289820300223220046321900a8
:10282c0004f0dcfd0023072dc6d1a36d002b00d1d5
:10283c0068e6da781b789a4200d163e63023289a4e
:10284c00d35c082b19d0092b00d05be607ae033bf9
:10285c003380289830300a3309aa092104f0befdd0
:10286c002898383002231e226a44190004f0b6fd61
:10287c0073885bba738033009ee707ae043b3380ea
:10288c001000303008aa082104f0a8fd2898383030
:10289c0002231e226a44190004f0a0fd73885bba5f
:1028ac007380330088e7022d00d02be6012307aaa2
:1028bc000221380004f092fd2898183004230eaa47
:0828cc00022104f08bfd1de662
:020000040000fa
:1028d40070b582b00400431e033300d9c2e1012362
:1028e400c356012b47d019dc5a1c00d1bae1002b86
:1028f40000d0b5e10378002b00d1b3e18368002553
:102904001d710bf0d3fba36898690cf089fd82223a
:10291400d20594230221d1502570a3e1022b00d0cb
:102924009ee18568d04beb5c012b00d126e1032ba3
:1029340000d12de19123eb5c002b00d042e1a36890
:102944009868fff7d9fb002800d08be1082120000c
:102954000cf040fb200007f0f3fca168c1239b00ae
:10296400cb58002b00d15ee179228a5c002a00d189
:1029740051e1002538e18368002b2cd020229a5c99
:10298400002a2bd11b7b002b49d0b849a0680c30fe
:1029940002f076fc002866d0431d00d1c3e0031d7d
:1029a40000d1cae0012800d0dee0a268137d002b2c
:1029b40000d1cae0013b1375a3681a7d002a00d038
:1029c400d2e05a7b002a00d0c5e01a730721200008
:1029d4000cf000fb46e1ff33437043e1d8690cf08f
:1029e40041f8002800d13de1a26820230021d15400
:1029f400a3681b7b002bc8d18222d205a023d35805
:102a04009b071ed498230221d150a1681c31642055
:102a140009f0c6fba26820230121d15422e18222bd
:102a2400d20594230221d150a1681c31642009f0fd
:102a3400b7fba26820230121d15420000cf0cafa6c
:102a440010e109f07ff9002802d1ff23637009e146
:102a5400a36864221a75a368633a5a73022120009a
:102a64000cf0b8fa91e7a368986803210af0c8fc4f
:102a7400032120000cf0aefa7d4a2300002105203a
:102a84000af0c0f9051e02d1ff236370eae00026b4
:102a940000960023002200210bf070fe0121280083
:102aa4000af08ff9002128000cf08cfa002128008c
:102ab40009f05cfd009600230022002128000bf0a1
:102ac4006bfea068290009f0ebfd002802d1ff236a
:102ad4006370c7e0a168012339228b54a1682f32a7
:102ae4008b5401336370912607e00cf0b5fcab5da9
:102af400013bdbb2ab550cf0b3fca568ab5d002b1e
:102b0400f3d10cf034fa002804d1042120000cf095
:102b140061faa7e00cf0a0fc9122ab5c0133ab544a
:102b24000cf09efcf1e7a368f5221a71ff23637091
:102b3400052120000cf04efa94e0a36800221a73d9
:102b4400072120000cf046fa8ce0137307212000c3
:102b54000cf040fa86e0f5221a71ff236370062117
:102b640020000cf037fa7de0a1681c31642009f0e4
:102b740017fba26820230121d15473e007f0e0fb86
:102b8400a06806f0e5fca268374b0221d15469e045
:102b9400013b2b73856800200af072faa860a268d2
:102ba40000231375a2685373a168cd2292008b543d
:102bb400a1682d4a8b5401336370022120000cf06c
:102bc40009fa4fe00cf048fc9122ab5c013bdbb20c
:102bd400ab540cf045fc2749a368986805f078fbd2
:102be400ade60135082d1ed0a2682b01d318ac33f5
:102bf4001b680133f5d02b01d318b6331b78002b97
:102c0400efd02901ac315118c1239b00d3580022c5
:102c140020009847e5e77a228a5c002a03d09c3199
:102c2400002220009847a368986802210af0e8fb74
:102c3400a06806f08dfca36802221a73a568002020
:102c44000af01efaa860a3680a221a75a368002273
:102c54005a7301236370022120000cf0bbf901e0d8
:102c6400ff23637002b070bd350300007989000052
:082c74007d2c000073ef00004d
:020000040000fa
:102c7c0070b582b000280bd08568002d08d0022bcf
:102c8c0008d0032b5fd0012b02d110000af038f9c9
:102c9c0002b070bd069b002bfad01b88069a518897
:102cac00f022520193422ed016d8c02292009342a9
:102cbc0022d0d02252019342ead1c9b2002902d1ca
:102ccc003c230122ea54826868230021d154eb6e24
:102cdc00002bddd09847dbe7842292019342d7d1b9
:102cec007023eb56013312d07023fd22ea546b6f24
:102cfc00002bcdd0002122e0c9b20029c8d1242359
:102d0c000122ea54c4e739230022ea54c0e77823ad
:102d1c00ea5c0023002a0bd084239b01994200d14a
:102d2c0064e1b44b994200d162e14b4259414bb240
:102d3c007022ab546b6f002baad08168703198470e
:102d4c0000236b67a4e7069b002ba1d05b88069a37
:102d5c001279140006981030e82149018b4200d1f9
:102d6c0016e11dd9f02149018b4279d084218901ca
:102d7c008b4200d08ce7012a00d889e72a007132f7
:102d8c000123022104f02afb2a0072320698183023
:102d9c000123022104f022fb7023ff22ea5477e77f
:102dac00c02189008b421ed0d02149018b4200d01a
:102dbc006ee7012a00d86be701ae04233200042130
:102dcc0004f00cfb33880e2b68d00f2b6fd0012b2b
:102ddc0000d05de72a0040320698183003330221f8
:102dec0004f0fcfa54e7022a00d051e76b46dc1cd5
:102dfc0001232200022104f0f1fa23780d2b26d0b6
:102e0c000dd80a2b17d00b2b00d041e72a002a3201
:102e1c00069818300223062104f0e0fa38e70e2b4e
:102e2c0000d035e72a0034320698183004230621e6
:102e3c0004f0d4fa2ce706981830042301aa0221d6
:102e4c0004f0ccfa019b1a0cea842b8520e72a00ab
:102e5c002c32069818300523062104f0bffa17e728
:102e6c00022a00d814e706982030042301aa022174
:102e7c0004f0b4fa019bc022d205934206d05e4afc
:102e8c00934207d038230122ea5401e73823022267
:102e9c00ea54fde638230322ea54f9e62a004432c8
:102eac00069818300123022104f098faf0e6032c5e
:102ebc0000d8ede601ab02229a5e012a00dde7e6be
:102ecc0012014832aa18069818300423022104f083
:102edc0085fa01ae0223f25e12014c32aa18069852
:102eec0020300423022104f079fa0223f25e053229
:102efc001201aa18069828300423022104f06efa55
:102f0c00042c07d80222b35e1b01eb185433ff22aa
:102f1c001a70bde66b46dc1c06983030012322008b
:102f2c00022104f05bfa2378022b1fd00ad8002b65
:102f3c0013d001ab02229b5e1b01eb185433012210
:102f4c001a70a5e6032b1ad101ab02229b5e1b0162
:102f5c00eb18543303221a709ae601ab02229b5ee3
:102f6c001b01eb18543300221a7091e601ab0222bc
:102f7c009b5e1b01eb18543302221a7088e601abde
:102f8c0002229b5e1b01eb185433ff221a707fe662
:102f9c00022a00d07ce601ac01232200022104f0bd
:102fac001dfa2378022b0ed0032b16d0012b00d048
:102fbc006ee6cc239b00ea180698183004230221f5
:102fcc0004f00cfa64e6cb239b00ea180698183040
:102fdc000223190004f002fa5ae6084bea18069884
:102fec0018300223190004f0f9f951e602239fe688
:102ffc0003239de60121000000000f602e0300005a
:020000040000fa
:10300c000023f0b51600b1b0039007910493079d0f
:10301c002b78002b00d1cfe001235b420c9310ab3b
:10302c0000240e9380230b940d940f932b5d002b97
:10303c0001d0252b30d1002c06d02900220003987a
:10304c002d190bf006f80795079b1a78252a00d046
:10305c00a7e001331800002105930793243a037865
:10306c002b2b25d02dd8202b25d0232b26d0002957
:10307c0000d007902a2b2cd009f0f6fd01250d90dd
:10308c000020079a11000b780132303b092b64d9d0
:10309c0000282dd007912be00134c7e701230b99b1
:1030ac000b430b9311000130d9e702230b99f7e77f
:1030bc0004230b99f4e708230b99f1e710230b99e0
:1030cc00eee72d2bead0302befd00029d4d007908f
:1030dc00d2e7336801301a1d1b68079032600d93dc
:1030ec00002b05da01220b995b424a400b920d939f
:1030fc000b9bda0702d5022293430b93079b1a789a
:10310c002e2a0dd100270c975a785d1c07952a2a78
:10311c0025d10233079333681a1d1b6832600c9358
:10312c0007a80af0adfb079d070028780cf04bf8b8
:10313c00252800d1d5e06138172800d9dbe00bf049
:10314c00fffe1fdab63ea6a6a6da3edadadada9c7b
:10315c005e7fdadac6da4edada6e280092e72800f9
:10316c0009f082fd01210c902a0013780135303bc7
:10317c00092b03d9002fd3d00792d1e70f00f3e727
:10318c003200390008a80af0ddfa002800d17be0f3
:10319c006b1c079303982b7808aa0ba9fef752fb1c
:1031ac002418049b1c19a34200dcb0e04f22594b9d
:1031bc001a6001235b420493049831b0f0bd3300d4
:1031cc000122390008a805f057f900285cd0013518
:1031dc00039808aa0ba9079506f0defbe0e733007d
:1031ec000022390008a805f047f900284cd0013519
:1031fc00039808aa0ba9079508f0a7fed0e733009f
:10320c000022390008a805f037f900283cd0013518
:10321c00039808aa0ba9079508f0ccf8c0e733006f
:10322c000022390008a805f027f900282cd06b1cc7
:10323c0007932b78039808aa0ba903f054fbafe76c
:10324c0033000022f02108a805f016f900281bd045
:10325c00089b099a0135079513430cd12e4d280074
:10326c000bf080fc290002000b9b00930d9b039834
:10327c0007f03cfd94e77823dce7049b39001a192e
:10328c0008a8330007f06efd0135079589e7320079
:10329c00390008a80af056fa0028f5d06b1c0793e1
:1032ac0003982b7808aa0ba9fdf7fcfd78e7802f73
:1032bc00ead1336801351a1d1b68326008aa1370f5
:1032cc000123079503980ba909f0fcf868e7802ff8
:1032dc00dad132680135131d33601268002307956b
:1032ec00f0e7802fd0d10b9b0135009301220b49c5
:1032fc000d9b0795bbe7059b0122079300235242c8
:10330c000c9206490b930d9300930232afe7049491
:10331c007de6c046f4d1002094e600009ae6000059
:020000040000fa
:10332c0010b5b14b1a78192a0dd89300af4ad3585f
:10333c009f460bf0abfe0321002004f0cbfaaa4b06
:10334c00586001221a7010bda74b5b68013303d083
:10335c00a54b02221a70f6e7a34b19221a70f2e75a
:10336c00a14ce07b0af0c8fd0bf0d8fe03232370c0
:10337c00e9e79d4b986808f0b5fc01280cd00cf0df
:10338c001bf80028dfd000200cf01cf80bf0cefe50
:10339c00954b18221a70d6e70bf0c8fe924b0422fc
:1033ac001a70d0e70bf0f0fc8f4b05221a70cae7ad
:1033bc008d4ce07b0af0a4fb0bf0b0fe06232370cf
:1033cc00c1e7894b986808f08dfc01280cd00bf0f4
:1033dc00f3ff0028b7d000200bf0f4ff0bf0a6fe93
:1033ec00814b18221a70aee70bf0a0fe7e4b072221
:1033fc001a70a8e70bf0d2fc7b4b08221a70a2e7dc
:10340c00794ce07b01210af0d9fe0bf087fe0923f1
:10341c00237098e7744b986808f064fc01280dd071
:10342c000bf0caff002800d18de700200bf0caff7b
:10343c000bf07cfe6c4b18221a7084e70bf076feb6
:10344c00694b0a221a707ee7674ce07b40210af038
:10345c00ddfe0bf063fe0b23237074e7624b986860
:10346c0008f040fc01280dd00bf0a6ff002800d17d
:10347c0069e700200bf0a6ff0bf058fe5a4b182200
:10348c001a7060e70bf052fe574b0c221a705ae779
:10349c00554b1b7b002b00d155e7534b0d221a705b
:1034ac0051e7514ce07b02210af0c4fe0bf036fed2
:1034bc000e23237047e74c4b986808f013fc012847
:1034cc000dd00bf079ff002800d13ce700200bf069
:1034dc0079ff0bf02bfe444b18221a7033e70bf0dc
:1034ec0025fe414b0f221a702de73f4ce07b0af072
:1034fc0037fb0bf013fe1023237024e73a4b98682c
:10350c0008f0f0fb01280dd00bf056ff002800d17d
:10351c0019e700200bf056ff0bf008fe324b182277
:10352c001a7010e70bf002fe2f4b11221a700ae7eb
:10353c000bf03efc2c4b12221a7004e72c4bdb7b5d
:10354c00012b03d0284b0f221a70fce6264b1322ba
:10355c001a70f8e6244ce07b0af0eafa0bf0defd78
:10356c0014232370efe6204b986808f0bbfb01286e
:10357c000dd00bf021ff002800d1e4e600200bf069
:10358c0021ff0bf0d3fd184b18221a70dbe60bf061
:10359c00cdfd154b15221a70d5e60af023fe124b01
:1035ac0016221a70cfe60af059fe0af06bfe0e4b8b
:1035bc0017221a70c7e60c4b01225a730b321a7081
:1035cc00c1e6094c606807f055fb012363730b33ac
:1035dc002370b8e6044c606807f04cfb012363735e
:1035ec000b332370afe6c04650cf002074b50000fb
:0435fc00a8cd002036
:020000040000fa
:10360000f0b5de4657464e464546e0b587b0050064
:1036100004910392029313ab1e78129b002b35d0ba
:1036200001235b42129a136008f03afe041e2dd06b
:10363000012e10d0022e15d0082e13d0029b002b85
:1036400024d0039b002b21d0119b002b1ed0109b5c
:10365000002b0dd11ae0119b002b17d0109b002bd3
:1036600006d113e0029b002b10d0039b002b0dd042
:1036700023689a461b0152469b1a9b00774a98463c
:103680009044404606f034ff002806d107b0f0bc55
:10369000bb46b246a946a046f0bd21686f4a0b0161
:1036a0005b1a9b00d218536a126a9446002a0bd008
:1036b00000220800614684461f001878002807d0c1
:1036c00001322c339142f7d1404607f0a3f9dde7f0
:1036d000614601301870002005939862206800064a
:1036e000030c99465d480b015b1a9b009b465844ae
:1036f0008446808d00044b461843ff231a40104334
:1037000038626346988d013080b2554a904230d07d
:10371000524a0b01591a890052189085059b002bbb
:10372000d2d0049b7b80109b7b60119bbb60039b72
:10373000fb60029b3b61bd6100232422bb54233a02
:103740003a777b753e753b6a129a136043469b6ad3
:10375000002b10d0414b524612015146521a920092
:103760009b189b6a002b54d09a6a002a50d01300f1
:10377000f8e70120cce743469f62384b52461201de
:103780005146521a92009b185a6963699a420cd0aa
:1037900020001430314d0b015b1a9b00ed18eb68d3
:1037a0005b690021984763696b6102233b77012eb7
:1037b00033d0022e41d07b683a69f9687888274c6b
:1037c00055462d015646ad1bad006419e468bd6831
:1037d0000095a468a04700281bd101235b42129ae0
:1037e00013601e4b524612015146521a92009b180a
:1037f000db681b6998472423f854fb5c5a1e9341ed
:103800005b4201221a437a7540460bf019fa00e038
:103810009f62404607f0fef838e7ba687968788812
:103820000e4b544624015546641ba4001b19db684b
:103830001b6898470028ecd1cfe73a69f968788887
:10384000064b544624015546641ba4001b19db6833
:103850005b6898470028dcd1bfe7c04608cd002050
:04386000ffff000066
:020000040000fa
:10386400f0b5de4657464e464546e0b593b08b4626
:103874000292914a1268002a00d103e10ea90122a2
:1038840052420e920f920a818a72040e70210c40e9
:103894009b00dfb2c3039b0f9a46c609f6b24000f1
:1038a400c3b205936b3911200aab9c4660440bf0fc
:1038b400f7fd01231843c3b206933d005746802306
:1038c4009b00029a9a4234d9520a92b2f93bff3bc6
:1038d40001218946490288460ea8752141703b435f
:1038e4002b432343f5390b438370c670d305db0f99
:1038f40005990b4303714271069b83716e4b1b68e0
:103904000b220aa99847002800d1bde00aab1a7a15
:1039140012025b7a134300d0cbe04a46002a11d04e
:10392400fc22d2b20492a14607970896aa460993ac
:1039340056e0029a93b29846d205d20d0023002194
:103944008946c9e7fe22ece70eacfe2363704246cb
:10395400594612200aab9c4660440bf0c3fa434616
:10396400e31800229a70da704346da1d524b1b6842
:103974000aa920009847002800d187e0019a130083
:103984000aa98c4663441b791f251d400395951d88
:103994004b5d002b16d164242f006744464e3368d8
:1039a4000122390000209847002871d0013c0aab5d
:1039b4005b5d002b04d1002cf1d1039b99464de0b3
:1039c400002c52d0039b052b4dd1019b9c46e34414
:1039d400029ad31a1a00029380239b009a4247d377
:1039e40043460193042bafd90ea8049b4370324b7a
:1039f4001b6802220021984700284bd02e4b1b68dd
:103a0400019a002158469847002845d00eab002261
:103a14005a719a71284b1b6805320aa915200c00ab
:103a24008c4660449847002838d0a3781f251d4051
:103a340003952379002bc5d164241f4e33680122da
:103a44000ba90020984700282ad0013c0aab1b7917
:103a5400002bb5d1002cf1d1039b9946ff20000225
:103a64004d4605431de09946f8e7039b9946f5e763
:103a74004c46079f089e5546099b002a00d01ee726
:103a84001d000ee0ff250ce0ff250ae0ff2508e0fd
:103a9400ff2506e0ff2504e0ff2502e0ff2500e006
:103aa400ff25280013b0f0bcbb46b246a946a04689
:0c3ab400f0bd1d00f5e7c046c8d10020a1
:020000040000fa
:103ac000f0b5de4657464e464546e0b58db005009a
:103ad000894616009b46824b1b68002b00d1ede007
:103ae00008aa01235b4208930993138193728023f0
:103af0005b059d425bd080239b009e427ad9720a6f
:103b000092b2f93bff3b80218900884608ac7521c1
:103b10006170594689000b43280e702101400b4308
:103b2000e903890f0b43a370eb09e370d305db0fa7
:103b300069000b43237162710521192002ab9c4679
:103b400060440bf0affc01231843a071644b1b6869
:103b50000b2204a920009847002800d1b0e004aa55
:103b6000137a1b02507a184300d0ace013005d4a70
:103b70001a809a705a4f2b0045460196984604ab1e
:103b80009b78002b44d1642604ac3b6801220a21b7
:103b900002a88446614400209847002800d191e0a3
:103ba000013ea378002b2bd1002eeed12ae002abf0
:103bb000da1d00214c4806f099fa002808d102ab22
:103bc00007331b78db0707d4002e90d100207ae062
:103bd000464b184380b276e002abd91d01230b702f
:103be0000022414806f082fa002884d03f4b184357
:103bf00080b268e0b3b29846f205d20d002385e7a3
:103c0000002e05dc04ab9878ff231b0218435ae012
:103c100004ab9b78db0718d56424314b04aeaa466d
:103c20001d002b6801220a2102a88446614400205d
:103c3000984700284ed0013cb378db0702d5002c12
:103c4000efd1dfe75546002cdcd004ab9b78fe2b90
:103c5000d8d1042d1dd8ea1c214b1b6804a90020d3
:103c60009847002838d004ac2a00210048460bf0c1
:103c70003bf963199b78a370a944019b5b1b1a0055
:103c8000019380239b009a4200d378e745461600b3
:103c90009ae7134b1b682a004946002098470028e2
:103ca0001cd00f4b1b68032204a91f2002aca446a2
:103cb000604498470028dfd1ff2004e0ff2002e0a5
:103cc000ff2000e0ff200db0f0bcbb46b246a94685
:103cd000a046f0bdff20f6e7ff20f4e7ff20f2e763
:103ce000c8d10020ffffff000800001000ffffff09
:020000040000fa
:103cf00010b582b07b4b1a780e2a0bd893007a4a03
:103d0000d3589f460321002003f0f2fc754b586006
:103d100001221a7002b010bd724b5b68013303d0f0
:103d2000704b02221a70f5e76e4b0e221a70f1e703
:103d3000002300222021002009f0a0fe0bf0f4f95e
:103d4000684b03221a70e5e7664b986808f060fe3e
:103d500001280cd00bf036fb0028dbd000200bf044
:103d600037fb0bf0e9f95f4b0d221a70d2e70bf02d
:103d7000e3f95c4b04221a70cce75a4b1b7b002bf7
:103d8000c8d0584b05221a70c4e761231322402182
:103d9000272009f08bfe0bf0c7f9524b06221a7050
:103da000b8e7504b986808f033fe01280cd00bf0b0
:103db00009fb0028aed000200bf00afb0bf0bcf989
:103dc000484b0d221a70a5e70bf0b6f9454b0722b8
:103dd0001a709fe7e623ae222521282009f07efef7
:103de0000bf0a2f93f4b08221a7093e73d4b9868fd
:103df00008f00efe01280dd00bf0e4fa002800d1e7
:103e000088e700200bf0e4fa0bf096f9354b0d2211
:103e10001a707fe70bf090f9324b09221a7079e79c
:103e2000f4230093d93b00220021012009f0ccfbb0
:103e30000bf07af92b4b0a221a706be7294b986822
:103e400008f0e6fd01280dd00bf0bcfa002800d1e7
:103e500060e700200bf0bcfa0bf06ef9214b0d224d
:103e60001a7057e70bf068f91e4b04221a7051e7dd
:103e7000f4230093d93b01220021012009f0a4fb87
:103e80000bf052f9174b0c221a7043e7154b986848
:103e900008f0befd01280dd00bf094fa002800d1e7
:103ea00038e700200bf094fa0bf046f90d4b0d2289
:103eb0001a702fe70bf040f90a4b04221a7029e719
:103ec000084c606804f0f0fc012363730333237033
:103ed00020e7044c606804f0e7fc012363730333bc
:0c3ee000237017e748cb0020a0d20000a0
:020000040000fa
:103eec00f0b5c64600b588461e001509754c764bd4
:103efc009c466544ad006519ef790388591c018017
:103f0c00e3180533ff331f70ef880388591c0180b9
:103f1c00e3180533ff331f706f683f0a0388591c81
:103f2c000180e3180533ff331f706d6803885f1c35
:103f3c000780e3180533ff331d700f231a406249c5
:103f4c008c4662449200a218d7790588691c0180be
:103f5c0065190535ff352f70d7880588691c0180d8
:103f6c0065190535ff352f7057683f0a0588691ca0
:103f7c00018065190535ff352f7055680288571c6f
:103f8c000780a2180532ff321570424612094e49bd
:103f9c008c4662449200a218d7790588691c01806e
:103fac0065190535ff352f70d7880588691c018088
:103fbc0065190535ff352f7057683f0a0588691c50
:103fcc00018065190535ff352f7055680288571c1f
:103fdc000780a2180532ff321570414619403a4a43
:103fec009446614489006118cd790288571c07807a
:103ffc00a2180532ff321570cd880288571c078035
:10400c00a2180532ff3215704d682d0a0288571c14
:10401c000780a2180532ff32157049680288551cba
:10402c000580a2180532ff321170320962449200e9
:10403c00a218d57901884f1c078061180531ff3112
:10404c000d70d58801884f1c078061180531ff3130
:10405c000d7055682d0a01884f1c078061180531b9
:10406c00ff310d7051680288551c0580a21805326d
:10407c00ff321170334063449b00e318d9790288f6
:10408c00551c0580a2180532ff321170d9880288a0
:10409c00551c0580a2180532ff3211705968090aa7
:1040ac000288551c0580a2180532ff3211705a681f
:1040bc000388591c0180e4180534ff34227080bc3d
:0c40cc00b846f0bdbcb3002002020000aa
:020000040000fa
:1040d800f0b587b005001400002814d0002a12d0cb
:1040e800538812798668002e0dd0200010306e4952
:1040f8008c46634499b2042905d88b006b49cb5888
:104108009f46022a01d007b0f0bd6b469f1c0223d0
:104118003a00022103f064f9aa23f25a3b889a4232
:10412800f1d1ae68d1239b00f358002bebd0237e4e
:10413800082b0cd0092be6d1628b102ae3d801abef
:1041480002211970e16902a80af0cafe09e0628b2f
:10415800042ad8d801ab01211970e16902a80af034
:10416800bffed8239b00f1561c3bf45801ab02223a
:104178002800a047c7e7012ac5d17a23f35c002ba2
:10418800c1d06b469c1c02232200022103f028f9af
:10419800aa23f25a23889a42b5d198230022f254ce
:1041a8001e3bf25c023a53425a41524202239a435e
:1041b800033278330021f154c1239b00f358002bbc
:1041c800a1d031009c31280098479ce7032a00d0f1
:1041d80099e77a23f35c022b00d194e77a23013a1a
:1041e800f2542233f6500c330022f254a63b32002c
:1041f800aa32022103f0f4f83200a032200018306d
:1042080006230b2103f0ecf832009832200020300e
:104218000123022103f0e4f8a6230122f254c1236a
:104228009b00f358002b00d16de731009c3101321f
:104238002800984767e7012a00d064e77a23f35cef
:10424800012b00d05fe779330022f254c1239b0091
:10425800f358002b00d156e731009c310332280077
:10426800984750e7012a00d04de77a23f35c022be8
:1042780000d048e76b469c1c02232200022103f071
:10428800aff8aa23f25a23889a4200d03be7c12309
:104298009b00f358002b00d135e731009c310422f4
:1042a800280098472fe7c04600ecffff68ec0000a5
:020000040000fa
:1042b800f0b5de4657464e464546e0b583b00400a5
:1042c8000e000191904600930d9b002b29d00123ed
:1042d8005b420d9a136008f007f8051e21d043468b
:1042e800002b25d0002e23d02b88994674234a46cc
:1042f8005343624a9b5c002b07d0614b74224946aa
:104308004a439b181b6ea3420bd174234a465a4357
:1043180093465b4b5b449a46180004f02dff002837
:104328000dd103b0f0bcbb46b246a946a046f0bdcd
:104338000c9b002bf5d0009b002bd5d1f1e72a88e8
:104348004f4974235343c9188e69cb6ec869002836
:104358000fd0002194468342bf413b40df00ff1845
:10436800bf00f219f75d002f07d0013101338142f8
:10437800f1d1504605f05dfad3e7170062460121f6
:104388003970002139623e48743151434018818c9c
:1043980009042e7836023143ff261e403143f96165
:1043a800808c013080b23749884231d03449742634
:1043b80072438a1890840133d366002fd9d0009baa
:1043c8007b60019bbb6001237b7500233b75bc614f
:1043d800ab69002b07d0082b1cd843465b009846d6
:1043e8000c9b5b000c934346fb600c9b3b61fb6999
:1043f8000d9a136053461b6a002b12d0224b5a4663
:104408009b58002b31d01a6a002a2dd01300f8e7e8
:104418000120cbe743469b0098460c9b9b000c93de
:10442800e1e753461f6202237b75380004f0d0f998
:10443800134b742249464a439b18db6a013306d062
:104448000f4b74224a439b181b6b013311d13b69f4
:104458007a68f968b8680a4c74254e467543641939
:1044680064696468a04700e01f62504605f0e1f9fe
:1044780057e7380000f034fef7e7c04688c9002047
:0c44880024c90020ffff000044c90020f0
:020000040000fa
:1044940070b56b4b1a780c2a06d89300694ad35826
:1044a4009f46674b01221a7070bd654b1b7a002b27
:1044b400fad0634b02221a70f6e7802080040af0d7
:1044c400e5fb002803d15e4b03221a70ece7802041
:1044d40080040af09dfe5a4b0c221a70e4e709f09e
:1044e4005ffc400703d1564b04221a70dce709f045
:1044f40057fcc0434007f6d0514b0c221a70d3e747
:1045040001200af0c3fb002803d14d4b07221a7087
:10451400cae701200af07cfe494b05221a70c3e762
:1045240000200af025f8002803d1454b07221a7011
:10453400bae700200af01cf8414b187306221a70df
:10454400b2e73f4c257bea005219d2003e4b9c4611
:104554006444002120000af0cffc2200290000203e
:1045640003f048fe002803d1354b0c221a709be758
:104574003649374bcc18207b482206f0c3ff07236b
:10458400237091e710200af081fb002803d12c4b03
:104594000a221a7088e710200af03afe284b0822f3
:1045a4001a7081e7012009f0e3ff002803d1244bae
:1045b4000a221a7078e7012009f0daff204b5873b9
:1045c40009221a7070e71e4c657bea005219d2006a
:1045d400204b9c466444002120000af08dfc2200fc
:1045e4002900012003f006fe002803d1144b0c22fd
:1045f4001a7059e71849194bcc18607b482206f009
:1046040081ff0a2323704fe7012007f05dfa0c4b6a
:104614000b221a7048e70a4b5968012006f038f952
:10462400002803d1064b0c221a703de7044b0122eb
:104634005a721a7038e7024b01225a721a7033e721
:1046440000000020f0d700000e0900000e09002031
:10465400f2f6ffff0e1b00000e1b0020f2e4ffff2a
:020000040000fa
:1046640010b5714b1a78132a0dd893006f4ad3589a
:104674009f4609f033fe0321002003f02ff96a4b13
:10468400586001221a7010bd674b5b68013303d078
:10469400654b04221a70f6e7634b13221a70f2e793
:1046a400614ce07b09f090fa0af03cfd052323708d
:1046b400e9e75d4b986807f019fb01280cd00af074
:1046c4007ffe0028dfd000200af080fe0af032fdd1
:1046d400554b12221a70d6e70af02cfd524b0622d3
:1046e4001a70d0e70af012fa4f4b07221a70cae781
:1046f4004d4ce07b09f080fa0af014fd0823237086
:10470400c1e7494b986807f0f1fa01280cd00af088
:1047140057fe0028b7d000200af058fe0af00afd20
:10472400414b12221a70aee70af004fd3e4b0922f7
:104734001a70a8e70af0f6f93b4b0a221a70a2e7ae
:10474400394ce07b012109f0f1fb0af0ebfc0b236f
:10475400237098e7344b986807f0c8fa01280dd005
:104764000af02efe002800d18de700200af02efe6c
:104774000af0e0fc2c4b12221a7084e70af0dafcef
:10478400294b0c221a707ee7274b1b7b002b00d190
:1047940079e7254b0d221a7075e7234ce07b09f06d
:1047a400fbf90af0bffc0e2323706ce71e4b9868dc
:1047b40007f09cfa01280dd00af002fe002800d16f
:1047c40061e700200af002fe0af0b4fc164b122244
:1047d4001a7058e70af0aefc134b0f221a7052e716
:1047e4000af088f9104b10221a704ce707f002fd0a
:1047f4000d4b11221a7046e70b4b01225a730b32f0
:104804001a7040e7084c606806f038fa01236373b5
:104814000b33237037e7044c606806f02ffa01234a
:1048240063730b3323702ee7e0ce002080c40000b6
:020000040000fa
:10483400f0b40125ed070f005f405ad48b4200d13c
:10484400824205d950404240504059404b40594063
:104854004e18760ddf187f0d3bd0741c640529d0eb
:10486400f41b352c26d80e0ddb022b43db0ac902c0
:104874002943c9121700202c1ed2e741e2405740b9
:10488400e3415a40a340e3405a4000248018594170
:104894000ad3b21c520521d0c207012f624117006e
:1048a4004008cb0718434908013636054208af4192
:1048b40060417141f0bc7047203c06d01f00e741c5
:1048c400e3405f400024012a6741c0186141ebd3f3
:1048d400dfe7002eeed129400020ebe70136310559
:1048e4000020e7e7e742e5d10020c143090dc904f0
:1048f400e0e76b400e00871a9e4104d26e40c01b55
:10490400b141d21973414e18df18ac0ae642e9d21c
:10491400760d7f0d31d0f41b362ccbd8b4460e0d5a
:10492400db022b43db0ac9022943c90a012c32d812
:1049340004d1d4075208df073a435b08ef0a644204
:10494400904199411ed0002239424dd12419404151
:1049540049410124394204d1013400184941394202
:10496400fad06246a24204d9361b013e36058919a3
:10497400a0e7f10ac90700209ce736429ad100203b
:10498400002197e70200224394d0b842ded201000e
:1049940020002024e3d1202c13dd203ce241170029
:1049a400a240e2405740e3415a40a340e3405a400a
:1049b400012fbf410137174300227c4298419141a6
:1049c4000ce01700e741e2405740e3415a40a3405e
:1049d400e3405a407c429041994100220f0303d2a4
:1049e400013e241940414941013e36054708ac4186
:0849f40050417141f0bc704715
:020000040000fa
:1049fc00f0b5d6464f464646c0b588b0041e00d129
:104a0c00c1e0037a012b09d0038d042b30d0002692
:104a1c00062b00d0b8e0b421c9002ae0c16ecb78d7
:104a2c00002b00d1b7e04822825c981a934200d147
:104a3c00b3e048260ce0ad1aedb26a018a189288f0
:104a4c00002a0dd10133a355431e00280ed01800a7
:104a5c00a35d8d785d19edb20a78aa42edd8eae72c
:104a6c006b01c9180b8c98464f8c1ee001268be00d
:104a7c004c496823e25a063be75ad719bfb20233b6
:104a8c00e35a9b1a9bb26622a25aba4201d8bf1aa9
:104a9c00bfb2081c994200d9181c83b29846d31b8c
:104aac000025984501dd9bb2984601264346002b14
:104abc006ad007934646a0363b4b1868310004f089
:104acc0091fa8146002800d169e0384b009401220c
:104adc00310006f0e3fd8246002836d04423e05a2c
:104aec002433e35ac01880b2237a012b39d1e36ef8
:104afc006d015a19918804292ed00c355b1910219f
:104b0c008c460925a188079e0596266ff6190496f2
:104b1c00039040460290d08840ba80b20190624621
:104b2c0000922a00504603f013fd214b18685146a1
:104b3c0001f000fd061e20d06822a35a4344a35264
:104b4c00203aa35c0133a3541ee0174b1868494666
:104b5c0007f07cfd002617e008355b198c4608250c
:104b6c00d0e7a188079b0193236fdb190093030007
:104b7c004246504604f0c2ffd7e70b4b1868494633
:104b8c0007f064fd00e00026300008b0e0bcba4637
:104b9c00b146a846f0bd0026f6e70026f4e700264d
:104bac00f2e7c046b4050000ccd10020ed24000093
:044bbc00dcd1002028
:020000040000fa
:104bc00070b56d4b9b7d002b19d06c4b9c6a6a4b6a
:104bd0005b8b9b0714d5694b2022ff21995401322e
:104be000fd399954654b20229b5c5bb2013300d1a7
:104bf0008fe0624b20229b5c062b00d1a2e070bdaf
:104c00005d4b5b8bdb0707d55c4b2022ff21995462
:104c10000132fd399954e5e7574b5b8b5b0707d5ac
:104c2000564b2022ff2199540132fe399954d9e77d
:104c3000524b20229b5c5ab2032b49d0042a13d03a
:104c4000022acfd14d4b1b69002b06d04b4b9888c5
:104c500080b2002107f052fac4e7484b988880b22e
:104c6000012107f04bfabde7444a936912699a4261
:104c70000dd0424a9268d05c3f4928228854591c82
:104c80003d4ad369002bfcd13c4b9961aae73b4bd1
:104c90005b69002b0ed0394b9b885b0001221343cc
:104ca000354a5362d369002bfcd1344b20220321b7
:104cb000995497e7304a5168c0239b020b435360d5
:104cc000d369002bfcd12d4b20220621995489e772
:104cd0002a4bd9695b69013b8b420cd0264ad369c8
:104ce000002bfcd1254bda68234d2820285c50543a
:104cf0000131d96176e7204a5068e023db020343a3
:104d00005360d369002bfcd11c4b20220620985401
:104d1000e4e71a4b00219954174a5168c0239b02bb
:104d20000b435360d369002bfcd1134b83221a76bb
:104d3000124b5b6a002b00d161e7104b5b6a2000cd
:104d400098475ce70d4b002220215a5401315a54f8
:104d5000094b83321a761900533a4b8b1340102bb0
:104d6000fbd1064b5b6a002b00d148e7034b5b6a23
:104d70002000984743e7c046000c004208ce0020c0
:020000040000fa
:104d800010b56a4b1a78102a0dd89300684ad35888
:104d90009f460af0a9f90321002002f0a1fd634b10
:104da000586001221a7010bd604b5b68013303d05c
:104db0005e4b02221a70f6e75c4b10221a70f2e783
:104dc0005a4ca07b08f08cfc0af0aef90323237048
:104dd000e9e7564b986806f08bff01280cd00af0e3
:104de000f1fa0028dfd000200af0f2fa0af0a4f964
:104df0004e4b0f221a70d6e70af09ef94b4b082251
:104e00001a70d0e707f022fa484b05221a70cae759
:104e1000464b1b7b002bc6d0444b06221a70c2e7c0
:104e2000424ca07b09f0b0f80af07ef9072323700a
:104e3000b9e73e4b986806f05bff01280cd00af0fa
:104e4000c1fa0028afd000200af0c2fa0af074f9c3
:104e5000364b0f221a70a6e70af06ef9334b082280
:104e60001a70a0e70af070f9304b09221a709ae71d
:104e70000af0b4fa002896d000200af0b5fa0af039
:104e80006bf92a4b0a221a708de7284ca07b08f098
:104e9000effb0af049f90b23237084e7234b986852
:104ea00006f026ff01280dd00af08cfa002800d168
:104eb00079e700200af08cfa0af03ef91b4b0f222a
:104ec0001a7070e70af038f9184b0c221a706ae76a
:104ed00008f0eafb154b0d221a7064e7154ce088c8
:104ee00009f0f7fb2062608807f04afda08808f00f
:104ef000e5fe0e4b0e221a7055e70c4b01225a7339
:104f000004321a704fe7094c606805f0b9fe0123be
:104f100063730433237046e7044c606805f0b0fe09
:104f200001236373043323703de7c046e8cb0020c0
:084f300030cc0000d8cd0020b8
:020000040000fa
:104f3800f0b5de4657464e464546e0b583b0070015
:104f4800894614000ca904c909788a46002800d1aa
:104f5800bbe0c168002943d0c878002851d08878c0
:104f680045014d19ad88002d18d140010818bd889c
:104f7800008c281ab88000207880c8780138c8705a
:104f8800f868817801318170f9688d7808788542f0
:104f98003fd0f968c978002900d19de0002b01d0e5
:104fa800002a39d1fa6893785b01d3181e8c002344
:104fb8000193a64202d3331b019326005346002bcc
:104fc80014d1d378013bd370fa6893780133937086
:104fd800fb6899781a78914208d100229a7005e006
:104fe8008688a64200d92600002301937c88bb88c6
:104ff8009846002e62d000239b463b0047469846c1
:1050080016e00e9b002b64d000230e9a13609b467b
:105018004ce000208870bce7f968887840010430cb
:105028000918180009f05cffbce7ab44761b1cd0dc
:105038004346dd882d1bb54200d935004b46002b71
:1050480007d04346196909192a00484609f048ff5c
:10505800a944abb2ff1abfb21c19a4b24346db88fd
:10506800a342e2d8e41aa4b2dfe74346b8461f00d9
:10507800019b002b0bd09bb21c19a4b24246d31a39
:105088009bb29846fb88a34201d8e41aa4b25346bf
:10509800002b02d17c804346bb800e9b002b05d0a1
:1050a800fb68002b0dd00e9b019a1a60584603b07e
:1050b800f0bcbb46b246a946a046f0bd00239b46bd
:1050c800d6e7bb880e9a1360f0e701235b429b4644
:0e50d800ece700239b46e9e700239b46e6e752
:020000040000fa
:0250e600704711
:020000040000fa
:1050e800f0b5c64600b5040082696049130aff207e
:1050f800034074267343cb18104082001218d20064
:10510800db68d718d55a6e43891900224a648a6425
:105118002269e3689a4258d354498919d21a4a64d1
:105128005349524e74236b43f618f06ac0b22200fa
:1051380009f056ff4f49306bc0b2220009f050ff0a
:10514800bb69002b48d0082b53d880277f00474ed7
:1051580074236b43f618306b390009f037faf06a9c
:10516800390009f033fa2369002b51d13f4b7426db
:1051780037006f4398464744386b0022002109f0f6
:105188002ff9bb6c0022ba646e43403632004244a9
:10519800b96b386bc0b204f0b5f8e368002b49d19d
:1051a800324c74336b43e418e06a0022002109f0a2
:1051b80017f9636c00226264626b2f49e06ac0b21f
:1051c80004f0a0f880bcb846f0bd284974206843b4
:1051d80009189b1a8b64a3e7244e74336b43f618a3
:1051e800306b002109f0f2f9f06a002109f0eef9bc
:1051f800b9e78027bf001d4e74236b43f618306b48
:10520800390009f0e3f9f06a390009f0dff9aae793
:105218008022164e74236b43f618306b120100215e
:1052280009f0def823696268b16b306bc0b204f034
:1052380069f8b2e780210d4e74236b43f618f06ac3
:105248000022c90009f0ccf8b36c002b0bd02369fd
:10525800064874226a438018426ba168c06ac0b2cb
:1052680004f050f8aee7e368f2e7c04624c900202e
:0c527800adbf0000e95f000074cd002015
:020000040000fa
:1052840070b582b005006b460022da710126002851
:1052940002d100266b46dd1d5b4b19605b4c2fe091
:1052a400002002b070bd6b469a1d0021062004f058
:1052b4001bff01282ad002232b7007f0cffa03002a
:1052c4000138c0b2fd2800d980e0012b31d103237d
:1052d4002b706946002005f0d5f901282ed104234e
:1052e4002b700023009380206946800305f0caf9df
:1052f400012828d8009b002b2adb0220002ed0d1c5
:105304002b78062b64d89b00e3589f466b469b7909
:10531400082213436a46937100226b46991d053097
:1053240004f0e2fe0128c6d001232b70062040427f
:10533400b7e701232b7005204042b2e701232b700d
:1053440004204042ade701232b7004204042a8e72b
:1053540001232b7006f052fe00283cd12c4c2d4e1c
:10536400210001c9002204f0bffe002836d1083410
:10537400b442f5d180206b469a1d0021400004f010
:10538400b3fe00283cd16b4606331b787f2b28d90b
:105394006b469a1d0021032004f0a6fe002823d1a9
:1053a4006b4606331b789b0721d56b469a1d00215b
:1053b400043004f099fe00281cd16b4606331b7898
:1053c400db439b0719d106232b706ae7012095e77d
:1053d4000220404265e70320404262e70320404246
:1053e4005fe7032040425ce70320404259e7032083
:1053f400404256e70320404253e70320404250e72f
:10540400032040424de7c046c8d10020b8e7000061
:08541400e0c3000030c40000f9
:020000040000fa
:10541c0008d1002806d1f54204d801d3002a01d1c5
:10542c006d0d09d10020c143090dc904f0bdf9d19e
:10543c001242f7d1640df5d00020c143490549084b
:10544c00a6e000206146f0bdf0b50127ff070e0075
:10545c005e403e40b446be0a4c18dd18f442d7d22a
:10546c00f542e4d2640decd06d0dead06419c9029a
:10547c003943460dc0023143db023b43db0a10b417
:10548c008e4685b297b26f43140c6c433e0ca41934
:10549c00260c2404bfb227439cb26c43a419190cec
:1054ac006943250ca4b249190d04090c6419000cac
:1054bc0095b245433e0c76193743bfb2360c150cea
:1054cc004543ad19a6b2240cad192e0437432e0c4e
:1054dc0036199db24543ad19acb22e0c89191d0c71
:1054ec0045436d182e04290c3443704680b295b296
:1054fc0045433e0c76193743bfb2360c150c454369
:10550c00ad19a6b2ad19240c2e0437432e0c361946
:10551c009db24543ad19acb22e0c89191d0c4543f7
:10552c006d182e043443290c75462d0c90b268432b
:10553c003e0c80190604bfb23e43070ca0b23f18c4
:10554c00120c6a43d019020c80b2240ca4189ab223
:10555c006a43121914042043120c89181b0c6b4358
:10556c00c91810bc01273d05294203d1b619404189
:10557c004941013cff077d0d013d641b0bdb6d00b8
:10558c00ac4209da240500254208be41684161415c
:0a559c0066463143f0bd54e74ee7c8
:020000040000fa
:0255a600fee71e
:020000040000fa
:1055a800584b5a6852031b68db0c13439b029b0a37
:1055b800554a936300235375110004228b691a42dc
:1055c800fcd151491022cb681a42fcd04e4a137db7
:1055d80080210b4313754d4b4d4a9a8200229a61e4
:1055e80004321a614b4b4c4a1a62190004224b6868
:1055f8001a42fcd1474a88234021d1501000483133
:10560800402243581a42fcd0424a8c234021d150b0
:1056180010004c31402243581a42fcd03d4a902396
:105628004021d15010005031402243581a42fcd03a
:10563800384ac8234021d1501000883140224358ad
:105648001a42fcd0334acc234021d15010008c316f
:10565800402243581a42fcd02e4ad0234021d15030
:1056680010009031402243581a42fcd0294ad423d2
:105678004021d15010009431402243581a42fcd0a6
:10568800244ad8234021d150100098314022435851
:105698001a42fcd01f4adc234021d15010009c3113
:1056a800402243581a42fcd01a4ae8234021d150dc
:1056b8001000a831402243581a42fcd0154af02362
:1056c8004021d1501000b031402243581a42fcd03a
:1056d800104a88235b004021d15010001900402255
:1056e80043581a42fcd00b4a8c235b004021d1500e
:1056f80010001900402243581a42fcd0074b084ab0
:10570800da617047206080000010004000140040fb
:1057180096050000001c004006010100000800403a
:045728007e021208e3
:020000040000fa
:10572c0010b55b4b1a780c2a0bd89300594ad358f6
:10573c009f460321002002f0affa554b586001221e
:10574c001a7010bd524b5b68013303d0504b0a22c8
:10575c001a70f6e74e4b0c221a70f2e74c4b1b7b7f
:10576c00002beed04a4b02221a70eae74a4808f0a6
:10577c0053f809f0d3fc464b03221a70e1e7444b73
:10578c00986806f0d7fd01280cd009f015fe00280a
:10579c00d7d0002009f016fe09f0c8fc3c4b0b22b8
:1057ac001a70cee709f0c2fc394b04221a70c8e714
:1057bc0009f084f909f0b2fc354b05221a70c0e7e8
:1057cc00334b986806f0b6fd01280cd009f0f4fdb7
:1057dc000028b6d0002009f0f5fd09f0a7fc2c4bf1
:1057ec000b221a70ade709f0a1fc294b06221a70a6
:1057fc00a7e7274b842189005a5c9818dc7b04743a
:10580c0001325a5407221a709be7214bdb7b0a2b7f
:10581c0003d01f4b04221a7093e71d4b1f495a5c8f
:10582c0001325a5408221a708be7194b1b4a9b5ca5
:10583c00022b03d0164b04221a7082e7144b002261
:10584c00842189005a5415495a5409321a7078e740
:10585c0007f03efd002803d10d4b0c221a7070e7a7
:10586c000b4b00229a730a321a706ae7084c606874
:10587c0004f0c2fe012363730933237061e7044c07
:10588c00606804f0b9fe012363730933237058e791
:10589c0094c4002058d80000c48d000011020000f0
:020000040000fa
:1058ac00f0b5ce4600b582b004000f00160001938f
:1058bc0008ab1a78002800d1a4e0002900d1a3e09d
:1058cc00002e00d1a2e0c5888388eb1ab34200d227
:1058dc00a1e0c368002b00d18be0002a3bd14188aa
:1058ec0000888146814236d8281a864233d9100066
:1058fc00b14200d28be0d97802311878844610007e
:10590c00614500d383e05a785201043298181c2266
:10591c00002109f0edfae2684b46eb1a9bb2517884
:10592c00490152181384e2682088517849015218b1
:10593c005084e168ca780132ca70e1684a78013251
:10594c004a70e2685078117888422ed0a2889b1851
:10595c00a38000232380e068c27803789a425cd04d
:10596c000199002924d043785b010433c0181c2210
:10597c0009f0b4fae3685a7852019b181e84e36864
:10598c0021885a7852019b185984e268d3780133e4
:10599c00d370e268537801335370e36859781a78fe
:1059ac00914226d100225a7023e000215170cde79c
:1059bc0043785b010433c0181c22002109f098facb
