:020000040000fa
:10000000f0ff0020954e00009b550000775800003f
:1000100000000000000000000000000000000000e0
:100020000000000000000000000000004f4b000036
:1000300000000000000000004f4b0000018c000099
:10004000759b00004f4b000031840000d56d00000f
:10005000758c00004f4b00004f4b0000d163000037
:100060004f4b00006d9b0000659b0000e1280000e5
:10007000413600004f4b00004f4b00004f4b00003b
:100080004f4b00004f4b00004f4b00004f4b000008
:100090004f4b00004f4b00004f4b00004f4b0000f8
:1000a0004f4b0000498a00004f4b00004f4b0000af
:1000b0004f4b00004f4b00004f4b00004f4b0000d8
:020000040000fa
:1000c000f8b5c046f8bc08bc9e4670476978000089
:1000d000f8b5c046f8bc08bc9e46704741780000a1
:020000040000fa
:0800e0002846000001000000a9
:020000040000fa
:1000e80010b5c74b1a783a2a0dd89300c54ad35889
:1000f8009f4609f077fb0321002004f039f8c04b34
:10010800586001221a7010bdbd4b5b68013303d0e3
:10011800bb4b02221a70f6e7b94b3a221a70f2e783
:10012800b74ce07bae2108f0e7fa09f07bfb03232c
:100138002370e8e7b24b986807f01af801280cd04a
:1001480009f0befc0028ded0002009f0bffc09f051
:1001580071fbab4b39221a70d5e709f06bfba84b42
:1001680004221a70cfe7a64ce07bd52108f0c4fa28
:1001780009f058fb05232370c5e7a14b986806f0e2
:10018800f7ff01280cd009f09bfc0028bbd0002009
:1001980009f09cfc09f04efb994b39221a70b2e722
:1001a80009f048fb964b06221a70ace7944ce07baa
:1001b800802108f0a1fa09f035fb07232370a2e794
:1001c8008f4b986806f0d4ff01280cd009f078fc12
:1001d800002898d0002009f079fc09f02bfb884b07
:1001e80039221a708fe709f025fb854b08221a700f
:1001f80089e7834ce07ba82108f07efa09f012fb1e
:10020800092323707fe77e4b986806f0b1ff012829
:100218000dd009f055fc002800d174e7002009f042
:1002280055fc09f007fb764b39221a706be709f089
:1002380001fb734b0a221a7065e7714ce07b3f2182
:1002480008f05afa09f0eefa0b2323705be76c4bbf
:10025800986806f08dff01280dd009f031fc0028c0
:1002680000d150e7002009f031fc09f0e3fa644bb3
:1002780039221a7047e709f0ddfa614b0c221a702f
:1002880041e75f4ce07bd32108f036fa09f0cafa5f
:100298000d23237037e75a4b986806f069ff012849
:1002a8000dd009f00dfc002800d12ce7002009f042
:1002b8000dfc09f0bffa524b39221a7023e709f0f6
:1002c800b9fa4f4b0e221a701de74d4ce07b002106
:1002d80008f012fa09f0a6fa0f23237013e7484b27
:1002e800986806f045ff01280dd009f0e9fb0028c1
:1002f80000d108e7002009f0e9fb09f09bfa404b20
:1003080039221a70ffe609f095fa3d4b10221a704f
:10031800f9e63b4ce07b402108f0eef909f082fa5f
:1003280011232370efe6364b986806f021ff012869
:100338000dd009f0c5fb002800d1e4e6002009f043
:10034800c5fb09f077fa2e4b39221a70dbe609f063
:1003580071fa2b4b12221a70d5e6294ce07b8d21bd
:1003680008f0caf909f05efa13232370cbe6244b90
:10037800986806f0fdfe01280dd009f0a1fb0028c1
:1003880000d1c0e6002009f0a1fb09f053fa1c4b8c
:1003980039221a70b7e609f04dfa194b14221a706f
:1003a800b1e6174ce07b142108f0a6f909f03afaf7
:1003b80015232370a7e6124b986806f0d9fe01288a
:1003c8000dd009f07dfb002800d19ce6002009f043
:1003d8007dfb09f02ffa0a4b39221a7093e609f0cf
:1003e80029fa074b16221a708de6054ce07b20216e
:1003f80008f082f909f016fa1723237083e6c0463d
:10040800fca6002050440000d74b986806f0b0fec8
:1004180001280dd009f054fb002800d173e6002014
:1004280009f054fb09f006facf4b39221a706ae634
:1004380009f000facc4b18221a7064e6ca4ce07b2b
:10044800002108f059f909f0edf9192323705ae64b
:10045800c54b986806f08cfe01280dd009f030fbda
:10046800002800d14fe6002009f030fb09f0e2f93e
:10047800bd4b39221a7046e609f0dcf9ba4b1a224c
:100488001a7040e6b84ce07ba12108f035f909f074
:10049800c9f91b23237036e6b34b986806f068fe4b
:1004a80001280dd009f00cfb002800d12be6002014
:1004b80009f00cfb09f0bef9ab4b39221a7022e6a1
:1004c80009f0b8f9a84b1c221a701ce6a64ce07b70
:1004d800c82108f011f909f0a5f91d23237012e6c7
:1004e800a14b986806f044fe01280dd009f0e8faff
:1004f800002800d107e6002009f0e8fa09f09af987
:10050800994b39221a70fee509f094f9964b1e2290
:100518001a70f8e5944ce07bda2108f0edf809f060
:1005280081f91f232370eee58f4b986806f020feb3
:1005380001280dd009f0c4fa002800d1e3e5002015
:1005480009f0c4fa09f076f9874b39221a70dae50e
:1005580009f070f9844b20221a70d4e5824ce07bb4
:10056800022108f0c9f809f05df921232370cae5d2
:100578007d4b986806f0fcfd01280dd009f0a0fa23
:10058800002800d1bfe5002009f0a0fa09f052f9cf
:10059800754b39221a70b6e509f04cf9724b2222d4
:1005a8001a70b0e5704ce07b812108f0a5f809f0dd
:1005b80039f923232370a6e56b4b986806f0d8fd1c
:1005c80001280dd009f07cfa002800d19be5002015
:1005d80009f07cfa09f02ef9634b39221a7092e57a
:1005e80009f028f9604b24221a708ce55e4ce07bf8
:1005f8008f2108f081f809f015f92523237082e589
:10060800594b986806f0b4fd01280dd009f058fa46
:10061800002800d177e5002009f058fa09f00af916
:10062800514b39221a706ee509f004f94e4b262217
:100638001a7068e54c4ce07bd92108f05df809f0a8
:10064800f1f8272323705ee5474b986806f090fd84
:1006580001280dd009f034fa002800d153e5002014
:1006680009f034fa09f0e6f83f4b39221a704ae5e6
:1006780009f0e0f83c4b28221a7044e53a4ce07b3c
:10068800f12108f039f809f0cdf8292323703ae56b
:10069800354b986806f06cfd01280dd009f010fa6a
:1006a800002800d12fe5002009f010fa09f0c2f85f
:1006b8002d4b39221a7026e509f0bcf82a4b2a225c
:1006c8001a7020e5284ce07bdb2108f015f809f0ca
:1006d800a9f82b23237016e5234b986806f048fdec
:1006e80001280dd009f0ecf9002800d10be5002015
:1006f80009f0ecf909f09ef81b4b39221a7002e553
:1007080009f098f8184b2c221a70fce4164ce07b80
:10071800402107f0f1ff09f085f82d232370f2e45a
:10072800114b986806f024fd01280dd009f0c8f98e
:10073800002800d1e7e4002009f0c8f909f07af8a8
:10074800094b39221a70dee409f074f8064b2e22a0
:100758001a70d8e4044ce07ba42107f0cdff09f01f
:1007680061f82f232370cee4fca60020604b986824
:1007780006f0fefc01280dd009f0a2f9002800d1ee
:10078800c1e4002009f0a2f909f054f8584b3922c5
:100798001a70b8e409f04ef8554b30221a70b2e4da
:1007a800534ce07ba62107f0a7ff09f03bf8312363
:1007b8002370a8e44e4b986806f0dafc01280dd0a7
:1007c80009f07ef9002800d19de4002009f07ef9a7
:1007d80009f030f8464b39221a7094e409f02af8e7
:1007e800434b32221a708ee4414ce07b2e2107f0f5
:1007f80083ff09f017f83323237084e43c4b98688f
:1008080006f0b6fc01280dd009f05af9002800d1ed
:1008180079e4002009f05af909f00cf8344b392230
:100828001a7070e409f006f8314b34221a706ae441
:100838002f4ce07baf2107f05fff08f0f3ff352373
:10084800237060e42a4b986806f092fc01280dd0ca
:1008580009f036f9002800d155e4002009f036f9ee
:1008680008f0e8ff224b39221a704ce408f0e2ff46
:100878001f4b36221a7046e41e491d4ce07b08f0d7
:100888008bfc08f0cfff372323703ce4184b9868a3
:1008980006f06efc01280dd009f012f9002800d1ed
:1008a80031e4002009f012f908f0c4ff104b392296
:1008b8001a7028e408f0beff0d4b38221a7022e4a3
:1008c8000b4b1b7b1fe40a4c606805f0bbfd012342
:1008d800637337332370fff716fc054c606805f027
:1008e800b1fd0123637337332370fff70cfcc04657
:0808f800fca6002024500000c2
:020000040000fa
:10090000f0b59db012930b6814900b934b68119146
:1009100004938b680d930b691593cb680893136848
:10092000546806930794069807990022002307f05d
:100930000afa00280dd10b9b5b073ed408230b9ac3
:100940001a400c920d9a09920b9a1a4213d018333e
:100950000ae080200006844606990a00079961444f
:100960000b00069207932d23089a13700d9b013bf1
:10097000099301230c93079b06995b00c74a5b0808
:1009800000291cd193421ad1089a129b94460c98c4
:10099000413bc3496044192b00d9c24909f0c4f84e
:1009a000089808f0c7fc0b9b0200009308990d9b68
:1009b000149805f087fd1db0f0bd2b23d4e79342ba
:1009c00002d80cd100290ad0089a129b94460c98a0
:1009d000413bb5496044192be0d9b449dee7002218
:1009e00006980799002307f0bbfe0026b04f0028a9
:1009f00000d120e100230393129808f073ffc3b2e3
:100a00001093049b002b00daebe1109b0a93672bf9
:100a100012d1049b002b01d10133049365230a9367
:100a2000039b04331ddb039b049a934219da66236c
:100a30000a93039b002b14da049b013304930a9b53
:100a4000662b0ed1039b002b03da00230026984f60
:100a50000393109b672b04d0039a049b9446634432
:100a60000493069a079b0e920f93002334003d00d7
:100a7000139322000e980f992b0004f0cdfc04f084
:100a80008dfd8022120694460e9b169017911893a6
:100a90000f9b63441993189a199b009201932200ab
:100aa0002b0008f0ebfe80231b06cb180022290048
:100ab0000e900f9320007f4b04f0aefc139b0400bc
:100ac00001331393139a049b0d009342d1d100225a
:100ad000794b02f0cff80e9a0f9b04000d0007f03f
:100ae00013f9002800d0d5e00e9a0f9b20002900b2
:100af00007f036fe002806d01698179907f07efcfe
:100b0000c00700d4c6e00698079922002b0001f028
:100b100003fe002206900791664b3000390002f078
:100b2000a9f8069a079b0e900f9107f007f8002886
:100b300000d1c7e0039b013303930a9b662b00d0cf
:100b4000c2e0049b039d0133049300263700049bfd
:100b50000c9ceb1a1693169b9d4200d0dee0002ff2
:100b600000d11de10026089b1f190a9b3e70652bd2
:100b70002dd1159b5d1e089b5e55039bb34202da87
:100b80005b4203930136039b002b00d011e1159bc0
:100b9000eb1a0333002b00dd0be12b236a1e002e22
:100ba00000d002330899023d8b54129b413b192b14
:100bb00001d845230a93089b59190a9b0b70ac4234
:100bc00002da380008f0b0ff099b023b09930323c7
:100bd0000b9a1340022b00d0e2e6099b002b00dcad
:100be000dee6089808f0a6fb0c9b834200dcf1e0ef
:100bf0001800089b30219c46099a604408f040fd8b
:100c000000230d93cce626002f00039b01330393b2
:100c10000022284b3000390002f02cf804000d00af
:100c200002000b000698079907f08df80028ead01b
:100c30000024012523e00390eae7204b039a9a421f
:100c400012da002c10d10698079900221c4b02f0f2
:100c500011f8002206900791194b3000390002f07c
:100c600009f82c0006000f0030003900114b00225b
:100c700004f0d2fb06000f00039b013b03933200fc
:100c8000069807993b0007f05ef80028d5d1b3e637
:100c90000623c2e60024002535e7c0460000f07fa9
:100ca000548f0000588f00005c8f0000608f0000a0
:100cb0000000f03f0000244000001440d4feffff7d
:100cc000000050430e960f970a9d653d6b1e9d4197
:100cd000039b6d421d4038e7002f0ad1002d08da32
:100ce0002e23089a139901345354099b0137013b71
:100cf0000993321923009446302102e0089ad15416
:100d000001336345fad1099a3419961b089a303099
:100d1000d054731e01340026099320e0119b1394d4
:100d20001b69053ba34200d819e70e9a0f9b069852
:100d3000079904f071fb04f031fc0490059107f071
:100d40005dfb092800dd092010230b9a13400343a3
:100d5000c2d1109b672bbfd1002dbdda0136802296
:100d60000e980f9912069446069b013d1a93079b15
:100d700063441b931a9a1b9b00920193049a059b50
:100d800008f07cfd80231b06cb18069007930e9875
:100d90000f990022174b04f03ffb0e900f91dae6fb
:100da0000b9bdb0600d4dde62e23089a1355013495
:100db000d8e603980a2104f059fe089b3031013d22
:100dc000595503980a2104f007fe099b0390013b43
:100dd0000993d8e6089b09991a5c5b181a540138e4
:100de00002e7109b672b00d152e70a930623049376
:080df00022e6c0460000244089
:020000040000fa
:100df8007ca700201c0000000000000060a4002068
:100e08003c00000000000000cca40020040000000a
:100e1800000000002ca10020d40000000000000009
:100e280058a80020080000000000000098a7002033
:100e38001c0000000000000000a20020f0000000dc
:100e4800000000003c9f0020c000000000000000df
:100e580060a80020080000000000000028a800206a
:100e68000c0000000000000030a500202c0000004d
:100e7800000000003a9f0020010000000000000070
:100e88005ca500202c000000000000009ca40020ad
:100e98003000000000000000407b0020002000001f
:100ea80000000000e0a30020400000000000000057
:100eb80068a8002010000000000000003b9f0020f0
:100ec800010000000000000085a8002001000000cb
:100ed80000000000405b002000200000000000002f
:100ee80034a800200c0000000000000086a80020a4
:100ef800020000000100000001000000fc9f00202b
:100f0800a000000000000000d0a400203000000075
:100f180000000000cca70020140000000000000022
:100f280004a60020240000000000000008a80020fb
:100f3800100000000000000028a600202400000087
:100f480000000000b4a500202800000000000000f8
:100f580088a500202c00000000000000b4a7002095
:100f6800180000000000000080a800200500000014
:100f780000000000f0a20020500000000000000067
:100f8800dca60020200000000000000000a50020d2
:100f980030000000000000004ca6002024000000e3
:100fa8000000000020a40020400000000000000015
:100fb80000000020405b00000000000040a8002066
:100fc8000c00000000000000409b002014020000fc
:100fd8000000000070a6002048000000000000008b
:100fe80018a800201000000000000000dca5002068
:100ff800280000000000000078a800200800000079
:101008000000000088a80020080000000000000080
:101018009ca00020900000000000000040a30020d9
:101028005000000000000000e0a7002014000000ad
:1010380000000000b8a60020240000000000000006
:101048009ca80020e0010000010000000000000052
:101058000000005f00000007000700147f147f14e1
:10106800242a7f2a12231308646236495522500025
:1010780005030000001c2241000041221c00140846
:101088003e081408083e0808005030000008080808
:101098000808006060000020100804023e5149451d
:1010a8003e00427f400042615149462141454b3153
:1010b8001814127f1027454545393c4a49493001e3
:1010c800710905033649494936064949291e00363a
:1010d800360000005636000008142241001414148b
:1010e80014140041221408020151090632497941b9
:1010f8003e7e1111117e7f494949363e41414122c8
:101108007f4141221c7f494949417f090909013e24
:101118004149497a7f0808087f00417f4100204003
:10112800413f017f081422417f404040407f020c2c
:10113800027f7f0408107f3e4141413e7f09090933
:10114800063e4151215e7f091929464649494931e0
:1011580001017f01013f4040403f1f2040201f3fc9
:101168004038403f6314081463070870080761514a
:10117800494543007f4141000204081020004141d5
:101188007f00040201020440404040400001020484
:101198000020545454787f48444438384444442008
:1011a800384444487f3854545418087e0901020cc6
:1011b8005252523e7f0804047800447d400020408b
:1011c800443d007f1028440000417f40007c041803
:1011d80004787c0804047838444444387c14141493
:1011e80008081414187c7c08040408485454542033
:1011f800043f4440203c4040207c1c2040201c3cb4
:101208004030403c44281028440c5050503c446422
:10121800544c44000836410000007f00000041366d
:10122800080010080810087846414678fca60020f7
:101238004000000000000000f4a700201400000097
:10124800000000003ca70020200000000000000073
:10125800549d0020e6010000000000005ca700206b
:1012680020000000000000004ca800200c00000036
:101278000000000090a8002004000000000000000a
:1012880090a30020500000000000000094a8002057
:10129800080000000000000000000000000000003e
:020000040000fa
:1012a800f0b599b012930b68cf680a934b68169003
:1012b8000e938b680b930b6911931368546806930c
:1012c8000794069807990022002306f038fd0028a5
:1012d8000ed10a9b5b072ed408230a9a0a991a4052
:1012e80005920b9a194213d018333b7013000ce087
:1012f80080200006844606990a00079961440b007d
:10130800069207932d233b700b9b5a1e01230593ce
:10131800079b06995b005b0800290ed1af48834202
:101328000bd1129b059a413bad4cae49b818192b0d
:1013380011d921000fe02b23e5e7a848834202d802
:1013480018d1002916d0129b059a413ba64ca749f3
:10135800b818192bedd808f0e3fb200007f0e6ffda
:101368000a9b0200009339000b9b169805f0a6f81b
:1013780019b0f0bd059b0598591c30233b54129bae
:10138800413b0f930f987823192800d8203b0598e4
:101398007b540230931e0590099300220698079902
:1013a800002307f0d9f9002800d16de10023904c03
:1013b800089302930394182310930e9b002b00dbd1
:1013c80010930026029c039d109b01331793069ae5
:1013d800079b0c920d930c980d9922002b0004f09a
:1013e80017f804f0d7f822002b001490159101f09b
:1013f8003dfc02000b000c980d9908f04bfa7d4b50
:101408000c900d9100222000290001f02ffc0e9b6a
:1014180004000d000136002b07da0c980d99002204
:10142800002307f099f9002804d1179b9e42d2d1d6
:10143800109e01360022200029006f4b01f016fc97
:1014480004000d0002000b000c980d9906f077fcc3
:10145800002800d01ee10c980d9922002b0007f0ff
:101468007bf9002806d01498159906f0c3ffc00729
:1014780000d40fe10698079922002b0001f048f9e3
:1014880006900791079b069a5b005b08002a03d128
:10149800524a934200d144e7119b059a053b1493a5
:1014a800934200d83de100257342140016001793bb
:1014b80010950c95029a039b0698079903f0a8ffcc
:1014c80004f068f81290139106f094ff031e00d000
:1014d800e3e00c9a002a00d1dfe00135029a039b71
:1014e8001298139901f0c2fb02000b0006980799a5
:1014f80008f0d0f9002206900791029803993d4b15
:1015080001f0b4fb0c9b179a013b029003910c93da
:10151800934203d0149b26009c42cbd3109b002bf4
:101528001ad1002d00dcfde00e9b002b00dcf9e059
:101538000a9bdb0700d5f5e02e2230213b191a70f3
:101548002a19ba18597001339342fbd16419ed4333
:10155800099b0134eb18099300263b191e7002936e
:10156800119b5d1e089b7e55b34202da5b420893cd
:101578000136089b002b00d0bce0119beb1a01330d
:1015880000d1b7e02b236a1e002e00d00233bb54d3
:101598000f9a7023023d192a00d8203b79190b7045
:1015a800ac4202da029808f0bbfa03230a9a134005
:1015b800022b11d1099b9c1e002c0ddd380007f071
:1015c800b5fe059b984200dba4e0f8182200302104
:1015d80008f052f800230b933800bfe60000f07fb4
:1015e800588f0000548f0000608f00005c8f00004f
:1015f8000000f03f0000b03f00002040089b02942c
:10160800039501330893029a039b1000190001f017
:101618007ff804000d0002000b000698079906f0f9
:101628008efb0028ead0029a039b0698079906f0d9
:1016380086fb002800d1bee60298039900223d4ba4
:1016480001f014fb0022002307f086f800280fd0d1
:10165800029803990022384b01f008fb00220290ff
:10166800039106980799344b01f000fb0690079107
:10167800029803992f4b002201f0f8fa089b029078
:101688000391013b0893cee700232c4c089002936a
:101698000394b8e700240025ece6109a002a0ad142
:1016a8000c9a002a07d02e22ba55099a0134013a19
:1016b80009920122109230222e1901e03a55013484
:1016c800b442fbd11800099a5730551b092b01dc8d
:1016d800303318000f9b192b06d820230343613b96
:1016e800192b01d808f001f96b1e741c0025b85598
:1016f8000993f3e608980a2104f0b4f9013d303162
:10170800089879550a2104f063f9099b0890013b70
:1017180009932ee7099b3a5c023bfb181a540138df
:101728004fe7059c0a9bdb0600d415e72e233b55a3
:10173800013411e70000e03f000050430000f03f93
:020000040000fa
:101748000023f0b51600b1b0039007910493079dec
:101758002b78002b00d1cfe001235b420c9310ab18
:1017680000240e9380230b940d940f932b5d002b74
:1017780001d0252b30d1002c06d029002200039857
:101788002d1907f033f90795079b1a78252a00d0f9
:10179800a7e001331800002105930793243a037842
:1017a8002b2b25d02dd8202b25d0232b26d0002934
:1017b80000d007902a2b2cd006f09af901250d901d
:1017c8000020079a11000b780132303b092b64d9ad
:1017d80000282dd007912be00134c7e701230b998e
:1017e8000b430b9311000130d9e702230b99f7e75c
:1017f80004230b99f4e708230b99f1e710230b99bd
:10180800eee72d2bead0302befd00029d4d007906b
:10181800d2e7336801301a1d1b68079032600d93b8
:10182800002b05da01220b995b424a400b920d937b
:101838000b9bda0702d5022293430b93079b1a7876
:101848002e2a0dd100270c975a785d1c07952a2a55
:1018580025d10233079333681a1d1b6832600c9335
:1018680007a806f0adfd079d0700287808f036f8b0
:10187800252800d1d5e06138172800d9dbe007f02a
:1018880023ff1fdab63ea6a6a6da3edadadada9c33
:101898005e7fdadac6da4edada6e280092e72800d6
:1018a80006f026f901210c902a0013780135303b07
:1018b800092b03d9002fd3d00792d1e70f00f3e704
:1018c8003200390008a806f0ddfc002800d17be0d2
:1018d8006b1c079303982b7808aa0ba9fff7e0fc69
:1018e8002418049b1c19a34200dcb0e04f22594b7a
:1018f8001a6001235b420493049831b0f0bd3300b1
:101908000122390008a803f0b3f800285cd001359b
:10191800039808aa0ba9079503f04fffe0e73300e7
:101928000022390008a803f0a3f800284cd001359c
:10193800039808aa0ba9079505f0f6fcd0e7330031
:101948000022390008a803f093f800283cd001359c
:10195800039808aa0ba9079505f030f8c0e73300eb
:101968000022390008a803f083f800282cd06b1c4b
:1019780007932b78039808aa0ba902f04ef8afe753
:1019880033000022f02108a803f072f800281bd0c9
:10199800089b099a0135079513430cd12e4d280051
:1019a80007f0c4fc290002000b9b00930d9b0398d1
:1019b80004f084fd94e77823dce7049b39001a19c6
:1019c80008a8330004f0b6fd0135079589e7320011
:1019d800390008a806f056fc0028f5d06b1c0793c0
:1019e80003982b7808aa0ba9fef786ff78e7802fc3
:1019f800ead1336801351a1d1b68326008aa1370d2
:101a08000123079503980ba905f07cfe68e7802f52
:101a1800dad132680135131d336012680023079547
:101a2800f0e7802fd0d10b9b0135009301220b49a1
:101a38000d9b0795bbe7059b0122079300235242a4
:101a48000c9206490b930d9300930232afe704946e
:101a58007de6c04698a800204c8f0000528f0000f9
:020000040000fa
:101a680010b5b14b1a78192a0dd89300af4ad3583c
:101a78009f4607f097fe0321002002f079fbaa4b4e
:101a8800586001221a7010bda74b5b68013303d060
:101a9800a54b02221a70f6e7a34b19221a70f2e737
:101aa800a14ce07b06f020ff07f0bcfe0323237067
:101ab800e9e79d4b986805f05bfb01280cd007f01f
:101ac800ffff0028dfd0002008f000f807f0b2fe82
:101ad800954b18221a70d6e707f0acfe924b0422f9
:101ae8001a70d0e707f000fd8f4b05221a70cae77d
:101af8008d4ce07b06f058fd07f094fe062323701a
:101b0800c1e7894b986805f033fb01280cd007f032
:101b1800d7ff0028b7d0002007f0d8ff07f08afecb
:101b2800814b18221a70aee707f084fe7e4b07221d
:101b38001a70a8e707f0e2fc7b4b08221a70a2e7ac
:101b4800794ce07b012106f0b7ff07f06bfe092313
:101b5800237098e7744b986805f00afb01280dd0ac
:101b680007f0aeff002800d18de7002007f0aeff98
:101b780007f060fe6c4b18221a7084e707f05afed3
:101b8800694b0a221a707ee7674ce07b402106f019
:101b9800bbff07f047fe0b23237074e7624b98687e
:101ba80005f0e6fa01280dd007f08aff002800d1d9
:101bb80069e7002007f08aff07f03cfe5a4b18221d
:101bc8001a7060e707f036fe574b0c221a705ae776
:101bd800554b1b7b002b00d155e7534b0d221a7038
:101be80051e7514ce07b022106f0a2ff07f01afef4
:101bf8000e23237047e74c4b986805f0b9fa012883
:101c08000dd007f05dff002800d13ce7002007f069
:101c18005dff07f00ffe444b18221a7033e707f0f8
:101c280009fe414b0f221a702de73f4ce07b06f06e
:101c3800ebfc07f0f7fd1023237024e73a4b986874
:101c480005f096fa01280dd007f03aff002800d1d8
:101c580019e7002007f03aff07f0ecfd324b182295
:101c68001a7010e707f0e6fd2f4b11221a700ae7e9
:101c780007f04efc2c4b12221a7004e72c4bdb7b2e
:101c8800012b03d0284b0f221a70fce6264b132297
:101c98001a70f8e6244ce07b06f09efc07f0c2fdc3
:101ca80014232370efe6204b986805f061fa0128a9
:101cb8000dd007f005ff002800d1e4e6002007f06a
:101cc80005ff07f0b7fd184b18221a70dbe607f07e
:101cd800b1fd154b15221a70d5e606f001ff124b1f
:101ce80016221a70cfe606f037ff06f049ff0e4bb2
:101cf80017221a70c7e60c4b01225a730b321a705e
:101d0800c1e6094c606804f09dfb012363730b3343
:101d18002370b8e6044c606804f094fb01236373f5
:101d28000b332370afe6c0464ca60020786b00004a
:041d380000a50020e2
:020000040000fa
:101d3c00f0b5de4657464e464546e0b587b0050041
:101d4c0004910392029313ab1e78129b002b35d097
:101d5c0001235b42129a136005f0e2fb041e2dd0a6
:101d6c00012e10d0022e15d0082e13d0029b002b62
:101d7c0024d0039b002b21d0119b002b1ed0109b39
:101d8c00002b0dd11ae0119b002b17d0109b002bb0
:101d9c0006d113e0029b002b10d0039b002b0dd01f
:101dac0023689a461b0152469b1a9b00774a984619
:101dbc009044404604f0bcf8002806d107b0f0bcb3
:101dcc00bb46b246a946a046f0bd21686f4a0b013e
:101ddc005b1a9b00d218536a126a9446002a0bd0e5
:101dec0000220800614684461f001878002807d09e
:101dfc0001322c339142f7d1404604f067fadde70b
:101e0c006146013018700020059398622068000626
:101e1c00030c99465d480b015b1a9b009b4658448a
:101e2c008446808d00044b461843ff231a40104310
:101e3c0038626346988d013080b2554a904230d05a
:101e4c00524a0b01591a890052189085059b002b98
:101e5c00d2d0049b7b80109b7b60119bbb60039b4f
:101e6c00fb60029b3b61bd6100232422bb54233adf
:101e7c003a777b753e753b6a129a136043469b6ab0
:101e8c00002b10d0414b524612015146521a92006f
:101e9c009b189b6a002b54d09a6a002a50d01300ce
:101eac00f8e70120cce743469f62384b52461201bb
:101ebc005146521a92009b185a6963699a420cd087
:101ecc0020001430314d0b015b1a9b00ed18eb68b0
:101edc005b690021984763696b6102233b77012e94
:101eec0033d0022e41d07b683a69f9687888274c48
:101efc0055462d015646ad1bad006419e468bd680e
:101f0c000095a468a04700281bd101235b42129abc
:101f1c0013601e4b524612015146521a92009b18e6
:101f2c00db681b6998472423f854fb5c5a1e9341c9
:101f3c005b4201221a437a75404607f047fa00e0eb
:101f4c009f62404604f0c2f938e7ba68796878882d
:101f5c000e4b544624015546641ba4001b19db6828
:101f6c001b6898470028ecd1cfe73a69f968788864
:101f7c00064b544624015546641ba4001b19db6810
:101f8c005b6898470028dcd1bfe7c04660a40020fe
:041f9c00ffff000043
:020000040000fa
:101fa00010b582b07b4b1a780e2a0bd893007a4a70
:101fb000d3589f460321002001f0e6ff754b58607f
:101fc00001221a7002b010bd724b5b68013303d05e
:101fd000704b02221a70f5e76e4b0e221a70f1e771
:101fe000002300222021002006f09afa07f01efcb0
:101ff000684b03221a70e5e7664b986805f0b0fc61
:1020000001280cd007f060fd0028dbd0002007f08d
:1020100061fd07f013fc5f4b0d221a70d2e707f049
:102020000dfc5c4b04221a70cce75a4b1b7b002b37
:10203000c8d0584b05221a70c4e7612313224021ef
:10204000272006f085fa07f0f1fb524b06221a70a2
:10205000b8e7504b986805f083fc01280cd007f0d6
:1020600033fd0028aed0002007f034fd07f0e6fb7a
:10207000484b0d221a70a5e707f0e0fb454b0722fd
:102080001a709fe7e623ae222521282006f078fa71
:1020900007f0ccfb3f4b08221a7093e73d4b986842
:1020a00005f05efc01280dd007f00efd002800d1e0
:1020b00088e7002007f00efd07f0c0fb354b0d222e
:1020c0001a707fe707f0bafb324b09221a7079e7e2
:1020d000f4230093d93b00220021012006f04af8a6
:1020e00007f0a4fb2b4b0a221a706be7294b986868
:1020f00005f036fc01280dd007f0e6fc002800d1e1
:1021000060e7002007f0e6fc07f098fb214b0d226a
:102110001a7057e707f092fb1e4b04221a7051e722
:10212000f4230093d93b01220021012006f022f87c
:1021300007f07cfb174b0c221a7043e7154b98688d
:1021400005f00efc01280dd007f0befc002800d1e0
:1021500038e7002007f0befc07f070fb0d4b0d22a6
:102160001a702fe707f06afb0a4b04221a7029e75e
:10217000084c606802f0befd0123637303332370d3
:1021800020e7044c606802f0b5fd0123637303335c
:0c219000237017e7f0a20020687f000019
:020000040000fa
:10219c00f0b5de4657464e464546e0b583b00400e2
:1021ac000e000191904600930d9b002b29d001232a
:1021bc005b420d9a136005f0dbf9051e21d04346f6
:1021cc00002b25d0002e23d02b88994674234a4609
:1021dc005343624a9b5c002b07d0614b74224946e7
:1021ec004a439b181b6ea3420bd174234a465a4395
:1021fc0093465b4b5b449a46180002f0e0ff0028c4
:10220c000dd103b0f0bcbb46b246a946a046f0bd0a
:10221c000c9b002bf5d0009b002bd5d1f1e72a8825
:10222c004f4974235343c9188e69cb6ec869002873
:10223c000fd0002194468342bf413b40df00ff1882
:10224c00bf00f219f75d002f07d001310133814235
:10225c00f1d1504603f055fad3e71700624601213d
:10226c003970002139623e48743151434018818cd9
:10227c0009042e7836023143ff261e403143f961a2
:10228c00808c013080b23749884231d03449742671
:10229c0072438a1890840133d366002fd9d0009be7
:1022ac007b60019bbb6001237b7500233b75bc618c
:1022bc00ab69002b07d0082b1cd843465b00984613
:1022cc000c9b5b000c934346fb600c9b3b61fb69d6
:1022dc000d9a136053461b6a002b12d0224b5a46a0
:1022ec009b58002b31d01a6a002a2dd01300f8e726
:1022fc000120cbe743469b0098460c9b9b000c931c
:10230c00e1e753461f6202237b75380002f084fc20
:10231c00134b742249464a439b18db6a013306d09f
:10232c000f4b74224a439b181b6b013311d13b6931
:10233c007a68f968b8680a4c74254e467543641976
:10234c0064696468a04700e01f62504603f0d9f945
:10235c0057e7380000f09efbf7e7c04690a100203d
:0c236c002ca10020ffff00004ca100206d
:020000040000fa
:1023780070b56b4b1a780c2a06d89300694ad35863
:102388009f46674b01221a7070bd654b1b7a002b64
:10239800fad0634b02221a70f6e78020800407f017
:1023a80035f8002803d15e4b03221a70ece7802031
:1023b800800407f0adfa5a4b0c221a70e4e706f0d5
:1023c800f9f9400703d1564b04221a70dce706f0ee
:1023d800f1f9c0434007f6d0514b0c221a70d3e7ed
:1023e800012007f013f8002803d14d4b07221a707b
:1023f800cae7012007f08cfa494b05221a70c3e797
:10240800002006f02ffd002803d1454b07221a7043
:10241800bae7002006f026fd414b187306221a7011
:10242800b2e73f4c257bea005219d2003e4b9c464e
:1024380064440021200007f01ff922002900002031
:1024480002f03cfa002803d1354b0c221a709be7a6
:102458003649374bcc18207b482204f053fb07231e
:10246800237091e7102006f0d1ff002803d12c4bf0
:102478000a221a7088e7102007f04afa284b082227
:102488001a7081e7012006f0edfc002803d1244be7
:102498000a221a7078e7012006f0e4fc204b5873f2
:1024a80009221a7070e71e4c657bea005219d200a7
:1024b800204b9c4664440021200007f0ddf82200f0
:1024c8002900012002f0faf9002803d1144b0c224c
:1024d8001a7059e71849194bcc18607b482204f048
:1024e80011fb0a2323704fe7012004f08bfd0c4bee
:1024f8000b221a7048e70a4b5968012003f028fe9e
:10250800002803d1064b0c221a703de7044b012228
:102518005a721a7038e7024b01225a721a7033e75e
:10252800000000202c8300000e0900000e09002086
:10253800f2f6ffff0e1b00000e1b0020f2e4ffff67
:020000040000fa
:1025480010b5714b1a78132a0dd893006f4ad358d7
:102558009f4606f03dfb0321002001f009fe6a4b6f
:10256800586001221a7010bd674b5b68013303d0b5
:10257800654b04221a70f6e7634b13221a70f2e7d0
:10258800614ce07b06f070f807f04cf905232370e6
:10259800e9e75d4b986804f0ebfd01280cd007f0e3
:1025a8008ffa0028dfd0002007f090fa07f042f9f0
:1025b800554b12221a70d6e707f03cf9524b062207
:1025c8001a70d0e706f08efe4f4b07221a70cae742
:1025d8004d4ce07b06f060f807f024f908232370df
:1025e800c1e7494b986804f0c3fd01280cd007f0f7
:1025f80067fa0028b7d0002007f068fa07f01af940
:10260800414b12221a70aee707f014f93e4b09222b
:102618001a70a8e706f072fe3b4b0a221a70a2e76e
:10262800394ce07b012106f075f907f0fbf80b2324
:10263800237098e7344b986804f09afd01280dd070
:1026480007f03efa002800d18de7002007f03efa97
:1026580007f0f0f82c4b12221a7084e707f0eaf81a
:10266800294b0c221a707ee7274b1b7b002b00d1cd
:1026780079e7254b0d221a7075e7234ce07b05f0ae
:10268800dbff07f0cff80e2323706ce71e4b98682a
:1026980004f06efd01280dd007f012fa002800d1d1
:1026a80061e7002007f012fa07f0c4f8164b12226f
:1026b8001a7058e707f0bef8134b0f221a7052e74a
:1026c80006f004fe104b10221a704ce704f000ffcd
:1026d8000d4b11221a7046e70b4b01225a730b322d
:1026e8001a7040e7084c606803f0acfe012363737e
:1026f8000b33237037e7044c606803f0a3fe012313
:1027080063730b3323702ee7dca50020bc76000032
:020000040000fa
:10271800f0b40125ed070f005f405ad48b4200d179
:10272800824205d950404240504059404b405940a0
:102738004e18760ddf187f0d3bd0741c640529d028
:10274800f41b352c26d80e0ddb022b43db0ac902fd
:102758002943c9121700202c1ed2e741e2405740f6
:10276800e3415a40a340e3405a40002480185941ad
:102778000ad3b21c520521d0c207012f62411700ab
:102788004008cb0718434908013636054208af41cf
:1027980060417141f0bc7047203c06d01f00e74102
:1027a800e3405f400024012a6741c0186141ebd330
:1027b800dfe7002eeed129400020ebe70136310596
:1027c8000020e7e7e742e5d10020c143090dc9042d
:1027d800e0e76b400e00871a9e4104d26e40c01b92
:1027e800b141d21973414e18df18ac0ae642e9d25a
:1027f800760d7f0d31d0f41b362ccbd8b4460e0d98
:10280800db022b43db0ac9022943c90a012c32d84f
:1028180004d1d4075208df073a435b08ef0a644241
:10282800904199411ed0002239424dd1241940418e
:1028380049410124394204d101340018494139423f
:10284800fad06246a24204d9361b013e36058919e0
:10285800a0e7f10ac90700209ce736429ad1002078
:10286800002197e70200224394d0b842ded201004b
:1028780020002024e3d1202c13dd203ce241170066
:10288800a240e2405740e3415a40a340e3405a4047
:10289800012fbf410137174300227c4298419141e3
:1028a8000ce01700e741e2405740e3415a40a3409b
:1028b800e3405a407c429041994100220f0303d2e1
:1028c800013e241940414941013e36054708ac41c3
:0828d80050417141f0bc704752
:020000040000fa
:1028e00070b56d4b9b7d002b19d06c4b9c6a6a4b6d
:1028f0005b8b9b0714d5694b2022ff219954013231
:10290000fd399954654b20229b5c5bb2013300d1a9
:102910008fe0624b20229b5c062b00d1a2e070bdb1
:102920005d4b5b8bdb0707d55c4b2022ff21995465
:102930000132fd399954e5e7574b5b8b5b0707d5af
:10294000564b2022ff2199540132fe399954d9e780
:10295000524b20229b5c5ab2032b49d0042a13d03d
:10296000022acfd14d4b1b69002b06d04b4b9888c8
:1029700080b2002104f05cfdc4e7484b988880b227
:10298000012104f055fdbde7444a936912699a425a
:102990000dd0424a9268d05c3f4928228854591c85
:1029a0003d4ad369002bfcd13c4b9961aae73b4bd4
:1029b0005b69002b0ed0394b9b885b0001221343cf
:1029c000354a5362d369002bfcd1344b20220321ba
:1029d000995497e7304a5168c0239b020b435360d8
:1029e000d369002bfcd12d4b20220621995489e775
:1029f0002a4bd9695b69013b8b420cd0264ad369cb
:102a0000002bfcd1254bda68234d2820285c50543c
:102a10000131d96176e7204a5068e023db020343a5
:102a20005360d369002bfcd11c4b20220620985404
:102a3000e4e71a4b00219954174a5168c0239b02be
:102a40000b435360d369002bfcd1134b83221a76be
:102a5000124b5b6a002b00d161e7104b5b6a2000d0
:102a600098475ce70d4b002220215a5401315a54fb
:102a7000094b83321a761900533a4b8b1340102bb3
:102a8000fbd1064b5b6a002b00d148e7034b5b6a26
:102a90002000984743e7c046000c004230a50020c4
:020000040000fa
:102aa000f0b5c64600b5040082696049130aff20ec
:102ab000034074267343cb18104082001218d200d2
:102ac000db68d718d55a6e43891900224a648a6494
:102ad0002269e3689a4258d354498919d21a4a6440
:102ae0005349524e74236b43f618f06ac0b2220069
:102af00006f024fe4f49306bc0b2220006f01efee5
:102b0000bb69002b48d0082b53d880277f00474e45
:102b100074236b43f618306b390006f0b7f9f06a8e
:102b2000390006f0b3f92369002b51d13f4b7426cd
:102b300037006f4398464744386b0022002106f067
:102b4000abf8bb6c0022ba646e434036320042449c
:102b5000b96b386bc0b202f0fdfbe368002b49d1c2
:102b6000324c74336b43e418e06a0022002106f013
:102b700093f8636c00226264626b2f49e06ac0b212
:102b800002f0e8fb80bcb846f0bd284974206843d9
:102b900009189b1a8b64a3e7244e74336b43f61811
:102ba000306b002106f072f9f06a002106f06ef930
:102bb000b9e78027bf001d4e74236b43f618306bb6
:102bc000390006f063f9f06a390006f05ff9aae708
:102bd0008022164e74236b43f618306b12010021cd
:102be00006f05af823696268b16b306bc0b202f02c
:102bf000b1fbb2e780210d4e74236b43f618f06ae7
:102c00000022c90006f048f8b36c002b0bd02369f2
:102c1000064874226a438018426ba168c06ac0b239
:102c200002f098fbaee7e368f2e7c0462ca1002073
:0c2c30008973000089330000cca4002050
:020000040000fa
:102c3c0008d1002806d1f54204d801d3002a01d1cd
:102c4c006d0d09d10020c143090dc904f0bdf9d1a6
:102c5c001242f7d1640df5d00020c1434905490853
:102c6c00a6e000206146f0bdf0b50127ff070e007d
:102c7c005e403e40b446be0a4c18dd18f442d7d232
:102c8c00f542e4d2640decd06d0dead06419c902a2
:102c9c003943460dc0023143db023b43db0a10b41f
:102cac008e4685b297b26f43140c6c433e0ca4193c
:102cbc00260c2404bfb227439cb26c43a419190cf4
:102ccc006943250ca4b249190d04090c6419000cb4
:102cdc0095b245433e0c76193743bfb2360c150cf2
:102cec004543ad19a6b2240cad192e0437432e0c56
:102cfc0036199db24543ad19acb22e0c89191d0c79
:102d0c0045436d182e04290c3443704680b295b29d
:102d1c0045433e0c76193743bfb2360c150c454370
:102d2c00ad19a6b2ad19240c2e0437432e0c36194e
:102d3c009db24543ad19acb22e0c89191d0c4543ff
:102d4c006d182e043443290c75462d0c90b2684333
:102d5c003e0c80190604bfb23e43070ca0b23f18cc
:102d6c00120c6a43d019020c80b2240ca4189ab22b
:102d7c006a43121914042043120c89181b0c6b4360
:102d8c00c91810bc01273d05294203d1b619404191
:102d9c004941013cff077d0d013d641b0bdb6d00c0
:102dac00ac4209da240500254208be416841614164
:0a2dbc0066463143f0bd54e74ee7d0
:020000040000fa
:022dc600704754
:020000040000fa
:102dc80010b55b4b1a780c2a0bd89300594ad35884
:102dd8009f460321002001f0adfb554b58600122ae
:102de8001a7010bd524b5b68013303d0504b0a2256
:102df8001a70f6e74e4b0c221a70f2e74c4b1b7b0d
:102e0800002beed04a4b02221a70eae74a4805f036
:102e1800a3fa06f007fd464b03221a70e1e7444b7c
:102e2800986804f0cffb01280cd006f049fe002872
:102e3800d7d0002006f04afe06f0fcfc3c4b0b22e3
:102e48001a70cee706f0f6fc394b04221a70c8e770
:102e580006f024fa06f0e6fc354b05221a70c0e7a6
:102e6800334b986804f0aefb01280cd006f028fe1e
:102e78000028b6d0002006f029fe06f0dbfc2c4b1b
:102e88000b221a70ade706f0d5fc294b06221a7002
:102e9800a7e7274b842189005a5c9818dc7b0474c7
:102ea80001325a5407221a709be7214bdb7b0a2b0d
:102eb80003d01f4b04221a7093e71d4b1f495a5c1d
:102ec80001325a5408221a708be7194b1b4a9b5c33
:102ed800022b03d0164b04221a7082e7144b0022ef
:102ee800842189005a5415495a5409321a7078e7ce
:102ef80005f054f8002803d10d4b0c221a7070e726
:102f08000b4b00229a730a321a706ae7084c606801
:102f180003f09af8012363730933237061e7044cc3
:102f2800606803f091f8012363730933237058e74d
:102f3800409b002094830000a04f00001102000075
:020000040000fa
:102f480070b50500594c247fe0b2002c00d0a7e0f2
:102f580000294ad0002d48d0554c666807243440d3
:102f6800012c5ed0514805604260002444618461b0
:102f780004614e488160002a58d04c4ad3604b4abd
:102f8800012111774a4a127e520705d5484a042082
:102f9800916a117e0142fbd1454a518b04200143bd
:102fa8005183117e7c300143117640498a68c96893
:102fb800914203d93d48c168891a01613c49496871
:102fc800490743d139498969914233d2374a11684f
:102fd800087837498862916901319161002b5ad08c
:102fe800334b04229a7501205be0002b59d0002a4c
:102ff80057d02f4c666807243440012c0cd02b483e
:10300800056042600024446184610461002db0d1f0
:10301800264900208860aee7002943d1dc07eed5b9
:103028003fe0cc073dd4002be9d0f7e71f4a002149
:10303800d160a4e71d4a1269002acfd01c4aff219b
:1030480091621a490a69013a0a61c7e7174a916801
:1030580049089160116949081161d1684908d1602e
:10306800916892698a420ad210490a681288d20580
:10307800d20d0f4882628a6901328a61aee70b4a33
:103088001269002aaad00a4a0a49916207490a69bc
:10309800013a0a61a2e7064b01229a75012000e075
:1030a800002070bdcc07b9d5fbe7c0465ca5002061
:0830b80000100042ff010000be
:020000040000fa
:1030c000f0b5de4657464e464546e0b585b0019020
:1030d000029116001d000eab1b789b46002d18d0e8
:1030e00001235b422b60002a13d0002911d004f089
:1030f00035fb071e0dd003889a465b0053445b01e5
:103100009846474b43449946180001f0f9ff0028c0
:1031100006d105b0f0bcbb46b246a946a046f0bdfc
:103120003b889c463e4b62465200624452019b18cb
:10313000dc699869002808d0002321002279002a40
:1031400007d0013324349842f7d1484602f0c6f93b
:10315000dfe701322271002262613148624652008b
:103160006244520182180392908a00043a78120253
:103170000243ff20184002432262039a908a0130e2
:1031800080b2284b98422ed0254b624652006244b2
:1031900052019b189882002cd7d0029b8b60ce6086
:1031a00000230b61019a0a60cb6101220a764b76fb
:1031b0000b6a2b605b46012b17d04346243318481b
:1031c0001b1852465200524452018018426a002a8b
:1031d00021d01b68002b1ad05a69002a16d05b69cf
:1031e000002bf9d113e00120cee7434620330c48f1
:1031f0001b1852465200524452018018026a002a9b
:10320000e7d11960484603f0b4fd00e05961484633
:1032100002f064f97de71960484603f0e1fcf6e747
:08322000a0a10020ffff000047
:020000040000fa
:1032280010b5544b1a780d2a0dd89300524ad3582a
:103238009f4606f0b3f90321002000f099ff4d4b9b
:10324800586001221a7010bd4a4b5b68013303d0e5
:10325800484b02221a70f6e7464b0d221a70f2e725
:10326800444b1b7b002beed0424b03221a70eae73b
:10327800404ca07bfd2105f077fd06f0d3fa04232e
:103288002370e0e73b4b986803f072ff01280cd0ed
:1032980006f016fc0028d6d0002006f017fc06f031
:1032a800c9fa344b0c221a70cde706f0c3fa314b39
:1032b80005221a70c7e706f0c5fa2e4b07221a70c6
:1032c800c1e706f009fc0028bdd0002006f00afc82
:1032d80006f0c0fa274b07221a70b4e7254ca07bea
:1032e80005f020fe06f09efa08232370abe7214b79
:1032f800986803f03dff01280cd006f0e1fb002898
:10330800a1d0002006f0e2fb06f094fa194b0c223b
:103318001a7098e706f08efa164b09221a7092e78f
:1033280005f034fd134b0a221a708ce7134c2088e1
:1033380004f0cafa608805f0c7f90e4b0b221a7020
:1033480081e70c4b01225a7301321a707be7094c52
:10335800606803f077f8012363730133237072e721
:10336800044c606803f06ef8012363730133237023
:1033780069e7c046b8a60020e4810000e0a7002065
:020000040000fa
:10338800f0b5c64600b582b001900e008969514a71
:103398000b0aff20034074256b43d31808408100b3
:1033a8000918c900db68cc18cf5a7d435219936cb1
:1033b800002b42d115006b699b6898470028fad109
:1033c8001c202056421c0fd0627f002a56d11f3283
:1033d80002400121914080b2400982231b049c468f
:1033e8006044c00106f0cafb74207843394bc0180a
:1033f800626ab3699a4254d1019b012b4cd0019b5c
:10340800022b4bd014257557f66905f0ebff63685e
:10341800002b48d074237b432f4a991888469b5c1d
:1034280001330b70a268636831002800984743464f
:103438001b78013b4246137035e0264b7424250067
:103448007d4398464544286b0022002105f020fc66
:10345800ab6c7c43403422004244a96b286bc0b259
:1034680001f074ffab6c6a6bb16830690918e86adf
:10347800c0b201f06bff0023ab641ee01f220240c4
:103488000121914080b2400982231b049c4660447c
:10349800c00106f075fba7e73375b3e7fd33337555
:1034a800b0e705f09fff0b4b74227a439b181c6a08
:1034b800002c02d0637d012b03d002b080bcb8463b
:1034c800f0bd200001f0aafb022363752000fff77e
:0c34d800e3faf2e72ca1002052a1002032
:020000040000fa
:1034e4004e4b5a6852031b68db0c13439b029b0a26
:1034f4004b4a936300235375110004228b691a42cb
:10350400fcd147491022cb681a42fcd0444a137daf
:1035140080210b431375434b434a9a8200229a61dc
:1035240004321a61414b424a1a62190004224b6860
:103534001a42fcd13d4a88234021d1501000483121
:10354400402243581a42fcd0384a8c234021d1509f
:1035540010004c31402243581a42fcd0334a902385
:103564004021d15010005031402243581a42fcd01f
:103574002e4ac8234021d15010008831402243589c
:103584001a42fcd0294acc234021d15010008c315e
:10359400402243581a42fcd0244ad0234021d1501f
:1035a40010009031402243581a42fcd01f4ad423c1
:1035b4004021d15010009431402243581a42fcd08b
:1035c4001a4ae8234021d1501000a8314022435820
:1035d4001a42fcd0154af0234021d1501000b031da
:1035e400402243581a42fcd0104a88235b004021f1
:1035f400d15010001900402243581a42fcd00b4a03
:103604008c235b004021d150100019004022435804
:103614001a42fcd0074b084ada61704720608000e8
:10362400001000400014004096050000001c0040fb
:0c36340006010100000800401e02120800
:020000040000fa
:1036400070b5504b586a504b9b7d002b54d04e495f
:103650004c68072214404b4b5a699d699e680b7e4b
:103660005b0757d5896a474bdb68934252d9002cd8
:1036700043d1444b5b6899540132434b1b7edb07bb
:1036800016d5414b012119753e4b9b68ab4256d96b
:103690003c4b1b68595d3c4b99620135394b1b69aa
:1036a000002b01d1b54262d0364bdb68934262d029
:1036b000344b5a619d61344b1b7e9b0715d5334bb0
:1036c0001b78002b18d02f4bdb68934211d12d4b68
:1036d00000221a772c4907240c752c490a701b6aa2
:1036e000002b09d0274b1b6a9847284b1b78002bcf
:1036f00002d0254b02229a7570bd224b5b685400a4
:10370000e1520132204b1b7edb07d1d51e4b01213c
:10371000197508e01c4b1b7edb07c9d51a4b01212c
:103720001975002cb0d0174b9b68ab4213d9154bc1
:103730001b686900c95a144b99620135aee7114bf9
:103740001b69002baad0104bff2199620d490b6910
:10375000013b0b61a2e70b4b1b69002b9ed00a4b70
:103760000b49996207490b69013b0b6196e7074bcf
:10377000012119709ce7044b0121997503311975da
:1037800096e7c0465ca50020001000423a9f00204a
:04379000ffff000037
:020000040000fa
:10379400f0b5c64600b504004c4a107dc0b22c23d7
:1037a400d35cdab2002b00d089e0002800d08ae094
:1037b400002c00d184e02568002d00d180e0002990
:1037c40000d143492b018b4206d9eb008b4277d8b9
:1037d40008239846032602e0102398460126080091
:1037e40005f0c2fb071c404605f0befb80462800de
:1037f40005f0bafb011c404601f02cff011c381ceb
:1038040002f0c4fa051c05f01dfb0700421e314bf3
:1038140000219a4213d8281c04f0b2fa05f002fae7
:10382400011c281c06f030f88221c90501f012ffa2
:1038340005f008fb4103ff235b0319403943264a83
:103844001368022083431360d369002bfcd189b22f
:10385400214b99816368022b21d01f4a13681f49a9
:103864000b4076031e4380235b043343136051688b
:10387400a368e06803431a4801400b4361680b43a3
:103884005360154ad369002bfcd1134a13680221f3
:103894000b431360d369002bfcd1012010e00e4ac6
:1038a40013680e490b4076031e4316605168a368e3
:1038b400e0680343472081430b435360e1e7002062
:1038c40080bcb846f0bd1000fae7c0469ca40020b6
:1038d400006cdc02fe1f000000080042ff1ffff026
:0438e400b8dfffff4b
:020000040000fa
:1038e8000122d20703004b403dd430b4431a01d221
:1038f800c01ac9184b004400240eff2c29d0002cf4
:1039080024d01b0e20d0e31a182b1ddc090211430a
:10391800c40d000210435d4219350a00aa40d209bd
:10392800d940451801d36d080234013ce405280a42
:103938000121c9072d062a438a4160414100090e29
:10394800ff2901d3c00dc00530bc7047c00fc007a8
:10395800fae742001823da41ff2af5d07f20000158
:103968000c300005f0e7a4465140431a02d25340f8
:10397800c01ac9184b00090211431b0e4400240e3b
:10398800ff2c41d0002b10d05b421b19012b10d308
:1039980022d1c30d4002401a10d3db050100400ab2
:1039a800c90591415841644670472442fbd1002023
:1039b800f9e7c30d40024900401af4d00021013153
:1039c8004000fcd38c4204d95b1adb05400ac018be
:1039d800e9e7180ac007e6e7192be4d801330c0019
:1039e800d940dc414c40012c4941c30d0002104331
:1039f800441a01d4a4006408013bdb05200a24060c
:103a08009441584164467047ff2b01d04102cad007
:0a3a18007f2000010c300005c5e717
:020000040000fa
:103a2200f0b58fb00c934b680d0008938b681600ad
:103a32000993cb680f680393089b0b90002b43db21
:103a420002239f4310233a001a400d92099a0492ce
:103a52001f4206d033687268134302d0099b023baf
:103a6200049308233b400a935a1e9341049a2c69fb
:103a7200d31a04933368039a06937368013c07933d
:103a820000231355049b0593012c20dc0d9b002b76
:103a920050d10a9b002b03d02023039a013c1355db
:103aa2002a69039b013a19190b98099b121b00976b
:103ab20002f007fd0b9b5b68db0503d56b68984240
:103ac20000da18000fb0f0bd01230893bae7069b95
:103ad200079a13430ad1049a089b9b1a059a9b18ca
:103ae200002b03dc002ad1ddbb07cfd50f23069aba
:103af200013c134018005730092b01dc3033180009
:103b02000c9b413b192b06d820230343613b192b05
:103b120001d805f0edfe039b1855059b013b05936b
:103b2200079b1a07069b1b091a43079b06921b0950
:103b32000793a9e70cce1343abd0039b0c9a1b1936
:0e3b4200013b1a703023039a023c1355a1e791
:020000040000fa
:103b500010b5454b1a780a2a06d89300434ad35821
:103b60009f46414b02221a7010bd05f02ffe00281f
:103b7000fad0002005f084ff3b4b01221a70f3e7d6
:103b800005f094f9384b03221a70ede7364b9b7819
:103b9000002b08d1012005f055ff05f08bfc324bbe
:103ba00004221a70e0e705f085fc2f4b05221a70fd
:103bb000dae705f04dff0028d6d0002005f042ffdf
:103bc000002005f04bff05f075fc274b05221a700d
:103bd000cae7254b5b78002b08d1012005f002ffd6
:103be00005f068fc204b06221a70bde705f062fc68
:103bf0001d4b07221a70b7e705f0fafe0028b3d074
:103c0000002005f0effe002005f0f8fe05f052fc64
:103c1000154b07221a70a7e7012005f0f5fe05f005
:103c200049fc114b08221a709ee705f0f3fe0028ac
:103c30009ad0002005f0e8fe002005f0f1fe05f026
:103c4000e5fd05f037fc084b09221a708ce705f0fa
:103c50003df9054b0a221a7086e705f0e7fa024b98
:103c600002221a7080e7c04680a80020c4880000a5
:020000040000fa
:103c700070b5002841d00468002900d1364963009e
:103c800099423cd3354b9c423bd8080005f06ef975
:103c9000051c200005f06af9011c281c02f078f8c8
:103ca000061c2f49281c01f0d7fc2e49fff71cfeeb
:103cb000011c301c05f0eafd05f0c6f805002a4b92
:103cc0009c4209d8ff235b00ff209d421cd8fe3890
:103cd000012d19d9680817e0bf235b00984212d262
:103ce000032836d94000032102f0e2f8060203213e
:103cf000280002f0ddf8304306e0002028e0002034
:103d000026e0002024e019481749a1428941494290
:103d1000174a13680224a3431360d369002bfcd114
:103d2000134bd8601a681348024009060a431a6008
:103d30001a6802210a431a601a00d369002bfcd1c9
:103d40000b4b10225a831a00d369002bfcd101209f
:103d500070bd0948d8e7c046006cdc0240420f0045
:103d600095bfd63300002041801a06007fff000077
:0c3d7000000c0042fffffffc01020000fd
:020000040000fa
:103d7c0010b53f4b1a78072a06d893003d4ad35802
:103d8c009f463b4b01221a7010bd394b5b78002bc0
:103d9c00fad0374b02221a70f6e705f0c3fd012862
:103dac0006d0334b0022da709a7003321a70ebe7ac
:103dbc002f4b0122da709a701a70e5e705f0b2fd0c
:103dcc00022806d02a4b0022da709a7004321a703c
:103ddc00dae7274b0222da70013a9a701a70d3e7ad
:103dec0005f0a0fd042806d0214b0022da709a7051
:103dfc0005321a70c8e71e4b0322da70023a9a7029
:103e0c001a70c1e705f08efd102806d0184b002261
:103e1c00da709a7006321a70b6e7154b0422da7013
:103e2c00033a9a701a70afe705f07cfd202806d093
:103e3c000f4b0022da709a7007321a70a4e70c4b01
:103e4c000522da70043a9a701a709de705f06afd43
:103e5c00402806d0064b0022da7001329a701a7094
:103e6c0092e7034b0622da70053a9a701a708be7c8
:083e7c008ca800200c8f00004f
:020000040000fa
:103e8400f0b5de4657464e464546e0b583b0019050
:103e94008c4600296dd005000123374f374a9146df
:103ea4009346160092460de040003549009c0c54a0
:103eb400013000240c5451468a605a1c0235634573
:103ec40047d213005a1e9046796807220a40012af5
:103ed40017d0b068f468421c31698a4289410a40ab
:103ee400944237d001990139cc5c009479688846b2
:103ef4000721444621400129d6d02149009c0c5475
:103f0400d9e74a469068d468421c494609698a42fe
:103f140089410a4094421dd0697809022c782143d2
:103f240000917c68a046072441460c40012c06d031
:103f340069460978124c215459468a60bde740000d
:103f4400694609780e4c215401300099090a21541c
:103f5400f2e7984605f088f8002802d0064b0122c3
:103f64009a75404603b0f0bcbb46b246a946a0468b
:103f7400f0bd8846eee7c04600040042e0a30020fe
:043f8400407b00205e
:020000040000fa
:103f880030b5002800d070e0394b70229b5c012bc3
:103f980002d00120404230bd354b98541b7c5bb2a7
:103fa800022b21d1324b1b78002b1dd0304b5b7874
:103fb800002b20d12e4b5b68002b23d12c4b9d6806
:103fc800002d0ad02a4bdb6800221c00d878002874
:103fd80021d001322833aa42f7d1254b7022012182
:103fe800995401204042d6e7214b7022012199546f
:103ff80001204042cfe71e4b702201219954012035
:104008004042c8e70b07d9d5194b702201219954b2
:1040180001204042bfe70130d8700b0701d5144b8f
:1040280058701348436801334360838c1b04ff2591
:104038002a4013436362838c01339bb20d4a934237
:1040480011d00b4a938470230120d05404231943c0
:10405800a17000236360a360ff222277df3aa35494
:104068002380606a97e70123ebe70120404292e74b
:084078002ca10020ffff000055
:020000040000fa
:1040800010b5364b06225a6005f068fbfff72afa96
:1040900005f048fc02f05eff03f0a6fc04f0d8ff38
:1040a00003f09cf903f0e8fe02f0f4fe03f0eaf9f5
:1040b000fef789fe01f088ff04f0b4fe00f048fd31
:1040c00002f048f901f0dcfc04f0b4ff04f0a6f8bb
:1040d0002349002002f0aefc224c2060224900203f
:1040e00001f0cafbe0602149002000f0a3ff20613d
:1040f0001f49002002f0d4fc60601e49002002f03d
:1041000057ffa06005f05cfc05f0def904f0e8fd67
:1041100004f0f8fd05f00cf805f088fc05f006fa4f
:1041200004f002fe04f012fe04f0e0fe05f0a2fc32
:1041300005f028f805f022fa05f03efa05f046faf7
:1041400005f0a4fc01f0c6ff04f036fe05f036f8d9
:1041500004f056fe00f024fc10bdc04600400041b3
:10416000f8900000cca70020f88200002c7f00000f
:084170004c9b00009c9900002b
:020000040000fa
:1041780030b5002800d06ee0384b34229b5c012b10
:1041880002d00120404230bd344b98545b785bb27a
:10419800022b21d1314b1b78002b1dd02f4b9b7844
:1041a800002b20d12d4b5b68002b23d12b4b9d6816
:1041b800002d0ad0294bdb6900221c005879002801
:1041c80021d001321833aa42f7d1244b34220121dd
:1041d800995401204042d6e7204b342201219954ba
:1041e80001204042cfe71d4b342201219954012080
:1041f8004042c8e70b07d9d5184b342201219954fe
:1042080001204042bfe7013058710b0701d5134b1d
:1042180098701248436801334360838d1b04ff255f
:104228002a4013432361838d01339bb20c4a934286
:104238000fd00a4a938534230120d05400232360e9
:1042480004200143217112696261a360e36020695f
:1042580099e70123ede70120404294e760a400209c
:04426800ffff000054
:020000040000fa
:10426c00f0b5ce46474680b583b004000d000192f0
:10427c000278002a63d002228256022a5fd10129d9
:10428c0034d0466a002e5ad031680a0aff273a40c9
:10429c005000801840012e4a12180f403f0112693d
:1042ac00bf18fa68914241d1019a7276727e52b26d
:1042bc0001321dd0f3683361336a9946290020001e
:1042cc0004f0bffc7b68002b34d028239846e35cb9
:1042dc0001334246a354ba687b6849460198984713
:1042ec004346e35c013b4246a35423e0066ac9e71c
:1042fc00226b013202d000233361dde7e26c1168de
:10430c008b420ed051688b420ed0916800228b42aa
:10431c0005d0f2616368db6898473061cce7023204
:10432c0000e000220132f4e70122fbe72900200023
:10433c0004f087fc002d07d1200002f04bfc03b0e9
:10434c00c0bcb946b046f0bd200002f00cfdf6e74b
:04435c00a0a10020fc
:020000040000fa
:10436000f8b5de4657464e464546e0b5354d364b28
:104370002f001e00354a01239b46324b9846b24619
:104380001e0016e0580030498c46095c8946ff2122
:104390008c4349460c4301306146085c0002e4b29c
:1043a0000443013319e0ff2323401385337d002ba1
:1043b00021d1137e584603423ed0a868eb6898424c
:1043c00037d05068072108400128dbd05046c05c38
:1043d000f8318c430443a4b20133386983428041ed
:1043e00003404046c360536807210b40012bdad1dc
:1043f000164b1c85dae7564605f034f8114b1b685e
:10440000002bb7d00f4b59681b7f002b08d00d4bea
:104410009b699842aed30b4b1b6803209847a9e7d2
:10442000084b9b699842a5d1064b1b68032098470f
:10443000a0e7064b01221a75f0bcbb46b246a9465e
:10444000a046f8bde0a30020407b0020000400420d
:020000040000fa
:10445000fa00000010010000280100003c010000eb
:104460006e01000082010000b4010000c8010000dc
:10447000fa0100000e020000420200005602000095
:104480008a0200009e020000d2020000e602000044
:104490001a0300002e0300006203000076030000f0
:1044a000aa030000be030000f20300001004000095
:1044b00044040000580400008c040000a004000024
:1044c000d4040000e80400001c05000030050000d2
:1044d0006405000078050000ac050000c005000080
:1044e000f4050000080600003c060000500600002d
:1044f0008406000098060000cc060000e0060000dc
:1045000014070000280700005c0700007407000083
:10451000a8070000bc070000f00700000408000026
:10452000380800004c0800008008000094080000d3
:0c453000c8080000ce080000e2080000ef
:020000040000fa
:10453c0030b5002863d1364b9b785bb2022b61d12e
:10454c00334b1b78002b60d0314b3c229b5c012bf6
:10455c0002d00120404257e02d4b98545b78002b41
:10456c0019d12b4b9b68002b1ad1294bdd68002de0
:10457c000ad0274b1b6900221c00d878002818d0c1
:10458c0001321033aa42f7d1214b3c22012199541c
:10459c000120404238e01e4b01219954013833e090
:1045ac000b07e2d51a4b3c220121995401204042c1
:1045bc002ae00130d8700b0701d5154b5870144800
:1045cc00836801338360838a1b04ff252a401343cd
:1045dc00e360838a01339bb20e4a93420dd00c4a9e
:1045ec0093823c230120d05404231943a17000234f
:1045fc006360a3602380e06806e00123efe70120fd
:10460c00404201e00120404230bd01204042fbe726
:08461c00a0a10020ffff000037
:020000040000fa
:10462400f8b5ce46474680b5334d2f00a846a94677
:104634005be04246126a002a42d0716a336a012062
:104644009847b36a0133326b93429241134037e087
:104654004a46926a5200e0b2284988540132240a38
:104664008c543ce004f00efd234b1b6a002b3cd021
:10467400214b596a3c229b5c002b08d01e4b9b6b40
:10468400984232d31c4b1b6a002098472de01a4bea
:104694009b6b984229d1184b1b6a0020984724e051
:1046a400174b1b7e5b0722d5154b1c8da4b2ab6a3e
:1046b40001332a6b934292411340fa6a9a42b8d06a
:1046c4000d4ad26a9a42ebd00d4a516807220a4039
:1046d400012abdd0084a926ae4b208498c54064ab9
:1046e40093623423d35c002bbcd1034ed8e7c0bc07
:1046f400b946b046f8bdc046e0a30020408b002078
:04470400000400426b
:020000040000fa
:10470800f0b506000f0015001c0085b08b4263d879
:1047180001d1824260d82100280004f037fe390018
:104728000090300004f032fe009b21001b1a1a0092
:104738002800039304f01efe00900191b94245d869
:1047480001d1b04242d8009b019c01200021039a6c
:10475800f61aa74104f00efe04000d00039b002b7f
:104768002bd0019b009adb0750081843019b59087e
:10477800039b9c46b9422cd801d1b04229d83200bb
:104788003b00121a8b41012692185b410027b6188c
:104798005f4101235b429c446346002bead1300011
:1047a8003900039a04f0dafd039aa4197d41060042
:1047b8000f0004f0dffd241a8d410a9b002b01d065
:1047c8001e605f602000290005b0f0bd00240025b0
:0e47d800c4e7b6197f41dce700240025ede7b9
:020000040000fa
:0247e60070471a
:020000040000fa
:1047e800f8b504000378002b33d01023c356022bee
:1047f8002fd1066ab569304b280aff221040742170
:1048080041435b182a409500ad18ed00db68ed18b0
:104818001c202856421c0fd06a7f002a1ad11f324a
:1048280002400121914080b2400982231b049c462a
:104838006044c00105f0a2f96a6ab3699a4217d0c8
:10484800200004f0cffd256a002d02d06b7d012bde
:1048580024d0f8bd1f2202400121914080b24009b6
:1048680082231b049c466044c00105f089f9e3e7f4
:1048780001233375f769200004f0b4fd6b68002b41
:10488800e1d02626a35d0133a355aa686b683900d9
:1048980001209847a35d013ba355d4e7280000f009
:1048a800bdf902236b752b696a68e968a8686469b1
:0c48b8006468a047cde7c0462ca100209a
:020000040000fa
:1048c400f0b5ce46474680b583b001900e00151e64
:1048d4005ad0002803d001282bd0002055e02d4abf
:1048e400a423d458a404a40e00291bd04b1edbb26d
:1048f4009946019f03e00137ffb2be4212d0264a17
:10490400e3001b19db001168c9184822280004f0d1
:10491400abfeb94506d048350134e4b2402cead1a7
:10492400019ce8e73f2323401a49a8228b50012029
:104934002be0184ab423d458a404a40e00291cd094
:104944004b1edbb298460027134ae3001b19db0019
:104954005168c9184822280004f086feb8450cd0d6
:1049640048350134e4b22300403b5a1e93415b4274
:104974001c400137ffb2be42e6d13f232340054924
:10498400b8228b50012000e0002003b0c0bcb9461f
:0c499400b046f0bd001c004298a70020b7
:020000040000fa
:1049a000f0b5ce46474680b5bff35f8f62b62f4b5a
:1049b000c027bf00da59ff24a243c0200243da51c6
:1049c00001221a60da592a4d2a40c0210904894679
:1049d0000a43da5104221a60da591202120ac02676
:1049e00036063243da5108221a600437da59a243f4
:1049f0000243da5110221a60da591202120a3243c3
:104a0000da5180221a60c22292009f5819498c46be
:104a10003940c0273f0239439950802189001960ed
:104a200099580d404946294399508021c900196081
:104a300099580902090a0e439e50802212011a60f9
:104a4000c32189005a58a24302435a50802252017e
:104a50001a600c315a586046024017435f5080225a
:104a600092041a60c0bcb946b046f0bd00e100e057
:084a7000ffff00ffff00ffff44
:020000040000fa
:104a780010b50400902911dc00207f2928dd803939
:104a88000800102910d804f01ffe31313d0f110f16
:104a98000f0f240f0f0f0f0f0f0f3d00c0294bd022
:104aa800f02949d0a02928d0002011e01968002a4f
:104ab80007d00a1d1a6000228b5e2360db17636033
:104ac80005e0081d18600b689bb223606260012036
:104ad80010bd1968002a04d00a1d1a600023cb569d
:104ae800ebe7081d18600b68dbb2eee71968002acf
:104af8001ed00a1d1a600b68dfe71a68111d1960bd
:104b08001368dae707201968002a09d009188143d1
:104b18000a0008321a600a684b6822606360d6e7a8
:104b2800ca1d824311000831196053681268f4e7fe
:104b3800081d18600b68c8e71a68111d196013680a
:064b480023600023bbe71f
:020000040000fa
:024b4e00fee780
:020000040000fa
:104b5000f0b5ce46474680b5234b002223491a7054
:104b60005a609a601a7310338b42f8d1204a214b55
:104b70005a6321499963214959613f26002199557a
:104b80001f4959641f498c461180174901240c7034
:104b90004d25032058559c551b4f5f641b4fb9464c
:104ba00017820c74585502279f55194f5f6467464a
:104bb00017842027cc5558559855164f5f644f469b
:104bc00017863027cc5558552c3f9f55124e5e64a2
:104bd0004026124f97538c555855114a1a80c0bc25
:104be000b946b046f0bdc04600a2002050a2002049
:104bf00050a2002000600041a0a20020818181819c
:104c0000000580000904000000048000090800007d
:104c1000000980000008800000108000090a0000e0
:044c2000020f00007f
:020000040000fa
:104c2400f0b587b005008469304a230aff200340a9
:104c340074277b43d318204081000918c900db681e
:104c4400ce18cb5a9c465f43d219936a9c423ad001
:104c540001a833000c33020092cb92c290cb90c2d5
:104c6400224c742362465343e4187369226d9b00fb
:104c74009b5883603369626d9b009b584360b369a2
:104c8400e26c9b009b58c36063691b6800219847d2
:104c9400ab69a36220230022f2541c203056421c2c
:104ca4000fd0727f002a13d11f320240012191409c
:104cb40080b2400982231b049c466044c00104f076
:104cc40061ff07b0f0bd2023f35c002be5d0bfe704
:104cd4001f2202400121914080b2400982231b041b
:104ce4009c466044c00104f04bffeae72ca100207d
:020000040000fa
:104cf400f0b5c64600b5050002f03efc041e06d021
:104d0400078874237b432b4a9b5c012b02d080bc15
:104d1400b846f0bd742216007e43274bf11888462e
:104d24000b00703300221a70080000f04cfa0028bf
:104d3400edd0214b9b191b6eab4207d01f4ab21812
:104d44001368002b22d00025012611e01a4b9b1971
:104d54001900643100220a709a66013a1a667233a5
:104d640002321a70eae720331a001368002b0dd0c0
:104d74009869616a8842f6d1597d0129f3d1196a8b
:104d840011605d751e751d621d70eee7404600f0f2
:104d9400bcfc094b74227a439b185a68013a5a6046
:104da40000225a70012149426162e270703301327b
:104db4001a70ace79ca100202ca100204ca100207b
:020000040000fa
:104dc400f8b5314b5a6a9869d9690124002500194c
:104dd40069419861d961002a4ed02020195c0131c3
:104de40019549368002b48d09368013b9360264b79
:104df4005c6a002c43d1254d00242e0021e02000c4
:104e040002f0d0fca378002b00d16770e368002b7c
:104e140001d020699847746a002cecd0a368002b59
:104e2400e9d125756575a378002be8d1e368002bdb
:104e3400e5d0e06902f006ffe8e701342035052cef
:104e440015d06301f3185b7d002bf6d00f4b610185
:104e54005b1800215975ab78012beed169680b4bb7
:104e640062019b189960280000f0f8fee5e7064b04
:104e740020215a5c013a5a54f8bd034b5c6a01255f
:104e84000027014ecae7c046d0a40020fc9f0020a2
:020000040000fa
:104e9400f8b52a4b1b785bb2002b03db274b1b783e
:104ea4009b0730d5254b1b785b071bd580239b05bf
:104eb4000025224a01241026a5218c4601272048da
:104ec40002e00433834225d01d6091792142f8d059
:104ed40091680e42f5d16146117391793943c9b293
:104ee4009171eee780239b05002514491024a52623
:104ef400134802e0043383420cd01d608a681442d4
:104f0400f8d10e73f6e780239b0500210c4a02c3f7
:104f14009342fcd10b4b98470b4b984703f098f9fd
:104f24000a4bff2293430a4a93600a4b98470a4b61
:104f340098470a4b984704f0befcfee70020004067
:104f440000000120c75f0000c75f000000000000f0
:104f540000ed00e0c5700000c75f0000c75f0000ff
:020000040000fa
:104f640043414e30205458206572726f7220636f33
:104f7400756e743a2025640d0a43414e3020525810
:104f8400206572726f7220636f756e743a202564a7
:104f94000d0a000025730d004f4b000041542b51a6
:104fa4005253540054656d70657261747572653a3c
:104fb40020252e326620c2b0430d0a54656d7065fb
:104fc4007261747572653a20252e326620c2b0462d
:104fd4000d0a48756d69646974793a20252e326624
:104fe4002025250d0a000000526573657420726542
:104ff40061736f6e3a2025640d0a000054696d6573
:105004003a2025643a25643a25640d0a446174659e
:105014003a2025642e25642e25640d0a0000000024
:0f50240048756d69646974793a2035302025002c
:020000040000fa
:1050340070b5002852d12c4b1b78002b51d12a4b30
:1050440001303d229854013a985418700c685c6001
:1050540000229a604d68dd608d681d619882c86a7f
:105064009861086bd8611a625a6228201a544a6bf4
:105074001a65ca68da620a691a634a695a638a69ec
:105084009a63ca691a640a6a5a644a6a9a648a6a96
:10509400da648a6bda65db6a013311d11249134889
:1050a40063699847104b1b6b013310d10e491048ac
:1050b4004b681b6898470c4b02229a70002070bd05
:1050c400094ad06a0b49c0b204f036fbeae7064a43
:1050d400106b0949c0b204f02ffbece701204042f9
:1050e400ede701204042eae7a0a10020ad980000ce
:0c50f4001f8a0000cb890000a189000089
:020000040000fa
:1051000070b504002823c35c002b07d13d33c35c7a
:105110000020012b1fd13c330022e254256d04f006
:105120000dfd06002b78002b16d16868431c26d194
:10513000a868431c29d1e868431c2cd12869431c6a
:105140002fd1e36a013332d1236b013336d13000e2
:1051500004f0f8fc012070bd0420285602f0aafedd
:105160005a23e054e36a013302d1236b0133eed0ba
:105170000420285602f09efe5b23e054e7e740b28d
:1051800002f098fe5423e054d2e740b202f092febf
:105190005523e054cfe740b202f08cfe5623e05492
:1051a000cce740b202f086fe5723e054c9e7142052
:1051b000285602f07ffe5823e054c5e718202856f1
:0a51c00002f078fe5923e054c1e725
:020000040000fa
:1051ca0070b504002623c35c0125002b04d171337a
:1051da00c35c0025012b01d0280070bd703300226a
:1051ea00c254c66dc36a013320d0036b01331dd08c
:1051fa003578002d06d00420305602f056fe3e23a4
:10520a00e054e9e704f095fc05001020305602f05e
:10521a004cfe3d23e0541420305602f046fe3c2357
:10522a00e054280004f089fc0125d5e73578002de3
:10523a0006d00420305602f038fe5b23e054cbe758
:10524a0004f077fc05007068431c0ad1b068431c5f
:10525a000dd1f068431c10d1280004f06efc012522
:10526a00bae740b202f021fe5823e054eee740b21a
:10527a0002f01bfe5923e054ebe740b202f015fea0
:06528a005a23e054e8e79e
:020000040000fa
:10529000f0b5d6464f464646c0b582b006002c4b08
:1052a0009846ff270de0022323772269e168608892
:1052b000f3685b68984743e022002900300002f061
:1052c0002bfbb46a002c3dd0237f012b3ad1a2697d
:1052d000110a39400b015b1a9b0043443a405500c8
:1052e000ad18ed00db69ed1872696b699a4207d061
:1052f00028001430f3685b69002198476b6973617b
:10530000237d022bcfd0042b10d102232377636897
:105310009a462269e1686088f3689c46a368009316
:1053200063469b6899465346c84709e0012b09d15b
:1053300002232377a26861686088f3681b68984736
:105340000028b9d002b0e0bcba46b146a846f0bdcc
:0453500060a4002035
:020000040000fa
:10535400f0b504002c4825014019067bf6b22b4811
:105364003f27c55dedb2c4550f37c05d800702d13c
:105374000020002e39d1254e4e20032737542248d1
:1053840026018019023f07732148305a400530d561
:10539400c9181f48801941601d492001415a090557
:1053a4002cd5d2181a4909188a60194a2001815a41
:1053b4008905890fcb409bb212185380134b4021af
:1053c4005a5c022002435a54596c5a6c08230b400d
:1053d400fc2189010a4013430138002b05d10b4af3
:1053e40011690133a3400b431361084a3f23d55489
:1053f400f0bd0748260180194160cde7044920012a
:1054040009188a60d1e7c04600a20020006000416c
:0454140050a2002082
:020000040000fa
:10541800f0b40125ed070c005c402c40a446ae0a10
:105428004c18df18f4423dd2f74245d2640d4cd0f7
:105438007f0d3cd0e41bc9022943cf0adb022b4372
:10544800db0a0600b61a9f4104d2013cb6197f4117
:10545800b6185f416812800d241838dd00188442a0
:1054680025d8e80c0021b6197f41b61a9f4103d30d
:1054780040414941f7d304e0b6185f41001849415b
:10548800f1d32405b6197f41b61a9f4105d3374396
:10549800c20717430022012f504161416246114360
:1054a800f0bc70470cd100280ad1f74208d200207e
:1054b800c143490d0905f1e7002a01d1f74206d099
:1054c8000020c143090dc904eae77f0df8d0002088
:0454d8006146e5e75d
:020000040000fa
:1054dc0070b50400056d04f02bfb06002b78002b37
:1054ec001cd16868431c2cd1a868431c2fd1e868d8
:1054fc00431c32d12869431c35d1e36a013338d1be
:10550c00236b01333cd1300004f016fb2823e35c01
:10551c00002b02d13d330122e25470bd5a23e15cd1
:10552c000420285603f0b8fde36a013302d1236b43
:10553c000133e8d05b23e15c0420285603f0acfd7a
:10554c00e1e75423e15c40b203f0a6fdcce7552320
:10555c00e15c40b203f0a0fdc9e75623e15c40b228
:10556c0003f09afdc6e75723e15c40b203f094fdcb
:10557c00c3e75823e15c1420285603f08dfdbfe7e8
:0e558c005923e15c1820285603f086fdbbe78a
:020000040000fa
:02559a00fee72a
:020000040000fa
:10559c004b005b0d284af0b50d00591e04009142da
:1055ac0039d8264a9e1825d420002900332e20dc19
:1055bc00234a9b1826d4234ada4013002700214a99
:1055cc009f43f24038002f00234097432a40390074
:1055dc0013430ed0002f0cda3400203c25d4802548
:1055ec006d03e5402a0080246403f44023008018f6
:1055fc005941f0bd002d02db00200021f9e700200d
:10560c001149f6e720230f4a9b1b9a4001235b426a
:10561c00f3401343d2e720002900002be9d10022ec
:10562c00e90fcb0710001900e3e720248025a41b09
:10563c006d03a5402a00d6e7fd07000001fcffff23
:0c564c00e1fbffffffff0f000000f0bfbc
:020000040000fa
:1056580030b405004d400124e407254042004b00ca
:10566800120e32d01b0e3cd0ff2a33d0ff2b3fd076
:10567800d21800022043000a09022143090ac4b2d1
:105688004c43000ac3b24b43000a4843210a5b1843
:10569800190a091801d44900013a080a7f3a2adb95
:1056a800fe2a0fd2d2051c43240601d0012421432f
:1056b800c9b280295041802901d1400840002843bf
:1056c80030bc7047ff20c005f9e71b0eff2b0ad03e
:1056d8002800f5e7400206d1ff2bf3d1490202d199
:1056e800f0e7ff2af4d17f2000010c300005e7e73e
:1056f8004902f8d1e6e743020132e9d15b120233ed
:06570800e6d9d805e4e734
:020000040000fa
:10570e0070b504002623c35c002b00d070bdc56da0
:10571e00c36a01331fd0036b01331cd02b78002bcf
:10572e0006d03e23c15c0420285603f0b4fc1be0d7
:10573e0004f0fdf906003d23e15c1020285603f02d
:10574e00aafc3c23e15c1420285603f0a4fc300094
:10575e0004f0f1f908e02b78002b09d05b23e15c13
:10576e000420285603f097fc71230122e254cde762
:10577e0004f0ddf906006868431c09d1a868431cd3
:10578e000cd1e868431c0fd1300004f0d4f9ebe7dc
:10579e005823e15c40b203f07efcefe75923e15c55
:1057ae0040b203f078fcece75a23e15c40b203f020
:0457be0072fce9e7a9
:020000040000fa
:1057c200f0b54b6889b004930b6805000c009c4649
:1057d2008e68cf68079310685168cb0f0593002934
:1057e20044da0b000200002150429941049b002b35
:1057f20009db0222634693430793059b002b02d1e8
:10580200079b5a0723d5731e07aa02920a22009306
:1058120001920b000200200000f0cafe059b002b43
:1058220019d02d2301383b542269079b013a121ae1
:10583200391800932800330000f043fe6b68db0543
:1058420003d56368984200da180009b0f0bd1b075f
:10585200db0ff31ad8e7079b5a0702d52b2301382f
:10586200e1e71b07e0d520230138dce7049b002b8e
:04587200bfdac5e7ed
:020000040000fa
:02587600fee74b
:020000040000fa
:10587800f8b5002847d1274b1b78002b46d1254b7c
:10588800013070229854013298540132985418709b
:105898000e685e61ca6a9a618a6ada6100221a62cf
:1058a8004c69dc608c699c605a60988401256d4263
:1058b8009d6225301a545a704868d8628c681c63f7
:1058c800cf685f630f699f63cf69df640f6a1f65e5
:1058d8004f6a5f65096bd96564215a549a66da661e
