:020000040000fa
:020000040800f2
:10000000f0ff07203514000cc32a000cc52a000c91
:10001000c92a000cc92a000cc92a000cc92a000ce4
:10002000000000000000000000000000c92a000cd1
:10003000c92a000c00000000c92a000c5d25000c34
:10004000c92a000cc92a000cc92a000cc92a000cb4
:10005000c92a000cc92a000cc92a000cc92a000ca4
:10006000c92a000cc92a000cc92a000cc92a000c94
:10007000bd23000cc92a000cc92a000cc92a000c97
:10008000c92a000cc92a000cc92a000cc92a000c74
:10009000c92a000cc92a000cc92a000cc92a000c64
:1000a000c92a000cc92a000cc92a000cc92a000c54
:1000b000c92a000cc92a000cc92a000cc92a000c44
:1000c000c92a000cc92a000cc92a000cc92a000c34
:1000d000c92a000cc92a000cc92a000cc92a000c24
:1000e000c92a000cc92a000cc92a000cc92a000c14
:1000f0001102000c1102000c1102000c1102000c84
:100100001102000c1102000c4905000c4905000cfd
:100110004905000c4905000c4905000c4905000c77
:10012000dd1a000cdd1a000cdd1a000cdd1a000cc3
:10013000dd1a000cdd1a000c851a000c851a000c63
:10014000851a000c851a000c851a000c851a000c03
:10015000e924000cc92a000cc92a000cc92a000c89
:10016000c92a000cc92a000cc92a000cc92a000c93
:10017000c92a000cc92a000cc92a000cc92a000c83
:10018000c92a000cc92a000cc92a000cc92a000c73
:10019000c92a000cc92a000cc92a000cc92a000c63
:1001a000c92a000cc92a000cc92a000cc92a000c53
:1001b000c92a000cc92a000cc92a000cc92a000c43
:1001c000c92a000cc92a000cc92a000cc92a000c33
:1001d000c92a000cc92a000cc92a000cc92a000c23
:1001e000c92a000cc92a000cc92a000cc92a000c13
:1001f000c92a000cc92a000cc92a000cc92a000c03
:10020000c92a000cc92a000cc92a000cc92a000cf2
:10021000c92a000cc92a000cc92a000cc92a000ce2
:10022000c92a000cc92a000cc92a000cc92a000cd2
:10023000c92a000cc92a000cc92a000cc92a000cc2
:10024000c92a000cc92a000cc92a000cc92a000cb2
:10025000c92a000cc92a000cc92a000cc92a000ca2
:10026000c92a000cc92a000cc92a000cc92a000c92
:10027000c92a000cc92a000cc92a000cc92a000c82
:10028000c92a000cc92a000cc92a000cc92a000c72
:10029000c92a000cc92a000cc92a000cc92a000c62
:1002a000c92a000cc92a000cc92a000cc92a000c52
:0802b000c92a000cc92a000c48
:020000040000fa
:020000040a00f0
:040000000100fefffe
:020000040000fa
:020000040a00f0
:040004000100fefffa
:020000040000fa
:020000040a00f0
:040008000100fefff6
:020000040000fa
:020000040a00f0
:04000c000100fefff2
:020000040000fa
:020000040a00f0
:040010000100feffee
:020000040000fa
:020000040a00f0
:040014000100feffea
:020000040000fa
:020000040a00f0
:040018000100feffe6
:020000040000fa
:020000040a00f0
:04001c000100feffe2
:020000040000fa
:020000040a00f0
:04002000ffffffffe0
:020000040000fa
:020000040a00f0
:04002400ffffffffdc
:020000040000fa
:020000040a00f0
:04002800ffffffffd8
:020000040000fa
:020000040a00f0
:04002c00ffffffffd4
:020000040000fa
:020000040a00f0
:04003000ffffffffd0
:020000040000fa
:020000040a00f0
:04003400ffffffffcc
:020000040000fa
:020000040a00f0
:04003800ffffffffc8
:020000040000fa
:020000040a00f0
:04003c00ffffffffc4
:020000040000fa
:020000040a00f0
:0400400000000000bc
:020000040000fa
:020000040a00f0
:04004400ffffffffbc
:020000040000fa
:020000040a00f0
:0400480007000000ad
:020000040000fa
:020000040a00f0
:04004c00ff050000ac
:020000040000fa
:020000040a00f0
:040054000f0f00008a
:020000040000fa
:020000040a00f0
:040058007000000034
:020000040000fa
:020000040a00f0
:04005c00020000009e
:020000040000fa
:020000040a00f0
:04006000000000009c
:020000040000fa
:020000040a00f0
:040064000202000094
:020000040000fa
:020000040a00f0
:04200000000000c01c
:020000040000fa
:020000040a00f0
:042004000100feffda
:020000040000fa
:020000040a00f0
:04200800ffffffffd8
:020000040000fa
:020000040a00f0
:04202000ffffffffc0
:020000040000fa
:020000040a00f0
:04202400ffffffffbc
:020000040000fa
:020000040a00f0
:04202800ffffffffb8
:020000040000fa
:020000040a00f0
:04202c00ffffffffb4
:020000040000fa
:020000040a00f0
:04203000ffffffffb0
:020000040000fa
:020000040a00f0
:04203400ffffffffac
:020000040000fa
:020000040a00f0
:04203800ffffffffa8
:020000040000fa
:020000040a00f0
:04203c00ffffffffa4
:020000040000fa
:020000040a00f0
:04204000ffffffffa0
:020000040000fa
:020000040a00f0
:04204400ffffffff9c
:020000040000fa
:020000040a00f0
:04204800ffffffff98
:020000040000fa
:020000040a00f0
:04204c00ffffffff94
:020000040000fa
:020000040a00f0
:04205000ffffffff90
:020000040000fa
:020000040a00f0
:04205400ffffffff8c
:020000040000fa
:020000040a00f0
:04205800ffffffff88
:020000040000fa
:020000040a00f0
:04205c00ffffffff84
:020000040000fa
:020000040a00f0
:04206000ffffffff80
:020000040000fa
:020000040a00f0
:04206400ffffffff7c
:020000040000fa
:020000040a00f0
:04206800ffffffff78
:020000040000fa
:020000040a00f0
:04206c00ffffffff74
:020000040000fa
:020000040a00f0
:04207000ffffffff70
:020000040000fa
:020000040a00f0
:04207400ffffffff6c
:020000040000fa
:020000040a00f0
:04207800ffffffff68
:020000040000fa
:020000040a00f0
:04207c00ffffffff64
:020000040000fa
:020000040a00f0
:04208000ffffffff60
:020000040000fa
:020000040a00f0
:04208400ffffffff5c
:020000040000fa
:020000040a00f0
:04208800ffffffff58
:020000040000fa
:020000040a00f0
:04208c00ffffffff54
:020000040000fa
:020000040a00f0
:04209000ffffffff50
:020000040000fa
:020000040a00f0
:04209400ffffffff4c
:020000040000fa
:020000040a00f0
:04209800ffffffff48
:020000040000fa
:020000040a00f0
:04209c00ffffffff44
:020000040000fa
:020000040a00f0
:0420a000ffffffff40
:020000040000fa
:020000040a00f0
:0420a400ffffffff3c
:020000040000fa
:020000040a00f0
:0420a800ffffffff38
:020000040000fa
:020000040a00f0
:0420ac00ffffffff34
:020000040000fa
:020000040a00f0
:0420b000ffffffff30
:020000040000fa
:020000040a00f0
:0420b400ffffffff2c
:020000040000fa
:020000040a00f0
:0420b800ffffffff28
:020000040000fa
:020000040a00f0
:0420bc00ffffffff24
:020000040000fa
:020000040a00f0
:0420c000ffffffff20
:020000040000fa
:020000040a00f0
:0420c400ffffffff1c
:020000040000fa
:020000040a00f0
:0420c800ffffffff18
:020000040000fa
:020000040a00f0
:0420cc00ffffffff14
:020000040000fa
:020000040a00f0
:0420d000ffffffff10
:020000040000fa
:020000040a00f0
:0420d400ffffffff0c
:020000040000fa
:020000040a00f0
:0420d800ffffffff08
:020000040000fa
:020000040a00f0
:0420dc00ffffffff04
:020000040000fa
:020000040a00f0
:0420e00006070000ef
:020000040000fa
:020000040a00f0
:0420e40004cf0f0016
:020000040000fa
:020000040a00f0
:0420e80036f70707b9
:020000040000fa
:020000040a00f0
:0420ec00863a000030
:020000040000fa
:020000040a00f0
:0420f000ff030000ea
:020000040000fa
:020000040a00f0
:0420f4003f000000a9
:020000040000fa
:020000040a00f0
:0420f800bf00000025
:020000040000fa
:020000040a00f0
:0420fc00ffffffffe4
:020000040000fa
:020000040a00f0
:04210000ffffffffdf
:020000040000fa
:020000040a00f0
:04211000ffffffffcf
:020000040000fa
:020000040a00f0
:04211400ffffffffcb
:020000040000fa
:020000040a00f0
:04211800ffffffffc7
:020000040000fa
:020000040a00f0
:04211c00ffffffffc3
:020000040000fa
:020000040a00f0
:04212000ffffffffbf
:020000040000fa
:020000040a00f0
:048000000000ffff7e
:020000040000fa
:020000040a00f0
:048004000000ffff7a
:020000040000fa
:020000040a00f0
:048008000000ffff76
:020000040000fa
:020000040a00f0
:04800c000000ffff72
:020000040000fa
:020000040a00f0
:048010000000ffff6e
:020000040000fa
:020000040a00f0
:048014000000ffff6a
:020000040000fa
:020000040a00f0
:048018000000ffff66
:020000040000fa
:020000040a00f0
:04801c000000ffff62
:020000040000fa
:020000040a00f0
:04802000ffffffff60
:020000040000fa
:020000040a00f0
:04802400ffffffff5c
:020000040000fa
:020000040a00f0
:04802800ffffffff58
:020000040000fa
:020000040a00f0
:04802c00ffffffff54
:020000040000fa
:020000040a00f0
:04803000ffffffff50
:020000040000fa
:020000040a00f0
:04803400ffffffff4c
:020000040000fa
:020000040a00f0
:04803800ffffffff48
:020000040000fa
:020000040a00f0
:04803c00ffffffff44
:020000040000fa
:020000040a00f0
:0480400044000000f8
:020000040000fa
:020000040a00f0
:04804400ffffffff3c
:020000040000fa
:020000040a00f0
:04804800070000002d
:020000040000fa
:020000040a00f0
:04804c00ff0500002c
:020000040000fa
:020000040a00f0
:048054000f0f00000a
:020000040000fa
:020000040a00f0
:0480580070000000b4
:020000040000fa
:020000040a00f0
:04805c00020000001e
:020000040000fa
:020000040a00f0
:04806000000000001c
:020000040000fa
:020000040a00f0
:048064000202000014
:020000040000fa
:020000040a00f0
:04a00000000000c09c
:020000040000fa
:020000040a00f0
:04a004000000ffff5a
:020000040000fa
:020000040a00f0
:04a00800ffffffff58
:020000040000fa
:020000040a00f0
:04a02000ffffffff40
:020000040000fa
:020000040a00f0
:04a02400ffffffff3c
:020000040000fa
:020000040a00f0
:04a02800ffffffff38
:020000040000fa
:020000040a00f0
:04a02c00ffffffff34
:020000040000fa
:020000040a00f0
:04a03000ffffffff30
:020000040000fa
:020000040a00f0
:04a03400ffffffff2c
:020000040000fa
:020000040a00f0
:04a03800ffffffff28
:020000040000fa
:020000040a00f0
:04a03c00ffffffff24
:020000040000fa
:020000040a00f0
:04a04000ffffffff20
:020000040000fa
:020000040a00f0
:04a04400ffffffff1c
:020000040000fa
:020000040a00f0
:04a04800ffffffff18
:020000040000fa
:020000040a00f0
:04a04c00ffffffff14
:020000040000fa
:020000040a00f0
:04a05000ffffffff10
:020000040000fa
:020000040a00f0
:04a05400ffffffff0c
:020000040000fa
:020000040a00f0
:04a05800ffffffff08
:020000040000fa
:020000040a00f0
:04a05c00ffffffff04
:020000040000fa
:020000040a00f0
:04a06000ffffffff00
:020000040000fa
:020000040a00f0
:04a06400fffffffffc
:020000040000fa
:020000040a00f0
:04a06800fffffffff8
:020000040000fa
:020000040a00f0
:04a06c00fffffffff4
:020000040000fa
:020000040a00f0
:04a07000fffffffff0
:020000040000fa
:020000040a00f0
:04a07400ffffffffec
:020000040000fa
:020000040a00f0
:04a07800ffffffffe8
:020000040000fa
:020000040a00f0
:04a07c00ffffffffe4
:020000040000fa
:020000040a00f0
:04a08000ffffffffe0
:020000040000fa
:020000040a00f0
:04a08400ffffffffdc
:020000040000fa
:020000040a00f0
:04a08800ffffffffd8
:020000040000fa
:020000040a00f0
:04a08c00ffffffffd4
:020000040000fa
:020000040a00f0
:04a09000ffffffffd0
:020000040000fa
:020000040a00f0
:04a09400ffffffffcc
:020000040000fa
:020000040a00f0
:04a09800ffffffffc8
:020000040000fa
:020000040a00f0
:04a09c00ffffffffc4
:020000040000fa
:020000040a00f0
:04a0a000ffffffffc0
:020000040000fa
:020000040a00f0
:04a0a400ffffffffbc
:020000040000fa
:020000040a00f0
:04a0a800ffffffffb8
:020000040000fa
:020000040a00f0
:04a0ac00ffffffffb4
:020000040000fa
:020000040a00f0
:04a0b000ffffffffb0
:020000040000fa
:020000040a00f0
:04a0b400ffffffffac
:020000040000fa
:020000040a00f0
:04a0b800ffffffffa8
:020000040000fa
:020000040a00f0
:04a0bc00ffffffffa4
:020000040000fa
:020000040a00f0
:04a0c000ffffffffa0
:020000040000fa
:020000040a00f0
:04a0c400ffffffff9c
:020000040000fa
:020000040a00f0
:04a0c800ffffffff98
:020000040000fa
:020000040a00f0
:04a0cc00ffffffff94
:020000040000fa
:020000040a00f0
:04a0d000ffffffff90
:020000040000fa
:020000040a00f0
:04a0d400ffffffff8c
:020000040000fa
:020000040a00f0
:04a0d800ffffffff88
:020000040000fa
:020000040a00f0
:04a0dc00ffffffff84
:020000040000fa
:020000040a00f0
:04a0e000060700006f
:020000040000fa
:020000040a00f0
:04a0e40004cf0f0096
:020000040000fa
:020000040a00f0
:04a0e80036f7070739
:020000040000fa
:020000040a00f0
:04a0ec00863a0000b0
:020000040000fa
:020000040a00f0
:04a0f000ff0300006a
:020000040000fa
:020000040a00f0
:04a0f4003f00000029
:020000040000fa
:020000040a00f0
:04a0f800bf000000a5
:020000040000fa
:020000040a00f0
:04a0fc00ffffffff64
:020000040000fa
:020000040a00f0
:04a10000ffffffff5f
:020000040000fa
:020000040a00f0
:04a11000ffffffff4f
:020000040000fa
:020000040a00f0
:04a11400ffffffff4b
:020000040000fa
:020000040a00f0
:04a11800ffffffff47
:020000040000fa
:020000040a00f0
:04a11c00ffffffff43
:020000040000fa
:020000040a00f0
:04a12000ffffffff3f
:020000040000fa
:020000040c00ee
:10000000f8b500bff8bc08bc9e467047211f000c25
:10001000f8b500bff8bc08bc9e467047fd1e000c3a
:020000040000fa
:020000040c00ee
:10002000101602201c00000000000000a414022092
:100030003c00000000000000741302205400000087
:1000400000000000181402204c0000000000000016
:100050002c1602201c000000000000009c1602204c
:100060000c00000000000000401502202c000000e1
:1000700000000000ffff0020010000000000000061
:100080006c1502202c000000000000000000002081
:10009000ffff00000000000000000120ffff000043
:1000a0000000000064140220400000000000000076
:1000b000e01402203000000000000000a81602201a
:1000c0000c00000000000000c01602200800000024
:1000d00000000000b41602200c0000000000000028
:1000e000ffff01200100000000000000d9160220df
:1000f0000100000000000000c816022008000000f7
:100100000000000010150220300000000000000078
:10011000000b02204006000000000000da1602205a
:100120000200000001000000010000004011022058
:10013000f00000000000000000000220000b0000a2
:1001400000000000981502202800000000000000b8
:10015000e412022090000000000000003012022093
:10016000b4000000000000008c1602201000000007
:1001700000000000641602201400000000000000cf
:10018000e41602200100000000000000c01502205b
:100190002800000000000000e815022028000000f0
:1001a00000000000e0160220010000000000000036
:1001b000781602201400000000000000dc16022067
:1001c0000100000000000000481602201c00000092
:1001d00000000000d816022001000000000000000e
:1001e000d01602200400000000000000c813022006
:1001f0005000000000000000d4160220040000009f
:100200000000000000000000000000006666666656
:020000040000fa
:020000040c00ee
:100210006c4b9b7d002b00f0d38010b56a4b9c6a21
:10022000684b5b8b13f0020f16d0674bff2283f8ed
:100230002020022283f82120634b93f820305bb208
:10024000b3f1ff3f00f08a805f4b93f820305bb240
:10025000062b00f09c8010bd5a4b5b8b13f0010ff6
:1002600007d0594bff2283f82020022283f8212057
:10027000e2e7544b5b8b13f0040f07d0524bff2285
:1002800083f82020012283f82120d5e74e4b93f8f4
:1002900020305bb2032b42d0042b10d0022bcbd1e9
:1002a000494b1b692bb1484b9888002101f0e8fcb1
:1002b000c2e7454b9888012101f0e2fcbce7424ac5
:1002c000936912699a420bd03f4a9268d15c3d4ac9
:1002d0009162591cd369002bfcd13b4b9961abe770
:1002e000394b5b6973b1384b9b885b0043f001036a
:1002f000344a5362d369002bfcd1334b032283f879
:10030000202099e72f4a536843f440335360d36960
:10031000002bfcd12c4b062283f820208ce72a4ba3
:10032000d9695b69013b8b420bd0264ad369002b0c
:10033000fcd1244b986a244bda6850540131d961be
:100340007ae7204a536843f4e0235360d369002bd3
:10035000fcd11d4b062283f82020e6e71a4b002231
:1003600083f82020174a536843f440335360d3691d
:10037000002bfcd1134b9b221a76134b5b6a002b8c
:100380003ff469af104b5b6a2046984763e70e4b1a
:10039000002283f8202083f821200a4b9b221a7622
:1003a0001a46538b03f03003102bfad1064b5b6acd
:1003b000002b3ff450af044b5b6a204698474ae756
:0c03c000704700bf00008144401502207f
:020000040000fa
:020000040c00ee
:1003cc0030b45c4c247f002c40f0ad80054604f02a
:1003dc00ff0000294cd0002d4ad0574c646804f023
:1003ec000704012c61d0534805604260002444612d
:1003fc00846104614f488160002a5cd04d4ad3600f
:10040c004c4a012111774c4a127e12f0040f05d090
:10041c00494a916a117e11f0040ffad1464a518b68
:10042c0041f004015183117e41f080011176414964
:10043c008a68c968914203d93e48c168891a01612a
:10044c003d49496811f0070f45d13a4989699142f4
:10045c0035d2384a11680878374988629169013178
:10046c009161002b5bd0344b04229a7501205be028
:10047c00002b59d0002a57d02f4c646804f0070485
:10048c00012c0cd02b48056042600024446184612f
:10049c000461002daed1274900208860ace700290b
:1004ac0044d113f0010fedd03ee011f0010f3bd120
:1004bc00002be7d0f5e71f4a0021d160a0e71d4ac9
:1004cc001269002acdd01c4aff21916219490a6990
:1004dc00013a0a61c5e7174a9168490891601169a8
:1004ec0049081161d1684908d160916892698a42c2
:1004fc0008d2104a116808880f4988629169013145
:10050c009161aee70b4a1269002aaad00a4a4ff64b
:10051c00ff71916207490a69013a0a61a1e701205a
:10052c00054b987500e0002030bc704711f0010fae
:0c053c00b7d0f9e76c15022000208144c4
:020000040000fa
:020000040c00ee
:10054800524b586a524b9b7d002b00f09d8070b532
:100558004f494c6804f007044c4b5a699d699e68e2
:100568000b7e13f0040f56d0896a484bdb68934220
:1005780051d9002c41d1454b5b6899540132444b09
:100588001b7e13f0010f15d0414b012119753f4b0c
:100598009b68ab4255d93d4b1b68595d3c4b9962f2
:1005a80001353a4b1b690bb9b54263d0374bdb6851
:1005b800934263d0354b5a619d61354b1b7e13f0d6
:1005c800020f13d0334b1b78b3b1304bdb68934227
:1005d8000fd12e4b00221a772d4907240c752d496f
:1005e8000a701b6a43b1294b1b6a9847294b1b7831
:1005f80013b1274b02229a7570bd244b5b6823f810
:1006080012100132224b1b7e13f0010fd2d0204b67
:100618000121197509e01e4b1b7e13f0010fc9d08b
:100628001b4b01211975002cb1d0184b9b68ab42ac
:1006380013d9164b1b6833f81510154b9962013501
:10064800afe7124b1b69002babd0114bff2199620e
:100658000e490b69013b0b61a3e70c4b1b69002b8f
:100668009fd00b4b4ff6ff71996208490b69013b0c
:100678000b6196e7074b012119709be7044b012199
:1006880099750421197595e7704700bf6c1502200c
:0806980000208144ffff002057
:020000040000fa
:020000040c00ee
:1006a0004e4a137d92f82c20002a40f0918010b41d
:1006b000dbb202f0ff04002b40f08d80002870d0e8
:1006c0000268002a6dd0464c002908bf2146b1ebd4
:1006d000021f06d2b1ebc20f63d3dfed426a0324df
:1006e00002e0dfed416a012407ee901af8ee677a26
:1006f000f8ee666a07ee102ab8ee477a66ee876a69
:1007000087eea67afceec77a17ee903a591e41f6ac
:10071000fe72914249d8fdeec77af8eee77a37eedd
:10072000677af2ee007a27ee277afceec77a17eea8
:10073000901a490301f4ff1141ea03022b4b196897
:1007400021f0020119601946cb69002bfcd193b24c
:10075000264a93814368022b29d024490b6823f051
:10076000706323f4604343ea443343f080730b60c7
:100770004a688368c468234322f4015222f00702c6
:100780001343426813434b60184ad369002bfcd1d2
:10079000164a136843f002031360d369002bfcd19f
:1007a000012318465df8044b70470022c6e7136822
:1007b00023f0706323f4604343ea443313605168c9
:1007c0008368c068034321f047010b435360dbe7b4
:1007d0000023184670472346e3e700bfe0140220d9
:1007e00000879303080000001000000000408144cf
:020000040000fa
:020000040c00ee
:1007f0004c4b01221a614c4ad36943f48033d361d4
:10080000d36813f4807ffbd0484b0c229a64f0220b
:100810005a640022da661a46936f13f0400ffbd138
:10082000424a8823d364136c43f4206343f00203e9
:100830001364136913f0807ffbd03d4b3d4a1a626d
:100840001a46536813f0040ffbd1394b3a4a5a62e7
:100850001a46536813f0080ffbd1354b4122c3f8f9
:1008600090201a46d2f8903013f0400ffad0304b57
:100870004122c3f894201a46d2f8943013f0400f66
:10088000fad02b4b4122c3f8cc201a46d2f8cc30f8
:1008900013f0400ffad0264b4122c3f8d0201a465d
:1008a000d2f8d03013f0400ffad0214b4122c3f8d8
:1008b000d4201a46d2f8d43013f0400ffad01c4b93
:1008c0004122c3f8d8201a46d2f8d83013f0400f8e
:1008d000fad0174b4122c3f8dc201a46d2f8dc309c
:1008e00013f0400ffad0124b4122c3f808211a46e8
:1008f000d2f8083113f0400ffad00d4b4122c3f863
:1009000018211a46d2f8183113f0400ffad0084bcc
:100910004122c3f81c211a46d2f81c3113f0400fb3
:10092000fad0704700e000440080004400c000445a
:0c09300000000144060101000601020065
:020000040000fa
:020000040c00ee
:10093c00454ad36823f4e0631b041b0c43f0bf63ec
:10094c0043f40033d360bff35f8f62b63f4be022ba
:10095c0083f80c234ff48051196083f82c235960d1
:10096c0083f82d234ff40051596083f82e234ff454
:10097c008041596083f82f234ff40041596083f86c
:10098c0030234ff48031596083f831234ff4003118
:10099c00596083f832234ff48021596083f8332354
:1009ac004ff40021596083f834234ff480115960bf
:1009bc0083f835234ff40011596083f836234ff434
:1009cc008001596083f837234ff40001596083f894
:1009dc0038234ff08071596083f839234ff0007140
:1009ec00596083f83a234ff08061596083f83b23b8
:1009fc004ff00061596083f83c234ff080515960ef
:100a0c0083f83d234ff00051596083f83e234ff09b
:100a1c008041596083f83f234ff00041596083f8bf
:100a2c0040230121996083f841230221996083f8c6
:100a3c0042230421996083f843230821996083f8a9
:100a4c00442310229a60704700ed00e000e100e0c2
:020000040000fa
:020000040c00ee
:100a5c0000283cd00368384a002908bf1146b1eb86
:100a6c00430f36d3354a934235d807ee901af8ee39
:100a7c00677a07ee103af8ee476a87eea67adfed52
:100a8c00306a67eea67af2ee046a77eea67a77ee13
:100a9c00677afceee77a17ee902a2a498b4206d841
:100aac00b2f5ff7f19d8012a3dd9500816e0b2f5ee
:100abc00bf7f3ad2032a3bd950002349a1fb00c087
:100acc004008a1fb0212520842ea002006e0002076
:100adc0070470020704700207047ff2019498b4257
:100aec0094bf00210121194a136823f002031360fb
:100afc00d369002bfcd1154ad060136823f04073e6
:100b0c0043ea01631360136843f002031360d36973
:100b1c00002bfcd10d4b10225a831a46d369002ba3
:100b2c00fcd1012070470120d8e74ff67f70d5e744
:100b3c0040f20120d2e700bf0087930340420f0030
:100b4c0095bfd633801a0600abaaaaaa000081442e
:020000040000fa
:020000040c00ee
:100b5c000378002b6dd090f91030022b69d170b551
:100b6c000446066ab369c3f307223249542000fbda
:100b7c000212dbb203eb8303d56805ebc30595f9d1
:100b8c001c00b0f1ff3f0cd06b7fe3b900f01f03ea
:100b9c00c0f34a1000f5090001219940c00101f091
:100bac007fff6a6ab3699a4219d0236a2bb11a6a19
:100bbc00226200225a751a621a70256a15b16b7d71
:100bcc00012b29d070bd00f01f03c0f34a1000f5b3
:100bdc00090001219940c00101f064ffe1e7012304
:100bec003375f169236a2bb11a6a226200225a7595
:100bfc001a621a706b68002bdfd094f82630013320
:100c0c0084f826306b68aa680120984794f826303f
:100c1c00013b84f82630d0e7284600f0e7f80223a1
:100c2c006b7563695c682b696a68e968a868a0479a
:080c3c00c8e7704774130220a1
:020000040000fa
:020000040c00ee
:100c44002de9f0410478002c5fd090f90240022c89
:100c54005bd101290cbf076a476a002f55d016469d
:100c64000d4604463a68c2f307212b484ff04c0c5a
:100c74000cfb01015ffa82f8096901eb0818d8f846
:100c84000c108a4239d17e767a7e52b2b2f1ff3f9d
:100c94001bd0fb683b613f6a2946204601f092fc69
:100ca400d8f804306bb394f82830013384f8283032
:100cb400d8f80430d8f8082039463046984794f8d4
:100cc4002830013b84f828301be0a26b116899425c
:100cd40010d051688b420bd09268934208bf022314
:100ce40009d00023fb616368db6898473861d2e769
:100cf400012300e000230133f4e72946204601f0f4
:100d040061fc25b9204601f09cfcbde8f081204639
:0c0d140001f0a5fcf9e700bf1814022054
:020000040000fa
:020000040c00ee
:100d20002de9f84300295ed00f4600242f4e304baa
:100d300000f1010edff8bcc006e00cf801809a60fb
:100d4000621c0134974244d9726802f00702012afa
:100d500018d09968dd684a1cd3f81080424528bf36
:100d60000022954236d010f80480756805f007051a
:100d7000012de2d14d000cf81180691c00250cf802
:100d80000150dce7d3f80880d96808f101021d6939
:100d9000aa4228bf002291421cd01ef8145010f81d
:100da000141041ea0521756805f00705012d05d0ed
:100db000c9b20cf808109a60621cc2e74fea4805f5
:100dc0005ffa81f90cf818900135090a0cf8051042
:100dd000f1e7144601f08afc10b1044b01229a7528
:100de0002046bde8f8830c46f4e700bf006081446c
:080df000641402200000012040
:020000040000fa
:020000040c00ee
:100df8002de9f04186b0804681692e4ec1f3072067
:100e0800542202fb0060cbb203eb8303db00c06813
:100e18001d181c5a02fb0462936a994239d001ae2c
:100e280005f10c070fcf0fc63b683360214b5422e6
:100e380002fb04346a69236b53f8223003932a694e
:100e4800636b53f822300293aa69e36a53f822309d
:100e5800049363691b68002101a89847d8f81830e3
:100e6800a362002385f8203095f91c00b0f1ff3ffc
:100e78000cd06b7f93b900f01f03c0f34a1000f544
:100e8800090001219940c00101f00efe06b0bde83d
:100e9800f08195f82030002be6d0c0e700f01f0362
:100ea800c0f34a1000f5090001219940c00101f082
:080eb800f9fdebe774130220c1
:020000040000fa
:020000040c00ee
:100ec00010b5fff795fc01f08ffb00f049ff01f032
:100ed000e3fa01f0fffb01f071f801f0dcfa00f039
:100ee000b3fb00f051fe01f087f801f006f800f0c6
:100ef0003ffd01f021fb01f0f1fc00f097fd01f056
:100f000063f901f03bf81949002000f0c9fc184cc6
:100f100020601849002000f0d1fae0601649002056
:100f200000f044fa206101f0abfb1449002000f00e
:100f300081fc60601249002000f050fea06001f0ca
:100f400095fd01f06ffd01f097fd01f071fd00f0de
:100f5000bbfb01f081fc01f06bfc01f0b7fd01f07f
:100f6000b4fd01f06ffcfff7e9fc10bd9c26000cfe
:100f700064160220a425000c1424000ca42a000ce2
:040f8000182a000c1f
:020000040000fa
:020000040c00ee
:100f8400f8b52d494c6ad1e90623561c43f10007f4
:100f9400c1e90667002c4dd091f82030013381f867
:100fa4002030a36823b1a368013ba3604c6afcb161
:100fb400a368ebb9012500271f4e0de0204600f081
:100fc40035fea37803b96770e3680bb120699847cd
:100fd400746a6cb1a3685bb925756575a378002b39
:100fe400ecd1e368002be9d0e06901f03ff8ebe7ce
:100ff400124d00242e460ae06a6806eb44139a60f8
:10100400284600f0ddfa01342035322c0cd006ebf2
:101014004412527d002af6d006eb44120021517589
:10102400aa78012aefd1e7e7034a92f82030013b7e
:1010340082f82030f8bd00bf10150220000b0220fa
:020000040000fa
:020000040c00ee
:101044002de9f041294e2a4c4ff00108294f13e0b5
:10105400226afab1616a236a40469847a36a013357
:10106400226b934228bf002314e0a26aedb2bd5460
:10107400a36294f83430fbb9337e13f0040f32d0fa
:10108400b56aa36a0133226b934228bf0023e26a44
:101094009a42ddd0e26a9a42eed0726802f0070208
:1010a400012ae2d1a16a4a00e8b207f8110001322c
:1010b400c5f30725bd54dbe701f022fb236a002baf
:1010c400dad0616a94f83c3033b1a36b9842d3d33d
:1010d400236a00209847cfe7a36b9842ccd1236ab8
:1010e40000209847c8e7bde8f08100bf0060814454
:0810f40064140220000000203a
:020000040000fa
:020000040c00ee
:1010fc002de9f04182b00546284e0de002232377fe
:10110c00eb685b682269e1686088984741e0224699
:10111c003946284600f0fafdac6a002c3bd0237f00
:10112c00012b38d1a369c3f30722c2eb021206ebe1
:10113c008202dbb203eb4303d76907ebc3076a698f
:10114c007b699a4207d0eb685b69002107f11400b8
:10115c0098477b696b61237d022bcfd0042b0ed17a
:10116c0002232377d4f804c02269e1686088a3685d
:10117c000093eb68d3f808806346c04709e0012b65
:10118c0009d102232377eb681b68a2686168608829
:10119c0098470028bbd002b0bde8f081a41402200f
:020000040000fa
:020000040c00ee
:1011ac00f8b505460c4617461e4600f0cfff002842
:1011bc0042d0234b93f90030022b05d04ff0ff3473
:1011cc0001f0d8f92046f8bd002c2fd0ac4230d31a
:1011dc001c4b1b7853b101231b4a107840b12032b1
:1011ec000133322bf9d14ff0ff34e9e70023154ad4
:1011fc000121117000215170117551759df8181055
:10120c0091705460d7601661641b94600f49098813
:10121c009bb243ea0144d4614b1c9bb24ff6ff7264
:10122c00934208bf0123094a1380c9e74ff0ff34ea
:10123c00c6e74ff0ff34c3e74ff0ff34c2e700bfff
:10124c0010150220000b0220200b0220da160220bf
:020000040000fa
:020000040c00ee
:10125c00264b002908bf1946254a136823f00203c0
:10126c001360244b0022da609a60214ad369002b68
:10127c00fcd100282ed00368b3eb510f2cd830b41e
:10128c005b00b1fbf3f3013b194a116821f04051ab
:10129c001160146881684568294321431160ff2b54
:1012ac0028bfff23dbb21373536823f0070353608b
:1012bc005368c1680b435360d369002bfcd10120e8
:1012cc000b4a136843f002031360d369002bfcd163
:1012dc0030bc7047002000e00020054a136843f042
:1012ec0002031360d369002bfcd170470087930372
:0812fc00002081446c15022062
:020000040000fa
:020000040c00ee
:1013040070b582b0254d264c264e14e0f25c8df863
:101314000620013322699a4298bf0023e3606b6878
:1013240003f00703012b14bf9df80630bdf8063007
:10133400ab62237dbbb92b7e13f0010f2cd0a268c6
:10134400e3689a4225d06a6802f00702012addd1d7
:101354005a0016f813108df806100132b25c8df89d
:1013640007200133d6e701f01bfa2368002be2d0f3
:101374006168237f33b1a3699842dcd323680320d7
:101384009847d8e7a3699842d5d1236803209847a2
:10139400d1e7024b01221a7502b070bd006081448e
:0813a400641402200000012086
:020000040000fa
:020000040c00ee
:1013ac00002835d138b51d4b1b78002b33d11b4c85
:1013bc00012384f82a3084f8293023700a6862608b
:1013cc000025a5604868e06088682061a382cb692d
:1013dc00a3610b6ae3612562656284f828504b6a4d
:1013ec00e363cb68e3620b6923634b6963638b69cb
:1013fc00a3638b6aa36453692146094898476368c1
:10140c001b682146074898470223a370284638bd1d
:10141c004ff0ff3070474ff0ff30f8e71814022000
:08142c006d29000c6d24000c79
:020000040000fa
:020000040c00ee
:1014340008b5194b9847194b9847eff3108172b6ca
:10144400174ad2f8883043f47003c2f88830bff3e7
:101454004f8fbff36f8f01b962b6124a936823f0be
:10146400010393601346da6812f0010ffbd10d4bb0
:1014740024225a6001229a6000f088fe0a4b23f06d
:101484007f03074a9360094b9847094b9847094bd8
:10149400984701f070fafee7c12a000cc12a000c3b
:1014a40000ed00e00080804400000008d119000c29
:0814b400c12a000cc12a000c42
:020000040000fa
:020000040c00ee
:1014bc00002835d138b51d4b1b78002b33d11b4c74
:1014cc00012384f8503084f8513084f85230237062
:1014dc000a686261c869a0618869e06100252562bb
:1014ec004868e0608868a0606560a3844ff0ff33b3
:1014fc00a36284f826506570cb68e3620b692363a2
:10150c004b6963630b6ae36384f84450a564e56438
:10151c00d36821460648984702232374284638bdd1
:10152c004ff0ff3070474ff0ff30f8e77413022094
:04153c005d0b000c37
:020000040000fa
:020000040c00ee
:101540002de9f0411c4ad36a956a89b30e46ab4235
:1015500008bf002227d00122dff864c0174ca0f199
:10156000020e0138144f0ce0e15c81540133396bf9
:10157000994298bf0023b24214d2511cab4212d000
:101580000a46dcf8041001f007010129ecd15900ea
:1015900014f813800ef812800131615c00f812100b
:1015a0000133e4e71d46044bdd621046bde8f081df
:1015b0001d460a46f7e700bf641402200000002021
:0415c0000060814402
:020000040000fa
:020000040c00ee
:1015c40000283cd02de9f04186461d4b5a6ad0f8dc
:1015d4000880c2b1936844460025984518d300207a
:1015e40000219368c01841f100019369abb1d3f8ad
:1015f40008c010eb0c0641f10007bd4208bfb4421d
:101604000bd31a46ede7c0f808800d4b586214e07e
:101614000b4b58628261002003e0cef81830c2f808
:1016240018e0a8eb0000cef80800def8183023b16b
:10163400def808109a68521a9a60bde8f081704783
:04164400101502205b
:020000040000fa
:020000040c00ee
:101648001c4b1d4a1a6048f220029a814ff440321e
:101658005a601a46d369002bfcd1164a136843f026
:1016680002031360d369002bfcd1144b00221a62c9
:101678009a62da6283f8342083f83c209a63da8726
:101688001a609a60da601a751a779a61094b5b6872
:1016980003f00703012b094b14bf4ff6ff7247f6ff
:1016a800ff721a631a61034b80229a7504229a7595
:1016b800704700bf00608144042110406414022078
:020000040000fa
:020000040c00ee
:1016c80038b51a4c4ff0ff3323606360a360e360c2
:1016d800002525746574a574e57401234ff47a72a6
:1016e8002946134800f0e4fb206001234ff47a7286
:1016f8002946104800f0dcfb606001234ff47a7241
:1017080029460d4800f0d4fba06001234ff47a72fb
:1017180029460a4800f0ccfbe06001f003f901f02b
:1017280009f901f00ff901f015f938bd7816022012
:101738003d2a000c492a000c552a000c612a000c8d
:020000040000fa
:020000040c00ee
:101748001b4b1b7d002b31d010b5194a936851688b
:10175800184a127e12f0010f15d0994213d9154973
:1017680013484a6802f00702012a026814bfd25cd3
:1017780032f813208a62013344680a7e12f0010f9e
:1017880001d09c42edd80a4a936052689a420cd81c
:10179800074b00221a755a60064a01211175db6849
:1017a8001bb1034b1869db68984710bd704700bf31
:0817b800e0140220004081440e
:020000040000fa
:020000040c00ee
:1017c00000282ed010b40446184b1b7d5bbb174b72
:1017d0001860596001221a755868154b1b7e13f06a
:1017e000010f13d0a8b1002311494a6802f0070283
:1017f000012a14bfe25c34f813208a6201330a7ea6
:1018000012f0010f04d09842efd102e0002000e076
:101810001846064b98600120054b98755df8044bff
:101820007047002070470020f8e700bfe014022056
:0418300000408144af
:020000040000fa
:020000040c00ee
:1018340038b521b330bb154c012384f828300b682c
:101844006360134ae260b1f9042022810020002180
:10185400c4e906010025656284f820501b68294606
:101864000c48984763685b6898474ff4c8622946f8
:10187400094801f003f802232370204638bd4ff0d5
:10188400ff30fbe74ff0ff30f8e700bf10150220f0
:0c18940011017a44850f000c000b0220ab
:020000040000fa
:020000040c00ee
:1018a000002827d138b5164b1b7833bb144c0123c5
:1018b00084f8343084f8353023700a68e26048696f
:1018c000a0614868e0618868a06008696062c868d3
:1018d00020620025a5626560a5702563a3858b69dc
:1018e0002361636193692146064898470223637028
:1018f000284638bd4ff0ff3070474ff0ff30f8e713
:08190000a4140220351b000ca9
:020000040000fa
:020000040c00ee
:1019080008b5174b93f82c30cbb1154bda691b6a25
:10191800934214d2124b986a124a916a1b6a52680f
:1019280002f00702012a0e4a926914bfd15422f824
:10193800131001330a4a1362d2699a4200d008bdd3
:10194800074b002283f82c20da61064a842111759e
:101958005b6a002bf3d0024b5b6a9847efe700bf46
:08196800e0140220004081445c
:020000040000fa
:020000040c00ee
:10197000144b01221a601a46d369002bfcd1114b7b
:101980004ff480725a601a46d369002bfcd10d4b7c
:101990004322da600c4a1a601a46d369002bfcd144
:1019a000084b10225a831a46d369002bfcd1074bef
:1019b000002283f8212083f82020024b9b229a7575
:1019c000704700bf0000814416041000401502203b
:020000040000fa
:020000040c00ee
:1019d00038b50e4a00230e4c13600e4a0e4d1360ac
:1019e0000e4a13600e4a13600e4a13600e4a536289
:1019f00013610123936001f06bf801f069f8ac42c8
:101a000000d338bd54f8043b9847f8e7d4160220b9
:101a10000c00000cd41302201000000cd013022084
:0c1a2000c8130220cc130220d8130220af
:020000040000fa
:020000040c00ee
:101a2c00124b01229a611a46936913f0010ffbd0f5
:101a3c000e4b9a6942f002029a610d4ada61282231
:101a4c00c3f880209a6922f001029a611a469369c0
:101a5c0013f0010ffbd1074b00221a605a609a60f9
:101a6c00da601a615a619a61704700bf00e0014563
:081a7c001d58003a2c1602204f
:020000040000fa
:020000040c00ee
:101a840008b5144b9b7df3b1124a137edbb2927df1
:101a940012f0800f18d10f4a137edbb2927d12f040
:101aa400010f04d013f0010f01d0fff729fc094afc
:101ab400137edbb2927d12f0040f04d013f0040ff6
:101ac40001d0fff7bdfa08bd13f0800fe3d000f09a
:081ad400fbf8e0e7006081442b
:020000040000fa
:020000040c00ee
:101adc0008b5144b9b7df3b1124a137edbb2927d99
:101aec0012f0800f18d10f4a137edbb2927d12f0e8
:101afc00010f04d013f0010f01d0fff71ffe094aac
:101b0c00137edbb2927d12f0040f04d013f0040f9d
:101b1c0001d0fff7f3fe08bd13f0800fe3d000f007
:081b2c00f9fae0e700408144f2
:020000040000fa
:020000040c00ee
:101b340038b50378ebb190f90130022b19d1044682
:101b4400826a9169c1f30723c3eb03130c4800ebca
:101b54008300cdb205eb4503c56905ebc3052b69cd
:101b6400994207d0204600f093fe29462046fff70d
:101b7400c3fa38bd2946204600f0ccf8f5e700bf8b
:041b8400a414022083
:020000040000fa
:020000040c00ee
:101b8800114b124a1a6048f220029a814ff44032ef
:101b98005a601a46d369002bfcd10b4a136843f0ec
:101ba80002031360d369002bfcd1094b00229a6110
:101bb800da611a6283f82c205a621a605a609a60b5
:101bc8001a75da60da8570470040814404211040b4
:041bd800e0140220f3
:020000040000fa
:020000040c00ee
:101bdc00114b1b7823b90123104a13700e4a137052
:101bec00a0b9b1b10e4b93f9003013b14ff0ff30e7
:101bfc00704710b588680a4b98604a685a6002248e
:101c0c001c70536809689847002010bd4ff0ff30d6
:101c1c0070474ff0ff307047d9160220ffff0120ac
:041c2c00b4160220c8
:020000040000fa
:020000040c00ee
:101c3000124b5a6a02b310b4824204d18369a3b131
:101c4000002206e01a46936963b19842fad183698b
:101c500023b1846899682144996042b18369936192
:101c6000002383615df8044b70471a46f5e7034b88
:101c70005a6a92695a62f3e7704700bf1015022052
:020000040000fa
:020000040c00ee
:101c8000104b00229a61da610f4b9b221a765a6838
:101c900022f480225a601a46d369002bfcd161b12c
:101ca000084b032283f8202041ea4001064b596289
:101cb0001a46d369002bfcd17047024b042283f8eb
:0c1cc0002020f1e74015022000008144c4
:020000040000fa
:020000040c00ee
:101ccc0008b5104b5b8b13f0070300d108bd0e4a0f
:101cdc00d3870c4b80221a7607225a831b7e13f073
:101cec00040f05d0074b9a6a1a7e12f0040ffad132
:101cfc00054b1b6a002be9d0034b596a1b6a022067
:0c1d0c009847e3e7006081446414022063
:020000040000fa
:020000040c00ee
:101d1800f8b504460e461546c3681b69984785f80a
:101d2800240095f82430dbb2002b0cbf01274ff0bc
:101d3800ff376f752d6a204600f0a8fdb36853b1d0
:101d4800236b01332363b368f26829463846984702
:081d5800236b013b2363f8bd7e
:020000040000fa
:020000040c00ee
:101d6000104b01221a801a46136913f0010ffbd1a0
:101d70000c4b4ff401421a801a46136913f4004fba
:101d8000fbd1084b00221a621a46136913f0200f88
:101d9000fbd1044b00225a621a46136913f0400f1c
:081da000fbd1704700800144f3
:020000040000fa
:020000040c00ee
:101da8000e4b002283f8212083f820200c4a136868
:101db80023f002031360d369002bfcd1084a13688f
:101dc80043f002031360d369002bfcd1044b1022ab
:101dd8005a831a46d369002bfcd17047401502205c
:041de8000000814432
:020000040000fa
:020000040c00ee
:101dec0038b5044600f059fd002c16db63090c498c
:101dfc0051f8235004f01f04e54005f001050122c1
:101e0c0002fa04f4203341f82340bff34f8fbff3a1
:101e1c006f8f00f04bfd284638bd0025f9e700bf59
:041e2c0000e100e0f1
:020000040000fa
:020000040c00ee
:101e300007ee900ab8ee677a0c4bd3ed037a27eee3
:101e4000277adfed0b6ac7ee267abceee77af8ee6a
:101e5000476a77eee67af5eec07af1ee10faccbf7b
:101e60000120002017ee103a184470471015022088
:041e700000007a44b0
:020000040000fa
:020000040c00ee
:101e740038b5044600f06ef9d0b1204600f0d8f829
:101e8400054670b1437873b983680bb943688360be
:101e94002846fff795fb00242c756c7501236b70a5
:101ea40002e0012400e0002400f068fb204638bd75
:041eb4000124fbe723
:020000040000fa
:020000040c00ee
:101eb80070b582b01e4603b9c0b122b94ff0ff34e5
:101ec800204602b070bd0d4604461046fff7acff31
:101ed80000962b46224601460020fff763f9044688
:101ee800b0f1ff3fecd0fff7c1ffe9e74ff0ff3457
:021ef800e6e71b
:020000040000fa
:020000040c00ee
:021efa0070472f
:020000040000fa
:020000040c00ee
:101efc0010b5054c227832b9044b13b1044800e0fc
:101f0c0000bf0123237010bd10160220000000003a
:101f1c000000000008b5034b1bb10349034800e067
:101f2c0000bf08bd000000001416022000000000d5
:020000040000fa
:020000040c00ee
:101f3c00b8b138b505460c4a92f82c200ab10020ed
:101f4c0038bd0c4600f0bcf9074b9d61dc610022ea
:101f5c001a62012083f82c00da85044b84229a75ce
:101f6c00eee70020704700bfe014022000408144df
:020000040000fa
:020000040c00ee
:101f7c000c4b01221a601a46936813f0010ffbd127
:101f8c00084b00221a60da634ef65f211964064989
:101f9c00d96206490a6001229a621a469368002b9c
:101fac00fcd17047008081440ffc3f00c01602201a
:020000040000fa
:020000040c00ee
:101fbc000c4b01221a601a46136913f0010ffbd166
:101fcc00084b094a1a6000221a75022159754ff6fe
:101fdc00ff7119623f219972da801a461369002b3e
:0c1fec00fcd1704700c001450080074197
:020000040000fa
:020000040c00ee
:101ff8000b4b00221a621a779a60da60094b4ff489
:1020080008325a601a46d369002bfcd1054b1d22b1
:102018001a73054a1a601a46d369002bfcd1704717
:0c2028006c150220002081440e003000e6
:020000040000fa
:020000040c00ee
:10203400431e13f1030f0fd883b2312b0ed80a4a73
:1020440002eb4312d26982420ad15a0106498a5ce0
:1020540042b101eb431070470020704700207047e5
:0c2064000020704700207047000b022095
:020000040000fa
:020000040c00ee
:1020700010b5044600f070f8b0b12046fff7daff63
:10208000044678b1437843b900202075607520700c
:10209000044600f075fa204610bdfff7c9fd002385
:0c20a0006370f1e70124f4e70124f4e789
:020000040000fa
:020000040c00ee
:1020ac0038b5044600f052f8b0b12046fff7bcff3b
:1020bc00054678b1437823b9002400f05bfa20463a
:1020cc0038bdfff7affd00242c756c756c706b6818
:0c20dc00ab60f2e70124f0e70124f0e71c
:020000040000fa
:020000040c00ee
:1020e8000c4b93f820305bb20bb10020704710b551
:1020f800084b9880d9605a6100229a601a610124bd
:102108009c701a7083f821202146fff7b5fd204600
:0821180010bd00bf40150220bc
:020000040000fa
:020000040c00ee
:102120000b4b5b8b13f0070300d1704710b5094cc4
:10213000e38500f0cbf8064b84221a75002384f85f
:102140002c30636a13b1a06a636a984710bd00bf60
:0821500000408144e01402206c
:020000040000fa
:020000040c00ee
:102158000c4b93f820309bb90a4b93f82830012b8d
:1021680001d00020704710b5064c002384f82830b1
:10217800b4f90800fff736fe84f82100012010bded
:08218800012070471015022030
:020000040000fa
:020000040c00ee
:1021900070b50b484ff6ff760a4d016821b94368c8
:1021a00013b900f094fc70bd836800f10c04426820
:1021b0003340204655f82330984704eb8000ece785
:0821c0002000000c6c28000c4b
:020000040000fa
:020000040c00ee
:1021c8000b4a137843f001031370536813f0010f9f
:1021d800fbd1074b0022da611a621a7842f0020238
:1021e8001a701a46536813f0020ffbd1704700bfec
:0421f80000a00144fe
:020000040000fa
:020000040c00ee
:1021fc000b4b93f820305bb20bb10020704710b53d
:10220c000c46074b98800021d96059619c601a617b
:10221c009970197083f82110fff72cfd012010bd67
:04222c004015022037
:020000040000fa
:020000040c00ee
:1022300010b50b4c94f8204064b20cb1002010bdd6
:10224000074ca080e360029b6361a16022610021d2
:10225000a170217084f82110fff712fd0120eee734
:042260004015022003
:020000040000fa
:020000040c00ee
:1022640098b90b460a494979012902d04ff0ff3049
:10227400704710b511461846054c00236371236856
:102284001b6898470123637110bd4ff0ff307047fe
:04229400c816022046
:020000040000fa
:020000040c00ee
:1022980098b90b460a494979012902d04ff0ff3015
:1022a800704710b511461846054c00236371236822
:1022b800db6898470123637110bd4ff0ff3070470a
:0422c800c816022012
:020000040000fa
:020000040c00ee
:1022cc000a4b5b8b13f0070f0ed0084b80221a764b
:1022dc0007225a831b7e13f0040f05d0034b9a6a16
:1022ec001a7e12f0040ffad1704700bf00408144ef
:020000040000fa
:020000040c00ee
:1022fc0080b90a4b5b79012b02d04ff0ff3070474d
:10230c0010b5064c0023637123681b6998470123a1
:10231c00637110bd4ff0ff30704700bfc81602202c
:020000040000fa
:020000040c00ee
:10232c0080b90a4b5b79012b02d04ff0ff3070471c
:10233c0010b5064c0023637123685b699847012331
:10234c00637110bd4ff0ff30704700bfc8160220fc
:020000040000fa
:020000040c00ee
:10235c0080b90a4b5b79012b02d04ff0ff307047ec
:10236c0010b5064c0023637123689b6898470123c2
:10237c00637110bd4ff0ff30704700bfc8160220cc
:020000040000fa
:020000040c00ee
:10238c0080b90a4b5b79012b02d04ff0ff307047bc
:10239c0010b5064c0023637123685b6898470123d2
:1023ac00637110bd4ff0ff30704700bfc81602209c
:020000040000fa
:020000040c00ee
:1023bc0008b5084b9a8992b207494a604cf2ff3231
:1023cc009a819b890b6823b10b46486889681b6806
:0c23dc00984708bd008001449c160220b8
:020000040000fa
:020000040c00ee
:1023e80000030000cd27000c6522000c8d23000c93
:1023f8005d23000c9922000cfd22000c2d23000cfb
:0c2408007f26000cfd28000cb52a000cfb
:020000040000fa
:020000040c00ee
:102414004024000c010000008c1602200828000c47
:102424004c27000c0c2a000c002a000c05000000ac
:0c24340030120220f427000c030000000e
:020000040000fa
:020000040c00ee
:10244000e929000c3d1f000cd129000cdd29000cee
:10245000c124000cc529000cc117000cad29000ccb
:0c246000b929000ced28000ca106000cae
:020000040000fa
:020000040c00ee
:10246c0010b5044643685b6a984730b900230122d3
:10247c0019462046fef7e0fb10bd03464ff0ff3235
:0a248c0000212046fef7d8fbf6e71a
:020000040000fa
:020000040c00ee
:0224960070478d
:020000040000fa
:020000040c00ee
:10249800084b01221a601a46936a13f0010ffbd108
:1024a800044b02221a601a46936a13f0020ffbd1fa
:0824b800704700bf0020014540
:020000040000fa
:020000040c00ee
:1024c000074b93f82c3043b1064b84221a75044b0a
:1024d000002283f82c20da611a620120704700bfc5
:0824e000e014022000408144d9
:020000040000fa
:020000040c00ee
:1024e80010b5074a5168074bd86a4ff6ff74dc628b
:1024f800db6a136813b1136880b2984710bd00bf38
:08250800c0160220008081448e
:020000040000fa
:020000040c00ee
:102510000000000001000000ffffffffffffffffc2
:10252000ffffffffffffffffffffffffffffffffbb
:08253000ffffffffffffffffab
:020000040000fa
:020000040c00ee
:10253800054a002313609360044951600621116025
:10254800034a93601360704710e000e0bfd40100b5
:04255800a81602209f
:020000040000fa
:020000040c00ee
:10255c0008b5064b5868064a12689a6801329a60a8
:10256c001b6813b1014b1b68984708bda8160220c5
:04257c0010e000e08b
:020000040000fa
:020000040c00ee
:1025800010b5074c94f82110b4f9080000f03cf89d
:1025900094f8203013b9012284f8282010bd00bf20
:0425a00010150220f0
:020000040000fa
:020000040c00ee
:1025a4001c29000c98150220010000001025000cc5
:1025b4009c2a000c942a000c04000000e41202205f
:0425c4000c29000cd2
:020000040000fa
:020000040c00ee
:1025c800012907bf00f12002036a00f12402436acf
:1025d8002bb15969116000221a765a611a71704735
:020000040000fa
:020000040c00ee
:1025e800064b10225a6103221a6200229a62da69a3
:1025f80002f4803242f08072da6170470080004451
:020000040000fa
:020000040c00ee
:1026080051b1002808db420900f01f00012303fa3a
:1026180000f0024b43f82200704700bf00e100e0e1
:020000040000fa
:020000040c00ee
:10262800002310b5934206d113f0030018bf012010
:0e26380000eb930010bdc45ccc540133f2e7fc
:020000040000fa
:020000040c00ee
:1026460008b5436a4bb11a7e012a06d102221a76d0
:0c26560042685268d9689868904708bd37
:020000040000fa
:020000040c00ee
:1026620008b5036a4bb11a7e012a06d102221a76f4
:0c26720042689269d9689868904708bdda
:020000040000fa
:020000040c00ee
:02267e007047a3
:020000040000fa
:020000040c00ee
:10268000054b01221a7000221a715a719a60da60a1
:0c2690001a615a611a70704700a00145e1
:020000040000fa
:020000040c00ee
:10269c00b826000c401102200a0000004000000087
:0c26ac0000000220e027000c900100005c
:020000040000fa
:020000040c00ee
:1026b800e920000cfd21000c3122000ca91d000ca2
:0c26c8009529000c5d0a000c8929000c0b
:020000040000fa
:020000040c00ee
:1026d400044b01225a8002221a701a46d368002b36
:0826e400fcd1704700400144e5
:020000040000fa
:020000040c00ee
:1026ec00044a9368d06883423ebf024a12699b1821
:0826fc00181a70476414022053
:020000040000fa
:020000040c00ee
:10270400044bd86a9b6a984282bf024a126b9b1898
:08271400181a7047641402203a
:020000040000fa
:020000040c00ee
:10271c00044a136843f002031360936813f0020f2a
:08272c00fbd1704700808144dd
:020000040000fa
:020000040c00ee
:10273400044a136823f002031360936813f0020f32
:08274400fbd1704700808144c5
:020000040000fa
:020000040c00ee
:10274c00020000000000000000000800ffffffff77
:08275c00ffffffffffffffff7d
:020000040000fa
:020000040c00ee
:102764004115000c0527000c9127000c210d000ccd
:08277400852a000ca527000cca
:020000040000fa
:020000040c00ee
:10277c00034b187e80f00200c0f34000704700bf8e
:04278c000020814464
:020000040000fa
:020000040c00ee
:1027900010b5034b1c6bfff7b5ff013c201a10bdb1
:0427a000641402209b
:020000040000fa
:020000040c00ee
:1027a40010b5034b1c69fff79fff013c201a10bdb5
:0427b4006414022087
:020000040000fa
:020000040c00ee
:1027b800034b18641a46936813f0800ffbd17047d7
:0427c80000808144c8
:020000040000fa
:020000040c00ee
:1027cc0028b9034b01225a71096819601a717047b4
:0427dc00c8160220f9
:020000040000fa
:020000040c00ee
:1027e000000000002c0000002f000000300000005e
:0427f00031000000b4
:020000040000fa
:020000040c00ee
:1027f40000000000390000003a0000003b00000027
:042804003800000098
:020000040000fa
:020000040c00ee
:1028080005000000060000000700000000000000ae
:0428180001000000bb
:020000040000fa
:020000040c00ee
:10281c00f529000c1d27000c3527000c8d2a000c07
:04282c00b927000cbc
:020000040000fa
:020000040c00ee
:10283000034b4ff0ff321a605a6000221a72704741
:04284000c01502209d
:020000040000fa
:020000040c00ee
:10284400034b4ff0ff321a605a6000221a7270472d
:04285400e815022061
:020000040000fa
:020000040c00ee
:10285800034b4ff0ff321a605a6000221a72704719
:0428680048160220ec
:020000040000fa
:020000040c00ee
:10286c00cb28000c2926000cbd2a000cbd2a000c1c
:04287c00bd2a000c65
:020000040000fa
:020000040c00ee
:1028800032b1c9b20244034603f8011b9342fbd1a3
:04289000704700bfce
:020000040000fa
:020000040c00ee
:10289400836a2bb19a6a826200221a779a621a704a
:0228a40070477b
:020000040000fa
:020000040c00ee
:1028a600eff3108072b6bff35f8fb0fa80f0400985
:0228b600704769
:020000040000fa
:020000040c00ee
:1028b80018b1bff35f8f62b6704772b6bff35f8f10
:0228c800704757
:020000040000fa
:020000040c00ee
:1028ca000a440023914201d10020704701f8013bdc
:0228da00f8e71d
:020000040000fa
:020000040c00ee
:1028dc00024b04221a725a72704700bf0060004407
:020000040000fa
:020000040c00ee
:1028ec00024bd88d0022da85704700bfe01402201d
:020000040000fa
:020000040c00ee
:1028fc0010b9024b1879704703207047c816022094
:020000040000fa
:020000040c00ee
:10290c00000000003300000034000000350000001f
:020000040000fa
:020000040c00ee
:10291c005d12000ccd03000c7d27000ca129000cce
:020000040000fa
:020000040c00ee
:10292c0008b5024b1868fff7bbfb08bd78160220f0
:020000040000fa
:020000040c00ee
:10293c0008b5024b5868fff7b3fb08bd78160220a8
:020000040000fa
:020000040c00ee
:10294c0008b5024b9868fff7abfb08bd7816022060
:020000040000fa
:020000040c00ee
:10295c0008b5024bd868fff7a3fb08bd7816022018
:020000040000fa
:020000040c00ee
:0e296c0008b5002301221146fef766f908bdea
:020000040000fa
:020000040c00ee
:0e297a0008b50020fef79ffa00f0a0f8fce779
:020000040000fa
:020000040c00ee
:0c298800014b5862996270474015022014
:020000040000fa
:020000040c00ee
:0c299400014b93f8210070474015022011
:020000040000fa
:020000040c00ee
:0c29a000014b1862596270476c15022050
:020000040000fa
:020000040c00ee
:0c29ac00014b187d704700bfe0140220b2
:020000040000fa
:020000040c00ee
:0c29b800014b9868704700bfe01402203b
:020000040000fa
:020000040c00ee
:0c29c400014bd86019617047e01402203c
:020000040000fa
:020000040c00ee
:0c29d000014b93f82c007047e01402202b
:020000040000fa
:020000040c00ee
:0c29dc00014b186a704700bfe014022095
:020000040000fa
:020000040c00ee
:0c29e800014b586299627047e014022015
:020000040000fa
:020000040c00ee
:0c29f400014b186059607047c0160220ab
:020000040000fa
:020000040c00ee
:0c2a0000040000000000000002000000c4
:020000040000fa
:020000040c00ee
:0c2a0c0000000000ffffffff4000000082
:020000040000fa
:020000040c00ee
:0c2a1800b82a000ce823000c00000000ad
:020000040000fa
:020000040c00ee
:0c2a2400014b00221a707047e4160220db
:020000040000fa
:020000040c00ee
:0c2a3000014b00221a707047e0160220d3
:020000040000fa
:020000040c00ee
:0c2a3c00014b01221a747047781602202a
:020000040000fa
:020000040c00ee
:0c2a4800014b01225a74704778160220de
:020000040000fa
:020000040c00ee
:0c2a5400014b01229a7470477816022092
:020000040000fa
:020000040c00ee
:0c2a6000014b0122da7470477816022046
:020000040000fa
:020000040c00ee
:0c2a6c00014b00221a707047dc1602209b
:020000040000fa
:020000040c00ee
:0c2a7800014b00221a707047d816022093
:020000040000fa
:020000040c00ee
:082a840008b5fff731fe08bda3
:020000040000fa
:020000040c00ee
:082a8c00004870470087930326
:020000040000fa
:020000040c00ee
:082a940000000010000000002a
:020000040000fa
:020000040c00ee
:082a9c00000000000000002012
:020000040000fa
:020000040c00ee
:082aa4001c28000c4400000096
:020000040000fa
:020000040c00ee
:042aac00816170478d
:020000040000fa
:020000040c00ee
:042ab00041617047c9
:020000040000fa
:020000040c00ee
:042ab4000120704746
:020000040000fa
:020000040c00ee
:042ab8006427000c83
:020000040000fa
:020000040c00ee
:042abc00002070473f
:020000040000fa
:020000040c00ee
:022ac00070475d
:020000040000fa
:020000040c00ee
:022ac200fee72d
:020000040000fa
:020000040c00ee
:022ac400fee72b
:020000040000fa
:020000040c00ee
:022ac600704757
:020000040000fa
:020000040c00ee
:022ac800fee727
:020000040000fa
:020000040c00ee
:022aca00704753
:020000040000fa
:020000040c00ee
:022acc00704751
:020000040000fa
:020000040c00ee
:022ace0070474f
:020000040000fa
:020000040c00ee
:022ad00070474d
:00000001FF
