:020000040000fa
:10000000f0ff0020312d0000472f000037360000a0
:1000100000000000000000000000000000000000e0
:100020000000000000000000000000007b2c000029
:1000300000000000000000007b2c00007b2c000072
:10004000a53a00007b2c00007931000059340000f3
:1000500085340000b1340000dd34000009350000b3
:1000600035350000613500008d3500001f27000088
:10007000b93500007b2c000000000000872500003f
:10008000f7240000a72200003d2300007b2c000085
:100090007b2c00007b2c00007b2c00007b2c0000c4
:1000a0007b2c00007b2c00007b2c00007b2c0000b4
:1000b0007b2c0000000000007b2c0000252a0000a3
:1000c000252a0000252a0000252a0000bd2900005d
:1000d000bd290000bd290000bd2900007d010000f0
:1000e0007d0100007d0100007d010000b9060000d7
:1000f000b9060000b9060000b90600007b2c00001c
:100100007b2c00007b2c00007b2c00007b2c000053
:100110007b2c00007b2c00007b2c00007b2c000043
:100120007b2c00007b2c00007b2c00007b2c000033
:100130007b2c00007b2c00007b2c00007b2c000023
:100140007b2c00007b2c00007b2c00007b2c000013
:0c015000b13100007b2c00007b2c000073
:020000040000fa
:10015c00f8b5c046f8bc08bc9e4670476d2f000031
:10016c00f8b5c046f8bc08bc9e467047492f000045
:020000040000fa
:10017c0010b540f60043c4f200239b7d43b342f21a
:10018c008033c2f200039c6a40f60043c4f20023a1
:10019c005b8b9b071dd542f28033c2f200032022f9
:1001ac00ff2199540132fd39995442f28033c2f245
:1001bc00000320229b5c5bb2013300d1e5e042f2ec
:1001cc008033c2f2000320229b5c062b00d108e195
:1001dc0010bd40f60043c4f200235b8bdb070ad54d
:1001ec0042f28033c2f200032022ff2199540132e3
:1001fc00fd399954d9e740f60043c4f200235b8bd8
:10020c005b070ad542f28033c2f200032022ff21a1
:10021c0099540132fe399954c7e742f28033c2f245
:10022c00000320229b5c5ab2032b78d0042a1bd0eb
:10023c00022abad142f28033c2f200031b694bb1dd
:10024c0042f28033c2f20003988880b2002102f09f
:10025c00d5faaae742f28033c2f20003988880b242
:10026c00012102f0cbfaa0e742f28033c2f2000384
:10027c009a691b69934218d042f28033c2f2000390
:10028c009b68995c40f60043c4f200239962511cb0
:10029c0040f60042c4f20022d369002bfcd142f29a
:1002ac008033c2f2000399617fe742f28033c2f2dd
:1002bc0000035b69dbb142f28033c2f200039b881e
:1002cc005b000122134340f60042c4f20022536249
:1002dc0040f60042c4f20022d369002bfcd142f25a
:1002ec008033c2f200032022032199545de740f6cb
:1002fc000043c4f200235968c02292020a435a6098
:10030c0040f60042c4f20022d369002bfcd142f229
:10031c008033c2f2000320220621995445e742f2b1
:10032c008033c2f20003d9695b69013b8b4214d064
:10033c0040f60042c4f20022d369002bfcd140f6f7
:10034c000043c4f20023986a42f28033c2f20003e5
:10035c00da6850540131d96127e740f60043c4f202
:10036c0000235868e022d20202435a6040f6004251
:10037c00c4f20022d369002bfcd142f28033c2f2ca
:10038c000003202206209854d2e742f28033c2f2b6
:10039c0000030021995440f60043c4f2002359682d
:1003ac00c02292020a435a6040f60042c4f2002274
:1003bc00d369002bfcd140f60043c4f200239b22ee
:1003cc001a7642f28033c2f200035b6a002b00d132
:1003dc00fee642f28033c2f200035b6a20009847cb
:1003ec00f6e642f28033c2f20003002220215a5476
:1003fc0001315a5440f60043c4f200239b321a7662
:10040c0040f60042c4f200220f31538b0b40102bec
:10041c00fbd142f28033c2f200035b6a002b00d1a5
:10042c00d6e642f28033c2f200035b6a20009847a2
:02043c00cee60a
:020000040000fa
:02043e00704705
:020000040000fa
:10044000f0b5de4657464e464546e0b5bff35f8ff2
:1004500062b64ef20013cef2000340f20037d859d4
:10046000ff218843c0221043d85140f2010a504670
:100470001860dc598e4d2c40c02000040443dc5130
:1004800040f2040948461860de593602360ac02098
:1004900000060643de510820186040f204369f59da
:1004a0008f4317439f51083018609f5981488446f5
:1004b00038404cf200073843985120201860985972
:1004c0002840c024240420439851402018609859a3
:1004d0000002000ac0273f06384398518020186068
:1004e0000436985988431043985140f20010186020
:1004f0009859674638404cf200073843985140f20b
:1005000000201860985928402043985140f200403c
:10051000186098590002000ac0273f0638439851d6
:1005200040f60000186040f20c3b58461e588e43bf
:1005300016431e5041f200084046186058461e58a7
:100540003602360a3e431e5048f200061e6040f254
:100550001036985988431043985180204002186003
:100560009859674638404cf200073843985180202c
:100570008002186098592840204398518026f6023e
:100580001e6040f21c3b58461e583602360a0007d1
:10059000064358461e50802636061e6040f220361e
:1005a0009859884310439851504658609859674667
:1005b00038404cf200073843985140f2020a504646
:1005c0005860985928402043985148465860985997
:1005d0000002000ac0273f0638439851082058609f
:1005e0000436985988431043985110205860985900
:1005f000674638404cf20007384398512020586035
:10060000985928402043985140205860985900023a
:10061000000ac0273f0638439851802058600436ae
:10062000985988431043985140f2001058609859e7
:10063000674638404cf200073843985140f200209a
:100640005860985928402043985140f20040586023
:1006500098590002000ac024240604439c5140f625
:100660000000586040f22c341e598e4316431e5130
:10067000404658601e59604606403e431e5142f2b5
:1006800000065e601e593540c02000042843185102
:1006900044f20000586018341859884302431a5134
:1006a00010229a60f0bcbb46b246a946a046f0bdf7
:0806b000ffff00ffff00ffff48
:020000040000fa
:1006b80070b542f25433c2f20003586a41f20003a3
:1006c800c4f200239b7d002b00d199e041f2000287
:1006d800c4f20022556807210d4042f25433c2f299
:1006e800000359699c699e68137e5b0700d49ee0ed
:1006f80041f20003c4f200239a6a42f25433c2f270
:100708000003db688b4200d891e0002d00d078e030
:1007180042f25433c2f200035b685a54013141f289
:100728000003c4f200231b7edb072ad541f2000335
:10073800c4f2002301221a7542f25433c2f20003b4
:100748009b68a34200d897e042f25433c2f20003f8
:100758001b681a5d41f20003c4f200239a62013457
:1007680042f25433c2f200031b6913b9b44200d1f8
:10077800afe042f25433c2f20003db688b4200d18f
:10078800aee042f25433c2f2000359619c6141f277
:100798000003c4f200231b7e9b0725d542f2e943e0
:1007a800c2f200031b785bb342f25433c2f2000377
:1007b800db688b421ed142f25433c2f2000300219f
:1007c800197741f20002c4f200220724147542f29c
:1007d800e942c2f2000211701b6a8bb142f2543333
:1007e800c2f200031b6a984742f2e943c2f20003cf
:1007f8001b782bb141f20003c4f2002302229a7540
:1008080070bd42f25433c2f200035b684d00ea52f5
:10081800013141f20003c4f200231b7edb07b0d58f
:1008280041f20003c4f2002301221a750fe041f2dd
:100838000003c4f200231b7edb07a2d541f20003ac
:10084800c4f2002301221a75002d00d174e742f288
:100858005433c2f200039b68a34223d942f25433b3
:10086800c2f200031b686200d25a41f20003c4f2cc
:1008780000239a62013473e742f25433c2f2000350
:100888001b69002b00d16be741f20003c4f200237f
:10089800ff229a6242f25433c2f200031a69013a03
:1008a8001a615de742f25433c2f200031b69002b60
:1008b80000d155e741f20003c4f200234ff6ff725e
:1008c8009a6242f25433c2f200031a69013a1a6179
:1008d80046e742f2e943c2f2000301221a7050e7e8
:1008e80041f20003c4f2002301229a7503321a75fb
:0208f80047e7d0
:020000040000fa
:1008fa0070b5050042f25434c2f20004247fe0b21b
:10090a00002c00d003e100297ad0002d78d041f2e2
:10091a000004c4f20024666807243440012c00d184
:10092a0096e042f25430c2f20000056042600024b0
:10093a0044618461046142f25430c2f20000816071
:10094a00002a00d189e042f25432c2f20002d36096
:10095a0042f25432c2f200020121117741f200023e
:10096a00c4f20022127e520708d541f20002c4f2f4
:10097a0000220420916a117e0142fbd141f2000259
:10098a00c4f20022518b042001435183117e7c3032
:10099a000143117642f25432c2f200029168d268df
:1009aa008a4206d942f25432c2f20002d068401a90
:1009ba00106141f20002c4f200225268520768d163
:1009ca0042f25432c2f2000292698a424cd242f294
:1009da005432c2f200021168087841f20001c4f2ee
:1009ea0000218862916901319161002b00d186e072
:1009fa0041f20003c4f2002304229a75012087e021
:100a0a00002b00d184e0002a00d181e041f20004e9
:100a1a00c4f20024666807243440012c13d042f241
:100a2a005430c2f2000005604260002444618461cf
:100a3a000461002d00d07ee742f25431c2f2000177
:100a4a00002088607ce7002963d1dc07e7d55fe0f6
:100a5a00cc075dd4002be2d0f7e742f25432c2f25f
:100a6a0000020021d16073e742f25432c2f200025e
:100a7a001269002ab9d041f20002c4f20022ff2111
:100a8a00916242f25432c2f20002116901391161d3
:100a9a00abe742f25432c2f200029168490891600f
:100aaa00116949081161d1684908d1609168926950
:100aba008a420ed242f25432c2f200021168088807
:100aca0041f20001c4f20021886291690131916109
:100ada008be742f25432c2f200021269002a84d031
:100aea0041f20002c4f200224ff6ff71916242f213
:100afa005432c2f2000211690139116175e741f2fb
:100b0a000003c4f2002301229a75012000e00020ac
:080b1a0070bdcc0799d5fbe783
:020000040000fa
:100b220041f20003c4f2000302221a7641f20043aa
:100b3200c4f2000340f256329a829a7d01210a439e
:100b42009a7541f20042c4f20002d3681942fcd005
:100b520041f20043c4f2000304221a7441f6000376
:100b6200c4f20003023a1a6241f20003c4f2000323
:100b720000221a8641f20002c4f2000280214904d6
:100b820013690b42fcd046f22003c0f280031b68bb
:100b92005b009b0e9b0240f200221343d200c4f280
:100ba2000002536341f20002c4f2000280214904b0
:100bb20013690b42fcd041f20003c4f2000302228b
:100bc2001a86d202c4f200028021490413690b4240
:100bd200fcd041f60043c4f2000340f20712c0f217
:100be20001021a6241f60042c4f200020421536873
:100bf2001942fcd141f60043c4f200039022402185
:100c0200995041f60042c4f2000290201358194252
:100c1200fcd041f60043c4f20003942240219950d3
:100c220041f60042c4f20002942013581942fcd04b
:100c320041f60043c4f2000398224021995041f644
:100c42000042c4f20002982013581942fcd041f627
:100c52000043c4f20003c4224021995041f60042ed
:100c6200c4f20002c42013581942fcd041f60043da
:100c7200c4f20003c8224021995041f60042c4f256
:100c82000002c82013581942fcd041f60043c4f2b6
:100c92000003cc224021995041f60042c4f20002e6
:100ca200cc2013581942fcd041f60043c4f2000391
:100cb200d0224021995041f60042c4f20002d020d5
:100cc20013581942fcd041f60043c4f20003e42257
:100cd2004021995041f60042c4f20002e420135828
:100ce2001942fcd041f60043c4f20003f022402135
:100cf200995041f60042c4f20002f0201358194202
:100d0200fcd041f60043c4f20003f822402199507e
:100d120041f60042c4f20002f82013581942fcd0f6
:0e0d220041f20043c4f2000304225a607047fd
:020000040000fa
:100d3000f0b5c64600b5040042f22432c2f2000209
:100d4000107dc0b22c23d35cdab2002b00d0ace013
:100d5000002800d0ade0002c00d1a7e02568002dd0
:100d600000d1a3e019b946f60041c0f2dc212b0105
:100d70008b4207d9eb008b4200d997e040f208087c
:100d8000032602e040f210080126080002f0fafcf7
:100d9000071c404602f0f6fc8046280002f0f2fcf8
:100da000011c404601f0dbf8011c381c01f010fb6f
:100db000051c02f0b4fc0700421e41f6fe73002140
:100dc0009a4213d8281c02f05ef902f071fc011c53
:100dd000281c02f009fe8221c90501f0c0f802f0ca
:100de0009efc4103ff235b031940394340f6000397
:100df000c4f200231a68022082431a6040f60002ff
:100e0000c4f20022d369002bfcd189b240f6000362
:100e1000c4f2002399816368022b31d040f60002ae
:100e2000c4f20022136841f6ff71cff2ff010b40bc
:100e300076031e4380235b04334313605168a36829
:100e4000e06803431c4801400b4361680b43536057
:100e500040f60002c4f20022d369002bfcd140f618
:100e60000003c4f200231a6802210a431a6040f604
:100e70000002c4f20022d369002bfcd1012015e04e
:100e80009b02c4f200231a6841f6ff71cff2ff0102
:100e90000a40760316431e605968a268e068024360
:100ea000472081430a435a60d2e7002080bcb846fd
:0c0eb000f0bd1000fae7c046b8dffffffd
:020000040000fa
:100ebc00482400201c00000000000000c02400207a
:100ecc0008000000000000009c2400200c00000022
:100edc0000000000c82400200800000000000000f2
:100eec00e82200203c00000000000000a8240020a4
:100efc000c00000000000000d024002008000000be
:100f0c00000000006422002004000000000000002b
:100f1c00c02000207400000000000000e824002025
:100f2c0002000000000000005423002058000000c4
:100f3c00000000002423002030000000000000000e
:100f4c00000000200020000000000000e421002030
:100f5c0040000000000000007c2400201000000075
:100f6c00000000000024002024000000000000000d
:100f7c008c2400201000000000000000242400201d
:100f8c002400000000000000d823002028000000ee
:100f9c0000000000ac2300202c000000000000002a
:100fac00642400201800000000000000d824002059
:100fbc000800000000000000242200204000000077
:100fcc0000000000682200208000000000000000eb
:100fdc0000200020c0000000000000003421002090
:100fec006000000000000000ea2400200200000065
:100ffc0000000000b42400200c00000000000000e1
:10100c00e0240020040000000000000094210020d7
:10101c005000000000000000e42400200400000048
:10102c00000000000000000000000000666666661c
:020000040000fa
:10103c000122d20703004b403cd430b4431a01d2f6
:10104c00c01ac9184b004400240eff2c28d024b31e
:10105c001b0e20d0e31a182b1ddc09021143c40d02
:10106c00000210435d4219350a00aa40d209d9404a
:10107c00451801d36d080234013ce405280a01210e
:10108c00c9072d062a438a4160414100090eff29f8
:10109c0001d3c00dc00530bc7047c00fc007fae7c4
:1010ac0042001823da41ff2af5d07f2000010c30d2
:1010bc000005f0e7a4465140431a02d25340c01a2f
:1010cc00c9184b00090211431b0e4400240eff2cbf
:1010dc0040d083b15b421b19012b10d322d1c30d1d
:1010ec004002401a10d3db050100400ac9059141aa
:1010fc005841644670472442fbd10020f9e7c30de8
:10110c0040024900401af4d0002101314000fcd3c8
:10111c008c4204d95b1adb05400ac018e9e7180aaf
:10112c00c007e6e7192be4d801330c00d940dc41a9
:10113c004c40012c4941c30d00021043441a01d408
:10114c00a4006408013bdb05200a240694415841a5
:10115c0064467047ff2b01d04102cad07f200001aa
:06116c000c300005c5e790
:020000040000fa
:021172007047c4
:020000040000fa
:1011740070b5002800d18ce0046819b946f6004126
:10118400c0f2dc216300994200d284e044f240239f
:10119400c0f20f039c4200d97fe0080002f0f0fa8d
:1011a400051c200002f0ecfa011c281c01f00ef9c9
:1011b400061c4bf69571c3f2d631281c00f0cdfe07
:1011c4000021c4f22011fff737ff011c301c02f08c
:1011d40009fc02f0a2fa41f68023c0f206039c4205
:1011e40043d840f2fe13ff25984203d8fe3d012860
:1011f40000d9450841f68023c0f20603a3429b416f
:10120400594240f60043c4f200231a680220824384
:101214001a6040f60042c4f20022d369002bfcd1cc
:1012240040f60043c4f20023dd601a681c48024003
:1012340009060a431a601a6802210a431a6040f632
:101244000042c4f20022d369002bfcd140f60043d3
:10125400c4f2002310225a8340f60042c4f2002252
:10126400d369002bfcd1012070bd40f27d134ff6f1
:101274007f759842bed840f201250328bad94500ab
:101284007b3bff3bb5fbf3f52d02b0fbf3f00543cd
:10129400b0e70020e8e70020e6e70020e4e7c046e6
:0412a400fffffffc4d
:020000040000fa
:1012a800f8b540f20045c4f2002504262ce042f2cd
:1012b800e412c2f20002126adab342f2e417c2f28e
:1012c8000007796a3b6a01209847bb6a01333a6b89
:1012d8009342924113402ce042f2e412c2f200021f
:1012e800926a5200e0b241f20001c2f20001885451
:1012f8000132a4b2240a8c5442f2e412c2f200026f
:1013080093623423d35c63bb2b7e334259d0ac6adf
:1013180042f2e412c2f20002936a0133126b934262
:101328009241134042f2e412c2f20002d26a9a4297
:10133800bdd042f2e412c2f20002d26a9a42e3d06d
:10134800696807220a40012ac6d042f2e412c2f2b2
:101358000002916ae4b241f20002c2f2000254545f
:10136800cae702f0c6f942f2e413c2f200031b6aac
:10137800002b9ad042f2e413c2f20003596a3c22cd
:101388009b5c73b142f2e413c2f200039b6b984278
:101398008bd342f2e413c2f200031b6a0020984781
:1013a80083e742f2e413c2f200039b6b984200d039
:1013b8007be742f2e413c2f200031b6a002098475d
:0413c80073e7f8bd12
:020000040000fa
:1013cc00f0b5de4657464e464546e0b583b00400c0
:1013dc008c46002900d181e08346012340f2004174
:1013ec00c4f20021072042f2e412c2f20002013cd6
:1013fc00a04612e04d466d0040f20009c2f2000911
:10140c004f467e55013500267e5594605c1c40f29b
:10141c000209cb4463454fd223005e1e4c68044046
:10142c00012c18d09468a146d468a2464c460134cd
:10143c001569ac42ad412c40a2453ed04546ee5c10
:10144c004d680540012dd5d040f20005c2f20005d3
:10145c004f46ee55d9e79468a146d468a2464c464f
:10146c0001341569ac42ad412c40a24525d05d46f6
:10147c006d782d025e463678354301954e680640f0
:10148c00012e08d0edb240f20006c2f200064f4623
:10149c00f5559460bae74e4676006d462f79ba46fc
:1014ac0040f20009c2f200094f465546bd550136bf
:1014bc00019d2d0abd55ece71e0002f006f928b17e
:1014cc0040f20043c4f2002301229a75300003b0ad
:1014dc00f0bcbb46b246a946a046f0bd0e00ece7f8
:020000040000fa
:1014ec00f0b50400000142f22425c2f20005ac461e
:1014fc006044067bf6b246f20000c4f200103f27af
:10150c00c55dedb2c4550f37c05d800702d1002018
:10151c00002e5cd146f20000c4f200104e260327c8
:10152c008755260142f22420c2f200003018023ff7
:10153c00077342f26820c2f20000305a40054dd5c4
:10154c00c918300042f26826c2f20006b446604464
:10155c00416042f26821c2f200012001415a0905a2
:10156c0045d5d218010042f26820c2f20000844630
:10157c0061448a6042f26822c2f2000221018a5a56
:10158c009205920fd3409bb242f26822c2f2000243
:10159c00944661444b8046f20003c4f20013402190
:1015ac005a5c022002435a545a6c596c082313405b
:1015bc0043f600720a401343013843b946f2000265
:1015cc00c4f2001211690133a3400b43136146f2bc
:1015dc000003c4f200133f229d54f0bd200142f2df
:1015ec006826c2f20006b44660444160b1e72101ae
:1015fc0042f26820c2f20000844661448a60b9e776
:020000040000fa
:10160c0070b5002800d077e042f23413c2f2000328
:10161c001b78002b00d072e042f23413c2f20003ac
:10162c0001303d229854013a985418700c685c6053
:10163c0000229a604d68dd608d681d619882c86ad1
:10164c009861086bd8611a625a6228201a544a6b46
:10165c001a65ca68da620a691a634a695a638a693e
:10166c009a63ca691a640a6a5a644a6a9a648a6ae8
:10167c00da648a6bda65db6a013323d142f2341106
:10168c00c2f2000143f65b20c0f200006369984788
:10169c0042f23413c2f200031b6b01331fd142f22e
:1016ac003411c2f2000143f28960c0f200004b68b1
:1016bc001b68984742f23413c2f2000302229a705c
:1016cc00002070bd42f23412c2f20002d06a43f222
:1016dc000d61c0f20001c0b202f014f9d8e742f279
:1016ec003412c2f20002106b43f2e351c0f200015b
:1016fc00c0b202f007f9dde701204042e1e701202a
:04170c004042dee792
:020000040000fa
:10171000f0b5ce46474680b583b004000d00019277
:101720000278002a66d002228256022a62d101295a
:1017300038d0466a002e5dd03168080aff2738404d
:1017400042001218520142f23410c2f200008446e4
:1017500062440f403f011269bf18fa68914241d1bb
:10176000019a7276727e52b201321dd0f3683361f3
:10177000336a99462900200001f0e3ff7b68abb390
:1017800040f228084346e35c01334246a354ba685a
:101790007b684946019898474346e35c013b4246d3
:1017a000a35423e0066ac5e7226b013202d000236e
:1017b0003361dde7e26c11688b420ed051688b42d9
:1017c0000ed0916800228b4205d0f2616368db681d
:1017d00098473061cce7023200e000220132f4e7a2
:1017e0000122fbe72900200001f0abff3db92000fa
:1017f00001f0b2f903b0c0bcb946b046f0bd20005c
:0618000001f00cfaf6e70e
:020000040000fa
:10180600f8b5ce46474680b540f20046c4f20026fb
:1018160040f2010942f2e414c2f20004072117e083
:101826005a0040f20000c2f20000875cbc4640f25b
:10183600ff084746bd4367463d430132825c1202bc
:10184600edb21543013319e0ebb2b362237d03bb5e
:10185600337e4a46134248d0a268e3689a423ed095
:1018660072680a40012adbd040f20002c2f200028e
:10187600d25cff2085431543adb201332269934202
:1018860092411340e36073680b40012bdcd1b562d3
:10189600dce702f00ff82368002bbfd06168237fd6
:1018a60073b142f2e413c2f200039b699842b5d3c6
:1018b60042f2e413c2f200031b6803209847ade727
:1018c60042f2e413c2f200039b699842a6d142f2a7
:1018d600e413c2f200031b68032098479ee740f218
:1018e6000043c4f2002301221a75c0bcb946b046b3
:0218f600f8bd3b
:020000040000fa
:1018f800f0b5c64600b586b005008069030aff2426
:1019080023407422534342f2c001c2f200018c46c4
:1019180063440440a1000919c900db68ce18cb5afa
:1019280098465a436244936a984240d001a83300cb
:101938000c33020092cb92c290cb90c274244346df
:101948005c4342f2c003c2f200039c4664447369dc
:10195800226d9b009b5883603369626d9b009b5886
:101968004360b369e26c9b009b58c36063691b6862
:1019780000219847ab69a36220230022f2541c205f
:101988003056421c0fd0727fb2b91f32024001217b
:10199800914080b2400940f2600cc0f2800c604473
:1019a800c00102f097f806b080bcb846f0bd20230d
:1019b800f35c002be3d0b9e71f22024001219140dc
:1019c80080b2400940f2600cc0f2800c6044c00153
:0619d80002f07ef8e7e7d3
:020000040000fa
:1019de00f8b504000378b3b31023c356022b32d1eb
:1019ee00066ab069010aff22114072334b4342f27c
:1019fe00c001c2f200018c46634402409500ad184e
:101a0e00ed00db68ed181c202856421c0fd06a7fb3
:101a1e00d2b91f3202400121914080b2400940f2fa
:101a2e00600cc0f2800c6044c00102f04ef86a6a8d
:101a3e00b3699a4217d0200001f09cff256a15b1b8
:101a4e006b7d012b25d0f8bd1f2202400121914054
:101a5e0080b2400940f2600cc0f2800c6044c001bc
:101a6e0002f035f8e3e701233375f769200001f042
:101a7e0081ff6b68002be1d02626a35d0133a355b1
:101a8e00aa686b68390001209847a35d013ba355f6
:101a9e00d4e72800fff729ff02236b752b696a68cc
:0c1aae00e968a86864696468a047cce798
:020000040000fa
:021aba00704773
:020000040000fa
:101abc00f0b5ce46474680b542f22423c2f200036d
:101acc0000222f491a705a609a601a7310338b4295
:101adc00f8d142f26822c2f2000246f20003c4f2cc
:101aec0000135a6342f2a821c2f20001996348f232
:101afc008111c8f2811159613f260021995540f29c
:101b0c000071c0f28001596440f2094c61461180a9
:101b1c0042f22421c2f2000101240c704d25032055
:101b2c0058559c5540f20067c0f280075f6440f640
:101b3c0009094f4617820c74585540f20208474663
:101b4c009f5540f60038c0f2800847465f646746f0
:101b5c00178440f2200c6746cc555855985540f6e2
:101b6c000026c0f280065e644e46168630228c54e7
:101b7c00585540f602721a80c0bcb946b046f0bd4a
:041b8c0064220020af
:020000040000fa
:101b900070b5040019b946f60041c0f2dc2141f2eb
:101ba0000003c4f200231a68022082431a6042f242
:101bb0005433c2f200030022da609a6041f200025c
:101bc000c4f20022d369002bfcd1002c3fd0226844
:101bd0004b0800209a422ad841f20003c4f20023a5
:101be00018681c4d284018601d68a068666830435e
:101bf000284318605200b1fbf2f10139ff2900d9e6
:101c0000ff21c9b241f20003c4f2002319735a68dc
:101c100007218a435a605a68e1680a435a6041f2d0
:101c20000002c4f20022d369002bfcd1012041f252
:101c30000003c4f200231a6802210a431a6041f229
:101c40000002c4f20022d369002bfcd170bd002039
:081c5000ede7c046ffffffcfe6
:020000040000fa
:101c5800f8b5002859d142f2c003c2f200031b783c
:101c6800002b55d142f2c003c2f2000301307022aa
:101c78009854013298540132985418700e685e6175
:101c8800ca6a9a618a6ada6100221a624c69dc605f
:101c98008c699c605a60988401256d429d6225304c
:101ca8001a545a704868d8628c681c63cf685f639e
:101cb8000f699f63cf69df640f6a1f654f6a5f65ad
:101cc800096bd96564215a549a66da6642f264232c
:101cd800c2f20003ff321d705a709a70da70013038
:101ce80001d0013409d142f2c001c2f2000141f62b
:101cf800df10c0f20000f368984742f2c003c2f256
:101d0800000302221a740020f8bd01204042fbe7bc
:061d180001204042f8e743
:020000040000fa
:101d1e0042f60003c4f200031a7801210a431a7036
:101d2e0042f60002c4f2000253681942fcd142f698
:101d3e000002c4f200024af6aa23caf62a23d3618d
:101d4e004af6aa23caf6aa2313624ff6df73136369
:101d5e00ff2353634ff6ff73136142f20003c2f287
:101d6e00000300211972013119751f3102205854d8
:101d7e000c31013058540c31013058540c310130b3
:101d8e0058540c31013058540c31013058540c3128
:101d9e00013058540c31013058540c310130585424
:101dae000c31013058540c31013058540c31013083
:101dbe0058540c31013058540c31013058541378aa
:101dce00ba390b43137042f60002c4f20002536894
:061dde001942fcd1704720
:020000040000fa
:101de400f0b5ce46474680b583b00600ff270de028
:101df400022323772269e1686088f3685b68984767
:101e040048e022002900300001f079f8b46a002c7f
:101e140042d0237f012b3fd1a269110a39400b0123
:101e24005b1a9b0042f2e821c2f200018c46634433
:101e34003a405500ad18ed00db69ed1872696b6925
:101e44009a4207d028001430f3685b690021984750
:101e54006b697361237d022bcad0042b10d102233a
:101e64002377636899462269e1686088f3689c4631
:101e7400a368009363469b6898464b46c04709e0b5
:101e8400012b09d102232377a26861686088f36873
:101e94001b6898470028b4d003b0c0bcb946b0460c
:021ea400f0bd8f
:020000040000fa
:101ea60040f20043c4f2002342f20412c4f21002cc
:101eb6001a601a229a81c02292025a6040f20042a7
:101ec600c4f20022d369002bfcd140f20043c4f2d5
:101ed60000231a6802210a431a6040f20042c4f243
:101ee6000022d369002bfcd142f2e413c2f20003b4
:101ef60000221a629a62da6234215a5408315a541c
:101f06009a630021da871a609a60da601975197780
:101f16009a6140f20043c4f200235a680723134033
:101f2600012b10d042f2e413c2f2000341f2000288
:101f36001a631a6140f20043c4f2002380229a75a4
:101f46007c3a9a75704742f2e413c2f2000340f6f7
:081f560000021a631a61ede7b5
:020000040000fa
:101f5e0030b405004d400124e407254042004b00fb
:101f6e00120e32d01b0e3cd0ff2a33d0ff2b3fd0a7
:101f7e00d21800022043000a09022143090ac4b202
:101f8e004c43000ac3b24b43000a4843210a5b1874
:101f9e00190a091801d44900013a080a7f3a2adbc6
:101fae00fe2a0fd2d2051c43240601d00124214360
:101fbe00c9b280295041802901d1400840002843f0
:101fce0030bc7047ff20c005f9e71b0eff2b0ad06f
:101fde002800f5e7400206d1ff2bf3d1490202d1ca
:101fee00f0e7ff2af4d17f2000010c300005e7e76f
:101ffe004902f8d1e6e743020132e9d15b1202331e
:06200e00e6d9d805e4e765
:020000040000fa
:1020140070b542f22433c2f200031b7d002b4ad078
:1020240042f22432c2f200029368516840f6000280
:10203400c4f20022127ed2071fd599421dd940f660
:102044000001c4f20021072642f22430c2f200004b
:1020540001250ae002685c00a25a8a6201334468de
:102064000a7e2a4209d09c4207d94a683240012a92
:10207400f0d00268d25c8a62f0e742f22432c2f203
:102084000002936052689a4215d842f22433c2f295
:10209400000300221a755a6040f60002c4f20022be
:1020a40001211175db6833b142f22433c2f200031b
:0820b4001869db68984770bd54
:020000040000fa
:1020bc0010b501f0aff844f20003c4f2001304228f
:1020cc005a60fef728fd01f03bfc00f0d9fc00f053
:1020dc00e1fa00f06dfd01f0a9fafef7aaf900f0a3
:1020ec004bfe00f0b9f900f0c3fbfff7e0fcfff783
:1020fc00d4fefff7ddfcfff70cfe01f0eefb00f069
:10210c008cfe01f0dffb43f2dc71c0f20001002019
:10211c0000f03afb42f27c44c2f20004206043f22d
:10212c006831c0f200010020fff790fda06043f27f
:10213c003c11c0f200010020fff762fae06043f6a8
:10214c008021c0f20001002000f0cdfc606001f0a5
:08215c004dfcfef76ff910bd08
:020000040000fa
:10216400f0b5d6464f464646c0b5844642f2e41220
:10217400c2f20002d36a966a00293dd0b3423ed02f
:102184000400012040f2004ac4f2002a40f2070889
:1021940041f20005c2f2000515e05a00af5c277059
:1021a4000132aa5c6270013342f2e412c2f200020c
:1021b400126b934292411340814212d9421c023461
:1021c400b3420fd010005246526847463a40012aa3
:1021d400e3d0ea5c91466246013a4f461754013314
:1021e400e2e71e0042f2e413c2f20003de62e0bc46
:1021f400ba46b146a846f0bd1e000800f2e700202a
:02220400f0e701
:020000040000fa
:1022060010b542f22433c2f200032c229b5c33b396
:1022160042f22433c2f20003da691b6a93421ed2e9
:1022260042f22433c2f20003986a40f60002c4f276
:102236000022916a1b6a546807222240012a0fd0a5
:1022460042f22432c2f200029269d154013342f2c0
:102256002432c2f200021362d2699a4208d010bd3b
:1022660042f22432c2f2000292695c00a152ede70a
:1022760042f22433c2f2000300222c215a54da61be
:1022860040f60002c4f20022583111755b6a002b39
:10229600e5d042f22433c2f200035b6a9847dee7d8
:020000040000fa
:1022a60010b582b00023019346f20003c4f2001376
:1022b6003f215c5ce4b202225a540f315b5cdbb214
:1022c6000193019b02201a420ed046f20003c4f28b
:1022d60000134c324c39995442f22423c2f20003c3
:1022e600223a002199540138019bdb070ed546f2ac
:1022f6000003c4f200134e220121995442f2242312
:10230600c2f20003223a00219954022042f2242309
:10231600c2f200035b6a33b142f22423c2f2000325
:10232600996a5b6a984746f20003c4f200133f229b
:062336009c5402b010bd32
:020000040000fa
:10233c0010b582b00023019346f20003c4f20013df
:10234c003f229c5ce4b2032199540f329b5cdbb2bc
:10235c000193019b02209b070dd546f20003c4f2aa
:10236c0000130139995442f22423c2f20003123aa9
:10237c00002199540138019bdb070ed546f200036e
:10238c00c4f200134e220121995442f22423c2f2ca
:10239c000003123a00219954022042f22423c2f283
:1023ac0000035b6b33b142f22423c2f20003996b3e
:1023bc005b6b984746f20003c4f200133f229c5417
:0423cc0002b010bd8e
:020000040000fa
:1023d00030b405004d400124e407254042004b0085
:1023e000120e26d01b0e34d0ff2a2dd0ff2b35d055
:1023f000d21a000220430902214343084908a00dd4
:102400005b1a02d2013a5b005b185b008b4200d37f
:102410005b1a4041f9d37f3222ddff2a06d2d20572
:10242000c91a8b425041284330bc7047ff20c00579
:10243000f9e71b0e03d0ff2b12d1490210d07f20e9
:1024400000010c300005efe74002f8d1ff2bedd181
:10245000f5e7ff2aead14002f1d1e7e74902eed1e0
:042460002800e1e788
:020000040000fa
:1024640040f60043c4f2002301221a6040f6004201
:10247400c4f20022d369002bfcd140f60043c4f21d
:10248400002340f200125a6040f60042c4f20022d7
:10249400d369002bfcd140f60043c4f20023e822a8
:1024a400da60d23ac0f210021a6040f60042c4f276
:1024b4000022d369002bfcd140f60043c4f2002370
:1024c40010225a8340f60042c4f20022d369002b42
:1024d400fcd142f28033c2f20003002221215a547b
:1024e40001395a5440f60043c4f200239b329a75d2
:0224f40070472f
:020000040000fa
:1024f60010b582b00023019346f20003c4f2001324
:102506003f229c5ce4b2012199540f329b5cdbb202
:102516000193019b02209b070cd546f20003c4f2ef
:1025260000130131995442f22423c2f2000300221f
:102536001a770138019bdb070dd546f20003c4f27a
:1025460000134e220121995442f22423c2f20003c1
:1025560000221a77022042f22423c2f200035b69aa
:1025660033b142f22423c2f2000399695b699847aa
:1025760046f20003c4f200133f229c5402b010bd81
:020000040000fa
:1025860010b582b00021019146f20003c4f2001397
:102596003f229c5ce4b299540f329b5cdbb2019300
:1025a600019b02209b070cd546f20003c4f20013e0
:1025b6000231995442f22423c2f2000300221a7314
:1025c6000138019bdb070dd546f20003c4f2001368
:1025d6004e220121995442f22423c2f20003002222
:1025e6001a73022042f22423c2f200035b6833b15d
:1025f60042f22423c2f2000399685b68984746f2c8
:0e2606000003c4f200133f229c5402b010bd2a
:020000040000fa
:1026140070b5040000283fd042f22433c2f2000314
:102624001b7d0020bbbb42f22433c2f200031c60ba
:10263400596001221a75586840f60003c4f2002359
:102644001b7edb0718d5d0b1002340f60001c4f28d
:1026540000210726012507e0e25c8a6201330a7e35
:102664002a420bd098420ad04a683240012af3d158
:102674005a00a25a8a62f1e7002000e0180042f2f0
:102684002433c2f20003986040f60003c4f200232e
:0c26940001229a75012070bd0020fce7b7
:020000040000fa
:1026a00010b541f60003c4f200031c691a69022147
:1026b0008a431a611a691e20c0f23f00024040207e
:1026c00002431a6121421dd041f60003c4f2000307
:1026d0001a690a431a6141f60002c4f2000202318b
:1026e000d3681942fcd041f60003c4f200031b6911
:1026f000db0507d441f60002c4f200020121d368d1
:102700001942fcd041f60003c4f2000322229a6170
:0e2710001e3ac0f20702da6102225a6010bdc2
:020000040000fa
:10271e00f0b5c64600b5082442f60005c4f2000521
:10272e00012604e06f616b690134102c28d0630020
:10273e001b199b0042f20001c2f200018c46634459
:10274e001b7adbb2e1b28b42eed16b693700a74048
:10275e001f42e9d042f20001c2f2000163001b19d0
:10276e009b005b58002bddd08c4663001919890045
:10277e00614448681b199b0062469b589847d1e7f5
:06278e0080bcb846f0bd5e
:020000040000fa
:1027940070b5002830d142f2e823c2f200031b785e
:1027a400002b2cd142f2e824c2f20004013334227b
:1027b400a3540132a35423700d68e5604a69a261f1
:1027c4004a68e2618a68a2600a696262ca6822622f
:1027d4000022a2626260a2702263a3858b692361d6
:1027e400636142f6d940c0f20000ab69210098470a
:1027f40002236370002070bd01204042fbe70120ea
:042804004042f8e76f
:020000040000fa
:1028080010b542f28033c2f2000300229a61da6105
:1028180040f60043c4f200239b321a765a68144cdf
:1028280022405a6040f60042c4f20022d369002bcd
:10283800fcd1a9b142f28033c2f200032022032462
:102848009c544000084340f60043c4f200235862f9
:1028580040f60042c4f20022d369002bfcd110bd1f
:1028680042f28033c2f20003202204249c54e8e799
:04287800fffffbff64
:020000040000fa
:10287c0040f60003c4f2002342f20412c4f2100228
:10288c001a601a229a81c02292025a6040f6000203
:10289c00c4f20022d369002bfcd140f60003c4f231
:1028ac0000231a6802210a431a6040f60002c4f29f
:1028bc000022d369002bfcd142f22433c2f2000374
:1028cc0000229a61da611a622c215a545a621a60f7
:0c28dc005a609a601a75da60da8570475d
:020000040000fa
:1028e80042f28033c2f20003002221215a540139f6
:1028f8005a5440f60043c4f200231a681e398a432a
:102908001a6040f60042c4f20022d369002bfcd1c1
:1029180040f60043c4f200231a6802210a431a60f1
:1029280040f60042c4f20022d369002bfcd140f6e5
:102938000043c4f2002310225a8340f60042c4f236
:0a2948000022d369002bfcd1704778
:020000040000fa
:1029520010b540f20043c4f200235a8b0723110042
:1029620019401a4200d110bd42f2e413c2f2000330
:10297200d98740f20043c4f2002380221a76793ac2
:102982005a831b7e5b0708d540f20043c4f2002342
:1029920004219a6a1a7e0a42fbd142f2e413c2f27d
:1029a20000031b6a002bded042f2e413c2f20003e2
:0a29b200596a1b6a02209847d5e716
:020000040000fa
:1029bc0010b540f60003c4f200239b7dfbb140f63a
:1029cc000002c4f20022137edbb2927d52b2002ac6
:1029dc0016db40f60002c4f20022137edbb2927dbd
:1029ec00d20701d5db0711d440f60002c4f2002255
:1029fc00137edbb2927d520701d55b0709d410bd63
:102a0c005bb2002be5da00f053fae2e7fff7fcfad1
:082a1c00eae7fff7f2fbf2e725
:020000040000fa
:102a240010b540f20043c4f200239b7dfbb140f299
:102a34000042c4f20022137edbb2927d52b2002a1d
:102a440016db40f20042c4f20022137edbb2927d18
:102a5400d20701d5db0711d440f20042c4f20022b0
:102a6400137edbb2927d520701d55b0709d410bdfa
:102a74005bb2002be5dafff76affe2e7fef7c1fe7f
:082a8400eae7fef70ffcf2e7a0
:020000040000fa
:102a8c0043f60003c4f2002301221a7043f600023d
:102a9c00c4f200220121138c0b42fcd146f220031c
:102aac00c0f280031b68190240f200720a409b06b8
:102abc005b0f1a4343f60003c4f200239a850222eb
:102acc005a702d325a7351329a7000221a815a81df
:102adc0007229a7143f60002c4f20022138c9bb2b7
:062aec00002bfbd1704736
:020000040000fa
:102af20010b542f2eb43c2f200031b7853b942f223
:102b0200ea43c2f2000301221a7042f2eb43c2f21c
:102b120000031a70c8b9d9b142f2b443c2f2000339
:102b22001b785bb213b10120404210bd886842f2ab
:102b3200b443c2f2000398604a685a6002241c70cf
:102b42000968536898470020efe701204042ece70c
:062b520001204042e9e70a
:020000040000fa
:102b580070b50400456a65b32b7e012b29d101337a
:102b68002b76036b01331fd043685b6a9847e36d8c
:102b7800032b0dd9206b40f2001100f0effd206b04
:102b8800eb685b00aa68a16bc0b2fef7abfc10e073
:102b9800206b002100f0e2fd206beb68aa68a16bb6
:102ba800c0b2fef79ffc04e0e968a86863685b6848
:042bb800984770bd0d
:020000040000fa
:102bbc0042f20043c4f200031a8801210a431a802e
:102bcc0042f20042c4f2000213691942fcd142f2f3
:102bdc000043c4f200030d4a1a8042f20042c4f2d0
:102bec00000248f2000113691942fcd142f2004282
:102bfc00c4f20002022113691942fcd142f20043d3
:102c0c00c4f2000340f200125a8170470a8bffff96
:020000040000fa
:102c1c0070b50400056a4db32b7e012b26d1013310
:102c2c002b76c36a01331cd0c36d032b0dd9c06a3c
:102c3c0040f2001100f090fde06aeb685b00626b03
:102c4c00a968c0b2fef74cfc10e0c06a002100f08d
:102c5c0083fde06aeb68626ba968c0b2fef740fcca
:0e2c6c0004e0e968a86863689b69984770bd3a
:020000040000fa
:022c7a00fee773
:020000040000fa
:102c7c0000230e4a10b513600d4a0e4c13600e4a19
:102c8c0013600e4a13600e4a13600e4a53621361ae
:102c9c000133936000f021ff00f01fff0a4b9c42b0
:102cac0000d310bd08cc9847f8e7c046e4240020b8
:102cbc00a0210020680100009c210020942100200c
:0c2ccc0098210020a42100206c010000d1
:020000040000fa
:102cd80070b5040003780bb30123c356022b1dd132
:102ce800826a9069050aff210d402b015b1b9b003e
:102cf80042f2e825c2f20005ac46634401404d00ab
:102d08006d18ed00db69ed182b69984207d020009b
:102d180000f021fe29002000fff760f870bd2900af
:082d2800200000f0eaf8f5e7d5
:020000040000fa
:102d300010b543f62f03c0f20003984743f62f0364
:102d4000c0f20003984700f029fb40f20003c0f2f4
:102d500000037f2293434ef60052cef200029360ae
:102d600042f67d43c0f20003984743f62f03c0f2ba
:102d70000003984743f62f03c0f20003984700f082
:042d800065fefee707
:020000040000fa
:102d840042f25433c2f2000300221a621a779a60a4
:102d9400da6041f20003c4f20023882292025a60ee
:102da40041f20002c4f20022d369002bfcd141f2ab
:102db4000003c4f2002317221a73093ac0f2300246
:102dc4001a6041f20002c4f20022d369002bfcd144
:022dd400704746
:020000040000fa
:102dd60070b546f20003c4f200133f229e5cf6b2c1
:102de600985440241a5d0225aa431a5546f2000259
:102df600c4f200123e353e3c535d2342fcd1000135
:102e060042f26823c2f200039c46604489b2018004
:102e160046f20003c4f200133f229e54012070bd07
:020000040000fa
:102e260042f60003c4f2002301221a6042f60002b1
:102e3600c4f20022012193681942fcd142f6000334
:102e4600c4f2002341f200121a6000225a610221e4
:102e5600d9635a649a64da641a651d321a6442f6b2
:0e2e66000002c4f200229368002bfcd17047da
:020000040000fa
:102e740070b504000d00e8b142f22433c2f200033d
:102e84002c229b5c002003b170bd00f0abf942f230
:102e94002433c2f200039c61dd6100221a622c21fa
:102ea40001205854da8540f60003c4f2002384322a
:082eb4009a75e9e70020e7e749
:020000040000fa
:102ebc0010b540f60003c4f200235a8b072311000f
:102ecc0019401a4200d110bd42f22434c2f200045f
:102edc00e18500f083f940f60003c4f2002384225c
:102eec001a752c230022e254636a002bebd0a06ae3
:062efc00636a9847e7e756
:020000040000fa
:102f0200f8b504000e001500c3681b699847242316
:102f1200e854eb5c5a1e93415b4201271f436f75d5
:102f22002d6a200000f01afdb36853b1236b013300
:102f32002363f268b368290038009847236b013b8a
:042f42002363f8bd50
:020000040000fa
:022f4600fee7a4
:020000040000fa
:102f480010b5054c237833b9044b13b1044800e09d
:102f580000bf0123237010bd48240020000000009a
:102f680000000000034b10b51bb10349034800e003
:102f780000bf10bd000000004c240020000000002d
:020000040000fa
:102f880010b542f2c043c2f20003586841f600038c
:102f9800c4f200039b689b0711d541f60003c4f2f5
:102fa800000302229a6042f2c043c2f200031b6887
:102fb8002bb142f2c043c2f200031b68984710bd10
:020000040000fa
:102fc80070b5050042f28033c2f2000320241b5d75
:102fd800002003b170bd42f28033c2f200039d802d
:102fe800d9605a6100229a601a61012199701a7099
:102ff80020315a5420392800fff702fc0120e9e764
:020000040000fa
:1030080070b5050042f28034c2f200042020245c2e
:10301800002004b170bd42f28034c2f20004a580e1
:10302800e360049b6361a16022610023a3702370a5
:103038002122a35400212800fff7e2fb0120e9e741
:020000040000fa
:1030480070b5050042f28033c2f2000320241b5df4
:10305800002003b170bd42f28033c2f200039d80ac
:103068000024dc605c6199601a619c701c702122ec
:0e3078009c5400212800fff7c3fb0120eae76b
:020000040000fa
:103086004200110e7f390fd40123db0749421f315d
:103096000cdd400003d2c0011843c8407047c00190
:1030a6001843c8404042704700207047ff21090678
:0e30b6008a4200d99843184000d4d84370478e
:020000040000fa
:1030c40010b5030008001100abb942f2d043c2f2bc
:1030d40000035b79012b02d0012040420ae042f256
:1030e400d044c2f200040023637123681b6898472c
:0c30f4000123637110bd01204042fbe786
:020000040000fa
:1031000010b5030008001100abb942f2d043c2f27f
:1031100000035b79012b02d0012040420ae042f219
:10312000d044c2f20004002363712368db6898472f
:0c3130000123637110bd01204042fbe749
:020000040000fa
:10313c002c340000010000008c2400200000000052
:10314c00010000002808004228080042e83800006e
:10315c0048380000983a00008c3a0000010000004a
:0c316c0000240020c03700000300000019
:020000040000fa
:1031780010b542f20042c4f20002918989b242f2cb
:103188009c43c2f2000319600649918192895b68e9
:103198003bb142f29c43c2f20003996818685b682d
:0831a800984710bdffc1ffffb5
:020000040000fa
:1031b00010b544f20043c4f200231a7802218a4376
:1031c0001a7001221a721a6a42f2a843c2f200036c
:1031d0009a601b683bb142f2a843c2f200039868b0
:0831e00059681b68984710bdf7
:020000040000fa
:1031e80040f60003c4f200235b8b5b0713d040f664
:1031f8000003c4f2002380221a76793a5a831b7e90
:103208005b0708d540f60003c4f2002304219a6a3c
:083218001a7e0a42fbd1704747
:020000040000fa
:1032200040f20043c4f2000300221a819a7901217e
:103230000a439a719b7803221340022b0bd040f271
:103240000043c4f20003013a9a705202c4f2000231
:0832500093790b42fcd070479a
:020000040000fa
:1032580010b541f20043c4f20003db685b0712d5e6
:1032680041f20043c4f2000304229a6042f2d843b8
:10327800c2f200031b6833b142f2d843c2f2000322
:0832880058681b68984710bd4f
:020000040000fa
:1032900010b5a8b942f2d043c2f200035b79012b0a
:1032a00002d0012040420ae042f2d044c2f20004bf
:1032b0000023637123681b6998470123637110bd64
:0632c00001204042fbe783
:020000040000fa
:1032c60010b5a8b942f2d043c2f200035b79012bd4
:1032d60002d0012040420ae042f2d044c2f2000489
:1032e6000023637123685b6998470123637110bdee
:0632f60001204042fbe74d
:020000040000fa
:1032fc0010b5a8b942f2d043c2f200035b79012b9e
:10330c0002d0012040420ae042f2d044c2f2000452
:10331c000023637123689b6898470123637110bd78
:06332c0001204042fbe716
:020000040000fa
:1033320010b5a8b942f2d043c2f200035b79012b67
:1033420002d0012040420ae042f2d044c2f200041c
:103352000023637123685b6898470123637110bd82
:0633620001204042fbe7e0
:020000040000fa
:10336800d8390000020000000300000028100042c5
:1033780028100042d8230020010000006036000019
:10338800c83a0000c03a00000100000024240020d0
:043398006038000099
:020000040000fa
:10339c0010b50a48016821b9436813b900f09cfbc9
:1033ac0010bd04008368064a9bb20c349b009b58ea
:1033bc0042682000984780002018ebe7bc0e000004
:0433cc00383900008c
:020000040000fa
:1033d00042f22433c2f200032c229b5c73b140f60c
:1033e0000003c4f2002358321a7542f22433c2f2a9
:1033f000000300222c215a54da611a62012070471e
:020000040000fa
:103400000003000079380000c530000033330000ad
:10341000fd3200000131000091320000c73200008f
:0c3420007311000071390000d13a000067
:020000040000fa
:10342c003f3a0000752e0000c9390000753a0000c3
:10343c00d1330000313a000015260000233a000079
:0c344c00693a000095390000310d0000c5
:020000040000fa
:1034580010b542f60003c4f2000301225a615b6909
:1034680042f20003c2f200031b6833b142f20003c8
:0c347800c2f2000358681b68984710bda2
:020000040000fa
:1034840010b542f60003c4f2000302225a615b69dc
:1034940042f20003c2f20003db6833b142f20003dc
:0c34a400c2f200031869db68984710bdf5
:020000040000fa
:1034b00010b542f60003c4f2000304225a615b69ae
:1034c00042f20003c2f200039b6933b142f20003ef
:0c34d000c2f20003d8699b69984710bd48
:020000040000fa
:1034dc0010b542f60003c4f2000308225a615b697e
:1034ec0042f20003c2f200035b6a33b142f2000302
:0c34fc00c2f20003986a5b6a984710bd9a
:020000040000fa
:1035080010b542f60003c4f2000310225a615b6949
:1035180042f20003c2f200031b6b33b142f2000314
:0c352800c2f20003586b1b6b984710bdeb
:020000040000fa
:1035340010b542f60003c4f2000320225a615b690d
:1035440042f20003c2f20003db6b33b142f2000328
:0c355400c2f20003186cdb6b984710bd3e
:020000040000fa
:1035600010b542f60003c4f2000340225a615b69c1
:1035700042f20003c2f200039b6c33b142f200033b
:0c358000c2f20003d86c9b6c984710bd91
:020000040000fa
:10358c0010b542f60003c4f2000380225a615b6955
:10359c0042f20003c2f200035b6d33b142f200034e
:0c35ac00c2f20003986d5b6d984710bde3
:020000040000fa
:1035b80010b542f60043c4f2000301229a7242f2a7
:1035c800c843c2f200031b6833b142f2c843c2f2d7
:0a35d800000358681b68984710bdf7
:020000040000fa
:1035e20010b503000800012b02d0022b06d010bd3b
:1035f200002301220021fef78af8f8e701220023c6
:0a36020052420021fef783f8f1e7c1
:020000040000fa
:10360c0010b503000800012b02d0022b06d010bd10
:10361c00002301220121fef775f8f8e701220023af
:0a362c0052420121fef76ef8f1e7ab
:020000040000fa
:02363600fee7ad
:020000040000fa
:1036380042f60043c4f20003064a5a8001225a7235
:1036480001321a7042f60042c4f20002d368002b1d
:08365800fcd170470180ffff67
:020000040000fa
:103660000000000001000000ffffffffffffffff61
:10367000ffffffffffffffffffffffffffffffff5a
:08368000ffffffffffffffff4a
:020000040000fa
:1036880010b5040043685b6a9847030028b9012213
:1036980000212000fef738f810bd01225242002117
:0836a8002000fef731f8f7e7fe
:020000040000fa
:1036b000c20f12029d3201000cd001d5494202d442
:1036c000013a4900fcd5d205080a0906494100d350
:0636d00001295041704782
:020000040000fa
:1036d60042f2e413c2f200039a68d868824201d328
:1036e600101a704742f2e413c2f200031b699b18da
:0436f600181af6e7c1
:020000040000fa
:1036fa0042f2e413c2f20003d86a9b6a984201d8e4
:10370a00181a704742f2e412c2f20002126bd3187e
:04371a00181af6e79c
:020000040000fa
:10371e0041000dd2090e7f390ad449421f3105d41a
:10372e0000020122d2071043c8407047c8177047e5
:04373e0000207047b0
:020000040000fa
:1037420001290ad002002432436a2bb1596911605f
:1037520000221a765a611a71704702002032036af7
:02376200f3e78b
:020000040000fa
:1037640070b50c00c5b2280000f0daf8034b18401d
:10377400210001432800fff72cfb70bdfffcffff75
:020000040000fa
:103784009d2201000ad002d4013a4900fcd5d20599
:0e379400080a0906494100d301295041704737
:020000040000fa
:1037a200002310b5934206d103201840421e9041d7
:0e37b2009b08c01810bdc45ccc540133f2e774
:020000040000fa
:1037c000000000002300000024000000250000008d
:0c37d000260000000f00000010000000a8
:020000040000fa
:1037dc00f837000064240020010000000100000004
:0c37ec00ac230020fc380000640000004a
:020000040000fa
:1037f800c92f00004930000009300000e928000006
:0c380800b939000075110000153a0000ed
:020000040000fa
:1038140042f2e843c2f200031b782bb942f2e843b8
:0a382400c2f2000301221a7070477f
:020000040000fa
:02382e007047e1
:020000040000fa
:1038300065210000fb360000a5380000cd13000014
:08384000b93a0000bb3800009a
:020000040000fa
:10384800020000000000000000000800ffffffff6a
:08385800ffffffffffffffff70
:020000040000fa
:10386000000000002b0000002c0000002d000000d4
:0838700011000000120000002d
:020000040000fa
:1038780040b942f2d043c2f2000301225a710968ea
:0638880019601a7170477f
:020000040000fa
:10388e0041f20003c4f200231b7e5b080122534069
:06389e00012018407047f4
:020000040000fa
:1038a40010b542f2e413c2f200031c6bfff723ffce
:0638b400013c201a10bdca
:020000040000fa
:1038ba0010b542f2e413c2f200031c69fff706ffd7
:0638ca00013c201a10bdb4
:020000040000fa
:1038d00045f20003c4f2002301221a7000221a7478
:0638e00082321a707047ed
:020000040000fa
:0238e600704729
:020000040000fa
:1038e80005000000060000000700000000000000be
:0438f80001000000cb
:020000040000fa
:1038fc00000000002a000000290000002a0000003f
:04390c002a0000008d
:020000040000fa
:10391000000142f22423c2f200039c46604441604d
:04392000826070470a
:020000040000fa
:10392400000142f26823c2f200039c46604400880e
:0439340080b27047a6
:020000040000fa
:10393800a7390000a3370000e13a0000e13a00008f
:04394800e13a000060
:020000040000fa
:10394c0044f20003c4f2001306225a60053a1a72bc
:02395c007047b2
:020000040000fa
:10395e00836a2bb19a6a826200221a779a621a706f
:02396e007047a0
:020000040000fa
:1039700028b942f2d043c2f20003187970470320fd
:02398000fce762
:020000040000fa
:10398200036a2bb11a6a026200225a751a621a700d
:0239920070477c
:020000040000fa
:1039940042f22433c2f20003d88d80b20022da85c9
:0239a40070476a
:020000040000fa
:1039a6008a18914201d10020704700230b70013123
:0239b600f7e731
:020000040000fa
:1039b80042f28033c2f200032122985cc0b2704701
:020000040000fa
:1039c80042f22433c2f200032c22985cc0b2704742
:020000040000fa
:1039d800911b0000fb0800008f380000073a000028
:020000040000fa
:1039e8000122d207514041f24103c0f200031847b7
:020000040000fa
:0e39f80042f2e843c2f2000300221a70704748
:020000040000fa
:0e3a060042f25433c2f2000318625962704754
:020000040000fa
:0e3a140042f28033c2f200035862996270479a
:020000040000fa
:0e3a220042f22433c2f20003187dc0b2704796
:020000040000fa
:0e3a300042f22433c2f20003d86019617047dd
:020000040000fa
:0e3a3e0042f22433c2f20003586299627047cc
:020000040000fa
:0e3a4c0010b50020fef734fb00f02cf8fce76c
:020000040000fa
:0e3a5a0010b5002301220121fdf755fe10bd1d
:020000040000fa
:0c3a680042f22433c2f200039868704759
:020000040000fa
:0c3a740042f22433c2f20003186a7047cb
:020000040000fa
:0c3a8000d43a00000034000000000000f8
:020000040000fa
:0c3a8c0004000000000000000200000028
:020000040000fa
:0c3a980000000000ffffffff40000000e6
:020000040000fa
:0c3aa40010b5fff7d7fbfff76dfa10bd5f
:020000040000fa
:083ab00010b5fff7affe10bdd9
:020000040000fa
:083ab80010b5fff70cfe10bd74
:020000040000fa
:083ac0000000001000000000ee
:020000040000fa
:083ac8000000000000000020d6
:020000040000fa
:043ad000012070471a
:020000040000fa
:043ad4003038000086
:020000040000fa
:043ad8008161704751
:020000040000fa
:043adc00416170478d
:020000040000fa
:043ae000002070470b
:020000040000fa
:023ae400704729
:020000040000fa
:023ae600704727
:020000040000fa
:0200000400807a
:0440000077438fb0c3
:020000040000fa
:0200000400807a
:04400400bbf0ffff0f
:020000040000fa
:0200000400807a
:04c004000000e8ff51
:020000040000fa
:0200000400807a
:04c04000ffffffff00
:020000040000fa
:0200000400807a
:04c04400fffffffffc
:020000040000fa
:0200000400807a
:04c04800fffffffff8
:020000040000fa
:0200000400807a
:04c04c00fffffffff4
:00000001FF
