:020000040000fa
:10000000f8ff0020314d00005b480000c74e0000a3
:1000100000000000000000000000000000000000e0
:10002000000000000000000000000000a7460000e3
:100030000000000000000000a74600009d870000af
:1000400071970000a7460000198200007d6b000038
:10005000d5880000a7460000a746000025600000e4
:10006000a746000071710000c97000000134000053
:10007000e52700000000000000000000a746000087
:1000800000000000a7460000a7460000a7460000a9
:1000900069970000a7460000a7460000a746000099
:1000a000a746000025870000a7460000a7460000dd
:1000b000a7460000a7460000a7460000a74600008c
:020000040000fa
:1000c000f8b5c046f8bc08bc9e4670474d750000a8
:1000d000f8b5c046f8bc08bc9e46704725750000c0
:020000040000fa
:0800e000e844000001000000eb
:020000040000fa
:1000e80010b5c74b1a783a2a0dd89300c54ad35889
:1000f8009f4609f0bbf90321002003f019ffc04b0c
:10010800586001221a7010bdbd4b5b68013303d0e3
:10011800bb4b02221a70f6e7b94b3a221a70f2e783
:10012800b74ce07bae2108f093f909f07ff903237f
:100138002370e8e7b24b986806f0c0fe01280cd09f
:1001480009f0c8fa0028ded0002009f0c9fa09f041
:1001580075f9ab4b39221a70d5e709f06ff9a84b3e
:1001680004221a70cfe7a64ce07bd52108f070f97d
:1001780009f05cf905232370c5e7a14b986806f0e0
:100188009dfe01280cd009f0a5fa0028bbd000205c
:1001980009f0a6fa09f052f9994b39221a70b2e718
:1001a80009f04cf9964b06221a70ace7944ce07ba8
:1001b800802108f04df909f039f907232370a2e7e7
:1001c8008f4b986806f07afe01280cd009f082fa65
:1001d800002898d0002009f083fa09f02ff9884bfd
:1001e80039221a708fe709f029f9854b08221a700d
:1001f80089e7834ce07ba82108f02af909f016f971
:10020800092323707fe77e4b986806f057fe012884
:100218000dd009f05ffa002800d174e7002009f03a
:100228005ffa09f00bf9764b39221a706be709f07f
:1002380005f9734b0a221a7065e7714ce07b3f2180
:1002480008f006f909f0f2f80b2323705be76c4b12
:10025800986806f033fe01280dd009f03bfa002813
:1002680000d150e7002009f03bfa09f0e7f8644ba9
:1002780039221a7047e709f0e1f8614b0c221a702d
:1002880041e75f4ce07bd32108f0e2f809f0cef8b3
:100298000d23237037e75a4b986806f00ffe0128a4
:1002a8000dd009f017fa002800d12ce7002009f03a
:1002b80017fa09f0c3f8524b39221a7023e709f0ec
:1002c800bdf84f4b0e221a701de74d4ce07b002104
:1002d80008f0bef809f0aaf80f23237013e7484b7b
:1002e800986806f0ebfd01280dd009f0f3f9002815
:1002f80000d108e7002009f0f3f909f09ff8404b16
:1003080039221a70ffe609f099f83d4b10221a704d
:10031800f9e63b4ce07b402108f09af809f086f8b2
:1003280011232370efe6364b986806f0c7fd0128c5
:100338000dd009f0cff9002800d1e4e6002009f03b
:10034800cff909f07bf82e4b39221a70dbe609f059
:1003580075f82b4b12221a70d5e6294ce07b8d21bb
:1003680008f076f809f062f813232370cbe6244be3
:10037800986806f0a3fd01280dd009f0abf9002814
:1003880000d1c0e6002009f0abf909f057f81c4b82
:1003980039221a70b7e609f051f8194b14221a706d
:1003a800b1e6174ce07b142108f052f809f03ef84a
:1003b80015232370a7e6124b986806f07ffd0128e5
:1003c8000dd009f087f9002800d19ce6002009f03b
:1003d80087f909f033f80a4b39221a7093e609f0c5
:1003e8002df8074b16221a708de6054ce07b20216c
:1003f80008f02ef809f01af81723237083e6c04690
:1004080088ac0020fc430000d74b986806f056fde6
:1004180001280dd009f05ef9002800d173e600200c
:1004280009f05ef909f00af8cf4b39221a706ae62a
:1004380009f004f8cc4b18221a7064e6ca4ce07b29
:10044800002108f005f808f0f1ff192323705ae697
:10045800c54b986806f032fd01280dd009f03af92d
:10046800002800d14fe6002009f03af908f0e6ff2d
:10047800bd4b39221a7046e608f0e0ffba4b1a2243
:100488001a7040e6b84ce07ba12107f0e1ff08f0c4
:10049800cdff1b23237036e6b34b986806f00efd9c
:1004a80001280dd009f016f9002800d12be600200c
:1004b80009f016f908f0c2ffab4b39221a7022e690
:1004c80008f0bcffa84b1c221a701ce6a64ce07b67
:1004d800c82107f0bdff08f0a9ff1d23237012e60d
:1004e800a14b986806f0eafc01280dd009f0f2f853
:1004f800002800d107e6002009f0f2f808f09eff76
:10050800994b39221a70fee508f098ff964b1e2287
:100518001a70f8e5944ce07bda2107f099ff08f0af
:1005280085ff1f232370eee58f4b986806f0c6fc05
:1005380001280dd009f0cef8002800d1e3e500200d
:1005480009f0cef808f07aff874b39221a70dae5fd
:1005580008f074ff844b20221a70d4e5824ce07bab
:10056800022107f075ff08f061ff21232370cae517
:100578007d4b986806f0a2fc01280dd009f0aaf876
:10058800002800d1bfe5002009f0aaf808f056ffbe
:10059800754b39221a70b6e508f050ff724b2222cb
:1005a8001a70b0e5704ce07b812107f051ff08f02c
:1005b8003dff23232370a6e56b4b986806f07efc6d
:1005c80001280dd009f086f8002800d19be500200d
:1005d80009f086f808f032ff634b39221a7092e569
:1005e80008f02cff604b24221a708ce55e4ce07bef
:1005f8008f2107f02dff08f019ff2523237082e5ce
:10060800594b986806f05afc01280dd009f062f899
:10061800002800d177e5002009f062f808f00eff05
:10062800514b39221a706ee508f008ff4e4b26220e
:100638001a7068e54c4ce07bd92107f009ff08f0f7
:10064800f5fe272323705ee5474b986806f036fcd5
:1006580001280dd009f03ef8002800d153e500200c
:1006680009f03ef808f0eafe3f4b39221a704ae5d5
:1006780008f0e4fe3c4b28221a7044e53a4ce07b33
:10068800f12107f0e5fe08f0d1fe292323703ae5b1
:10069800354b986806f012fc01280dd009f01af8bd
:1006a800002800d12fe5002009f01af808f0c6fe4e
:1006b8002d4b39221a7026e508f0c0fe2a4b2a2253
:1006c8001a7020e5284ce07bdb2107f0c1fe08f01a
:1006d800adfe2b23237016e5234b986806f0eefb3e
:1006e80001280dd008f0f6ff002800d10be5002006
:1006f80008f0f6ff08f0a2fe1b4b39221a7002e53b
:1007080008f09cfe184b2c221a70fce4164ce07b77
:10071800402107f09dfe08f089fe2d232370f2e4a6
:10072800114b986806f0cafb01280dd008f0d2ffdb
:10073800002800d1e7e4002008f0d2ff08f07efe90
:10074800094b39221a70dee408f078fe064b2e2297
:100758001a70d8e4044ce07ba42107f079fe08f075
:1007680065fe2f232370cee488ac0020604b986888
:1007780006f0a4fb01280dd008f0acff002800d13a
:10078800c1e4002008f0acff08f058fe584b3922ad
:100798001a70b8e408f052fe554b30221a70b2e4d1
:1007a800534ce07ba62107f053fe08f03ffe3123af
:1007b8002370a8e44e4b986806f080fb01280dd002
:1007c80008f088ff002800d19de4002008f088ff89
:1007d80008f034fe464b39221a7094e408f02efed5
:1007e800434b32221a708ee4414ce07b2e2107f0f5
:1007f8002ffe08f01bfe3323237084e43c4b9868db
:1008080006f05cfb01280dd008f064ff002800d139
:1008180079e4002008f064ff08f010fe344b392218
:100828001a7070e408f00afe314b34221a706ae438
:100838002f4ce07baf2107f00bfe08f0f7fd3523c6
:10084800237060e42a4b986806f038fb01280dd025
:1008580008f040ff002800d155e4002008f040ffd0
:1008680008f0ecfd224b39221a704ce408f0e6fd42
:100878001f4b36221a7046e41e491d4ce07b08f0d7
:10088800d5fa08f0d3fd372323703ce4184b986859
:1008980006f014fb01280dd008f01cff002800d139
:1008a80031e4002008f01cff08f0c8fd104b392285
:1008b8001a7028e408f0c2fd0d4b38221a7022e4a1
:1008c8000b4b1b7b1fe40a4c606805f00ffd0123ee
:1008d800637337332370fff716fc054c606805f027
:1008e80005fd0123637337332370fff70cfcc04603
:0808f80088ac0020bc4a00009e
:020000040000fa
:10090000f0b59db012930b6814900b934b68119146
:1009100004938b680d930b691593cb680893136848
:10092000546806930794069807990022002307f05d
:100930009bf800280dd10b9b5b073ed408230b9a34
:100940001a400c920d9a09920b9a1a4213d018333e
:100950000ae080200006844606990a00079961444f
:100960000b00069207932d23089a13700d9b013bf1
:10097000099301230c93079b06995b00c74a5b0808
:1009800000291cd193421ad1089a129b94460c98c4
:10099000413bc3496044192b00d9c24908f0c2fe4b
:1009a000089808f0e7fa0b9b0200009308990d9b4a
:1009b000149805f0edfb1db0f0bd2b23d4e7934256
:1009c00002d80cd100290ad0089a129b94460c98a0
:1009d000413bb5496044192be0d9b449dee7002218
:1009e00006980799002307f067fd0026b04f0028fe
:1009f00000d120e100230393129808f077fdc3b2e1
:100a00001093049b002b00daebe1109b0a93672bf9
:100a100012d1049b002b01d10133049365230a9367
:100a2000039b04331ddb039b049a934219da66236c
:100a30000a93039b002b14da049b013304930a9b53
:100a4000662b0ed1039b002b03da00230026984f60
:100a50000393109b672b04d0039a049b9446634432
:100a60000493069a079b0e920f93002334003d00d7
:100a7000139322000e980f992b0004f04ffb04f003
:100a80006ffc8022120694460e9b169017911893c5
:100a90000f9b63441993189a199b009201932200ab
:100aa0002b0008f0effc80231b06cb180022290046
:100ab0000e900f9320007f4b04f030fb139b04003b
:100ac00001331393139a049b0d009342d1d100225a
:100ad000794b02f051f80e9a0f9b04000d0006f0be
:100ae000a4ff002800d0d5e00e9a0f9b200029001b
:100af00007f0e2fc002806d01698179907f058fb7b
:100b0000c00700d4c6e00698079922002b0001f028
:100b100085fd002206900791664b3000390002f0f7
:100b20002bf8069a079b0e900f9106f059fe0028ad
:100b300000d1c7e0039b013303930a9b662b00d0cf
:100b4000c2e0049b039d0133049300263700049bfd
:100b50000c9ceb1a1693169b9d4200d0dee0002ff2
:100b600000d11de10026089b1f190a9b3e70652bd2
:100b70002dd1159b5d1e089b5e55039bb34202da87
:100b80005b4203930136039b002b00d011e1159bc0
:100b9000eb1a0333002b00dd0be12b236a1e002e22
:100ba00000d002330899023d8b54129b413b192b14
:100bb00001d845230a93089b59190a9b0b70ac4234
:100bc00002da380008f0aefd099b023b09930323cb
:100bd0000b9a1340022b00d0e2e6099b002b00dcad
:100be000dee6089808f0c6f90c9b834200dcf1e0d1
:100bf0001800089b30219c46099a604408f04cfb81
:100c000000230d93cce626002f00039b01330393b2
:100c10000022284b3000390001f0aeff04000d0027
:100c200002000b000698079906f01eff0028ead084
:100c30000024012523e00390eae7204b039a9a421f
:100c400012da002c10d10698079900221c4b01f0f3
:100c500093ff002206900791194b3000390001f0f4
:100c60008bff2c0006000f0030003900114b0022d2
:100c700004f054fa06000f00039b013b039332007b
:100c8000069807993b0006f0effe0028d5d1b3e6a1
:100c90000623c2e60024002535e7c0460000f07fa9
:100ca000948b0000988b00009c8b0000a08b0000b0
:100cb0000000f03f0000244000001440d4feffff7d
:100cc000000050430e960f970a9d653d6b1e9d4197
:100cd000039b6d421d4038e7002f0ad1002d08da32
:100ce0002e23089a139901345354099b0137013b71
:100cf0000993321923009446302102e0089ad15416
:100d000001336345fad1099a3419961b089a303099
:100d1000d054731e01340026099320e0119b1394d4
:100d20001b69053ba34200d819e70e9a0f9b069852
:100d3000079904f0f3f904f013fb0490059107f010
:100d400037fa092800dd092010230b9a13400343ca
:100d5000c2d1109b672bbfd1002dbdda0136802296
:100d60000e980f9912069446069b013d1a93079b15
:100d700063441b931a9a1b9b00920193049a059b50
:100d800008f080fb80231b06cb18069007930e9873
:100d90000f990022174b04f0c1f90e900f91dae67b
:100da0000b9bdb0600d4dde62e23089a1355013495
:100db000d8e603980a2104f095fd089b3031013de7
:100dc000595503980a2104f043fd099b0390013b08
:100dd0000993d8e6089b09991a5c5b181a540138e4
:100de00002e7109b672b00d152e70a930623049376
:080df00022e6c0460000244089
:020000040000fa
:100df800a8ac00201c0000000000000000aa002091
:100e08003c00000000000000cca600207400000098
:100e1800000000006caa0020040000000000000090
:100e280040a70020600000000000000080ad002006
:100e38000800000000000000c4ac00201c000000f6
:100e48000000000088ad002008000000000000003d
:100e5800a0a70020f0000000000000007ca50020f2
:100e6800c00000000000000090ad00200800000055
:100e78000000000050ad00200c0000000000000041
:100e8800a0aa00202c000000000000007aa5002085
:100e98000100000000000000ccaa00202c00000087
:100ea80000000000407b002000200000000000003f
:100eb80080a9002040000000000000003caa00209b
:100ec80030000000000000005cad00200c000000b5
:100ed8000000000098ad0020100000000000000095
:100ee80068ad00200c00000000000000405b0020fe
:100ef80000200000000000007ba500200100000089
:100f080000000000b5ad0020010000000000000056
:100f1800b6ad002002000000010000000100000042
:100f2800409b0020400600000000000070aa00203e
:100f38003000000000000000f8ac002014000000a1
:100f48000000000074ab0020240000000000000036
:100f580020ad0020100000000000000098ab002029
:100f6800240000000000000024ab0020280000003e
:100f780000000000f8aa00202c000000000000007b
:100f8800e0ac00201800000000000000c0a900200c
:100f9800400000000000000000000020405b00004e
:100fa800000000000cad002014000000000000004c
:100fb800bcab00202400000000000000b8ad0020f9
:100fc800040000000000000090a80020500000006d
:100fd800000000003ca60020900000000000000077
:100fe80030ad002010000000000000004cab0020d5
:100ff800280000000000000028ac002020000000ad
:101008000000000080a10020140200000000000081
:1010180074ad00200c00000000000000e0ab0020d0
:101028004800000000000000ccad002003000000d4
:1010380000000000a8ad002008000000000000002b
:10104800bcad0020040000000000000040ad0020fe
:10105800100000000000000048ac00202000000044
:101068000000000094a30020e6010000000000003a
:1010780068ac00202000000000000000e0a800206c
:101088005000000000000000b0ad00200500000086
:1010980000000000d0ad0020e001000001000000c9
:1010a800000000000000005f0000000700070014b7
:1010b8007f147f14242a7f2a122313086462364976
:1010c8005522500005030000001c22410000412267
:1010d8001c0014083e081408083e08080050300098
:1010e80000080808080800606000002010080402d2
:1010f8003e5149453e00427f4000426151494621e8
:1011080041454b311814127f1027454545393c4a53
:1011180049493001710905033649494936064949a3
:10112800291e0036360000005636000008142241f9
:101138000014141414140041221408020151090661
:10114800324979413e7e1111117e7f494949363e27
:10115800414141227f4141221c7f494949417f0940
:101168000909013e4149497a7f0808087f00417f03
:1011780041002040413f017f081422417f40404008
:10118800407f020c027f7f0408107f3e4141413eb0
:101198007f090909063e4151215e7f091929464602
:1011a8004949493101017f01013f4040403f1f202b
:1011b80040201f3f4038403f6314081463070870fd
:1011c80008076151494543007f4141000204081066
:1011d800200041417f000402010204404040404099
:1011e800000102040020545454787f48444438389d
:1011f80044444420384444487f3854545418087ea2
:101208000901020c5252523e7f0804047800447dc2
:1012180040002040443d007f1028440000417f40aa
:10122800007c041804787c08040478384444443862
:101238007c14141408081414187c7c080404084846
:1012480054545420043f4440203c4040207c1c20ff
:1012580040201c3c4030403c44281028440c50504e
:10126800503c4464544c44000836410000007f0060
:1012780000004136080010080810087846414678f2
:1012880088ac00202000000000000000c0ad002055
:10129800040000000000000030a9002050000000f9
:1012a80000000000c4ad002008000000000000009d
:1012b80000000000000000006666666666666666f6
:020000040000fa
:1012c800f0b599b012930b68cf680a934b681690e3
:1012d8000e938b680b930b691193136854680693ec
:1012e8000794069807990022002306f0b9fb002806
:1012f8000ed10a9b5b072ed408230a9a0a991a4032
:1013080005920b9a194213d018333b7013000ce066
:1013180080200006844606990a00079961440b005c
:10132800069207932d233b700b9b5a1e01230593ae
:10133800079b06995b005b0800290ed1af488342e2
:101348000bd1129b059a413bad4cae49b818192bed
:1013580011d921000fe02b23e5e7a848834202d8e2
:1013680018d1002916d0129b059a413ba64ca749d3
:10137800b818192bedd808f0d1f9200007f0f6fdc0
:101388000a9b0200009339000b9b169804f0fcfea0
:1013980019b0f0bd059b0598591c30233b54129b8e
:1013a800413b0f930f987823192800d8203b0598c4
:1013b8007b540230931e05900993002206980799e2
:1013c800002307f075f8002800d16de10023904c48
:1013d800089302930394182310930e9b002b00dbb1
:1013e80010930026029c039d109b01331793069ac5
:1013f800079b0c920d930c980d9922002b0003f07b
:1014080089fe03f0a9ff22002b001490159101f02a
:10141800affb02000b000c980d9908f03ff87d4bcc
:101428000c900d9100222000290001f0a1fb0e9bd9
:1014380004000d000136002b07da0c980d990022e4
:10144800002307f035f8002804d1179b9e42d2d11b
:10145800109e01360022200029006f4b01f088fb06
:1014680004000d0002000b000c980d9906f0f8fa24
:10147800002800d01ee10c980d9922002b0007f0df
:1014880017f8002806d01498159906f08dfec007a5
:1014980000d40fe10698079922002b0001f0baf852
:1014a80006900791079b069a5b005b08002a03d108
:1014b800524a934200d144e7119b059a053b149385
:1014c800934200d83de1002573421400160017939b
:1014d80010950c95029a039b0698079903f01afe3b
:1014e80003f03aff1290139106f05efe031e00d03f
:1014f800e3e00c9a002a00d1dfe00135029a039b51
:101508001298139901f034fb02000b000698079912
:1015180007f0c4ff002206900791029803993d4bfb
:1015280001f026fb0c9b179a013b029003910c9348
:10153800934203d0149b26009c42cbd3109b002bd4
:101548001ad1002d00dcfde00e9b002b00dcf9e039
:101558000a9bdb0700d5f5e02e2230213b191a70d3
:101568002a19ba18597001339342fbd16419ed4313
:10157800099b0134eb18099300263b191e7002934e
:10158800119b5d1e089b7e55b34202da5b420893ad
:101598000136089b002b00d0bce0119beb1a0133ed
:1015a80000d1b7e02b236a1e002e00d00233bb54b3
:1015b8000f9a7023023d192a00d8203b79190b7025
:1015c800ac4202da029808f0a9f803230a9a1340f9
:1015d800022b11d1099b9c1e002c0ddd380007f051
:1015e800c5fc059b984200dba4e0f81822003021d6
:1015f80007f04efe00230b933800bfe60000f07f93
:10160800988b0000948b0000a08b00009c8b00003e
:101618000000f03f0000b03f00002040089b02940b
:10162800039501330893029a039b1000190000f0f8
:10163800f1ff04000d0002000b000698079906f060
:101648000ffa0028ead0029a039b0698079906f039
:1016580007fa002800d1bee60298039900223d4b04
:1016680001f086fa0022002306f022ff00280fd09e
:10167800029803990022384b01f07afa002202906e
:10168800039106980799344b01f072fa0690079176
:10169800029803992f4b002201f06afa089b0290e6
:1016a8000391013b0893cee700232c4c089002934a
:1016b8000394b8e700240025ece6109a002a0ad122
:1016c8000c9a002a07d02e22ba55099a0134013af9
:1016d80009920122109230222e1901e03a55013464
:1016e800b442fbd11800099a5730551b092b01dc6d
:1016f800303318000f9b192b06d820230343613b76
:10170800192b01d807f0f5fe6b1e741c0025b8557f
:101718000993f3e608980a2104f0e0f8013d303116
:10172800089879550a2104f08ff8099b0890013b25
:1017380009932ee7099b3a5c023bfb181a540138bf
:101748004fe7059c0a9bdb0600d415e72e233b5583
:10175800013411e70000e03f000050430000f03f73
:020000040000fa
:101768000023f0b51600b1b0039007910493079dcc
:101778002b78002b00d1cfe001235b420c9310abf8
:1017880000240e9380230b940d940f932b5d002b54
:1017980001d0252b30d1002c06d029002200039837
:1017a8002d1906f0a5ff0795079b1a78252a00d062
:1017b800a7e001331800002105930793243a037822
:1017c8002b2b25d02dd8202b25d0232b26d0002914
:1017d80000d007902a2b2cd005f0dcff01250d90b6
:1017e8000020079a11000b780132303b092b64d98d
:1017f80000282dd007912be00134c7e701230b996e
:101808000b430b9311000130d9e702230b99f7e73b
:1018180004230b99f4e708230b99f1e710230b999c
:10182800eee72d2bead0302befd00029d4d007904b
:10183800d2e7336801301a1d1b68079032600d9398
:10184800002b05da01220b995b424a400b920d935b
:101858000b9bda0702d5022293430b93079b1a7856
:101868002e2a0dd100270c975a785d1c07952a2a35
:1018780025d10233079333681a1d1b6832600c9315
:1018880007a806f077fc079d0700287807f02afece
:10189800252800d1d5e06138172800d9dbe007f00a
:1018a8001ffd1fdab63ea6a6a6da3edadadada9c19
:1018b8005e7fdadac6da4edada6e280092e72800b6
:1018c80005f068ff01210c902a0013780135303ba0
:1018d800092b03d9002fd3d00792d1e70f00f3e7e4
:1018e8003200390008a806f03ffb002800d17be051
:1018f8006b1c079303982b7808aa0ba9fff7e0fc49
:101908002418049b1c19a34200dcb0e04f22594b59
:101918001a6001235b420493049831b0f0bd330090
:101928000122390008a802f029ff00285cd00135ff
:10193800039808aa0ba9079503f07cfee0e733009b
:101948000022390008a802f019ff00284cd0013500
:10195800039808aa0ba9079505f008fbd0e7330000
:101968000022390008a802f009ff00283cd0013500
:10197800039808aa0ba9079504f0c0fec0e7330036
:101988000022390008a802f0f9fe00282cd06b1cb0
:1019980007932b78039808aa0ba901f018ffafe763
:1019a80033000022f02108a802f0e8fe00281bd02e
:1019b800089b099a0135079513430cd12e4d280031
:1019c80007f0d4fa290002000b9b00930d9b0398a3
:1019d80004f0dafb94e77823dce7049b39001a1952
:1019e80008a8330004f00cfc0135079589e732009c
:1019f800390008a806f0b8fa0028f5d06b1c079340
:101a080003982b7808aa0ba9fef776ff78e7802fb2
:101a1800ead1336801351a1d1b68326008aa1370b1
:101a28000123079503980ba905f06cfc68e7802f44
:101a3800dad132680135131d336012680023079527
:101a4800f0e7802fd0d10b9b0135009301220b4981
:101a58000d9b0795bbe7059b012207930023524284
:101a68000c9206490b930d9300930232afe704944e
:101a78007de6c046c8ad00208c8b0000928b00002c
:020000040000fa
:101a8800f0b5d646474680b587b0049005910392d5
:101a9800029311ab1e78109b002b33d001235b42bd
:101aa800109a136005f056fc051e2bd0012e10d09d
:101ab800022e15d0082e13d0029b002b22d0039b98
:101ac800002b1fd00f9b002b1cd00e9b002b0dd181
:101ad80018e00f9b002b15d00e9b002b06d111e0b0
:101ae800029b002b0ed0039b002b0bd02f683b01d1
:101af800db1b9b00754a92469a44504604f004f951
:101b0800002804d107b00cbc90469a46f0bd2b685b
:101b18009c461b0162469b1a9b006c4ad3185c6a60
:101b2800186a002800d1cce0217823002c33002249
:101b380000290ad00132904200d1c2e01c002c33a7
:101b480019002c3909780029f4d1012323700023c6
:101b5800a3622b681b061b0c614609016046091a23
:101b680089005a484118888d00040343ff20024029
:101b78001a4322628a8d013292b2554b9a422ed074
:101b880063461b0161465b1a9b005049cb189a8536
:101b9800059b63800e9b63600f9ba360039be360c0
:101ba800029b2361049ba36100232422a354233aac
:101bb800227763752675109b226a1a6053469b6ac2
:101bc800002b0ed03b01db1b9b00404ad3189b6abd
:101bd800002b56d09a6a002a4fd11a0050e00122f1
:101be800cee753469c623b01db1b9b00374ad31868
:101bf8005b696a6993420fd0280014303b01db1bf4
:101c08009b00324a904698444346db685b69002152
:101c1800984743466a695a6102232377012e34d0d4
:101c2800022e40d063682269e16860883e01f61b95
:101c3800b600264dae19f668a5680095b668b04797
:101c480000281ed101235b42109a13603b01db1b65
:101c58009b001e4ad318db681b6998472423e0546d
:101c6800e35c5a4253415a4202231340013b6375d5
:101c7800504607f0cdf904e01a00936a002bfbd117
:101c88009462504604f08cf93ce760883b01db1b0a
:101c98009b000e4ad318db681b68a26861689847e6
:101ca8000028eed1cee760883b01db1b9b00074a8a
:101cb800d318db685b682269e16898470028e0d19f
:101cc800c0e7504604f06cf91ce7c04600aa0020a3
:041cd800ffff00000a
:020000040000fa
:101cdc0010b582b07b4b1a780e2a0bd893007a4a37
:101cec00d3589f460321002002f01cf8754b586016
:101cfc0001221a7002b010bd724b5b68013303d025
:101d0c00704b02221a70f5e76e4b0e221a70f1e737
:101d1c00002300222021002006f008fb07f084fba2
:101d2c00684b03221a70e5e7664b986805f0b8fd1e
:101d3c0001280cd007f0ccfc0028dbd0002007f0e9
:101d4c00cdfc07f079fb5f4b0d221a70d2e707f040
:101d5c0073fb5c4b04221a70cce75a4b1b7b002b99
:101d6c00c8d0584b05221a70c4e7612313224021b6
:101d7c00272006f0f3fa07f057fb524b06221a7095
:101d8c00b8e7504b986805f08bfd01280cd007f094
:101d9c009ffc0028aed0002007f0a0fc07f04cfb05
:101dac00484b0d221a70a5e707f046fb454b07225e
:101dbc001a709fe7e623ae222521282006f0e6faca
:101dcc0007f032fb3f4b08221a7093e73d4b9868a3
:101ddc0005f066fd01280dd007f07afc002800d133
:101dec0088e7002007f07afc07f026fb354b0d2224
:101dfc001a707fe707f020fb324b09221a7079e743
:101e0c00f4230093d93b00220021012006f056f860
:101e1c0007f00afb2b4b0a221a706be7294b9868c8
:101e2c0005f03efd01280dd007f052fc002800d132
:101e3c0060e7002007f052fc07f0fefa214b0d2260
:101e4c001a7057e707f0f8fa1e4b04221a7051e784
:101e5c00f4230093d93b01220021012006f02ef837
:101e6c0007f0e2fa174b0c221a7043e7154b9868ef
:101e7c0005f016fd01280dd007f02afc002800d132
:101e8c0038e7002007f02afc07f0d6fa0d4b0d229c
:101e9c001a702fe707f0d0fa0a4b04221a7029e7c0
:101eac00084c606803f0d2f801236373033323708a
:101ebc0020e7044c606803f0c9f801236373033313
:0c1ecc00237017e790a80020887c00001d
:020000040000fa
:101ed800f0b5de4657464e464546e0b585b001901a
:101ee8000c000391914602930f9b002b28d00123ed
:101ef8005b420f9a136005f053fa061e20d04b463a
:101f0800002b24d0002c22d0378874227a43644bcb
:101f18009b1864331b78002b07d074227a43604bdc
:101f28009b181b6e019a93420ad174237b439b46ec
:101f38005b4b5b449a46180003f026f800280dd145
:101f480005b03cbc90469946a246ab46f0bd0e9bf8
:101f5800002bf5d0029b002bd6d1f1e733889846a9
:101f68007423424653434e4ad2189069d36ed169be
:101f780000290ed000228b42a4412340dc00e41843
:101f8800a40004192578002d07d0013201339142ad
:101f9800f1d1504603f099fad2e7012222700022cb
:101fa80022627421424651433d4a5118888c0004ec
:101fb800327812020243ff2018400243e261898c02
:101fc800013189b2374a91421dd0742042465043ac
:101fd800334a121891840133d366029b6360039bd2
:101fe800a3600123637500232375019ba361b36973
:101ff800002b0ad0082b1dd84b465d00e5600e9bd0
:102008005b00236105e00121dfe74b46e3600e9b9f
:1020180023610f9be2691a6053461b6a002b10d09c
:102028001f4b5b441b6a002b31d01a6a002a2ad145
:102038001a002be04b469b00e3600e9b9b0023613c
:10204800e7e753461c6202236375200002f002fc96
:1020580074227a43124b9b18db6a013306d0742230
:102068007a430f4b9b181b6b013314d123696268a9
:10207800e168a06874257d43094c64196469646843
:10208800a04704e01a00136a002bfbd114625046e3
:1020980003f01bfa54e7200000f07efcf7e7c04687
:0820a800cca60020ffff0000a0
:020000040000fa
:1020b00070b56b4b1a780c2a06d89300694ad3582e
:1020c0009f46674b01221a7070bd654b1b7a002b2f
:1020d000fad0634b02221a70f6e78020800406f0e3
:1020e000b9ff002803d15e4b03221a70ece7802071
:1020f000800407f015fa5a4b0c221a70e4e706f038
:102100004bfa400703d1564b04221a70dce706f065
:1021100043fac0434007f6d0514b0c221a70d3e764
:10212000012006f097ff002803d14d4b07221a70bb
:10213000cae7012007f0f4f9494b05221a70c3e7fa
:10214000002006f0c3fc002803d1454b07221a707b
:10215000bae7002006f0bafc414b187306221a7049
:10216000b2e73f4c257bea005219d2003e4b9c4619
:1021700064440021200007f08ff82200290000208d
:1021800002f00afd002803d1354b0c221a709be7a0
:102190003649374bcc18207b482204f08dfb0723af
:1021a000237091e7102006f055ff002803d12c4b37
:1021b0000a221a7088e7102007f0b2f9284b08228b
:1021c0001a7081e7012006f081fc002803d1244b1e
:1021d0000a221a7078e7012006f078fc204b587329
:1021e00009221a7070e71e4c657bea005219d20072
:1021f000204b9c4664440021200007f04df822004b
:102200002900012002f0c8fc002803d1144b0c2245
:102210001a7059e71849194bcc18607b482204f012
:102220004bfb0a2323704fe7012004f095fd0c4b74
:102230000b221a7048e70a4b5968012003f030ff5f
:10224000002803d1064b0c221a703de7044b0122f3
:102250005a721a7038e7024b01225a721a7033e729
:1022600000000020e08000000e0900000e090020a0
:10227000f2f6ffff0e1b00000e1b0020f2e4ffff32
:020000040000fa
:1022800010b5714b1a78132a0dd893006f4ad358a2
:102290009f4606f0d3fa0321002001f04dfe6a4b61
:1022a000586001221a7010bd674b5b68013303d080
:1022b000654b04221a70f6e7634b13221a70f2e79b
:1022c000614ce07b06f098f807f0b4f80523237022
:1022d000e9e75d4b986804f0f5fd01280cd007f0a4
:1022e000fdf90028dfd0002007f0fef907f0aaf87a
:1022f000554b12221a70d6e707f0a4f8524b06226b
:102300001a70d0e706f006fe4f4b07221a70cae794
:102310004d4ce07b06f088f807f08cf8082323701a
:10232000c1e7494b986804f0cdfd01280cd007f0b7
:10233000d5f90028b7d0002007f0d6f907f082f8c9
:10234000414b12221a70aee707f07cf83e4b09228f
:102350001a70a8e706f0eafd3b4b0a221a70a2e7c2
:10236000394ce07b012106f09bf907f063f80b2361
:10237000237098e7344b986804f0a4fd01280dd031
:1023800007f0acf9002800d18de7002007f0acf988
:1023900007f058f82c4b12221a7084e707f052f815
:1023a000294b0c221a707ee7274b1b7b002b00d198
:1023b00079e7254b0d221a7075e7234ce07b06f078
:1023c00003f807f037f80e2323706ce71e4b98686c
:1023d00004f078fd01280dd007f080f9002800d125
:1023e00061e7002007f080f907f02cf8164b122265
:1023f0001a7058e707f026f8134b0f221a7052e7ad
:1024000006f07cfd104b10221a704ce704f0dafe47
:102410000d4b11221a7046e70b4b01225a730b32f7
:102420001a7040e7084c606803f064ff012363738f
:102430000b33237037e7044c606803f05bff012324
:1024400063730b3323702ee74cab0020bc7200008b
:020000040000fa
:10245000694b5b685b009b0a684a93630023537572
:10246000110004228b691a42fcd164491022cb6806
:102470001a42fcd0614a137d80210b431375604bd7
:10248000604a9a829a7d01210a439a7500229a61d4
:1024900004321a615c4b5d4a1a62190004224b68cf
:1024a0001a42fcd1584b5a4a5a62190008224b680a
:1024b0001a42fcd1544a88234021d150100048319f
:1024c000402243581a42fcd04f4a8c234021d1501d
:1024d00010004c31402243581a42fcd04a4a902303
:1024e0004021d15010005031402243581a42fcd0b4
:1024f000454a94234021d150100054314022435882
:102500001a42fcd0404ac8234021d15010008831e3
:10251000402243581a42fcd03b4acc234021d150a0
:1025200010008c31402243581a42fcd0364ad02346
:102530004021d15010009031402243581a42fcd023
:10254000314ad4234021d1501000943140224358c5
:102550001a42fcd02c4ae8234021d1501000a83167
:10256000402243581a42fcd0274af0234121d1503f
:102570001000af31402243581a42fcd0224af823bf
:102580004021d1501000b831402243581a42fcd0ab
:102590001d4a88235b004021d150100019004022c1
:1025a00043581a42fcd0184a8c235b004021d1507a
:1025b00010001900402243581a42fcd0124a9223bc
:1025c0005b004021d15010001900402243581a42ac
:1025d000fcd00d4a94235b004021d150100019001b
:1025e000402243581a42fcd00a4b0b4ada61044b92
:1025f00004225a607047c0462060800000100040ee
:102600000014004096050000001c00400601010077
:0c26100006010200000800401f161a0c12
:020000040000fa
:10261c00f0b40125ed070f005f405ad48b4200d176
:10262c00824205d950404240504059404b4059409d
:10263c004e18760ddf187f0d3bd0741c640529d025
:10264c00f41b352c26d80e0ddb022b43db0ac902fa
:10265c002943c9121700202c1ed2e741e2405740f3
:10266c00e3415a40a340e3405a40002480185941aa
:10267c000ad3b21c520521d0c207012f62411700a8
:10268c004008cb0718434908013636054208af41cc
:10269c0060417141f0bc7047203c06d01f00e741ff
:1026ac00e3405f400024012a6741c0186141ebd32d
:1026bc00dfe7002eeed129400020ebe70136310593
:1026cc000020e7e7e742e5d10020c143090dc9042a
:1026dc00e0e76b400e00871a9e4104d26e40c01b8f
:1026ec00b141d21973414e18df18ac0ae642e9d257
:1026fc00760d7f0d31d0f41b362ccbd8b4460e0d95
:10270c00db022b43db0ac9022943c90a012c32d84c
:10271c0004d1d4075208df073a435b08ef0a64423e
:10272c00904199411ed0002239424dd1241940418b
:10273c0049410124394204d101340018494139423c
:10274c00fad06246a24204d9361b013e36058919dd
:10275c00a0e7f10ac90700209ce736429ad1002075
:10276c00002197e70200224394d0b842ded2010048
:10277c0020002024e3d1202c13dd203ce241170063
:10278c00a240e2405740e3415a40a340e3405a4044
:10279c00012fbf410137174300227c4298419141e0
:1027ac000ce01700e741e2405740e3415a40a34098
:1027bc00e3405a407c429041994100220f0303d2de
:1027cc00013e241940414941013e36054708ac41c0
:0827dc0050417141f0bc70474f
:020000040000fa
:1027e40070b56c4b9b7d002b19d06b4b9c6a694b6d
:1027f4005b8b9b0714d5684b2022ff21995401322f
:10280400fd399954644a2023d35c5bb2013300d16f
:102814008de0614a2023d35c062b00d1a0e070bd7b
:102824005c4b5b8bdb0707d55b4b2022ff21995464
:102834000132fd399954e5e7564b5b8b5b0707d5ad
:10284400554b2022ff2199540132fe399954d9e77e
:10285400514a2023d35c5bb2032b47d0042b11d005
:10286400022bcfd11369002b05d0908880b20021b0
:1028740004f0fefbc6e7484b988880b2012104f0bf
:10288400f7fbbfe7444a936912699a420dd0424a62
:102894009268d05c3f4928228854591c3d4ad36928
:1028a400002bfcd13c4b9961ace73b4b5b69002ba3
:1028b4000ed0394b9b885b0001221343354a536287
:1028c400d369002bfcd1344a20330321d15499e736
:1028d400304a5168c0239b020b435360d369002bd9
:1028e400fcd12d4a20330621d1548be72a4bd969d8
:1028f4005b69013b8b420cd0264ad369002bfcd187
:10290400254bda68234d2820285c50540131d961c5
:1029140078e7204a5068e023db0203435360d3691d
:10292400002bfcd11c4a20330620d054e4e720239a
:102934000021d154174a5168c0239b020b435360b2
:10294400d369002bfcd1134b83221a76124b5b6a9a
:10295400002b00d163e7104b5b6a200098475ee7c9
:102964001300002220215a5401315a54094b833256
:102974001a761900533a4b8b1340102bfbd1064b9c
:102984005b6a002b00d14ae7034b5b6a200098473f
:0c29940045e7c04600100042a0aa002049
:020000040000fa
:1029a000f0b5c64600b504008669614a330aff25c2
:1029b0002b4074204343d3182e40b500ad19ed00d1
:1029c000db68ed182e8803007343d31800225a6485
:1029d0009a642269e3689a4259d3704354490918aa
:1029e000d31a4b6474237343514fff18fb6ad8b258
:1029f0002200504906f0b6fc386bc0b222004e49a6
:102a000006f0b0fcab69002b48d0082b53d88027c8
:102a10007f0074237343464ded183900286b06f090
:102a200075f8e86a390006f071f82369002b51d176
:102a30003f4b984674273d007543454400220021d2
:102a4000286b05f06bffab6c0022aa6477433a0059
:102a500040324244a96b286bc0b202f035fae368f9
:102a6000002b49d174337343314ef61800220021f4
:102a7000f06a05f053ff736c00227264726bf06aa7
:102a8000c0b22e4902f020fa04bc9046f0bd74207a
:102a90007043274909189b1a8b64a3e77433734367
:102aa000234ded180021286b06f030f8e86a00216c
:102ab00006f02cf8b9e78027bf00742373431c4d40
:102ac000ed183900286b06f021f8e86a390006f0a5
:102ad0001df8aae7802274237343154ded181201e7
:102ae0000021286b05f01affa96b286bc0b223697f
:102af000626802f0e9f9b2e78021742373430c4d58
:102b0000ed180022c900e86a05f008ffab6c002b45
:102b10000bd0236974227243054eb618726ba168fc
:102b2000f06ac0b202f0d0f9aee7e368f2e7c0465f
:102b3000cca60020cd6f0000a53200006caa0020ba
:020000040000fa
:102b400008d1002806d1f54204d801d3002a01d1ca
:102b50006d0d09d10020c143090dc904f0bdf9d1a3
:102b60001242f7d1640df5d00020c1434905490850
:102b7000a6e000206146f0bdf0b50127ff070e007a
:102b80005e403e40b446be0a4c18dd18f442d7d22f
:102b9000f542e4d2640decd06d0dead06419c9029f
:102ba0003943460dc0023143db023b43db0a10b41c
:102bb0008e4685b297b26f43140c6c433e0ca41939
:102bc000260c2404bfb227439cb26c43a419190cf1
:102bd0006943250ca4b249190d04090c6419000cb1
:102be00095b245433e0c76193743bfb2360c150cef
:102bf0004543ad19a6b2240cad192e0437432e0c53
:102c000036199db24543ad19acb22e0c89191d0c75
:102c100045436d182e04290c3443704680b295b29a
:102c200045433e0c76193743bfb2360c150c45436d
:102c3000ad19a6b2ad19240c2e0437432e0c36194b
:102c40009db24543ad19acb22e0c89191d0c4543fc
:102c50006d182e043443290c75462d0c90b2684330
:102c60003e0c80190604bfb23e43070ca0b23f18c9
:102c7000120c6a43d019020c80b2240ca4189ab228
:102c80006a43121914042043120c89181b0c6b435d
:102c9000c91810bc01273d05294203d1b61940418e
:102ca0004941013cff077d0d013d641b0bdb6d00bd
:102cb000ac4209da240500254208be416841614161
:0a2cc00066463143f0bd54e74ee7cd
:020000040000fa
:022cca00704751
:020000040000fa
:102ccc00f0b5de4657464e464546e0b583b000901b
:102cdc000d0017001c000cab1b789a46002c18d06a
:102cec0001235b422360002a13d0002911d004f089
:102cfc005bfc804600280cd0068873009b195b0196
:102d0c0099464d4b4b440193180002f071f8002882
:102d1c0006d103b03cbc90469946a246ab46f0bdea
:102d2c0043461b889b465b005b445b01424ad318bd
:102d3c00d9699b699c46002b74d008790b0024330d
:102d4c00002200280dd06146a4462c0001328a4294
:102d5c0068d01d00187924330028f7d129002500ec
:102d6c00644601230b7100234b615b465b005b44a3
:102d7c005b01314884469c446346988a0004434670
:102d8c001b781b020343ff20024013430b62634674
:102d9c009a8a013292b2294b9a4231d05b465b003f
:102dac005b445b012448c3189a828d60cf6000237a
:102dbc000b61009a0a60cb6101220a764b760b6a92
:102dcc0023605346012b1dd01b484b462433c3189c
:102ddc007200921952018218526a002a26d01b687e
:102dec00002b09d05a69002a05d05b69002b03d04f
:102dfc005a69002af9d15961019802f04bfa88e717
:102e0c000122cbe70c484b462033c31872009219b1
:102e1c0052018218126a002ae1d11960019803f05c
:102e2c0076fee9e7019802f035fa72e7196001982d
:102e3c0003f072fde0e7c04640a70020ffff000052
:020000040000fa
:102e4c0010b55b4b1a780c2a0bd89300594ad358ff
:102e5c009f460321002001f0e9f8554b58600122f0
:102e6c001a7010bd524b5b68013303d0504b0a22d1
:102e7c001a70f6e74e4b0c221a70f2e74c4b1b7b88
:102e8c00002beed04a4b02221a70eae74a4805f0b2
:102e9c003bf906f0c9fa464b03221a70e1e7444ba2
:102eac00986804f0b3f901280cd006f011fc002846
:102ebc00d7d0002006f012fc06f0befa3c4b0b22d9
:102ecc001a70cee706f0b8fa394b04221a70c8e72c
:102edc0006f032f806f0a8fa354b05221a70c0e756
:102eec00334b986804f092f901280cd006f0f0fbf3
:102efc000028b6d0002006f0f1fb06f09dfa2c4b12
:102f0c000b221a70ade706f097fa294b06221a70bd
:102f1c00a7e7274b842189005a5c9818dc7b047442
:102f2c0001325a5407221a709be7214bdb7b0a2b88
:102f3c0003d01f4b04221a7093e71d4b1f495a5c98
:102f4c0001325a5408221a708be7194b1b4a9b5cae
:102f5c00022b03d0164b04221a7082e7144b00226a
:102f6c00842189005a5415495a5409321a7078e749
:102f7c0004f0a2fe002803d10d4b0c221a7070e74e
:102f8c000b4b00229a730a321a706ae7084c60687d
:102f9c0002f084ff012363730933237061e7044c4f
:102fac00606802f07bff012363730933237058e7d9
:102fbc0080a1002048810000704a0000110200002e
:020000040000fa
:102fcc0070b50500594c207fc0b2002800d0a7e096
:102fdc0000294ad0002d48d0554c6668072434404f
:102fec00012c5ed05148056042600024446184612c
:102ffc0004614e488160002a58d04c4ad3604b4a39
:10300c00012111774a4a127e520705d5484a0420fd
:10301c00916a117e0142fbd1454a518b0420014338
:10302c005183117e80200143117640498a68c9681a
:10303c00914203d93d48c168891a01613c494968ec
:10304c00490743d139498969914233d2374a1168ca
:10305c00087837498862916901319161002b5ad007
:10306c00334b04229a7501205be0002b59d0002ac7
:10307c0057d02f4c666807243440012c0cd02b48b9
:10308c00056042600024446184610461002db0d16c
:10309c00264900208860aee7002943d1dc07eed535
:1030ac003fe0cc073dd4002be9d0f7e71f4a0021c5
:1030bc00d160a4e71d4a1269002acfd01c4aff2117
:1030cc0091621a490a69013a0a61c7e7174a91687d
:1030dc0049089160116949081161d1684908d160aa
:1030ec00916892698a420ad210490a681288d205fc
:1030fc00d20d0f4882628a6901328a61aee70b4aaf
:10310c001269002aaad00a4a0a49916207490a6937
:10311c00013a0a61a2e7064b01229a75012000e0f0
:10312c00002070bdcc07b9d5fbe7c046ccaa002067
:08313c00000c0042ff0100003d
:020000040000fa
:1031440010b5544b1a780d2a0dd89300524ad3580f
:103154009f4605f0f5ff0321002000f0ebfe4d4be8
:10316400586001221a7010bd4a4b5b68013303d0ca
:10317400484b02221a70f6e7464b0d221a70f2e70a
:10318400444b1b7b002beed0424b03221a70eae720
:10319400404ca07bfd2105f0e3fb06f049f9042334
:1031a4002370e0e73b4b986803f08afe01280cd0bb
:1031b40006f092fa0028d6d0002006f093fa06f022
:1031c4003ff9344b0c221a70cde706f039f9314b34
:1031d40005221a70c7e706f03bf92e4b07221a7036
:1031e400c1e706f085fa0028bdd0002006f086fa73
:1031f40006f036f9274b07221a70b4e7254ca07b5a
:1032040005f092fc06f014f908232370abe7214b78
:10321400986803f055fe01280cd006f05dfa0028ea
:10322400a1d0002006f05efa06f00af9194b0c2230
:103234001a7098e706f004f9164b09221a7092e7ff
:1032440005f0a0fb134b0a221a708ce7134c20885c
:1032540004f0d2f9608805f055f80e4b0b221a7071
:1032640081e70c4b01225a7301321a707be7094c37
:10327400606803f03df8012363730133237072e740
:10328400044c606803f034f8012363730133237042
:1032940069e7c046bcab0020907e00000cad002066
:020000040000fa
:1032a400f0b5c64600b582b001900c008969524a57
:1032b4000b0aff252b4074204343d31829408d006b
:1032c4006d18ed00db68ed182f8878431218926ca6
:1032d400002a42d1484e361873699b6898470028e3
:1032e400fad11c202856431c0fd06a7f002a56d1dd
:1032f4001f3202400121914080b2400982231b0405
:103304009c466044c00106f035fa742078433a4b79
:1033140018186b6aa269934254d1019b012b4cd0bb
:10332400019b022b4bd01426a657e369984605f05f
:103334007bfe6b68002b47d074237b432e4ce41830
:103344002634237801332370aa686b684146300021
:1033540098472378013b237036e0274e7423984620
:103364001d007d43751900220021286b05f0d4fa55
:1033740043465f433a004032b2182b6bd8b2ab6c71
:10338400a96b01f09ffda1682369c918eb6ad8b243
:10339400ab6c6a6b01f096fd0023ab641ee01f2248
:1033a40002400121914080b2400982231b049c46c3
:1033b4006044c00106f0e0f9a7e72375b3e7fd33e5
:1033c4002375b0e705f030fe74227a430a4fbf1824
:1033d4003c6a002c02d0637d012b03d002b004bcf4
:1033e4009046f0bd200001f037fa022363752000f7
:0c33f400fff7d4faf2e7c046cca6002098
:020000040000fa
:1034000070b5504b586a504b9b7d002b54d04e49a1
:103410004c68072214404b4b5a699d699e680b7e8d
:103420005b0757d5896a474bdb68934252d9002c1a
:1034300043d1444b5b6899540132434b1b7edb07fd
:1034400016d5414b012119753e4b9b68ab4256d9ad
:103450003c4b1b68595d3c4b99620135394b1b69ec
:10346000002b01d1b54262d0364bdb68934262d06b
:10347000344b5a619d61344b1b7e9b0715d5334bf2
:103480001b78002b18d02f4bdb68934211d12d4baa
:1034900000221a772c4907240c752c490a701b6ae4
:1034a000002b09d0274b1b6a9847284b1b78002b11
:1034b00002d0254b02229a7570bd224b5b685400e6
:1034c000e1520132204b1b7edb07d1d51e4b01217f
:1034d000197508e01c4b1b7edb07c9d51a4b01216f
:1034e0001975002cb0d0174b9b68ab4213d9154b04
:1034f0001b686900c95a144b99620135aee7114b3c
:103500001b69002baad0104bff2199620d490b6952
:10351000013b0b61a2e70b4b1b69002b9ed00a4bb2
:103520000b49996207490b69013b0b6196e7074b11
:10353000012119709ce7044b01219975033119751c
:1035400096e7c046ccaa0020000c00427aa50020d5
:04355000ffff000079
:020000040000fa
:10355400f0b583b004004a4a107dc0b22c23d35c7a
:10356400dbb2002b00d086e0002800d086e0002cdf
:1035740000d181e02768002f7ed0002900d1414985
:103584003b018b4205d9fb008b4275d808260325e5
:1035940001e010260125080005f006fb019030002b
:1035a40005f002fb061c380005f0fefa011c301c75
:1035b40001f032ff011c019802f0d2fa061c05f05a
:1035c40071fa0700421e304b00209a4213d8301c77
:1035d40004f067fa05f044f9011c301c05f058ffab
:1035e4008221c90501f018ff05f05cfa4003ff23ae
:1035f4005b0318403843254a136802218b43136048
:10360400d369002bfcd180b2204b98816368022bd4
:1036140021d01e4a13681e490b406d031d438023ad
:103624005b041d4315605168a368e06803431948af
:1036340001400b4361680b435360144ad369002b68
:10364400fcd1124a136802210b431360d369002b87
:10365400fcd1012010e00d4a13680d490b406d03a5
:103664001d4315605168a368e06803434720814304
:103674000b435360e1e7002003b0f0bd1800fbe703
:103684003caa0020006cdc02fe1f00000004004283
:08369400ff1ffff0b8dfffff8c
:020000040000fa
:10369c000122d20703004b403dd430b4431a01d26f
:1036ac00c01ac9184b004400240eff2c29d0002c42
:1036bc0024d01b0e20d0e31a182b1ddc0902114359
:1036cc00c40d000210435d4219350a00aa40d2090c
:1036dc00d940451801d36d080234013ce405280a91
:1036ec000121c9072d062a438a4160414100090e78
:1036fc00ff2901d3c00dc00530bc7047c00fc007f7
:10370c00fae742001823da41ff2af5d07f200001a6
:10371c000c300005f0e7a4465140431a02d2534046
:10372c00c01ac9184b00090211431b0e4400240e89
:10373c00ff2c41d0002b10d05b421b19012b10d356
:10374c0022d1c30d4002401a10d3db050100400a00
:10375c00c90591415841644670472442fbd1002071
:10376c00f9e7c30d40024900401af4d000210131a1
:10377c004000fcd38c4204d95b1adb05400ac0180c
:10378c00e9e7180ac007e6e7192be4d801330c0067
:10379c00d940dc414c40012c4941c30d000210437f
:1037ac00441a01d4a4006408013bdb05200a24065a
:1037bc009441584164467047ff2b01d04102cad056
:0a37cc007f2000010c300005c5e766
:020000040000fa
:1037d600f0b58fb00c934b680d0008938b681600fc
:1037e6000993cb680f680393089b0b90002b43db70
:1037f60002239f4310233a001a400d92099a04921d
:103806001f4206d033687268134302d0099b023bfd
:10381600049308233b400a935a1e9341049a2c6949
:10382600d31a04933368039a06937368013c07938b
:1038360000231355049b0593012c20dc0d9b002bc4
:1038460050d10a9b002b03d02023039a013c135529
:103856002a69039b013a19190b98099b121b0097b9
:1038660002f093fc0b9b5b68db0503d56b68984203
:1038760000da18000fb0f0bd01230893bae7069be3
:10388600079a13430ad1049a089b9b1a059a9b1818
:10389600002b03dc002ad1ddbb07cfd50f23069a08
:1038a600013c134018005730092b01dc3033180057
:1038b6000c9b413b192b06d820230343613b192b54
:1038c60001d805f017fe039b1855059b013b059390
:1038d600079b1a07069b1b091a43079b06921b099f
:1038e6000793a9e70cce1343abd0039b0c9a1b1985
:0e38f600013b1a703023039a023c1355a1e7e0
:020000040000fa
:1039040010b5414b1a78082a06d893003f4ad35879
:103914009f463d4b01221a7010bd05f079fd05f05c
:10392400e3f8394b02221a70f6e705f0c9fe0028c5
:10393400f2d0002005f0cafe05f0dafb324b032278
:103944001a70e9e7304b9b78002b08d1012005f071
:103954008dfe05f0cdfb2c4b04221a70dce705f03c
:10396400c7fb294b05221a70d6e705f085fe00280f
:10397400d2d0002005f07afe002005f083fe05f089
:10398400b7fb214b05221a70c6e71f4b5b78002b4f
:1039940008d1012005f028fe05f0aafb1a4b0622e7
:1039a4001a70b9e705f0a4fb174b07221a70b3e7a6
:1039b40005f020fe0028afd0002005f015fe002001
:1039c40005f01efe05f094fb0f4b07221a70a3e7c7
:1039d400012005f02dfe05f08bfb0b4b08221a701d
:1039e4009ae705f02bfe002896d0002005f020fe73
:1039f400002005f029fe05f00bfd05f079fb024bd4
:103a040002221a7088e7c046b0ad0020848a000004
:020000040000fa
:103a140070b5002841d00468002900d136496300fc
:103a240099423cd3354b9c423bd8080005f0bcf886
:103a3400051c200005f0b8f8011c281c02f090f8c1
:103a4400061c2f49281c01f0e7fc2e49fff724fe31
:103a5400011c301c05f01cfd05f024f805002a4b60
:103a64009c4209d8ff235b00ff209d421cd8fe38ee
:103a7400012d19d9680817e07e23ff33984212d824
:103a8400032836d94000032102f0faf80602032184
:103a9400280002f0f5f8304306e0002028e000207a
:103aa40026e0002024e019481749a14289414942ef
:103ab400174a13680224a3431360d369002bfcd173
:103ac400134bd8601a681348024009061143196061
:103ad4001a6802210a431a601a00d369002bfcd128
:103ae4000b4b10225a831a00d369002bfcd10120fe
:103af40070bd0948d8e7c046006cdc0240420f00a4
:103b040095bfd63300002041801a06007fff0000d5
:0c3b140000100042fffffffc0102000057
:020000040000fa
:103b200010b53a4b06225a6005f02cfcfef790fccb
:103b300005f002fd03f09afb04f050fa04f0b8fe21
:103b400003f0a4fd05f0b2f803f0eaff03f068fa11
:103b500003f074f804f002f802f020f903f0defa42
:103b600005f0d5fb04f0c8fe01f07cf802f038fe49
:103b700001f00afd05f08cf804f064fa03f0ecfda6
:103b80002349002002f0f6fd224c2060224900204b
:103b900001f0aefde0602149002000f097ff2061b8
:103ba00005f068f81e49002002f050fe60601d49d3
:103bb000002003f0a3f8a06005f046fb05f0d6fa5c
:103bc00004f006ff05f0fef805f046fd05f062fd85
:103bd00005f0eafa04f00eff04f0e8fe04f0c6ff78
:103be00005f016fd04f016fe05f01afb05f0b4fa18
:103bf00005f034fb02f0cafe04f032ff05f00cf9c8
:103c000004f00aff00f00efb10bdc046004000416a
:103c10008c8d0000f8ac0020ac8000004c7c0000d3
:083c200050970000c895000058
:020000040000fa
:103c280010b53f4b1a78072a06d893003d4ad35857
:103c38009f463b4b01221a7010bd394b5b78002b15
:103c4800fad0374b02221a70f6e705f077fc012804
:103c580006d0334b0022da709a7003321a70ebe701
:103c68002f4b0122da709a701a70e5e705f066fcae
:103c7800022806d02a4b0022da709a7004321a7091
:103c8800dae7274b0222da70013a9a701a70d3e702
:103c980005f054fc042806d0214b0022da709a70f3
:103ca80005321a70c8e71e4b0322da70023a9a707e
:103cb8001a70c1e705f042fc102806d0184b002204
:103cc800da709a7006321a70b6e7154b0422da7069
:103cd800033a9a701a70afe705f030fc202806d036
:103ce8000f4b0022da709a7007321a70a4e70c4b57
:103cf8000522da70043a9a701a709de705f01efce6
:103d0800402806d0064b0022da7001329a701a70e9
:103d180092e7034b0622da70053a9a701a708be71d
:083d2800b8ad00204c8b000037
:020000040000fa
:103d300030b5002800d076e03c4a7023d35c012bdc
:103d400002d00120404230bd1300702298541b7ce9
:103d50005bb2022b47d1354b1b78002b43d0334b42
:103d60005b78002b46d1314b5b68002b49d12f4b40
:103d70009d68002d50d0db681800dc7828330022c5
:103d8000002c07d00132aa4246d018002833c4784c
:103d9000002cf7d10123c3700b0702d5234b01245c
:103da0005c70224c636801336360a38c1b04ff25a5
:103db0002a401a434262a38c01339bb21c4a9342ad
:103dc00028d01a4a938470230124d454042319431d
:103dd0008170002343608360ff220277df3a8354bf
:103de0000380406aafe7114a70230121d1540120ba
:103df0004042a8e70d4a70230121d15401204042de
:103e0000a1e70b07b3d5094a70230121d154012042
:103e1000404298e70123d4e7044a70230121d1549a
:103e2000012040428fe7012040428ce7cca60020d1
:043e3000ffff000090
:020000040000fa
:103e3400f0b5de4657464e464546e0b583b080466b
:103e440000296ed00024384f0726384b9c469b46e9
:103e54009946009108e03648415549468a60621cfb
:103e64000134009991424cd97a683240012a16d023
:103e74009d68da6892466a1c19698a4289410a4037
:103e840092453fd04146095d786830400128e2d12f
:103e94006d0027484155013500214155dde7624653
:103ea4009568d26892466a1c614609698a428941ca
:103eb4000a40924526d0610001204044405c000243
:103ec40082464046415c5046014301917868304047
:103ed400012809d0694609798a461549504648554a
:103ee40059468a60621cbbe7690068460079104d38
:103ef400aa4668540d0001350199090a50464155f6
:103f0400eee7140004f0defe002802d0064b012286
:103f14009a75200003b03cbc90469946a246ab4635
:103f2400f0bd0c00eee7c0460008004280a9002066
:043f3400408b00209e
:020000040000fa
:103f380030b5002800d074e03b4a3423d35c012b11
:103f480002d00120404230bd1300342298545b78df
:103f58005bb2022b45d1344b1b78002b41d0324b3e
:103f68009b78002b44d1304b5b68002b47d12e4bfc
:103f78009d68002d4ed0db6918005c79183300224b
:103f8800002c07d00132aa4244d0180018334479d3
:103f9800002cf7d1012343710b0702d5224b0124d2
:103fa8009c70214c636801336360a38d1b04ff255b
:103fb8002a401a430261a38d01339bb21b4a9342e4
:103fc80026d0194a938534230124d454002303604e
:103fd800042421430171126942618360c36000694e
:103fe800b1e7114a34230121d15401204042aae704
:103ff8000d4a34230121d15401204042a3e70b0785
:10400800b5d5094a34230121d154012040429ae709
:104018000123d6e7044a34230121d1540120404228
:1040280091e7012040428ee700aa0020ffff000030
:020000040000fa
:1040380030b500286ad13a4b9b785bb2022b68d125
:10404800374b1b78002b67d0354a3c23d35c012bb8
:1040580002d0012040425ee013003c2298545b7875
:10406800002b3bd12e4b9b68002b3dd12c4bdd68a0
:10407800002d44d01b691800dc7810330022002c76
:1040880007d00132aa423ad018001033c478002c65
:10409800f7d10123c3700b0702d5214b01245c70b3
:1040a8001f4ca3680133a360a38a1b04ff252a4081
:1040b8001a43c260a38a01339bb21a4a93421cd0a6
:1040c800174a93823c230124d45404231943817052
:1040d8000023436083600380c0681ce0104a3c23cf
:1040e8000121d154013816e00b07bfd50c4a3c23f7
:1040f8000121d154012040420de00123e0e7084aa4
:104108003c230121d1540120404204e001204042d7
:1041180001e00120404230bd01204042fbe7c0469b
:0841280040a70020ffff00008a
:020000040000fa
:10413000f0b5ce46474680b583b004000e0001922c
:104140000278002a63d002228256022a5fd1012916
:1041500034d0476a002f5ad03a68100aff25284009
:104160004100091849012e48411815402d010969df
:104170006d18e9688a4241d1019a7a767a7e52b204
:1041800001321dd0fb683b613b6a9946310020003b
:1041900004f07bfb6b68002b34d028239846e35c4b
:1041a00001334246a354aa686b6849460198984770
:1041b0004346e35c013b4246a35423e0076ac9e758
:1041c000226b013202d000233b61dde7e26c116813
:1041d000994210d051688b420bd0916800228b42db
:1041e00005d0fa616368db6898473861cce7023232
:1041f00002e0012200e000220132f2e7310020005b
:1042000004f043fb002e07d1200002f08bfb03b02b
:104210000cbc90469946f0bd200002f07efcf6e70b
:0442200040a7002093
:020000040000fa
:10422400f0b5ce46474680b5bff35f8f62b6344bd8
:10423400c027bf00da59ff208243c0210a43da5164
:1042440001221a60da592f4d2a40c0242404a146c1
:104254002243da5104221a60da591202120ac026e1
:1042640036063243da5108221a600437da59824397
:104274000a43da5110221a60da591202120a32433e
:10428400da5180221a60c22292009f581e4ca44622
:104294003c40c0273f023c439c508024a4001c6047
:1042a4009c5825404c462c439c508024e4001c60c0
:1042b4009c582402240a26439e50802212011a602c
:1042c400c324a4001a5982430a431a51802252017a
:1042d4001a6008341a598243114319518022520337
:1042e4001a60c62189005a586046024017435f503d
:1042f400802292041a600cbc90469946f0bdc046d8
:0c43040000e100e0ffff00ffff00fffff2
:020000040000fa
:10431000f0b5d6464f464646c0b50426344da846ad
:10432000a946334b9a465be04a46126a002a42d0bd
:10433000796a3b6a01209847bb6a01333a6b934222
:104340009241134037e05246926a5200e0b2294946
:1043500088540132240a8c543ce004f0c3fc244b02
:104360001b6a002bddd0224b596a3c23204ad35cc8
:10437000002b06d0936b9842d3d3136a0020984742
:10438000cfe71b4b9b6b9842cbd1194b1b6a00208c
:104390009847c6e7184b1b7e334223d0164b1c8d23
:1043a000a4b2ab6a01332a6b934292411340424656
:1043b000d26a9a42b8d00e4ad26a9a42ead00e4adb
:1043c000516807220a40012abdd0094a926ae4b224
:1043d00008498c54064a93623423d35c002bbcd129
:1043e000034fd7e71cbc90469946a246f0bdc04695
:0c43f00080a90020407b00200008004253
:020000040000fa
:1043fc00fa00000010010000280100003c01000040
:10440c006e01000082010000b4010000c801000030
:10441c00fa0100000e0200004202000056020000e9
:10442c008a0200009e020000d2020000e602000098
:10443c001a0300002e030000620300007603000044
:10444c00aa030000be030000f203000010040000e9
:10445c0044040000580400008c040000a004000078
:10446c00d4040000e80400001c0500003005000026
:10447c006405000078050000ac050000c0050000d4
:10448c00f4050000080600003c0600005006000081
:10449c008406000098060000cc060000e006000030
:1044ac0014070000280700005c07000074070000d8
:1044bc00a8070000bc070000f0070000040800007b
:1044cc00380800004c080000800800009408000028
:0c44dc00c8080000ce080000e208000044
:020000040000fa
:1044e800f0b5ce46474680b583b00125314ca0468d
:1044f800314a304eff23994616e058002f4f3f5c53
:10450800bc466f466146b97101302c49085cf871a8
:1045180001331ae06b4606331b8849460b40138566
:10452800244b1b7d002b20d1137e2b423dd0a0684d
:10453800e368984236d05768072038400128dcd015
:104548001e48c75c684687710133306983428041e1
:1045580003401848c360506807230340012bd9d192
:104568006b4606331b881385dae704f097fd114b79
:104578001b68002bbcd0434659681b7f002b08d012
:104588000c4b9b699842b3d30a4b1b68032098478e
:10459800aee7084b9b699842aad1064b1b680320db
:1045a8009847a5e7044b01221a7503b00cbc904646
:1045b8009946f0bd80a9002000080042408b0020e9
:020000040000fa
:1045c800f0b506000f0015001c0085b08b4263d8bb
:1045d80001d1824260d82100280004f0f7fc39009c
:1045e8000090300004f0f2fc009b21001b1a1a0016
:1045f8002800039304f0defc00900191b94245d8ed
:1046080001d1b04242d8009b019c01200021039aad
:10461800f61aa74104f0cefc04000d00039b002b02
:104628002bd0019b009adb0750081843019b5908bf
:10463800039b9c46b9422cd801d1b04229d83200fc
:104648003b00121a8b41012692185b410027b618cd
:104658005f4101235b429c446346002bead1300052
:104668003900039a04f09afc039aa4197d410600c4
:104678000f0004f09ffc241a8d410a9b002b01d0e7
:104688001e605f602000290005b0f0bd00240025f1
:0e469800c4e7b6197f41dce700240025ede7fa
:020000040000fa
:0246a600fee72d
:020000040000fa
:1046a800f8b504000378002b33d01023c356022b2f
:1046b8002fd1066ab369190aff252940742251438c
:1046c8002d4a52182b409d00ed18ed00d368ed18c7
:1046d8001c202856431c0fd06a7f002a1ad11f328b
:1046e80002400121914080b2400982231b049c466c
:1046f8006044c00105f03cf86b6ab269934217d078
:10470800200004f08ffc256a002d02d06b7d012b60
:1047180024d0f8bd1f2202400121914080b24009f7
:1047280082231b049c466044c00105f023f8e3e79c
:1047380001233375f769200004f074fc6b68002bc3
:10474800e1d02626a35d0133a355aa686b6839001a
:1047580001209847a35d013ba355d4e7280000f04a
:1047680079f802236b752b696a68e968a868646937
:0c4778006468a047cde7c046cca6002036
:020000040000fa
:1047840010b50400902911dc00207f2928dd803930
:104794000800102910d804f0a5fd31313d0f110f88
:1047a4000f0f240f0f0f0f0f0f0f3d00c0294bd019
:1047b400f02949d0a02928d0002011e01968002a46
:1047c40007d00a1d1a6000228b5e2360db1763602a
:1047d40005e0081d18600b689bb22360626001202d
:1047e40010bd1968002a04d00a1d1a600023cb5694
:1047f400ebe7081d18600b68dbb2eee71968002ac6
:104804001ed00a1d1a600b68dfe71a68111d1960b3
:104814001368dae707201968002a09d009188143c8
:104824000a0008321a600a684b6822606360d6e79f
:10483400ca1d824311000831196053681268f4e7f5
:10484400081d18600b68c8e71a68111d1960136801
:0648540023600023bbe716
:020000040000fa
:02485a00fee777
:020000040000fa
:10485c00f0b587b0050082693048130aff210b4080
:10486c0074277b43c31811408c006418e400db6888
:10487c00e41823889c465f43c019836a9a423ad055
:10488c0001a823000c330200c2cbc2c242cb42c2ed
:10489c00742663465e43214b9e19326d63699b00ff
:1048ac009b588360726d23699b009b584360f26c2c
:1048bc00a3699b009b58c36073691b6800219847d0
:1048cc00ab69b36220230022e2541c202056431c07
:1048dc000fd0627f002a13d11f3202400121914078
:1048ec0080b2400982231b049c466044c00104f042
:1048fc003fff07b0f0bd2023e35c002be5d0bfe702
:10490c001f2202400121914080b2400982231b04e6
:10491c009c466044c00104f029ffeae7cca60020c5
:020000040000fa
:10492c00f8b5314b5a6a9869d969012400250019e8
:10493c0069419861d961002a4ed02020195c01315f
:10494c0019549368002b48d09368013b9360264b15
:10495c005c6a002c43d1254d00242e0021e0e06937
:10496c0002f0deffe368002b01d020699847746adf
:10497c00002cf0d0a368002bedd125756575a378bc
:10498c00002b02d1e368002be9d1200002f052fd8c
:10499c00a378002be6d16770e4e701342035322c84
:1049ac0015d06301f3185b7d002bf6d00f4b610122
:1049bc005b1800215975ab78012beed169680b4b54
:1049cc0062019b189960280001f02ef8e5e7064b70
:1049dc0020215a5c013a5a54f8bd034b5c6a0125fc
:1049ec000027014ec6e7c04670aa0020409b00205d
:020000040000fa
:1049fc0043414e30205458206572726f7220636fa1
:104a0c00756e743a2025640d0a43414e302052587d
:104a1c00206572726f7220636f756e743a20256414
:104a2c000d0a0000526573657420726561736f6eb8
:104a3c003a2025640d0a000054696d653a202564fe
:104a4c003a25643a25640d0a446174653a2025645c
:104a5c002e25642e25640d0a0000000025730d0020
:104a6c004f4b000041542b515253540054656d7000
:104a7c00657261747572653a20252e326620c2b05b
:104a8c00430d0a54656d70657261747572653a20d8
:104a9c00252e326620c2b0460d0a48756d696469d0
:104aac0074793a20252e32662025250d0a00000047
:0f4abc0048756d69646974793a2035302025009a
:020000040000fa
:104acc0070b5002852d12c4b1b78002b51d12a4b9e
:104adc0001303d229854013a985418700c685c606f
:104aec0000229a604d68dd608d681d619882c86aed
:104afc009861086bd8611a625a6228201a544a6b62
:104b0c001a65ca68da620a691a634a695a638a6959
:104b1c009a63ca691a640a6a5a644a6a9a648a6a03
:104b2c00da648a6bda65db6a013311d16369124985
:104b3c0012489847104b1b6b013310d10e494b6830
:104b4c001b680f4898470c4b02229a70002070bdce
:104b5c00094ad06ac0b20b4904f0fefbeae7064ae8
:104b6c00106bc0b2084904f0f7fbece7012040429f
:104b7c00ede701204042eae740a70020b594000091
:0c4b8c00158500006d85000041850000cb
:020000040000fa
:104b9800f0b5c64600b580460e00151e58d0002850
:104ba80005d001282bd0002004bc9046f0bd294a2e
:104bb800a423d458a404a40e002919d0012704e082
:104bc80001377b1edbb29e4212d9e1000919c900e8
:104bd800214b1b6859184822280004f04ffbbe429d
:104be80006d048350134e4b2402ce9d14446e7e721
:104bf8003f231c40174a6933d4500120d4e7154a93
:104c0800b423d458a404a40e00291ad00127e10023
:104c18000919c900104b5b6859184822280004f08c
:104c28002dfbbe420dd048350134e4b22300403b91
:104c38005a1e93415b421c4001377b1edbb2b342d4
:104c4800e5d33f231c40034a7933d4500120abe716
:0c4c58000020a9e7001c0042c4ac0020b2
:020000040000fa
:104c6400f0b5ce46474680b5234b0022190050319b
:104c74001a705a609a601a7310338b42f8d11f4825
:104c84001f4b58631f4a9a631f4a5a613f260022ea
:104c94009a551e4a5a641e4a91460280164d0121b5
:104ca40029704d2403221a5599551a4f5f641a4fdf
:104cb400bc46078229741a5502279f55174f5f6413
:104cc4004f4607842027e9551a559a55144f5f64b7
:104cd400674607863027e9551a552c3f9f55114ed4
:104ce4005e6440264f468753a9551a550e4a1a80ca
:104cf4000cbc90469946f0bdf0a70020a0a7002068
:104d04000060004140a8002081818181000380006f
:104d14000904000000028000090800000007800068
:0c4d24000006800000158000020f000057
:020000040000fa
:104d3000f8b5294b1b785bb2002b03db264b1b78a5
:104d40009b072dd5244b1b785b0718d580239b052b
:104d50000024214a01201026a52503e004331f4921
:104d60008b4224d01c6091790142f7d091680e42a9
:104d7000f4d115739179012739439171eee78023be
:104d80009b05002514491024a526144802e004338d
:104d900083420cd01d608a681442f8d10e73f6e786
:104da00080239b0500210d4a02c39342fcd10c4b8a
:104db00098470c4b984703f0bff80b4bff229343e7
:104dc0000a4a93600a4b98470a4b98470a4b984700
:104dd00004f085fbfee7c0460020004000000120f3
:104de00057500000575000000000000000ed00e0a8
:0c4df000116e00005750000057500000ea
:020000040000fa
:104dfc0070b504002823c35c002b07d13d33c35c82
:104e0c000020012b1fd13c330022e254256d04f00d
:104e1c0091fc06002b78002b16d16868431c26d118
:104e2c00a868431c29d1e868431c2cd12869431c71
:104e3c002fd1e36a013332d1236b013336d13000e9
:104e4c0004f07cfc012070bd0420285602f0bcfe4e
:104e5c005a23e054e36a013302d1236b0133eed0c1
:104e6c000420285602f0b0fe5b23e054e7e740b282
:104e7c0002f0aafe5423e054d2e740b202f0a4fea2
:104e8c005523e054cfe740b202f09efe5623e05487
:104e9c00cce740b202f098fe5723e054c9e7142047
:104eac00285602f091fe5823e054c5e718202856e6
:0a4ebc0002f08afe5923e054c1e71a
:020000040000fa
:024ec600fee705
:020000040000fa
:104ec800f0b505012d4c6419267bf6b22c4d3f2711
:104ed800ec5de4b2e8550f37ed5dad0702d1002572
:104ee800002e3bd1264e4e25032777550501234e2c
:104ef8007619023f3773234ead5b6d0533d5c9185c
:104f08000601204dad19696001011e4d495b090577
:104f18002ed5d21805011b4949198a60194905017e
:104f28006a5a9205920fd3409bb249194b80144a92
:104f38004021535c02252b435354516c536c9b0402
:104f48009b0e08220a4013430125002b06d10c4a68
:104f58001169012383400b4313610125084a3f234c
:104f6800d4542800f0bd0601064dad196960cbe7a1
:104f78000501044949198a60d0e7c046f0a7002016
:084f880000600041a0a7002019
:020000040000fa
:104f900070b504002623c35c0125002b04d17133b6
:104fa000c35c0025012b01d0280070bd70330022a6
:104fb000c254c66dc36a013320d0036b01331dd0c8
:104fc0003578002d06d00420305602f003fe3e2333
:104fd000e054e9e704f0b4fb05001020305602f07d
:104fe000f9fd3d23e0541420305602f0f3fd3c233c
:104ff000e054280004f0a8fb0125d5e73578002d02
:1050000006d00420305602f0e5fd5b23e054cbe7e8
:1050100004f096fb05007068431c0ad1b068431c7d
:105020000dd1f068431c10d1280004f08dfb012540
:10503000bae740b202f0cefd5823e054eee740b2aa
:1050400002f0c8fd5923e054ebe740b202f0c2fd84
:065050005a23e054e8e7da
:020000040000fa
:025056007047a1
:020000040000fa
:10505800f0b583b0040002f0a3f9051e08d0078854
:1050680074227a432a4b9b1870331b78012b01d08a
:1050780003b0f0bd742216007e43254b98190190a9
:105088000300703300221a70fff77eff0028efd06c
:105098001f4b9b191b6ea34206d0330020331c4aba
:1050a800d218002001240ee0194b9b191900643115
:1050b80000220a709a66013a1a66723302321a702e
:1050c800ebe720331a001368002b0dd099696e6a3c
:1050d800b142f6d1597d0129f3d1196a1160587589
:1050e8001c7518621870eee7019800f0eef9742349
:1050f8007b43074fff187b68013b7b6000237b7075
:10510800012252426a62eb70703701333b70afe79d
:04511800cca6002001
:020000040000fa
:10511c00f0b40125ed070c005c402c40a446ae0a0f
:10512c004c18df18f4423dd2f74245d2640d4cd0f6
:10513c007f0d3cd0e41bc9022943cf0adb022b4371
:10514c00db0a0600b61a9f4104d2013cb6197f4116
:10515c00b6185f416812800d241838dd001884429f
:10516c0025d8e80c0021b6197f41b61a9f4103d30c
:10517c0040414941f7d304e0b6185f41001849415a
:10518c00f1d32405b6197f41b61a9f4105d3374395
:10519c00c20717430022012f50416141624611435f
:1051ac00f0bc70470cd100280ad1f74208d200207d
:1051bc00c143490d0905f1e7002a01d1f74206d098
:1051cc000020c143090dc904eae77f0df8d0002087
:0451dc006146e5e75c
:020000040000fa
:1051e000f0b5ce46474680b583b006002b4b9846b7
:1051f000ff270de002232b776888f3685b682a6934
:10520000e968984742e02a002100300002f0aef938
:10521000b56a002d3cd02b7f012b39d1ac69220a15
:105220003a4013019b1a9b00434422003a40540029
:10523000a418e400db69e41873696269934207d03b
:1052400020001430f3685b6900219847636973613b
:105250002b7d022bced0042b0ed102232b776b6833
:105260009c462a69e9686888ab680093f3689b6884
:1052700099466346c84709e0012b09d102232b77e1
:105280006888f3681b68aa68696898470028bad0dc
:1052900003b00cbc90469946f0bdc04600aa002061
:020000040000fa
:1052a00070b50400056d04f04bfa06002b78002b56
:1052b0001cd16868431c2cd1a868431c2fd1e86816
:1052c000431c32d12869431c35d1e36a013338d1fc
:1052d000236b01333cd1300004f036fa2823e35c21
:1052e000002b02d13d330122e25470bd5a23e15c10
:1052f0000420285603f020fde36a013302d1236b1a
:105300000133e8d05b23e15c0420285603f014fd50
:10531000e1e75423e15c40b203f00efdcce75523f6
:10532000e15c40b203f008fdc9e75623e15c40b2fe
:1053300003f002fdc6e75723e15c40b203f0fcfc3a
:10534000c3e75823e15c1420285603f0f5fcbfe7bf
:0e5350005923e15c1820285603f0eefcbbe761
:020000040000fa
:02535e00704796
:020000040000fa
:105360004b005b0d284af0b50d00591e0400914218
:1053700039d8264a9e1825d420002900332e20dc57
:10538000234a9b1826d4234ada4013002700214ad7
:105390009f43f24038002f00234097432a403900b2
:1053a00013430ed0002f0cda3400203c25d4802586
:1053b0006d03e5402a0080246403f4402300801834
:1053c0005941f0bd002d02db00200021f9e700204b
:1053d0001149f6e720230f4a9b1b9a4001235b42a9
:1053e000f3401343d2e720002900002be9d100222b
:1053f000e90fcb0710001900e3e720248025a41b48
:105400006d03a5402a00d6e7fd07000001fcffff61
:0c541000e1fbffffffff0f000000f0bffa
:020000040000fa
:10541c0030b405004d400124e407254042004b0008
:10542c00120e32d01b0e3cd0ff2a33d0ff2b3fd0b4
:10543c00d21800022043000a09022143090ac4b20f
:10544c004c43000ac3b24b43000a4843210a5b1881
:10545c00190a091801d44900013a080a7f3a2adbd3
:10546c00fe2a0fd2d2051c43240601d0012421436d
:10547c00c9b280295041802901d1400840002843fd
:10548c0030bc7047ff20c005f9e71b0eff2b0ad07c
:10549c002800f5e7400206d1ff2bf3d1490202d1d7
:1054ac00f0e7ff2af4d17f2000010c300005e7e77c
:1054bc004902f8d1e6e743020132e9d15b1202332b
:0654cc00e6d9d805e4e773
:020000040000fa
:1054d20070b504002623c35c002b00d070bdc56ddf
:1054e200c36a01331fd0036b01331cd02b78002b0e
:1054f20006d03e23c15c0420285603f01cfc1be0ae
:1055020004f01df906003d23e15c1020285603f04b
:1055120012fc3c23e15c1420285603f00cfc300002
:1055220004f011f908e02b78002b09d05b23e15c31
:105532000420285603f0fffb71230122e254cde739
:1055420004f0fdf806006868431c09d1a868431cf2
:105552000cd1e868431c0fd1300004f0f4f8ebe7fb
:105562005823e15c40b203f0e6fbefe75923e15c2c
:1055720040b203f0e0fbece75a23e15c40b203f0f7
:04558200dafbe9e780
:020000040000fa
:0255860070476c
:020000040000fa
:10558800254a137801210b431370110001224b683f
:105598001a42fcd1204a214bd361214b1362214b83
:1055a800136301219160204b5363204b1361204bff
:1055b80000201881998201311984013199850131be
:1055c80019874031053058520c31013058520c318e
:1055d800013058520c31013058520c3101305852b8
:1055e8000c31013058520c31013058520c31013015
:1055f80058520c31013058520c31013058520c318c
:1056080001305852137802210b4313701100022203
:105618004b681a42fcd1704700280040acaaaaaadd
:10562800aa2aaaaafef70000aa000100fffe0000ad
:045638007ca500202d
:020000040000fa
:10563c00f0b54b6889b004930b6805000c009c46d0
:10564c008e68cf68079310685168cb0f05930029bb
:10565c0044da0b000200002150429941049b002bbc
:10566c0009db0222634693430793059b002b02d16f
:10567c00079b5a0723d5731e07aa02920a2200938e
:10568c0001920b000200200000f0f3fd059b002ba3
:10569c0019d02d2301383b542269079b013a121a69
:1056ac00391800932800330000f06cfd6b68db05a3
:1056bc0003d56368984200da180009b0f0bd1b07e7
:1056cc00db0ff31ad8e7079b5a0702d52b230138b7
:1056dc00e1e71b07e0d520230138dce7049b002b16
:0456ec00bfdac5e775
:020000040000fa
:1056f000f8b5002847d1274b1b78002b46d1254b06
:105700000130702298540132985401329854187024
:105710000e685e61ca6a9a618a6ada6100221a6258
:105720004c69dc608c699c605a60988401246442f6
:105730009c6225301a545a704868d8628d681d637f
:10574000cf685f630f699f63cf69df640f6a1f656e
:105750004f6a5f65096bd96564215a549a66da66a7
:105760000d4bff321c705a709a70da70431c01d0d6
:105770006b1c03d1f368074908489847054b022280
:105780001a740020f8bd01204042fbe7012040428e
:10579000f8e7c046cca600206caa0020a94600006d
:020000040000fa
:1057a000f0b583b005000c001700019308ab1e781c
:1057b00002f052fb00283fd0214b1b785bb2022b3a
:1057c00006d00124644203f0bbf8200003b0f0bd12
:1057d000002c2bd0ac422cd300201a4b1a78002a74
:1057e00006d0203301303228f8d101246442eae7a0
:1057f00001321a7000225a701a755a759e705c60d8
:10580000df60019a1a61641b9c600f4a12880404cd
:10581000240c11040c43dc61013293b20b4a934215
:1058200002d0094a1380cee70123fae7012464423b
:10583000c9e701246442c6e701246442c5e7c046c3
:1058400070aa0020409b0020b6ad0020ffff0000a2
:020000040000fa
:10585000002941d010b404004c40a446012300228a
:10586000002900d54942002800d5404288422cd367
:1058700001242407a14204d2814202d209011b0162
:10588000f8e7e400a14204d2814202d249005b0061
:10589000f8e7884201d3401a1a434c08a04202d3c9
:1058a000001b5c0822438c08a04202d3001b9c080a
:1058b0002243cc08a04202d3001bdc08224300286c
:1058c00003d01b0901d00909e3e710006446002c4e
