:020000040000fa
:10000000f0ff002049430000df4400006f4600007d
:1000100000000000000000000000000000000000e0
:10002000000000000000000000000000d73b0000be
:100030000000000000000000d73b0000fd7c000035
:10004000898b0000d73b00006977000051610000f8
:10005000d73b0000d73b0000d73b000059560000bb
:10006000d73b000095660000ed650000e92b00001d
:10007000451f00000000000000000000d73b00000a
:1000800000000000d73b0000d73b0000d73b00003a
:10009000818b0000d73b0000d73b0000d73b00001e
:1000a000d73b0000e57b0000d73b0000d73b0000ba
:1000b000d73b0000d73b0000d73b0000d73b0000f8
:020000040000fa
:1000c000f8b5c046f8bc08bc9e467047dd69000024
:1000d000f8b5c046f8bc08bc9e467047b56900003c
:020000040000fa
:0800e000143a000001000000c9
:020000040000fa
:1000e800f0b59bb013930b6815900a938b680d912c
:1000f8000b930b694d681893cb68029313680893a8
:1001080053680898069300220023069906f093ff87
:1001180000280dd10a9b5b073bd408200a9b0340ab
:1001280009930b9b0393099b002b0fd0202306e018
:10013800802212069446069b634406932d23029a56
:1001480013700b9b013b039301230993069b0899aa
:100158005b005b08924a00291dd193421bd102998a
:10016800139b8c46099a413b624410008d49192b18
:1001780000d98d4908f0e2fc029808f079f90a9b49
:100188000200009302990b9b159805f0ddfa1bb04d
:10019800f0bd2b23d3e7934203d80ed1089b002b45
:1001a8000bd00299139b8c46099a413b624410007c
:1001b8007e49192bded97e49dce700220023089806
:1001c800069907f0edfb00267a4f002400283ed15f
:1001d800040002e00134049e059f0022764b3000a3
:1001e800390002f029fa089a069b0490059106f056
:1001f80003ff0028eed00023049320e06f4b9c42bd
:1002080014da049b002b11d100226d4b0898069933
:1002180002f012fa6a4b0890069130003900002269
:1002280002f00afa012306000f0004933000390097
:100238000022614b04f07afa06000f00013c3200fc
:100248003b000898069906f0f6fe0028d6d11398c8
:1002580008f06ffbc3b20c93002d00da94e104930d
:10026800672b00d0b2e0002d00d189e1231d02db0d
:10027800ac4200daa6e06523b6e0002200230e9225
:100288000f9303e106960797049b2600652b00d081
:100298001ae1002618e1129b002b0bd1002e09da77
:1002a800029a14992e335354039b0137013b03934d
:1002b80001231293ea193b009446302102e0029a86
:1002c800d15401339c45fad1039aeb19551b029a74
:1002d80030305f1cd0546b1e0393002521e00d9b2a
:1002e80014971b691093053bbb4200d8f5e0069aaa
:1002f800079b08980e9904f019fa04f007fd10906e
:10030800119107f0f9f9092800dd092010230a9a4c
:1003180013400343bfd10c9b672bbcd1002ec9da15
:1003280001358020000684460e99089a61440b0026
:100338001098119900920193069a079b08f0d4fa35
:1003480080231b06cb1808900e9306980799002265
:10035800194b04f0ebf9013e06900791b9e00a9bae
:10036800db0600d4bde02e23029ad3550137b8e04e
:1003780020000a2104f020fe029b3031013d59552e
:1003880020000a2104f0cefd039b0400013b0393e7
:10039800b7e0029b03991a5c5b181a540138e0e035
:1003a8000000f07fe0880000e4880000e888000092
:1003b800ec8800000000f03f00002440d4feffff5e
:1003c80000005043002c0eda66230493049b013589
:1003d800662b0ad1002c02da002600246d4f0c9bf4
:1003e800672b00d02d1966230493089b0e960f9750
:1003f8001293069b1093002314930e9a0f9b129846
:10040800109904f093f904f081fc1690179107f005
:1004180073f919908020000684461099129a614455
:100428000b0016981799009201930e9a0f9b08f0eb
:100438005bfa80231b06cb18129010930e980f9925
:10044800554b002204f072f9149b0e900f91013362
:1004580014939d42d1d10022504b02f0edf80e903a
:100468000f9102000b001298109906f0e4fd002885
:1004780000d002e70e9a0f9b1298109907f090fa95
:10048800002803d0199bdb0700d4f6e60e9a0f9bd1
:100498000898069901f06efc002208900e913e4bd8
:1004a8003000390002f0c8f8089a0e9b06900791b0
:1004b80006f040fc002800d1e4e6049b0134662bda
:1004c80000d0e1e626000135731b0025099f16932d
:1004d8001295169b9e4200d001e7129b002b00d17b
:1004e8003de70026029bdb1906931e70049b652bd3
:1004f8002ad1189b5d1e029b5e55b44201da644204
:100508000136002c00d033e7189beb1a0333002b7d
:1005180000dd2de76a1e2d23002e00d1023b029933
:10052800023d8b54139b413b192b01d8452304935f
:10053800029b5919049b0b70039b023b0393af4228
:1005480002da069808f0fafa03230a9a1340022bf3
:1005580000d011e6039b002b00dc0de6029807f0a3
:1005680087ff099b834200dc13e7029a30219446f7
:1005780063441800039a08f0b3f800230b93fbe5d3
:10058800012573e6062571e60c9b672bfad00493c8
:1005980006251be70000f03f00002440000014403f
:020000040000fa
:1005a800f0b599b014930b68566809934b6813908b
:1005b8000d938b68cf680c930b6931001193136806
:1005c800002208930898002306f035fd00280cd176
:1005d800099b5b0724d40820099b0c9d03400593c5
:1005e8000cd02023013d3b7006e080231b06f61843
:1005f8002d233b700c9b5d1e01230593089a730005
:100608005b08002a0ed1ac4a93420bd1149b059a81
:10061800413bb818a94caa49192b12d9210010e05e
:100628002b23e6e7a44a934203d819d1089b002b51
:1006380016d0149b059a413bb818a24ca249192b15
:10064800ecd808f07bfa200007f012ff099b0200a3
:10065800009339000c9b139805f076f819b0f0bd9b
:10066800059b05995a1c30237b54149b413b0e93e0
:100678000e995823192900d920330599bb54023102
:10068800ab1e05910793002200230898310007f05c
:1006980087f9002800d165e100238c4c069302936a
:1006a80003940d9b1093002b01da18231093029bdf
:1006b800039c0a930b9434000023089d129328008e
:1006c8000a9a0b9b210004f031f804f01ffb0a9ae8
:1006d8000b9b1690179101f0afff02000b0028004a
:1006e800210008f009f97a4b05000c000a980b99cb
:1006f800002201f0a1ff129b0a900b9101330f9386
:100708000d9b002b07da002200232800210007f0a8
:1007180047f9002806d1109b129a934200dd27e181
:1007280001330f9300220a980b996a4b01f084ff5a
:100738000a900b9102000b002800210006f07bfcb8
:10074800002800d016e10a9a0b9b2800210007f028
:1007580027f9002806d01698179906f0cdffc30789
:1007680000d407e10a9a0b9b0898310001f002fbbc
:10077800129149000a904908002803d14e4b99422a
:1007880000d143e70025059c10950895119b26008c
:10079800053ba34230d9029a039b0a98129903f0a9
:1007a800c5ff04f0b3fa1490159106f0a5ff031ed7
:1007b80000d0e4e0089a002a00d1e0e00135029a6e
:1007c800039b1498159901f037ff02000b000a9853
:1007d800129908f091f800220a9012913c4b029865
:1007e800039901f029ff089b0290039101330893b4
:1007f800089a0f9b9342c9d1109b002b1ad1002d48
:1008080000d100e10d9b002b00dcfce0099bdb071d
:1008180000d5f8e02e2230213b191a702a19ba188f
:10082800597001339a42fbd12c19ed43079b0134cf
:10083800eb18079300263b191e700293119b5d1e4f
:10084800069b7e55b34202da5b4206930136069b4d
:10085800002b00d0c0e0119beb1a013300d1bbe0a4
:100868006a1e2d23002e00d1023bbb540e9a023d76
:100878005023192a00d9203379190b70ac4202dab7
:10088800029808f05bf90323099a1340022b11d14f
:10089800079b9c1e002c0ddd380007f0e9fd059b29
:1008a800984200dba8e0f8182200302107f018ff72
:1008b80000230c933800c7e60000f07fd4880000be
:1008c800d0880000dc880000d88800000000f03fd5
:1008d8000000b03f00002040069b029403950133be
:1008e8000693029a039b1000190001f043fa0400d2
:1008f8000d0002000b000898310006f09cfb002850
:10090800ead0029a039b0898310006f094fb00286d
:1009180000d1c6e60298039900223f4b01f08cfef5
:100928000022002307f03cf800280fd00298039912
:1009380000223a4b01f080fe002202900391374bcf
:100948000898310001f078fe0e000890324b0298aa
:100958000399002201f070fe069b02900391013b6f
:100968000693cee700232e4c069002930394b8e733
:100978000f9ba3e6002300240a930b94f2e6109a37
:10098800002a0ad1089a002a07d02e22ba55079ab7
:100998000134013a0792012210922e19302201e007
:1009a8003a550134b442fbd11800079a5730551b09
:1009b800092b01dc303318000e9b192b06d8202395
:1009c8000343613b192b01d807f0baff6b1e741c57
:1009d800b85507930025f2e606980a2104f0ecfac8
:1009e800013d3031795506980a2104f09bfa079b9e
:1009f8000690013b07932ae7079b3a5c023bfb18ea
:100a08001a5401384be7099bdb0600d412e72e2362
:100a18003b5501340ee7c0460000e03f000050435c
:040a28000000f03f9b
:020000040000fa
:100a2c000023f0b506001500b1b0079103930799a8
:100a3c000b78002b00d10ce101235b420c9310ab23
:100a4c0000240e9380230b940d940f930b5d002bbd
:100a5c0001d0252b2ad1002c06d02200300007f023
:100a6c00a6f8079b1b190793079b1a78252a00d019
:100a7c00e4e0013304930793022301219c461027e1
:100a8c00079803782b2b1ad025d8202b1ad0232b80
:100a9c001dd02a2b28d006f02ffa0d90079b1a7820
:100aac00303a092a31d801330793f7e70134cde7ff
:100abc000b9b05930b4301300b930790e0e704234a
:100acc000b9a0fe00b9b0593059a08230ae00b9bee
:100adc0005933b43efe72d2bead0302bd9d162465f
:100aec000b9b05931343e6e72b6801301a1d1b681b
:100afc0007902a600d93002b07da0b9a5b42059244
:100b0c00012205990d934a400b920b9bda0702d5f3
:100b1c00022293430b93079b1a782e2a0ed10022a4
:100b2c00581c0c9207905a782a2a27d10233079323
:100b3c002b681a1d1b682a6005930c9307a806f0f6
:100b4c00bffd079b0700187807f0f1fe692800d15c
:100b5c0082e034dc632800d1dbe01adc252800d1ec
:100b6c00e8e0612858d0049b0122079300235242ed
:100b7c000c920b930d9300930232e5e006f0bcf956
:100b8c000c90079b1a78303a092ad7d8013307936f
:100b9c00f7e7642860d06728e5dc2a00390008a84c
:100bac0006f0f0ff002800d1afe0079b0ba95a1c00
:100bbc0007921b7808aa3000fff790fa3de07028e6
:100bcc0000d17de016dc6e2800d197e06f28cad1e9
:100bdc002b000022390008a803f027ff002800d1c1
:100bec0093e0079b08aa01330ba93000079305f08b
:100bfc006ff822e0752840d078284fd07328b2d1f6
:100c0c00802f00d081e0079b2a6801330793131dc6
:100c1c002b601268002388e02a00390008a806f02f
:100c2c00b1ff002800d170e0079b0ba95a1c07925a
:100c3c001b7808aa3000fff7b1fc2418039b1c1981
:100c4c00a34200dc82e04f22414b1a6001235b423d
:100c5c000393039831b0f0bd2b000122390008a892
:100c6c0003f0e3fe002850d0079b08aa01330ba920
:100c7c003000079304f0a2f8dfe72b0000223900c4
:100c8c0008a803f0d2fe00283fd0079b08aa013326
:100c9c000ba93000079305f0f9fbcee72b000022df
:100cac00390008a803f0c1fe00282ed0079b5a1c5f
:100cbc0007921b7808aa0ba9300002f07af9bce75e
:100ccc002b000022f02108a803f0affe00281cd056
:100cdc00079b099a01330793089b13430cd11d4fb3
:100cec00380007f0c3fb390002000b9b00930d9bef
:100cfc00300004f027fda0e77823dbe7039b3900e5
:100d0c001a1908a82b0005f0bdf8079b01330793af
:100d1c0094e7802ff9d1079b013307932b681a1d99
:100d2c001b682a6008aa137001230ba9300005f078
:100d3c007bfd82e7802fe8d10122079b01330793cb
:100d4c000b9b049300930d9b0349d1e703946ee630
:0c0d5c00d0b20020988b00009e8b00009d
:020000040000fa
:100d680010b582b0b84b1a78132a0bd89300b74a3b
:100d7800d3589f460321002002f048fbb24b58602d
:100d880001221a7002b010bdaf4b5868431c03d142
:100d9800ad4b13221a70f5e7ab4c22000c32ac496c
:100da80006f072fb02232370ece7002300222021c7
:100db800002006f065fd07f057fda34b03221a70cb
:100dc800e0e7a14b9b68013303d19f4b13221a70b4
:100dd800d8e707f08ffe002803d19b4b04221a7036
:100de800d0e7002007f08cfe07f046fd964b122254
:100df8001a70c7e7944b1b7b002b05d007f03cfd0e
:100e0800914b05221a70bde707f074fe0028b9d08f
:100e1800002007f075fe07f02ffd8b4b12221a7089
:100e2800b0e7894b5b7b002bacd0874b06221a704e
:100e3800a8e7612313224021272006f039fd07f097
:100e480013fd814b07221a709ce77f4b9b68013387
:100e580003d17d4b13221a7094e707f04bfe00284c
:100e680003d1794b08221a708ce7002007f048fe5e
:100e780007f002fd744b12221a7083e7724b1b7b3a
:100e8800002b05d007f0f8fc6f4b09221a7079e7a0
:100e980007f030fe002800d174e7002007f030fe8c
:100ea80007f0eafc684b12221a706be7e623ae22c1
:100eb8002521282006f014fd07f0d6fc624b0a22f3
:100ec8001a705fe7604b9b68013303d15e4b1322b6
:100ed8001a7057e707f00efe002803d15a4b0b2271
:100ee8001a704fe7002007f00bfe07f0c5fc564bc1
:100ef80012221a7046e7544b1b7b002b05d007f0d3
:100f0800bbfc514b0c221a703ce707f0f3fd00289c
:100f180000d137e7002007f0f3fd07f0adfc4a4b9e
:100f280012221a702ee7f4230093d93b00220021e5
:100f3800012006f071fa07f097fc434b0d221a7056
:100f480020e7414b9b68013303d13f4b13221a70b2
:100f580018e707f0cffd002803d13b4b0e221a708b
:100f680010e7002007f0ccfd07f086fc364b122274
:100f78001a7007e7344b1b7b002b05d007f07cfc6d
:100f8800314b05221a70fde607f0b4fd002800d1a8
:100f9800f8e6002007f0b4fd07f06efc2a4b122299
:100fa8001a70efe6f4230093d93b012200210120b7
:100fb80006f032fa07f058fc234b10221a70e1e6cb
:100fc800214b9b68013303d11f4b13221a70d9e6ba
:100fd80007f090fd002803d11b4b11221a70d1e6af
:100fe800002007f08dfd07f047fc174b12221a70fe
:100ff800c8e6154b1b7b002b05d007f03dfc124bb8
:1010080005221a70bee607f075fd002800d1b9e682
:10101800002007f075fd07f02ffc0b4b12221a7009
:10102800b0e6094c606803f01ffb0123a373043387
:101038002370a7e6044c606803f016fb0123a37332
:10104800043323709ee6c04630ae0020e4670000fb
:04105800ad81000066
:020000040000fa
:10105c00b8b100201c0000000000000050af0020c0
:10106c003c000000000000006cac0020740000008c
:10107c0000000000bcaf00200400000000000000d5
:10108c00e0ac0020600000000000000090b20020e6
:10109c000800000000000000d4b100201c0000007b
:1010ac000000000098b200200800000000000000c2
:1010bc0040ad0020f0000000000000001cab002040
:1010cc00c00000000000000060b200200c00000016
:1010dc0000000000f0af00202c0000000000000019
:1010ec00bdb2002001000000000000001cb0002078
:1010fc002c00000000000000407b002000200000bd
:10110c0000000000d0ae00204000000000000000f5
:10111c008caf00203000000000000000a0b20020c6
:10112c0010000000000000006cb200200c00000059
:10113c0000000000405b00200020000000000000c8
:10114c00beb200200200000000000000c0af002072
:10115c003000000000000000c8a200204006000083
:10116c0000000000d6b200200200000001000000c8
:10117c0001000000f0b10020180000000000000089
:10118c0048b000205400000000000000c4b0002053
:10119c00480000000000000030b2002010000000e9
:1011ac000000000008b20020140000000000000045
:1011bc0010af0020400000000000000000000020e4
:1011cc00405b00000000000078b10020200000000f
:1011dc00000000001cb20020140000000000000001
:1011ec00c0b20020040000000000000030ae00205f
:1011fc005000000000000000dcab0020900000005c
:10120c00000000009cb0002028000000000000003e
:10121c0040b20020100000000000000098b1002037
:10122c00200000000000000008a9002014020000ab
:10123c000000000078b200200c000000000000004c
:10124c000cb100204800000000000000d8b20020c3
:10125c000100000000000000c4b2002004000000e7
:10126c0000000000b0b200200800000000000000e8
:10127c0050b200201000000000000000d4b200208a
:10128c00010000000000000054b100202400000008
:10129c0000000000409b00208807000000000000b8
:1012ac00b8b20020050000000000000084b200204d
:1012bc000c00000000000000c8b200200400000078
:1012cc000000000080ae0020500000000000000074
:1012dc00ccb200200800000000000000000000005c
:1012ec00000000006666666666666666666666662a
:020000040000fa
:1012fc0010b5a14b1a78182a0bd893009f4ad358d3
:10130c009f460321002002f083f99b4b5860012279
:10131c001a7010bd984b5868431c03d1964b182279
:10132c001a70f6e7944c22000c32954905f0aeff8a
:10133c0005232370ede7904ce07b06f0fffa07f0f5
:10134c0091fa06232370e4e78b4b9b68013303d19e
:10135c00894b18221a70dce707f0cafb002803d16e
:10136c00854b07221a70d4e7002007f0c7fb07f063
:10137c0081fa814b17221a70cbe77f4b1b7b002b1a
:10138c0005d007f077fa7c4b08221a70c1e707f0fa
:10139c00affb0028bdd0002007f0b0fb07f06afac5
:1013ac00754b17221a70b4e707f00cf8724b092230
:1013bc001a70aee7704ce07b06f0d8fa07f052fae0
:1013cc000a232370a5e76c4b9b68013303d16a4b4e
:1013dc0018221a709de707f08bfb002803d1664b8f
:1013ec000b221a7095e7002007f088fb07f042faf1
:1013fc00614b17221a708ce75f4b1b7b002b05d0bf
:10140c0007f038fa5c4b0c221a7082e707f070fb7d
:10141c00002800d17de7002007f070fb07f02afac6
:10142c00554b17221a7074e706f0d8ff524b0d2259
:10143c001a706ee7504ce07b012106f045fc07f07a
:10144c0011fa0e23237064e74b4b9b68013303d1d5
:10145c00494b18221a705ce707f04afb002803d1ad
:10146c00454b0f221a7054e7002007f047fb07f09a
:10147c0001fa414b17221a704be73f4b1b7b002b99
:10148c0005d007f0f7f93c4b10221a7041e707f032
:10149c002ffb002800d13ce7002007f02ffb07f0c2
:1014ac00e9f9354b17221a7033e7334b5b7b002b72
:1014bc0000d12ee7304b11221a702ae72e4ce07b1c
:1014cc0006f024fa07f0cef91223237021e72a4bf9
:1014dc009b68013303d1284b18221a7019e707f0c7
:1014ec0007fb002803d1244b13221a7011e70020ac
:1014fc0007f004fb07f0bef91f4b17221a7008e720
:10150c001d4b1b7b002b05d007f0b4f91a4b142292
:10151c001a70fee607f0ecfa002800d1f9e600207c
:10152c0007f0ecfa07f0a6f9134b17221a70f0e645
:10153c0006f03cff104b15221a70eae605f022f972
:10154c000d4b16221a70e4e60b4b01229a730f32e4
:10155c001a70dee6084c606804f09afa0123a37353
:10156c000f332370d5e6044c606804f091fa012324
:10157c00a3730f332370cce69cb00020605f000097
:04158c00c981000011
:020000040000fa
:10159000f0b5d646474680b587b0049005910392d2
:1015a000029311ab1e78109b002b33d001235b42ba
:1015b000109a136005f066f9051e2bd0012e10d08d
:1015c000022e15d0082e13d0029b002b22d0039b95
:1015d000002b1fd00f9b002b1cd00e9b002b0dd17e
:1015e00018e00f9b002b15d00e9b002b06d111e0ad
:1015f000029b002b0ed0039b002b0bd02f683b01ce
:10160000db1b9b00754a92469a44504603f05afef3
:10161000002804d107b00cbc90469a46f0bd2b6858
:101620009c461b0162469b1a9b006c4ad3185c6a5d
:10163000186a002800d1cce0217823002c33002246
:1016400000290ad00132904200d1c2e01c002c33a4
:1016500019002c3909780029f4d1012323700023c3
:10166000a3622b681b061b0c614609016046091a20
:1016700089005a484118888d00040343ff20024026
:101680001a4322628a8d013292b2554b9a422ed071
:1016900063461b0161465b1a9b005049cb189a8533
:1016a000059b63800e9b63600f9ba360039be360bd
:1016b000029b2361049ba36100232422a354233aa9
:1016c000227763752675109b226a1a6053469b6abf
:1016d000002b0ed03b01db1b9b00404ad3189b6aba
:1016e000002b56d09a6a002a4fd11a0050e00122ee
:1016f000cee753469c623b01db1b9b00374ad31865
:101700005b696a6993420fd0280014303b01db1bf0
:101710009b00324a904698444346db685b6900214f
:10172000984743466a695a6102232377012e34d0d1
:10173000022e40d063682269e16860883e01f61b92
:10174000b600264dae19f668a5680095b668b04794
:1017500000281ed101235b42109a13603b01db1b62
:101760009b001e4ad318db681b6998472423e0546a
:10177000e35c5a4253415a4202231340013b6375d2
:10178000504606f0cbfe04e01a00936a002bfbd112
:101790009462504603f022ff3ce760883b01db1b6c
:1017a0009b000e4ad318db681b68a26861689847e3
:1017b0000028eed1cee760883b01db1b9b00074a87
:1017c000d318db685b682269e16898470028e0d19c
:1017d000c0e7504603f002ff1ce7c04650af0020b0
:0417e000ffff000007
:020000040000fa
:1017e40010b5764b1a780e2a0bd89300744ad35846
:1017f4009f460321002002f00ff8704b586001222d
:101804001a7010bd6d4b5868431c03d16b4b0e22ec
:101814001a70f6e700226b4905f058fd674b0c225d
:101824001a70eee7654b5b7b002bead0634b022218
:101834001a70e6e7282005f023fb07f017f85f4b42
:1018440003221a70dde75d4b9b68013303d15b4bc8
:101854000e221a70d5e707f04ff9002803d1574b31
:1018640004221a70cde7002007f04cf907f006f8bf
:10187400524b0d221a70c4e7504b1b7b002b07d030
:1018840006f0fcff4d4b00221a7305321a70b8e7bc
:1018940007f032f90028b4d0002007f033f906f03d
:1018a400edff464b0d221a70abe706f0b5fc06f0cf
:1018b400ddff424b06221a70a3e7404b9b680133bd
:1018c40003d13e4b0e221a709be707f015f900284e
:1018d40003d13a4b07221a7093e7002007f012f95c
:1018e40006f0ccff354b0d221a708ae7334b1b7b75
:1018f400002b07d006f0c2ff304b00221a730832c7
:101904001a707ee707f0f8f8002800d179e7002084
:1019140007f0f8f806f0b2ff284b0d221a7070e7b2
:10192400264b29495a5c98181c7c447401325a5439
:1019340009221a7065e7214b1b7c0a2b03d01f4b2d
:1019440005221a705de71d4b20495a5c01325a5436
:101954000a221a7055e7194a1c4bd35c022b03d098
:10196400164b05221a704ce71300002216495a54ec
:1019740016495a540b321a7043e705f08bfe0028bf
:1019840003d10e4b0e221a703be70c4b0022da7384
:101994000c321a7035e7094c606803f05dfd0123d1
:1019a400a3730b3323702ce7044c606803f054fddd
:1019b4000123a3730b33237023e7c04608a9002037
:1019c40020720000018200001102000012020000d7
:020000040000fa
:1019d400f0b5de4657464e464546e0b585b0019023
:1019e4000c000391914602930f9b002b28d00123f6
:1019f4005b420f9a136004f069ff061e20d04b4629
:101a0400002b24d0002c22d0378874227a43644bd4
:101a14009b1864331b78002b07d074227a43604be5
:101a24009b181b6e019a93420ad174237b439b46f5
:101a34005b4b5b449a46180002f0b4fd00280dd1bc
:101a440005b03cbc90469946a246ab46f0bd0e9b01
:101a5400002bf5d0029b002bd6d1f1e733889846b2
:101a64007423424653434e4ad2189069d36ed169c7
:101a740000290ed000228b42a4412340dc00e4184c
:101a8400a40004192578002d07d0013201339142b6
:101a9400f1d1504603f087f8d2e7012222700022e8
:101aa40022627421424651433d4a5118888c0004f5
:101ab400327812020243ff2018400243e261898c0b
:101ac400013189b2374a91421dd0742042465043b5
:101ad400334a121891840133d366029b6360039bdb
:101ae400a3600123637500232375019ba361b3697c
:101af400002b0ad0082b1dd84b465d00e5600e9bd9
:101b04005b00236105e00121dfe74b46e3600e9ba8
:101b140023610f9be2691a6053461b6a002b10d0a5
:101b24001f4b5b441b6a002b31d01a6a002a2ad14e
:101b34001a002be04b469b00e3600e9b9b00236145
:101b4400e7e753461c6202236375200002f08ef916
:101b540074227a43124b9b18db6a013306d0742239
:101b64007a430f4b9b181b6b013314d123696268b2
:101b7400e168a06874257d43094c6419646964684c
:101b8400a04704e01a00136a002bfbd114625046ec
:101b940003f009f854e7200000f064fcf7e7c046be
:081ba4006cac0020ffff000003
:020000040000fa
:101bac0070b56b4b1a780c2a06d89300694ad35837
:101bbc009f46674b01221a7070bd654b1b7a002b38
:101bcc00fad0634b02221a70f6e78020800406f0ec
:101bdc00bdfc002803d15e4b03221a70ece7802079
:101bec00800406f0bffe5a4b0c221a70e4e705f095
:101bfc0045ff430703d1564b04221a70dce705f06e
:101c0c003dffc0434307f6d0514b0c221a70d3e76b
:101c1c00012006f09bfc002803d14d4b07221a70c3
:101c2c00cae7012006f09efe494b05221a70c3e755
:101c3c00002006f039f9002803d1454b07221a7011
:101c4c00bae7002006f030f9414b187306221a70df
:101c5c00b2e73f4c257bea005219d2003e4b9c4622
:101c6c0064440021200006f039fd220029000020e8
:101c7c0002f0fefa002803d1354b0c221a709be7b8
:101c8c003649374bcc18207b482203f075ff0723cd
:101c9c00237091e7102006f059fc002803d12c4b3f
:101cac000a221a7088e7102006f05cfe284b0822e6
:101cbc001a7081e7012006f0f7f8002803d1244bb5
:101ccc000a221a7078e7012006f0eef8204b5873c0
:101cdc0009221a7070e71e4c657bea005219d2007b
:101cec00204b9c4664440021200006f0f7fc2200a7
:101cfc002900012002f0bcfa002803d1144b0c225d
:101d0c001a7059e71849194bcc18607b482203f01c
:101d1c0033ff0a2323704fe7012004f0a3ff0c4b81
:101d2c000b221a7048e70a4b5968012003f048fd52
:101d3c00002803d1064b0c221a703de7044b0122fc
:101d4c005a721a7038e7024b01225a721a7033e732
:101d5c0000000020307600000e0900000e09002063
:101d6c00f2f6ffff0e1b00000e1b0020f2e4ffff3b
:020000040000fa
:101d7c00f0b40125ed070f005f405ad48b4200d11f
:101d8c00824205d950404240504059404b40594046
:101d9c004e18760ddf187f0d3bd0741c640529d0ce
:101dac00f41b352c26d80e0ddb022b43db0ac902a3
:101dbc002943c9121700202c1ed2e741e24057409c
:101dcc00e3415a40a340e3405a4000248018594153
:101ddc000ad3b21c520521d0c207012f6241170051
:101dec004008cb0718434908013636054208af4175
:101dfc0060417141f0bc7047203c06d01f00e741a8
:101e0c00e3405f400024012a6741c0186141ebd3d5
:101e1c00dfe7002eeed129400020ebe7013631053b
:101e2c000020e7e7e742e5d10020c143090dc904d2
:101e3c00e0e76b400e00871a9e4104d26e40c01b37
:101e4c00b141d21973414e18df18ac0ae642e9d2ff
:101e5c00760d7f0d31d0f41b362ccbd8b4460e0d3d
:101e6c00db022b43db0ac9022943c90a012c32d8f5
:101e7c0004d1d4075208df073a435b08ef0a6442e7
:101e8c00904199411ed0002239424dd12419404134
:101e9c0049410124394204d10134001849413942e5
:101eac00fad06246a24204d9361b013e3605891986
:101ebc00a0e7f10ac90700209ce736429ad100201e
:101ecc00002197e70200224394d0b842ded20100f1
:101edc0020002024e3d1202c13dd203ce24117000c
:101eec00a240e2405740e3415a40a340e3405a40ed
:101efc00012fbf410137174300227c429841914189
:101f0c000ce01700e741e2405740e3415a40a34040
:101f1c00e3405a407c429041994100220f0303d286
:101f2c00013e241940414941013e36054708ac4168
:081f3c0050417141f0bc7047f7
:020000040000fa
:101f440070b56c4b9b7d002b19d06b4b9c6a694b15
:101f54005b8b9b0714d5684b2022ff2199540132d7
:101f6400fd399954644a2023d35c5bb2013300d118
:101f74008de0614a2023d35c062b00d1a0e070bd24
:101f84005c4b5b8bdb0707d55b4b2022ff2199540d
:101f94000132fd399954e5e7564b5b8b5b0707d556
:101fa400554b2022ff2199540132fe399954d9e727
:101fb400514a2023d35c5bb2032b47d0042b11d0ae
:101fc400022bcfd11369002b05d0908880b2002159
:101fd40004f0e0fac6e7484b988880b2012104f087
:101fe400d9fabfe7444a936912699a420dd0424a2a
:101ff4009268d05c3f4928228854591c3d4ad369d1
:10200400002bfcd13c4b9961ace73b4b5b69002b4b
:102014000ed0394b9b885b0001221343354a53622f
:10202400d369002bfcd1344a20330321d15499e7de
:10203400304a5168c0239b020b435360d369002b81
:10204400fcd12d4a20330621d1548be72a4bd96980
:102054005b69013b8b420cd0264ad369002bfcd12f
:10206400254bda68234d2820285c50540131d9616e
:1020740078e7204a5068e023db0203435360d369c6
:10208400002bfcd11c4a20330620d054e4e7202343
:102094000021d154174a5168c0239b020b4353605b
:1020a400d369002bfcd1134b83221a76124b5b6a43
:1020b400002b00d163e7104b5b6a200098475ee772
:1020c4001300002220215a5401315a54094b8332ff
:1020d4001a761900533a4b8b1340102bfbd1064b45
:1020e4005b6a002b00d14ae7034b5b6a20009847e8
:0c20f40045e7c04600100042f0af00209d
:020000040000fa
:10210000654b5b685b009b0a644a936300235375cd
:10211000110004228b691a42fcd160491022cb685d
:102120001a42fcd05d4a137d80210b4313755c4b32
:102130005c4a9a829a7d01210a439a7500229a612b
:1021400004321a61584b594a1a62190004224b682a
:102150001a42fcd1544a88234021d1501000483102
:10216000402243581a42fcd04f4a8c234021d15080
:1021700010004c31402243581a42fcd04a4a902366
:102180004021d15010005031402243581a42fcd017
:10219000454a94234021d1501000543140224358e5
:1021a0001a42fcd0404ac8234021d1501000883147
:1021b000402243581a42fcd03b4acc234021d15004
:1021c00010008c31402243581a42fcd0364ad023aa
:1021d0004021d15010009031402243581a42fcd087
:1021e000314ad4234021d150100094314022435829
:1021f0001a42fcd02c4ae8234021d1501000a831cb
:10220000402243581a42fcd0274af0234021d150a3
:102210001000b031402243581a42fcd0224af82321
:102220004021d1501000b831402243581a42fcd00e
:102230001d4a88235b004021d15010001900402224
:1022400043581a42fcd0184a8c235b004021d150dd
:1022500010001900402243581a42fcd0124a92231f
:102260005b004021d15010001900402243581a420f
:10227000fcd00d4a94235b004021d150100019007e
:10228000402243581a42fcd0094b0a4ada61044bf7
:1022900004225a607047c046206080000010004051
:1022a0000014004096050000001c004006010100db
:0822b000000800401f161a0c83
:020000040000fa
:1022b80010b5674b1a780d2a0bd89300654ad35886
:1022c8009f460321002001f0a5f9614b58600122c7
:1022d8001a7010bd5e4b5868431c03d15c4b0d222d
:1022e8001a70f6e75a4c22000c325b4904f0d0ff12
:1022f80002232370ede7564b5b7b002be9d0544b50
:1023080003221a70e5e7fd21442005f063fd06f07d
:10231800abfa4f4b04221a70dbe74d4b9b68013335
:1023280003d14b4b0d221a70d3e706f0e3fb0028cc
:1023380003d1474b05221a70cbe7002006f0e0fbdb
:1023480006f09afa424b0c221a70c2e7404b1b7bec
:10235800002b09d006f090fa06f096fa3c4b0022c2
:102368001a7306321a70b4e706f0c4fb0028b0d01e
:10237800002006f0c5fb06f07ffa354b0c221a70d8
:10238800a7e706f0c3fb0028a3d0314b07221a7039
:102398009fe7442005f0aafd06f066fa2c4b0822b8
:1023a8001a7096e72a4b9b68013303d1284b0d22fc
:1023b8001a708ee706f09efb002803d1244b0922f1
:1023c8001a7086e7002006f09bfb06f055fa204bb2
:1023d8000c221a707de71e4b1b7b002b07d006f0e2
:1023e8004bfa1b4b00221a730a321a7071e706f077
:1023f80081fb002800d16ce7002006f081fb06f085
:102408003bfa134b0c221a7063e7144c208804f033
:1024180039fb608805f01cfa0d4b0b221a7058e73f
:102428000b4b01229a7301321a7052e7084c60680c
:1024380003f030fb0123a3730f33237049e7044ce7
:10244800606803f027fb0123a3730f33237040e771
:1024580078b10020e8730000918100001cb20020d0
:020000040000fa
:10246800f0b5c64600b504008669614a330aff25ff
:102478002b4074204343d3182e40b500ad19ed000e
:10248800db68ed182e8803007343d31800225a64c2
:102498009a642269e3689a4259d3704354490918e7
:1024a800d31a4b6474237343514fff18fb6ad8b295
:1024b8002200504906f070f9386bc0b222004e492c
:1024c80006f06af9ab69002b48d0082b53d880274f
:1024d8007f0074237343464ded183900286b05f0cf
:1024e800f5fce86a390005f0f1fc2369002b51d1ad
:1024f8003f4b984674273d00754345440022002110
:10250800286b05f043fcab6c0022aa6477433a00c1
:1025180040324244a96b286bc0b201f0ddffe3688a
:10252800002b49d174337343314ef6180022002131
:10253800f06a05f02bfc736c00227264726bf06a0f
:10254800c0b22e4901f0c8ff04bc9046f0bd74200b
:102558007043274909189b1a8b64a3e774337343a4
:10256800234ded180021286b05f0b0fce86a002126
:1025780005f0acfcb9e78027bf00742373431c4dfa
:10258800ed183900286b05f0a1fce86a390005f060
:102598009dfcaae7802274237343154ded181201a0
:1025a8000021286b05f0f2fba96b286bc0b22369e8
:1025b800626801f091ffb2e78021742373430c4de8
:1025c800ed180022c900e86a05f0e0fbab6c002baf
:1025d8000bd0236974227243054eb618726ba1683a
:1025e800f06ac0b201f078ffaee7e368f2e7c046f0
:1025f8006cac0020f16400008d2a0000bcaf002004
:020000040000fa
:1026080008d1002806d1f54204d801d3002a01d107
:102618006d0d09d10020c143090dc904f0bdf9d1e0
:102628001242f7d1640df5d00020c143490549088d
:10263800a6e000206146f0bdf0b50127ff070e00b7
:102648005e403e40b446be0a4c18dd18f442d7d26c
:10265800f542e4d2640decd06d0dead06419c902dc
:102668003943460dc0023143db023b43db0a10b459
:102678008e4685b297b26f43140c6c433e0ca41976
:10268800260c2404bfb227439cb26c43a419190c2e
:102698006943250ca4b249190d04090c6419000cee
:1026a80095b245433e0c76193743bfb2360c150c2c
:1026b8004543ad19a6b2240cad192e0437432e0c90
:1026c80036199db24543ad19acb22e0c89191d0cb3
:1026d80045436d182e04290c3443704680b295b2d8
:1026e80045433e0c76193743bfb2360c150c4543ab
:1026f800ad19a6b2ad19240c2e0437432e0c361989
:102708009db24543ad19acb22e0c89191d0c454339
:102718006d182e043443290c75462d0c90b268436d
:102728003e0c80190604bfb23e43070ca0b23f1806
:10273800120c6a43d019020c80b2240ca4189ab265
:102748006a43121914042043120c89181b0c6b439a
:10275800c91810bc01273d05294203d1b6194041cb
:102768004941013cff077d0d013d641b0bdb6d00fa
:10277800ac4209da240500254208be41684161419e
:0a27880066463143f0bd54e74ee70a
:020000040000fa
:0227920070478e
:020000040000fa
:10279400f0b5de4657464e464546e0b583b0009058
:1027a4000d0017001c000cab1b789a46002c18d0a7
:1027b40001235b422360002a13d0002911d004f0c6
:1027c4003ff9804600280cd0068873009b195b01f2
:1027d40099464d4b4b440193180001f019fe002813
:1027e40006d103b03cbc90469946a246ab46f0bd28
:1027f40043461b889b465b005b445b01424ad318fb
:10280400d9699b699c46002b74d008790b0024334a
:10281400002200280dd06146a4462c0001328a42d1
:1028240068d01d00187924330028f7d12900250029
:10283400644601230b7100234b615b465b005b44e0
:102844005b01314884469c446346988a00044346ad
:102854001b781b020343ff20024013430b626346b1
:102864009a8a013292b2294b9a4231d05b465b007c
:102874005b445b012448c3189a828d60cf600023b7
:102884000b61009a0a60cb6101220a764b760b6acf
:1028940023605346012b1dd01b484b462433c318d9
:1028a4007200921952018218526a002a26d01b68bb
:1028b400002b09d05a69002a05d05b69002b03d08c
:1028c4005a69002af9d15961019802f053f888e74e
:1028d4000122cbe70c484b462033c31872009219ef
:1028e40052018218126a002ae1d11960019803f09a
:1028f400fcfbe9e7019802f03df872e719600198e2
:1029040003f0f8fae0e7c046e0ac0020ffff000067
:020000040000fa
:1029140070b50500594c207fc0b2002800d0a7e054
:1029240000294ad0002d48d0554c6668072434400d
:10293400012c5ed0514805604260002444618461ea
:1029440004614e488160002a58d04c4ad3604b4af7
:10295400012111774a4a127e520705d5484a0420bc
:10296400916a117e0142fbd1454a518b04200143f7
:102974005183117e80200143117640498a68c968d9
:10298400914203d93d48c168891a01613c494968ab
:10299400490743d139498969914233d2374a116889
:1029a400087837498862916901319161002b5ad0c6
:1029b400334b04229a7501205be0002b59d0002a86
:1029c40057d02f4c666807243440012c0cd02b4878
:1029d400056042600024446184610461002db0d12b
:1029e400264900208860aee7002943d1dc07eed5f4
:1029f4003fe0cc073dd4002be9d0f7e71f4a002184
:102a0400d160a4e71d4a1269002acfd01c4aff21d5
:102a140091621a490a69013a0a61c7e7174a91683b
:102a240049089160116949081161d1684908d16068
:102a3400916892698a420ad210490a681288d205ba
:102a4400d20d0f4882628a6901328a61aee70b4a6d
:102a54001269002aaad00a4a0a49916207490a69f6
:102a6400013a0a61a2e7064b01229a75012000e0af
:102a7400002070bdcc07b9d5fbe7c0461cb00020d0
:082a8400000c0042ff010000fc
:020000040000fa
:102a8c00f0b5c64600b582b001900c008969524a77
:102a9c000b0aff252b4074204343d31829408d008b
:102aac006d18ed00db68ed182f8878431218926cc6
:102abc00002a42d1484e361873699b689847002803
:102acc00fad11c202856431c0fd06a7f002a56d1fd
:102adc001f3202400121914080b2400982231b0425
:102aec009c466044c00106f059f8742078433a4b78
:102afc0018186b6aa269934254d1019b012b4cd0dc
:102b0c00019b022b4bd01426a657e369984605f07f
:102b1c0009fd6b68002b47d074237b432e4ce418c3
:102b2c002634237801332370aa686b684146300041
:102b3c0098472378013b237036e0274e7423984640
:102b4c001d007d43751900220021286b05f01cf92e
:102b5c0043465f433a004032b2182b6bd8b2ab6c91
:102b6c00a96b01f0b7fca1682369c918eb6ad8b24c
:102b7c00ab6c6a6b01f0aefc0023ab641ee01f2251
:102b8c0002400121914080b2400982231b049c46e3
:102b9c006044c00106f004f8a7e72375b3e7fd33e2
:102bac002375b0e705f0befc74227a430a4fbf18b8
:102bbc003c6a002c02d0637d012b03d002b004bc14
:102bcc009046f0bd200001f04df902236375200002
:0c2bdc00fff744fcf2e7c0466cac0020a0
:020000040000fa
:102be80070b5504b586a504b9b7d002b54d04e49c2
:102bf8004c68072214404b4b5a699d699e680b7eae
:102c08005b0757d5896a474bdb68934252d9002c3a
:102c180043d1444b5b6899540132434b1b7edb071d
:102c280016d5414b012119753e4b9b68ab4256d9cd
:102c38003c4b1b68595d3c4b99620135394b1b690c
:102c4800002b01d1b54262d0364bdb68934262d08b
:102c5800344b5a619d61344b1b7e9b0715d5334b12
:102c68001b78002b18d02f4bdb68934211d12d4bca
:102c780000221a772c4907240c752c490a701b6a04
:102c8800002b09d0274b1b6a9847284b1b78002b31
:102c980002d0254b02229a7570bd224b5b68540006
:102ca800e1520132204b1b7edb07d1d51e4b01219f
:102cb800197508e01c4b1b7edb07c9d51a4b01218f
:102cc8001975002cb0d0174b9b68ab4213d9154b24
:102cd8001b686900c95a144b99620135aee7114b5c
:102ce8001b69002baad0104bff2199620d490b6973
:102cf800013b0b61a2e70b4b1b69002b9ed00a4bd3
:102d08000b49996207490b69013b0b6196e7074b31
:102d1800012119709ce7044b01219975033119753c
:102d280096e7c0461cb00020000c0042bdb200204f
:042d3800ffff000099
:020000040000fa
:102d3c00f0b583b004004a4a107dc0b22c23d35c9a
:102d4c00dbb2002b00d086e0002800d086e0002cff
:102d5c0000d181e02768002f7ed0002900d14149a5
:102d6c003b018b4205d9fb008b4275d80826032505
:102d7c0001e010260125080005f006f9019030004d
:102d8c0005f002f9061c380005f0fef8011c301c99
:102d9c0001f0aafe011c019802f0fef9061c05f0d8
:102dac0071f80700421e304b00209a4213d8301c99
:102dbc0004f001f904f0b0ff011c301c05f07afda1
:102dcc008221c90501f090fe05f05cf84003ff2359
:102ddc005b0318403843254a136802218b43136068
:102dec00d369002bfcd180b2204b98816368022bf5
:102dfc0021d01e4a13681e490b406d031d438023ce
:102e0c005b041d4315605168a368e06803431948cf
:102e1c0001400b4361680b435360144ad369002b88
:102e2c00fcd1124a136802210b431360d369002ba7
:102e3c00fcd1012010e00d4a13680d490b406d03c5
:102e4c001d4315605168a368e06803434720814324
:102e5c000b435360e1e7002003b0f0bd1800fbe723
:102e6c008caf0020006cdc02fe1f0000000400424e
:082e7c00ff1ffff0b8dfffffac
:020000040000fa
:102e84000122d20703004b403dd430b4431a01d28f
:102e9400c01ac9184b004400240eff2c29d0002c62
:102ea40024d01b0e20d0e31a182b1ddc0902114379
:102eb400c40d000210435d4219350a00aa40d2092c
:102ec400d940451801d36d080234013ce405280ab1
:102ed4000121c9072d062a438a4160414100090e98
:102ee400ff2901d3c00dc00530bc7047c00fc00717
:102ef400fae742001823da41ff2af5d07f200001c7
:102f04000c300005f0e7a4465140431a02d2534066
:102f1400c01ac9184b00090211431b0e4400240ea9
:102f2400ff2c41d0002b10d05b421b19012b10d376
:102f340022d1c30d4002401a10d3db050100400a20
:102f4400c90591415841644670472442fbd1002091
:102f5400f9e7c30d40024900401af4d000210131c1
:102f64004000fcd38c4204d95b1adb05400ac0182c
:102f7400e9e7180ac007e6e7192be4d801330c0087
:102f8400d940dc414c40012c4941c30d000210439f
:102f9400441a01d4a4006408013bdb05200a24067a
:102fa4009441584164467047ff2b01d04102cad076
:0a2fb4007f2000010c300005c5e786
:020000040000fa
:102fbe00f0b58fb00d934b680c9006938b680d0097
:102fce000793cb6816000393069b0f68002b44db18
:102fde0002239f4310233b400a93079b04930a9bb3
:102fee00002b07d0726833681343079a02d0130080
:102ffe00023b049308233b400b935a1e9341049ac1
:10300e00d31a04933368039a0893736809932b6950
:10301e005c1e00231355069b0593012c20dc0a9b96
:10302e00002b51d10b9b002b03d02023039a013c84
:10303e0013552b6900975a1e039b121b19190c98d6
:10304e00079b02f07efb0c9b5b68db0503d56b6870
:10305e00984200da18000fb0f0bd01230693b9e7cd
:10306e00089b099a13430bd1059b002b08dc069a8b
:10307e00049b9b1a059a9b18002bd0ddbb07ced55f
:10308e000f23089a013c134018005730092b01dc1e
:10309e00303318000d9b413b192b06d820230343d8
:1030ae00613b192b01d805f048fc039b1855059b75
:1030be00013b0593099b1a07089b1b091a43099ba1
:1030ce0008921b090993a8e70cce1343aad0039bc1
:1030de000d9a1b19013b1a703023039a023c1355ab
:0230ee00a0e759
:020000040000fa
:1030f00010b5414b1a78082a06d893003f4ad35896
:103100009f463d4b01221a7010bd05f0a1fb04f053
:1031100031ff394b02221a70f6e705f0e3fc002874
:10312000f2d0002005f0e4fc05f0c0fa324b032297
:103130001a70e9e7304b9b78002b08d1012005f08d
:10314000a7fc05f0b3fa2c4b04221a70dce705f05b
:10315000adfa294b05221a70d6e705f09ffc00282e
:10316000d2d0002005f094fc002005f09dfc05f075
:103170009dfa214b05221a70c6e71f4b5b78002b86
:1031800008d1012005f04efc05f090fa1a4b0622fa
:103190001a70b9e705f08afa174b07221a70b3e7dd
:1031a00005f046fc0028afd0002005f03bfc0020d5
:1031b00005f044fc05f07afa0f4b07221a70a3e7da
:1031c000012005f04dfc05f071fa0b4b08221a7036
:1031d0009ae705f04bfc002896d0002005f040fc53
:1031e000002005f049fc05f033fb05f05ffa024bc7
:1031f00002221a7088e7c046b8b20020487e00005c
:020000040000fa
:1032000070b5002841d00468002900d13649630018
:1032100099423cd3354b9c423bd8080004f0bafe9f
:10322000051c200004f0b6fe011c281c01f0baffaa
:10323000061c2f49281c01f05dfc2e49fff722fed9
:10324000011c301c05f03cfb04f022fe05002a4b5b
:103250009c4209d8ff235b00ff209d421cd8fe380a
:10326000012d19d9680817e07e23ff33984212d840
:10327000032836d94000032101f0deff06020321b6
:10328000280001f0d9ff304306e0002028e00020ac
:1032900026e0002024e019481749a142894149420b
:1032a000174a13680224a3431360d369002bfcd18f
:1032b000134bd8601a68134802400906114319607d
:1032c0001a6802210a431a601a00d369002bfcd144
:1032d0000b4b10225a831a00d369002bfcd101201a
:1032e00070bd0948d8e7c046006cdc0240420f00c0
:1032f00095bfd63300002041801a06007fff0000f2
:0c33000000100042fffffffc0102000073
:020000040000fa
:10330c0010b53f4b1a78072a06d893003d4ad3587c
:10331c009f463b4b01221a7010bd394b5b78002b3a
:10332c00fad0374b02221a70f6e705f02dfb012874
:10333c0006d0334b0022da709a7003321a70ebe726
:10334c002f4b0122da709a701a70e5e705f01cfb1e
:10335c00022806d02a4b0022da709a7004321a70b6
:10336c00dae7274b0222da70013a9a701a70d3e727
:10337c0005f00afb042806d0214b0022da709a7063
:10338c0005321a70c8e71e4b0322da70023a9a70a3
:10339c001a70c1e705f0f8fa102806d0184b002275
:1033ac00da709a7006321a70b6e7154b0422da708e
:1033bc00033a9a701a70afe705f0e6fa202806d0a7
:1033cc000f4b0022da709a7007321a70a4e70c4b7c
:1033dc000522da70043a9a701a709de705f0d4fa57
:1033ec00402806d0064b0022da7001329a701a700f
:1033fc0092e7034b0622da70053a9a701a708be743
:08340c00c0b20020147f000093
:020000040000fa
:1034140030b5002800d076e03c4a7023d35c012b01
:1034240002d00120404230bd1300702298541b7c0e
:103434005bb2022b47d1354b1b78002b43d0334b67
:103444005b78002b46d1314b5b68002b49d12f4b65
:103454009d68002d50d0db681800dc7828330022ea
:10346400002c07d00132aa4246d018002833c47871
:10347400002cf7d10123c3700b0702d5234b012481
:103484005c70224c636801336360a38c1b04ff25ca
:103494002a401a434262a38c01339bb21c4a9342d2
:1034a40028d01a4a938470230124d4540423194342
:1034b4008170002343608360ff220277df3a8354e4
:1034c4000380406aafe7114a70230121d1540120df
:1034d4004042a8e70d4a70230121d1540120404203
:1034e400a1e70b07b3d5094a70230121d154012068
:1034f400404298e70123d4e7044a70230121d154c0
:10350400012040428fe7012040428ce76cac002050
:04351400ffff0000b5
:020000040000fa
:10351800f0b5de4657464e464546e0b583b0804690
:1035280000296ed00024384f0726384b9c469b460e
:103538009946009108e03648415549468a60621c20
:103548000134009991424cd97a683240012a16d048
:103558009d68da6892466a1c19698a4289410a405c
:1035680092453fd04146095d786830400128e2d154
:103578006d0027484155013500214155dde7624678
:103588009568d26892466a1c614609698a428941ef
:103598000a40924526d0610001204044405c000268
:1035a80082464046415c504601430191786830406c
:1035b800012809d0694609798a461549504648556f
:1035c80059468a60621cbbe7690068460079104d5d
:1035d800aa4668540d0001350199090a504641551b
:1035e800eee7140004f044fd002802d0064b012247
:1035f8009a75200003b03cbc90469946a246ab465b
:10360800f0bd0c00eee7c04600080042d0ae002036
:04361800408b0020c3
:020000040000fa
:10361c0030b5002800d074e03b4a3423d35c012b36
:10362c0002d00120404230bd1300342298545b7804
:10363c005bb2022b45d1344b1b78002b41d0324b63
:10364c009b78002b44d1304b5b68002b47d12e4b21
:10365c009d68002d4ed0db6918005c791833002270
:10366c00002c07d00132aa4244d0180018334479f8
:10367c00002cf7d1012343710b0702d5224b0124f7
:10368c009c70214c636801336360a38d1b04ff2580
:10369c002a401a430261a38d01339bb21b4a934209
:1036ac0026d0194a938534230124d4540023036073
:1036bc00042421430171126942618360c360006973
:1036cc00b1e7114a34230121d15401204042aae729
:1036dc000d4a34230121d15401204042a3e70b07aa
:1036ec00b5d5094a34230121d154012040429ae72f
:1036fc000123d6e7044a34230121d154012040424e
:10370c0091e7012040428ee750af0020ffff000000
:020000040000fa
:10371c0010b5384b06225a6005f04cf8fef7eafc5f
:10372c0005f02cf902f0daff04f01cfb03f0defece
:10373c0003f0eef904f0cefd03f0b8fc02f0fcfe51
:10374c0002f060fd03f0d0fc01f0fcfd04f0f7ff8b
:10375c0002f070ff04f084fb00f0ecfb02f026fb9f
:10376c0001f078fa04f074fc03f0f4fe03f036fa7e
:10377c002149002002f0e4fa204c2060204900206e
:10378c0001f076fbe0601f49002000f00bfd20618a
:10379c0004f050fc1c49002002f03efb60601b4909
:1037ac00002002f0bffda06004f052ff04f0e6fd23
:1037bc0004f032fb04f0d8fc05f05ef905f074f966
:1037cc0004f024fe04f02efe04f014fe04f0acfb16
:1037dc0005f034f904f064fa04f030fe04f0b6fda0
:1037ec0002f0eafb04f05afd05f094f900f0ccfa73
:1037fc0010bdc046004000410481000008b200200a
:10380c00fc750000a8710000788b0000188a00007d
:020000040000fa
:10381c0030b500286ad13a4b9b785bb2022b68d149
:10382c00374b1b78002b67d0354a3c23d35c012bdc
:10383c0002d0012040425ee013003c2298545b7899
:10384c00002b3bd12e4b9b68002b3dd12c4bdd68c4
:10385c00002d44d01b691800dc7810330022002c9a
:10386c0007d00132aa423ad018001033c478002c89
:10387c00f7d10123c3700b0702d5214b01245c70d7
:10388c001f4ca3680133a360a38a1b04ff252a40a5
:10389c001a43c260a38a01339bb21a4a93421cd0ca
:1038ac00174a93823c230124d45404231943817076
:1038bc000023436083600380c0681ce0104a3c23f3
:1038cc000121d154013816e00b07bfd50c4a3c231b
:1038dc000121d154012040420de00123e0e7084ac8
:1038ec003c230121d1540120404204e001204042fc
:1038fc0001e00120404230bd01204042fbe7c046c0
:08390c00e0ac0020ffff000009
:020000040000fa
:10391400f0b5ce46474680b583b004000e00019250
:103924000278002a63d002228256022a5fd101293a
:1039340034d0476a002f5ad03a68100aff2528402d
:103944004100091849012e48411815402d01096903
:103954006d18e9688a4241d1019a7a767a7e52b228
:1039640001321dd0fb683b613b6a9946310020005f
:1039740004f0e9f96b68002b34d028239846e35c03
:1039840001334246a354aa686b6849460198984794
:103994004346e35c013b4246a35423e0076ac9e77c
:1039a400226b013202d000233b61dde7e26c116837
:1039b400994210d051688b420bd0916800228b42ff
:1039c40005d0fa616368db6898473861cce7023256
:1039d40002e0012200e000220132f2e7310020007f
:1039e40004f0b1f9002e07d1200002f083fa03b0ed
:1039f4000cbc90469946f0bd200002f076fbf6e739
:043a0400e0ac002012
:020000040000fa
:103a0800f0b5d6464f464646c0b50426344da846be
:103a1800a946334b9a465be04a46126a002a42d0ce
:103a2800796a3b6a01209847bb6a01333a6b934233
:103a38009241134037e05246926a5200e0b2294957
:103a480088540132240a8c543ce004f01ffb244bb8
:103a58001b6a002bddd0224b596a3c23204ad35cd9
:103a6800002b06d0936b9842d3d3136a0020984753
:103a7800cfe71b4b9b6b9842cbd1194b1b6a00209d
:103a88009847c6e7184b1b7e334223d0164b1c8d34
:103a9800a4b2ab6a01332a6b934292411340424667
:103aa800d26a9a42b8d00e4ad26a9a42ead00e4aec
:103ab800516807220a40012abdd0094a926ae4b235
:103ac80008498c54064a93623423d35c002bbcd13a
:103ad800034fd7e71cbc90469946a246f0bdc046a6
:0c3ae800d0ae0020407b0020000800420f
:020000040000fa
:103af400f0b5060085b00f0015001c008b4265d898
:103b040001d1824262d82100280004f0e3fc39008c
:103b14000090300004f0defc009b21001b1a1a0008
:103b24002800039304f0cafc00900191019bbb425e
:103b340046d802d1009bb34242d8009b019c039a11
:103b440001200021f61aa74104f0b8fc039b002bc6
:103b54002fd0019b009adb0754081c43019b5d088e
:103b6400039b9c46bd422ed801d1b4422bd83200cf
:103b74003b00121bab41012692185b410027b6188b
:103b84005f4101235b429c446346002bead18019c8
:103b94007941039a04000d003000390004f082fcde
:103ba400039a06000f0004f089fc241a8d412000ba
:103bb40029000a9b002b01d01e605f6005b0f0bd98
:103bc40000200021c2e7b6197f41dae70020002176
:023bd400efe719
:020000040000fa
:023bd600fee708
:020000040000fa
:103bd800f0b5ce46474680b583b00125314ca046a6
:103be800314a304eff23994616e058002f4f3f5c6c
:103bf800bc466f466146b97101302c49085cf871c2
:103c080001331ae06b4606331b8849460b4013857f
:103c1800244b1b7d002b20d1137e2b423dd0a06866
:103c2800e368984236d05768072038400128dcd02e
:103c38001e48c75c684687710133306983428041fa
:103c480003401848c360506807230340012bd9d1ab
:103c58006b4606331b881385dae704f0a1fc114b89
:103c68001b68002bbcd0434659681b7f002b08d02b
:103c78000c4b9b699842b3d30a4b1b6803209847a7
:103c8800aee7084b9b699842aad1064b1b680320f4
:103c98009847a5e7044b01221a7503b00cbc90465f
:103ca8009946f0bdd0ae002000080042408b0020ad
:020000040000fa
:103cb800f8b504000378002b33d01023c356022b29
:103cc8002fd1066ab369190aff2529407422514386
:103cd8002d4a52182b409d00ed18ed00d368ed18c1
:103ce8001c202856431c0fd06a7f002a1ad11f3285
:103cf80002400121914080b2400982231b049c4666
:103d08006044c00104f04cff6b6ab269934217d05b
:103d1800200004f009fc256a002d02d06b7d012be0
:103d280024d0f8bd1f2202400121914080b24009f1
:103d380082231b049c466044c00104f033ffe3e780
:103d480001233375f769200004f0eefb6b68002b44
:103d5800e1d02626a35d0133a355aa686b68390014
:103d680001209847a35d013ba355d4e7280000f044
:103d78007bf802236b752b696a68e968a86864692f
:0c3d88006468a047cde7c0466cac00208a
:020000040000fa
:103d9400f0b5ce46474680b5bff35f8f62b6304b71
:103da400c027bf00da59ff24a243c0200243da51de
:103db40001221a60da592b4d2a40c0210904894690
:103dc4000a43da5104221a60da591202120ac0268e
:103dd40036063243da5108221a600437da591202dd
:103de400120a3243da5180221a60c22292009f588a
:103df4001d498c463940c0273f02394399508021e0
:103e04008900196099580d404946294399508021e9
:103e1400c900196099580902090a0e439e5080226c
:103e240012011a60c32189005a58a24302435a500e
:103e3400802252011a6008315a58a2431043585044
:103e4400802252031a6004315a58604602401743d4
:103e54005f50802292041a600cbc90469946f0bdd3
:0c3e640000e100e0ffff00ffff00ffff97
:020000040000fa
:103e7000f0b587b0050082693048130aff210b4076
:103e800074277b43c31811408c006418e400db687e
:103e9000e41823889c465f43c019836a9a423ad04b
:103ea00001a823000c330200c2cbc2c242cb42c2e3
:103eb000742663465e43214b9e19326d63699b00f5
:103ec0009b588360726d23699b009b584360f26c22
:103ed000a3699b009b58c36073691b6800219847c6
:103ee000ab69b36220230022e2541c202056431cfd
:103ef0000fd0627f002a13d11f320240012191406e
:103f000080b2400982231b049c466044c00104f037
:103f10004dfe07b0f0bd2023e35c002be5d0bfe7ea
:103f20001f2202400121914080b2400982231b04dc
:103f30009c466044c00104f037feeae76cac002008
:020000040000fa
:103f4000f0b5ce46474680b5234b002219005031cc
:103f50001a705a609a601a7310338b42f8d11f4856
:103f60001f4b58631f4a9a631f4a5a613f2600221b
:103f70009a551e4a5a641e4a94460280164d0121e3
:103f800029704d2403221a5599551a4f5f641a4f10
:103f9000b946078229741a5502279f55174f5f6447
:103fa000674607842027e9551a559a55144f5f64d0
:103fb0004f4607863027e9551a552c3f9f55114e1d
:103fc0005e644026104f8753a9551a550f4a1a8030
:103fd0000cbc90469946f0bd90ad002040ad00204d
:103fe00000600041e0ad00208181818100038000fc
:103ff000090400000002800009080000000780009a
:10400000000680000015800009060000020f000075
:020000040000fa
:10401000f0b5de4657464e464546e0b585b081468a
:1040200000284ad02d4b596a83689a4600290cd043
:104030008b6852460392002290469a4544d3002250
:1040400000238b460092019304e08360234b586267
:1040500033e0e3465e46b66834000025009a019bd3
:1040600012196b41009201935e46b669b446002e68
:1040700012d06646b66800210f00009a019bb61860
:104080005f41474525d8e4d1039b9e42e1d9604674
:104090005946009a019b01e0300059464c46a06108
:1040a0008c6151468a1a4b469a609b69002b04d05a
:1040b0004a4691689a68521a9a6005b03cbc90468c
:1040c0009946a246ab46f0bd044b5862816100227e
:1040d000e7e760465946009a019bdfe7c0af002042
:020000040000fa
:1040e000f8b5314d6c6aaa69eb69012000211218fc
:1040f0004b41aa61eb61002c54d02022ab5c013310
:10410000ab54a368002b05d0a368013ba3606c6a85
:10411000002c24d0a368002b21d101250027224e9a
:1041200011e0200002f00afba378002b00d1677099
:10413000e368002b01d020699847746a002c0ed0e8
:10414000a368002b0bd125756575a378002be8d1ea
:10415000e368002be5d0e06902f054fee8e7134d78
:1041600000242e000be06201104b9b186a689a60d5
:104170002800fff74dff01342035322c0dd06201ad
:10418000b218527d002af6d06101084a5218002167
:104190005175aa78012aeed1e5e7034920228b5c0c
:1041a000013b8b54f8bdc046c0af0020c8a2002020
:020000040000fa
:1041b00070b5002852d12c4b1b78002b51d12a4bc3
:1041c00001303d229854013a985418700c685c6094
:1041d00000229a604d68dd608d681d619882c86a12
:1041e0009861086bd8611a625a6228201a544a6b87
:1041f0001a65ca68da620a691a634a695a638a697f
:104200009a63ca691a640a6a5a644a6a9a648a6a28
:10421000da648a6bda65db6a013311d163691249aa
:1042200012489847104b1b6b013310d10e494b6855
:104230001b680f4898470c4b02229a70002070bdf3
:10424000094ad06ac0b20b4904f0aafaeae7064a62
:10425000106bc0b2084904f0a3faece70120404219
:10426000ede701204042eae7e0ac002011890000c0
:0c427000057a00005d7a0000317a000041
:020000040000fa
:10427c00f0b5c64600b580460e00151e58d0002875
:10428c0005d001282bd0002004bc9046f0bd294a53
:10429c00a423d458a404a40e002919d0012704e0a7
:1042ac0001377b1edbb29e4212d9e1000919c9000d
:1042bc00214b1b6859184822280004f005fabe420d
:1042cc0006d048350134e4b2402ce9d14446e7e746
:1042dc003f231c40174a6933d4500120d4e7154ab8
:1042ec00b423d458a404a40e00291ad00127e10049
:1042fc000919c900104b5b6859184822280004f0b2
:10430c00e3f9be420dd048350134e4b22300403b02
:10431c005a1e93415b421c4001377b1edbb2b342f9
:10432c00e5d33f231c40034a7933d4500120abe73b
:0c433c000020a9e7001c0042d4b10020c2
:020000040000fa
:10434800f8b5294b1b785bb2002b03db264b1b7897
:104358009b072dd5244b1b785b0718d580239b051d
:104368000024214a01201026a52503e004331f4913
:104378008b4224d01c6091790142f7d091680e429b
:10438800f4d115739179012739439171eee78023b0
:104398009b05002514491024a526144802e004337f
:1043a80083420cd01d608a681442f8d10e73f6e778
:1043b80080239b0500210d4a02c39342fcd10c4b7c
:1043c80098470c4b984703f043f80b4bff22934355
:1043d8000a4a93600a4b98470a4b98470a4b9847f2
:1043e80004f099fafee7c0460020004000000120d2
:1043f8005f4c00005f4c00000000000000ed00e092
:0c4408008d6300005f4c00005f4c000062
:020000040000fa
:1044140070b504002823c35c002b07d13d33c35c73
:104424000020012b1fd13c330022e254256d04f0ff
:1044340091fb06002b78002b16d16868431c26d10b
:10444400a868431c29d1e868431c2cd12869431c63
:104454002fd1e36a013332d1236b013336d13000db
:1044640004f07cfb012070bd0420285602f07cfe81
:104474005a23e054e36a013302d1236b0133eed0b3
:104484000420285602f070fe5b23e054e7e740b2b4
:1044940002f06afe5423e054d2e740b202f064fe14
:1044a4005523e054cfe740b202f05efe5623e054b9
:1044b400cce740b202f058fe5723e054c9e7142079
:1044c400285602f051fe5823e054c5e71820285618
:0a44d40002f04afe5923e054c1e74c
:020000040000fa
:0244de00fee7f7
:020000040000fa
:1044e000f0b505012d4c6419267bf6b22c4d3f2703
:1044f000ec5de4b2e8550f37ed5dad0702d1002564
:10450000002e3bd1264e4e25032777550501234e1d
:104510007619023f3773234ead5b6d0533d5c9184d
:104520000601204dad19696001011e4d495b090569
:104530002ed5d21805011b4949198a601949050170
:104540006a5a9205920fd3409bb249194b80144a84
:104550004021535c02252b435354516c536c9b04f4
:104560009b0e08220a4013430125002b06d10c4a5a
:104570001169012383400b4313610125084a3f233e
:10458000d4542800f0bd0601064dad196960cbe793
:104590000501044949198a60d0e7c04690ad002062
:0845a0000060004140ad002065
:020000040000fa
:1045a80070b504002623c35c0125002b04d17133a8
:1045b800c35c0025012b01d0280070bd7033002298
:1045c800c254c66dc36a013320d0036b01331dd0ba
:1045d8003578002d06d00420305602f0c3fd3e2366
:1045e800e054e9e704f0b4fa05001020305602f070
:1045f800b9fd3d23e0541420305602f0b3fd3c23ae
:10460800e054280004f0a8fa0125d5e73578002df4
:1046180006d00420305602f0a5fd5b23e054cbe71a
:1046280004f096fa05007068431c0ad1b068431c70
:104638000dd1f068431c10d1280004f08dfa012533
:10464800bae740b202f08efd5823e054eee740b2dc
:1046580002f088fd5923e054ebe740b202f082fdf6
:064668005a23e054e8e7cc
:020000040000fa
:02466e00fee765
:020000040000fa
:10467000f0b583b0040002f02bf9051e08d00788be
:1046800074227a432a4b9b1870331b78012b01d07c
:1046900003b0f0bd742216007e43254b981901909b
:1046a0000300703300221a70fff77eff0028efd05e
:1046b0001f4b9b191b6ea34206d0330020331c4aac
:1046c000d218002001240ee0194b9b191900643107
:1046d00000220a709a66013a1a66723302321a7020
:1046e000ebe720331a001368002b0dd099696e6a2e
:1046f000b142f6d1597d0129f3d1196a116058757b
:104700001c7518621870eee7019800f04efa7423d9
:104710007b43074fff187b68013b7b6000237b7066
:10472000012252426a62eb70703701333b70afe78f
:044730006cac00204d
:020000040000fa
:10473400f0b40125ed070c005c402c40a446ae0a01
:104744004c18df18f4423dd2f74245d2640d4cd0e8
:104754007f0d3cd0e41bc9022943cf0adb022b4363
:10476400db0a0600b61a9f4104d2013cb6197f4108
:10477400b6185f416812800d241838dd0018844291
:1047840025d8e80c0021b6197f41b61a9f4103d3fe
:1047940040414941f7d304e0b6185f41001849414c
:1047a400f1d32405b6197f41b61a9f4105d3374387
:1047b400c20717430022012f504161416246114351
:1047c400f0bc70470cd100280ad1f74208d200206f
:1047d400c143490d0905f1e7002a01d1f74206d08a
:1047e4000020c143090dc904eae77f0df8d0002079
:0447f4006146e5e74e
:020000040000fa
:1047f800f0b5ce46474680b583b006002b4b9846a9
:10480800ff270de002232b776888f3685b682a6925
:10481800e968984742e02a002100300002f0eaf8ef
:10482800b56a002d3cd02b7f012b39d1ac69220a07
:104838003a4013019b1a9b00434422003a4054001b
:10484800a418e400db69e41873696269934207d02d
:1048580020001430f3685b6900219847636973612d
:104868002b7d022bced0042b0ed102232b776b6825
:104878009c462a69e9686888ab680093f3689b6876
:1048880099466346c84709e0012b09d102232b77d3
:104898006888f3681b68aa68696898470028bad0ce
:1048a80003b00cbc90469946f0bdc04650af0020fe
:020000040000fa
:1048b800f0b583b005000c001700019308ab1e7813
:1048c80002f07efe002845d0244b1b785bb2022bf9
:1048d80006d00124644203f06bfa200003b0f0bd57
:1048e800002c31d0ac4232d31d4b1b78002b0bd09f
:1048f80001201c4b1a78002a08d0203301303228b6
:10490800f8d101246442e6e70020154b01221a7011
:1049180000225a701a755a759e705c60df60019aa1
:104928001a61641b9c60104a12880404240c100449
:104938000443dc61013293b20c4a934202d00a4a22
:104948001380c8e70123fae701246442c3e701247e
:104958006442c0e701246442bfe7c046c0af0020fc
:10496800c8a20020e8a20020d6b20020ffff000065
:020000040000fa
:1049780070b50400056d04f0ebf806002b78002be9
:104988001cd16868431c2cd1a868431c2fd1e86847
:10499800431c32d12869431c35d1e36a013338d12d
:1049a800236b01333cd1300004f0d6f82823e35cb4
:1049b800002b02d13d330122e25470bd5a23e15c41
:1049c8000420285603f08cfbe36a013302d1236be1
:1049d8000133e8d05b23e15c0420285603f080fb18
:1049e800e1e75423e15c40b203f07afbcce75523be
:1049f800e15c40b203f074fbc9e75623e15c40b2c6
:104a080003f06efbc6e75723e15c40b203f068fb96
:104a1800c3e75823e15c1420285603f061fbbfe785
:0e4a28005923e15c1820285603f05afbbbe727
:020000040000fa
:104a360010b588293cd015dc81294dd003dc8029ae
:104a46004ad0002010bd822911d08429f9d11968d5
:104a5600002a26d00a1d1a6000228b5e0360db172f
:104a6600436011e0a02930d010dc9029e9d1196803
:104a76000724002a2ed00919a1430a0008321a6019
:104a86000b684c68036044600120dbe7c02901d055
:104a9600f029d6d11a68111d196013680360002326
:104aa600dee70c1d1c600b689bb203604260ebe7ff
:104ab6001968002a04d00a1d1a600023cb56cde7d8
:104ac6000c1d1c600b68dbb2efe71a68111d19603c
:104ad6001368c3e70731cfe71968002a03d00a1d18
:0e4ae6001a600b68bae70c1d1c600b68dde758
:020000040000fa
:104af40030b405004d400124e407254042004b003a
:104b0400120e32d01b0e3cd0ff2a33d0ff2b3fd0e5
:104b1400d21800022043000a09022143090ac4b240
:104b24004c43000ac3b24b43000a4843210a5b18b2
:104b3400190a091801d44900013a080a7f3a2adb04
:104b4400fe2a0fd2d2051c43240601d0012421439e
:104b5400c9b280295041802901d14008400028432e
:104b640030bc7047ff20c005f9e71b0eff2b0ad0ad
:104b74002800f5e7400206d1ff2bf3d1490202d108
:104b8400f0e7ff2af4d17f2000010c300005e7e7ad
:104b94004902f8d1e6e743020132e9d15b1202335c
:064ba400e6d9d805e4e7a4
:020000040000fa
:104baa0070b504002623c35c002b00d070bdc56d10
:104bba00c36a01331fd0036b01331cd02b78002b3f
:104bca0006d03e23c15c0420285603f088fa1be075
:104bda0003f0bdff06003d23e15c1020285603f0d8
:104bea007efa3c23e15c1420285603f078fa300060
:104bfa0003f0b1ff08e02b78002b09d05b23e15cbe
:104c0a000420285603f06bfa71230122e254cde7ff
:104c1a0003f09dff06006868431c09d1a868431c7d
:104c2a000cd1e868431c0fd1300003f094ffebe786
:104c3a005823e15c40b203f052faefe75923e15cf2
:104c4a0040b203f04cfaece75a23e15c40b203f0bd
:044c5a0046fae9e746
:020000040000fa
:024c5e0070479d
:020000040000fa
:104c6000254a137801210b431370110001224b6870
:104c70001a42fcd1204a214bd361214b1362214bb4
:104c8000136301219160204b5363204b1361204b30
:104c900000201881998201311984013199850131ef
:104ca00019874031053058520c31013058520c31bf
:104cb000013058520c31013058520c3101305852e9
:104cc0000c31013058520c31013058520c31013046
:104cd00058520c31013058520c31013058520c31bd
:104ce00001305852137802210b4313701100022235
:104cf0004b681a42fcd1704700280040acaaaaaa0f
:104d0000aa2aaaaafef70000aa000100fffe0000de
:044d10001cab0020b8
:020000040000fa
:104d14004b005b0d264af0b55c1e944238d8254af8
:104d24009e1825d4332e22dc234a9b1827d4234ae9
:104d3400da400700214b9743f3403c000f00024048
:104d44009f4319403d000a430fd0002f0dda202362
:104d54005b42f11824d480204003c8400200802123
:104d64004903f1400b00a4185d4120002900f0bd67
:104d74000020002901db0021f9e71149f7e720228f
:104d84000e4b921b934001225242f2401a43d0e749
:104d9400002becd10022c90fcb0710001900e6e765
:104da40020218020891b400388400200d7e7c046a9
:104db400fd07000001fcffffe1fbffffffff0f0009
:044dc4000000f0bf3c
:020000040000fa
:104dc800f0b54b6889b005930b6807009c460793bc
:104dd800cb680c008e68049310685168cd0f44d0de
:104de8000b000200002150429941059b002b08db73
:104df8000222634693430793002d02d1079b5a076b
:104e08002ad5731e07aa02920a22009301920b0068
:104e18000200200000f002fe002d02d1079b5a0775
:104e28001ed501382d23002d00d1023b049a1354be
:104e380023695a1e049b121a1918079b38000093fd
:104e4800330000f081fc7b68db0503d5636898427a
:104e580000da180009b0f0bd1b07db0ff31ad1e721
:104e68001b07e5d501382023e0e7059b002bbfdab7
:024e7800c4e78d
:020000040000fa
:024e7a0070477f
:020000040000fa
:104e7c00f8b5002847d1274b1b78002b46d1254b82
:104e8c0001307022985401329854013298541870a1
:104e9c000e685e61ca6a9a618a6ada6100221a62d5
:104eac004c69dc608c699c605a6098840124644273
:104ebc009c6225301a545a704868d8628d681d63fc
:104ecc00cf685f630f699f63cf69df640f6a1f65eb
:104edc004f6a5f65096bd96564215a549a66da6624
:104eec000d4bff321c705a709a70da70431c01d053
:104efc006b1c03d1f368074908489847054b0222fd
:104f0c001a740020f8bd01204042fbe7012040420a
:104f1c00f8e7c0466cac0020bcaf0020b93c0000e8
:020000040000fa
:104f2c00002941d010b4041c4c40a446012300229b
:104f3c00002900d54942002800d5404288422cd394
:104f4c0001242407a14204d2814202d209011b018f
:104f5c00f8e7e400a14204d2814202d249005b008e
:104f6c00f8e7884201d3401a1a434c08a04202d3f6
:104f7c00001b5c0822438c08a04202d3001b9c0837
:104f8c002243cc08a04202d3001bdc082243002899
:104f9c0003d01b0901d00909e3e7101c6446002c5f
:104fac0000d5404210bc704701b5002003f004fe50
:104fbc0002bdc0460029f7d003b5fff7b3ff0ebc06
:084fcc004243891a1847c04650
:020000040000fa
:104fd40070b504000d1e00d1214d224a1368022130
:104fe4008b431360204b0022da609a601d4ad36918
:104ff400002bfcd1002c30d021686b080020994292
:1050040022d84900280000f015f9164a13681749f8
:105014000b4013601168a36865682b430b4313604e
:105024000138ff2800d9ff20c0b20e4b18735a680c
:1050340007218a435a605a68e1680a435a601a0091
:10504400d369002bfcd10120064a136802210b43cb
:105054001360d369002bfcd170bd0020f4e7c04677
:10506400006cdc02000c00421cb00020ffffffcfec
:020000040000fa
:1050740070b50400b8229201002103f033fb204aea
:10508400936901210b439361110001228b691a4238
:10509400fcd01b4b9a6902210a439a6119480460a7
:1050a4002104090c184d2943a02299509022520141
:1050b400a21842601204120c2a43b0215a509022c2
:1050c4009201a218c2601204120c802189050a43bd
:1050d400c0215a50b42292019446644404612404c9
:1050e400240c812252051443f0229c509a69bf3942
:1050f4008a439a61190001228b691a42fcd170bd5e
:0c510400001c0042d4b10020000040a0bc
:020000040000fa
:10511000f0b5d6464f464646c0b582461e4ad36acb
:10512000956a002933d0ab4234d0040001201b4ad9
:1051300094469046184e12e04246d25c9146524642
:10514000013a4f4617540133326b93429241134058
:10515000884214d2421c0234ab4211d01000104ad3
:10516000576807223a40012ae6d15a006746bf5cd9
:10517000277001326746ba5c62700133e4e71d00b4
:10518000054bdd621cbc90469946a246f0bd1d0051
:105190000800f5e70020f3e7d0ae0020407b0020b8
:0451a00000080042c1
:020000040000fa
:1051a40030b405004d400124e407254042004b0083
:1051b400120e26d01b0e34d0ff2a2dd0ff2b35d053
:1051c400d21a000220430902214343084908a00dd2
:1051d4005b1a02d2013a5b005b185b008b4200d37e
:1051e4005b1a4041f9d37f3222ddff2a06d2d20571
:1051f400c91a8b425041284330bc7047ff20c00578
:10520400f9e71b0e03d0ff2b12d1490210d07f20e7
:1052140000010c300005efe74002f8d1ff2bedd17f
:10522400f5e7ff2aead14002f1d1e7e74902eed1de
:045234002800e1e786
:020000040000fa
:10523800002934d00123002210b488422cd3012441
:105248002407a14204d2814202d209011b01f8e7d6
:10525800e400a14204d2814202d249005b00f8e78f
:10526800884201d3401a1a434c08a04202d3001bbb
:105278005c0822438c08a04202d3001b9c082243ee
:10528800cc08a04202d3001bdc082243002803d02c
:105298001b0901d00909e3e7101c10bc704701b5d0
:1052a800002003f08bfc02bd0029f8d003b5fff7fe
:0c52b800c1ff0ebc4243891a1847c046d3
:020000040000fa
:1052c40070b504008569036b002b07d13533c35ccb
:1052d4000026012b0bd134330022c2542e78002e29
:1052e40007d00420285601f03fff3a23e054300051
:1052f40070bd03f02ffc06006868431c0dd1a8683c
:10530400431c10d1e868431c13d12869431c16d1ef
:10531400300003f023fc0126e9e740b201f024ff4a
:105324003623e054ebe740b201f01eff3723e0548c
:10533400e8e740b201f018ff3823e054e5e740b253
:0a53440001f012ff3923e054e2e704
:020000040000fa
:02534e007047a6
:020000040000fa
:105350001e4b1f4a1a601a229a81c02292025a607a
:105360001a00d369002bfcd1184a136802210b43a1
:105370001360d369002bfcd1164b00221a629a628b
:10538000da6234215a5408315a549a630021da8778
:105390001a609a60da60197519779a610b4b5a682e
:1053a00007231340012b0ad00a4b802252011a63b3
:1053b0001a61064b80229a757c3a9a757047054ba4
:1053c000802212011a631a61f3e7c0460008004206
:0853d00004211040d0ae0020c2
:020000040000fa
:1053d800f8b51e4b1b7d002b37d01c4a93685168cb
:1053e8001b4a127ed2071dd599421bd91849072698
:1053f800164a944617001500012409e03a68d25c61
:105408000a85013368680a7e22420bd0984209d97e
:105418004a683240012af1d1624612685800825a1d
:105428000a85eee7094a936052689a420dd8074bfd
:1054380000221a755a60064a01211175db68002b93
:1054480003d0024b1869db689847f8bd8caf002081
:04545800000400420a
:020000040000fa
:10545c0070b501f0f1fa051e09d0048863001b1920
:10546c005a011a4b9b183c331b78012b00d070bd92
:10547c00164b9e1833003c3300221a703000fef796
:10548c00c3ff0028f3d001222900300001f074fd85
:10549c0000222900300001f06ffd3000fff766faa2
:1054ac000a4a61000b195b01d3189868013898609f
:1054bc000020587001235b42eb60e8700c1964010a
:1054cc0012193c3202331370d1e7c046e0ac002015
:020000040000fa
:1054dc0010b51c4b1a78062a06d893001a4ad358d2
:1054ec009f46184b01221a7010bd164b5b78002b8f
:1054fc00fad0144b02221a70f6e702f08dfd114b14
:10550c0003221a70f0e70f4bdb78002becd00d4b1d
:10551c000022da7004321a70e6e703f017fa0b4b2c
:10552c001880084b05221a70dee7084b188802f029
:10553c008bfe044b06221a70d6e7024b01229a709e
:10554c001a70d1e7c4b2002070820000b0b2002003
:020000040000fa
:10555c00f0b5d6464f464646c0b599460401201aca
:10556c00c0012430194c8446a444142398460127c6
:10557c0009e001235b429a46d04461339a46d444f5
:10558c004346002b1cd0654600240b2610002041fe
:10559c0038404042304009302860080020413840f3
:1055ac004042304009302862484620413840404251
:1055bc003040093028640134043d082ce6d1d8e78a
:1055cc001cbc90469946a246f0bdc046409b0020ac
:020000040000fa
:1055dc0070b5040085692b78002b0cd03a23c15c84
:1055ec000420285602f07afd236b002b02d13533b0
:1055fc000122e25470bd03f0a9fa06006868431c4e
:10560c000cd1a868431c0fd1e868431c12d128693f
:10561c00431c15d1300003f09dfae5e73623e15c1d
:10562c0040b202f05bfdece73723e15c40b202f0e4
:10563c0055fde9e73823e15c40b202f04ffde6e7a7
:0c564c003923e15c40b202f049fde3e7c5
:020000040000fa
:1056580010b582b0002301931a4a118c0f330b4006
:105668003f21545ce4b253540f31525cd2b20192e0
:10567800019a0220920708d512494e22885419012e
:10568800114a5218002111730138019ad20709d51d
:105698000c494e220120885419010b4a5218002146
:1056a800117301301901084a52185268002a04d0af
:1056b800054a531899685b689847024a3f23d454af
:0c56c80002b010bd0060004190ad002059
:020000040000fa
:1056d40010b51c4b1a78052a0ad893001a4ad358d5
:1056e4009f46184b80221a715a719a717f3a1a7028
:1056f40010bd144b5b78002bfad0124b02221a70a7
:10570400f6e7104b03221a70f2e70e4ca379627984
:1057140021790020fff720ff04232370e8e702f03b
:1057240017fc084b05221a70e2e7064bdb78002bc6
:10573400ded0044c0023e37002f0c6fc0123a37006
:0c5744002370d5e7409b0020608400002b
:020000040000fa
:10575000f0b51d00012389b014000e9a06001a400e
:105760000391029201d1a5420ad822000399300088
:1057700002f023faa54203d82500280009b0f0bda5
:105780002f1b01973a00102f00d91022202104a8c6
:1057900002f0aaff019b0f2b0ed80f2204a93a405a
:1057a000300002f00afa029b002be6d12200039996
:1057b000300002f002fae0e7102204a9300002f003
:0a57c000fcf9019b103b0193e4e7a4
:020000040000fa
:1057cc00f0b5c64600b580460e000300013b002034
:1057dc001f2b28d8002929d0154ac423d458e402f9
:1057ec00e40e00250027e0000019c000114bdb6817
:1057fc0018184822310002f067ff48360123a340f5
:10580c001f430134e4b22300203b5a1e93415b42f8
:10581c001c400135edb2a845e5d1bff34f8f044aca
:10582c00d023d750012004bc9046f0bd0020fae7ed
:08583c00001c0042d4b1002061
:020000040000fa
:105844000eb410b583b000280cd1174b1b785bb293
