:020000040000fa
:10000000f0ff0020712500009331000083370000cd
:1000100000000000000000000000000000000000e0
:100020000000000000000000000000006b12000053
:1000300000000000000000006b1200006b120000c6
:10004000a15400006b12000045480000ad380000cc
:100050006b1200006b1200006b12000019320000de
:100060006b120000710d0000e5130000453d00001b
:10007000f13c000000000000000000006b120000d6
:10008000000000006b1200006b1200006b120000f9
:10009000d1550000c95500006b1200006b12000022
:1000a0006b1200006b1200006b1200006b1200005c
:1000b0006b1200006b1200006b1200006b1200004c
:020000040000fa
:1000c000f8b5c046f8bc08bc9e467047f93e000033
:1000d000f8b5c046f8bc08bc9e467047d13e00004b
:020000040000fa
:0800e000bc1d0000010000003e
:020000040000fa
:1000e80010b5a14b1a78182a0bd893009f4ad358f9
:1000f8009f460321002001f0e9fc9b4b5860012238
:100108001a7010bd984b5868431c03d1964b18229f
:100118001a70f6e7944c22000c32954904f04cfa18
:1001280005232370ede7182004f018fc05f04cf9be
:100138008d4b06221a70e4e78b4b9b68013303d181
:10014800894b18221a70dce705f012fa002803d14f
:10015800854b07221a70d4e7002005f00ffa05f046
:100168003bf9814b17221a70cbe77f4b1b7b002b87
:1001780005d005f031f97c4b08221a70c1e705f06b
:10018800f7f90028bdd0002005f0f8f905f024f9aa
:10019800754b17221a70b4e704f0a6ff724b0922b8
:1001a8001a70aee7182004f0f1fb05f00df96e4b5c
:1001b8000a221a70a5e76c4b9b68013303d16a4b7e
:1001c80018221a709de705f0d3f9002803d1664b71
:1001d8000b221a7095e7002005f0d0f905f0fcf81d
:1001e800614b17221a708ce75f4b1b7b002b05d0e5
:1001f80005f0f2f85c4b0c221a7082e705f0b8f9aa
:10020800002800d17de7002005f0b8f905f0e4f8f2
:10021800554b17221a7074e704f072ff524b0d22e7
:100228001a706ee70121182004f022fd05f0ccf8c1
:100238004d4b0e221a7064e74b4b9b68013303d178
:10024800494b18221a705ce705f092f9002803d18f
:10025800454b0f221a7054e7002005f08ff905f07e
:10026800bbf8414b17221a704be73f4b1b7b002b07
:1002780005d005f0b1f83c4b10221a7041e705f0a3
:1002880077f9002800d13ce7002005f077f905f060
:10029800a3f8354b17221a7033e7334b5b7b002bdf
:1002a80000d12ee7304b11221a702ae7182004f0eb
:1002b8003dfb05f089f82c4b12221a7021e72a4bd6
:1002c8009b68013303d1284b18221a7019e705f0ef
:1002d8004ff9002803d1244b13221a7011e700208c
:1002e80005f04cf905f078f81f4b17221a7008e74b
:1002f8001d4b1b7b002b05d005f06ef81a4b142202
:100308001a70fee605f034f9002800d1f9e600205d
:1003180005f034f905f060f8134b17221a70f0e66f
:1003280004f0d6fe104b15221a70eae603f030fdf1
:100338000d4b16221a70e4e60b4b01229a730f320a
:100348001a70dee6084c606803f0ccf80123a3734a
:100358000f332370d5e6044c606803f0c3f801231b
:10036800a3730f332370cce6ac87002084370000da
:04037800f54f00003d
:020000040000fa
:10037c00f0b5d646474680b587b0049005910392f8
:10038c00029311ab1e78109b002b33d001235b42e0
:10039c00109a136003f04afd051e2bd0012e10d0cd
:1003ac00022e15d0082e13d0029b002b22d0039bbb
:1003bc00002b1fd00f9b002b1cd00e9b002b0dd1a4
:1003cc0018e00f9b002b15d00e9b002b06d111e0d3
:1003dc00029b002b0ed0039b002b0bd02f683b01f4
:1003ec00db1b9b00754a92469a44504602f086feef
:1003fc00002804d107b00cbc90469a46f0bd2b687f
:10040c009c461b0162469b1a9b006c4ad3185c6a83
:10041c00186a002800d1cce0217823002c3300226c
:10042c0000290ad00132904200d1c2e01c002c33ca
:10043c0019002c3909780029f4d1012323700023e9
:10044c00a3622b681b061b0c614609016046091a46
:10045c0089005a484118888d00040343ff2002404c
:10046c001a4322628a8d013292b2554b9a422ed097
:10047c0063461b0161465b1a9b005049cb189a8559
:10048c00059b63800e9b63600f9ba360039be360e3
:10049c00029b2361049ba36100232422a354233acf
:1004ac00227763752675109b226a1a6053469b6ae5
:1004bc00002b0ed03b01db1b9b00404ad3189b6ae0
:1004cc00002b56d09a6a002a4fd11a0050e0012214
:1004dc00cee753469c623b01db1b9b00374ad3188b
:1004ec005b696a6993420fd0280014303b01db1b17
:1004fc009b00324a904698444346db685b69002176
:10050c00984743466a695a6102232377012e34d0f7
:10051c00022e40d063682269e16860883e01f61bb8
:10052c00b600264dae19f668a5680095b668b047ba
:10053c0000281ed101235b42109a13603b01db1b88
:10054c009b001e4ad318db681b6998472423e05490
:10055c00e35c5a4253415a4202231340013b6375f8
:10056c00504604f065fe04e01a00936a002bfbd1a0
:10057c009462504602f088fe3ce760883b01db1b2e
:10058c009b000e4ad318db681b68a2686168984709
:10059c000028eed1cee760883b01db1b9b00074aad
:1005ac00d318db685b682269e16898470028e0d1c2
:1005bc00c0e7504602f068fe1ce7c046808600206b
:0405cc00ffff00002d
:020000040000fa
:1005d000ec8700201c00000000000000b088002014
:1005e0001000000000000000ec8600202c0000003d
:1005f00000000000c088002008000000000000008b
:10060000248800201800000000000000588400200a
:10061000580000000000000044870020280000006f
:1006200000000000f48200209000000000000000a4
:1006300040820020b4000000000000007888002004
:1006400010000000000000003c88002014000000a2
:1006500000000000f1880020010000000000000000
:10066000188700202c00000000000000c88800202f
:100670000800000000000000988800200c00000026
:1006800000000000f28800200200000000000000ce
:10069000bc860020300000000000000080810020a7
:1006a000c0000000000000000085002040000000a5
:1006b00000000000407b0020400600000000000019
:1006c000f688002002000000010000000100000088
:1006d00040850020c00000000000000008880020c5
:1006e0001c00000000000000f883002060000000f3
:1006f00000000000808600203c0000000000000098
:10070000848300207400000000000000e0880020c6
:100710000400000000000000a48800200c0000007d
:1007200000000000d0880020080000000000000049
:10073000405b002000200000000000000086002038
:1007400040000000000000006c8700202000000036
:100750000000000040860020400000000000000073
:1007600000000020405b000000000000f88800202e
:100770000100000000000000f488002001000000db
:10078000000000008c870020200000000000000016
:10079000ac870020200000000000000088880020b6
:1007a0001000000000000000e488002004000000a9
:1007b00000000000d88800200800000000000000b1
:1007c000cc8700202000000000000000508800209e
:1007d0002800000000000000f08800200100000058
:1007e00000000000e8880020040000000000000075
:1007f000b08400205000000000000000ec880020c1
:1008000004000000000000000000000000000000e4
:020000040000fa
:1008100070b56b4b1a780c2a06d89300694ad358e6
:100820009f46674b01221a7070bd654b1b7a002be7
:10083000fad0634b02221a70f6e78020800404f09d
:10084000e9fc002803d15e4b03221a70ece78020fc
:10085000800404f04ffe5a4b0c221a70e4e704f0b7
:100860004df9430703d1564b04221a70dce704f01c
:1008700045f9c0434307f6d0514b0c221a70d3e719
:10088000012004f0c7fc002803d14d4b07221a7049
:10089000cae7012004f02efe494b05221a70c3e777
:1008a000002004f069fa002803d1454b07221a7092
:1008b000bae7002004f060fa414b187306221a7060
:1008c000b2e73f4c257bea005219d2003e4b9c46d2
:1008d00064440021200004f01ffd220029000020b4
:1008e00001f0e0fd002803d1354b0c221a709be784
:1008f0003649374bcc18207b482202f031fe0723c3
:10090000237091e7102004f085fc002803d12c4bc4
:100910000a221a7088e7102004f0ecfd284b082208
:100920001a7081e7012004f027fa002803d1244b34
:100930000a221a7078e7012004f01efa204b58733f
:1009400009221a7070e71e4c657bea005219d2002a
:10095000204b9c4664440021200004f0ddfc220072
:100960002900012001f09efd002803d1144b0c2228
:100970001a7059e71849194bcc18607b482202f0cd
:10098000effd0a2323704fe7012003f073fb0c4bac
:100990000b221a7048e70a4b5968012002f0f6fc56
:1009a000002803d1064b0c221a703de7044b0122ac
:1009b0005a721a7038e7024b01225a721a7033e7e2
:1009c00000000020dc4700000e0900000e09002096
:1009d000f2f6ffff0e1b00000e1b0020f2e4ffffeb
:020000040000fa
:1009e000674b5b685b009b0a664a93630023537501
:1009f000110004228b691a42fcd162491022cb6893
:100a00001a42fcd05f4a137d80210b4313755e4b65
:100a10005e4a9a829a7d01210a439a7500229a6160
:100a200004321a615a4b5b4a1a62190004224b685d
:100a30001a42fcd1564b584a5a62190008224b6898
:100a40001a42fcd1524b554a9a62190010224b6847
:100a50001a42fcd14e4a88234021d150100048311f
:100a6000402243581a42fcd0494a8c234021d1509d
:100a700010004c31402243581a42fcd0444a902383
:100a80004021d15010005031402243581a42fcd02e
:100a90003f4aa0234121d15010005f3140224358ea
:100aa0001a42fcd03a4ac8234121d1501000873164
:100ab000402243581a42fcd0354acc234121d15020
:100ac00010008b31402243581a42fcd0304ad023c8
:100ad0004121d15010008f31402243581a42fcd09e
:100ae0002b4ad4234121d150100093314022435846
:100af0001a42fcd0264ae8234121d1501000a731e8
:100b0000402243581a42fcd0214af0234021d150c0
:100b10001000b031402243581a42fcd01c4af8233e
:100b20004021d1501000b831402243581a42fcd025
:100b3000174a88235b004021d15010001900402241
:100b400043581a42fcd0124a8c235b004021d150fa
:100b500010001900402243581a42fcd00c4a92233c
:100b60005b004021d15010001900402243581a4226
:100b7000fcd00b4b0b4ada61034b04225a607047de
:100b80002060800000100040001400409e03000020
:100b9000001c0040060101000601030001010100e4
:080ba000000800401e32120c97
:020000040000fa
:100ba800f0b40125ed070f005f405ad48b4200d105
:100bb800824205d950404240504059404b4059402c
:100bc8004e18760ddf187f0d3bd0741c640529d0b4
:100bd800f41b352c26d80e0ddb022b43db0ac90289
:100be8002943c9121700202c1ed2e741e240574082
:100bf800e3415a40a340e3405a4000248018594139
:100c08000ad3b21c520521d0c207012f6241170036
:100c18004008cb0718434908013636054208af415a
:100c280060417141f0bc7047203c06d01f00e7418d
:100c3800e3405f400024012a6741c0186141ebd3bb
:100c4800dfe7002eeed129400020ebe70136310521
:100c58000020e7e7e742e5d10020c143090dc904b8
:100c6800e0e76b400e00871a9e4104d26e40c01b1d
:100c7800b141d21973414e18df18ac0ae642e9d2e5
:100c8800760d7f0d31d0f41b362ccbd8b4460e0d23
:100c9800db022b43db0ac9022943c90a012c32d8db
:100ca80004d1d4075208df073a435b08ef0a6442cd
:100cb800904199411ed0002239424dd1241940411a
:100cc80049410124394204d10134001849413942cb
:100cd800fad06246a24204d9361b013e360589196c
:100ce800a0e7f10ac90700209ce736429ad1002004
:100cf800002197e70200224394d0b842ded20100d7
:100d080020002024e3d1202c13dd203ce2411700f1
:100d1800a240e2405740e3415a40a340e3405a40d2
:100d2800012fbf410137174300227c42984191416e
:100d38000ce01700e741e2405740e3415a40a34026
:100d4800e3405a407c429041994100220f0303d26c
:100d5800013e241940414941013e36054708ac414e
:080d680050417141f0bc7047dd
:020000040000fa
:100d700070b56c4b9b7d002b19d06b4b9c6a694bfb
:100d80005b8b9b0714d5684b2022ff2199540132bd
:100d9000fd399954644a2023d35c5bb2013300d1fe
:100da0008de0614a2023d35c062b00d1a0e070bd0a
:100db0005c4b5b8bdb0707d55b4b2022ff219954f3
:100dc0000132fd399954e5e7564b5b8b5b0707d53c
:100dd000554b2022ff2199540132fe399954d9e70d
:100de000514a2023d35c5bb2032b47d0042b11d094
:100df000022bcfd11369002b05d0908880b200213f
:100e000002f04cffc6e7484b988880b2012102f0ff
:100e100045ffbfe7444a936912699a420dd0424a9e
:100e20009268d05c3f4928228854591c3d4ad369b6
:100e3000002bfcd13c4b9961ace73b4b5b69002b31
:100e40000ed0394b9b885b0001221343354a536215
:100e5000d369002bfcd1344a20330321d15499e7c4
:100e6000304a5168c0239b020b435360d369002b67
:100e7000fcd12d4a20330621d1548be72a4bd96966
:100e80005b69013b8b420cd0264ad369002bfcd115
:100e9000254bda68234d2820285c50540131d96154
:100ea00078e7204a5068e023db0203435360d369ac
:100eb000002bfcd11c4a20330620d054e4e7202329
:100ec0000021d154174a5168c0239b020b43536041
:100ed000d369002bfcd1134b83221a76124b5b6a29
:100ee000002b00d163e7104b5b6a200098475ee758
:100ef0001300002220215a5401315a54094b8332e5
:100f00001a761900533a4b8b1340102bfbd1064b2a
:100f10005b6a002b00d14ae7034b5b6a20009847cd
:0c0f200045e7c04600040042ec860020bb
:020000040000fa
:100f2c0010b5684b1a780d2a0bd89300664ad35823
:100f3c009f460321002000f0c7fd624b5860012240
:100f4c001a7010bd5f4b5868431c03d15d4b0d22ca
:100f5c001a70f6e75b4c22000c325c4903f02afb5a
:100f6c0002232370ede7574b5b7b002be9d0554bed
:100f7c0003221a70e5e7fd21442003f0c3fe04f0c0
:100f8c0021fa504b04221a70dbe74e4b9b6801335d
:100f9c0003d14c4b0d221a70d3e704f0e7fa00286a
:100fac0003d1484b05221a70cbe7002004f0e4fa79
:100fbc0004f010fa434b0c221a70c2e7414b1b7b16
:100fcc00002b09d004f006fa04f00cfa3d4b002279
:100fdc001a7306321a70b4e704f0c8fa0028b0d0bd
:100fec00002004f0c9fa04f0f5f9364b0c221a7003
:100ffc00a7e704f0c7fa0028a3d0324b07221a70d7
:10100c009fe7442003f0e2fe04f0dcf92d4b0822ac
:10101c001a7096e72b4b9b68013303d1294b0d2299
:10102c001a708ee704f0a2fa002803d1254b09228e
:10103c001a7086e7002004f09ffa04f0cbf9214bdc
:10104c000c221a707de71f4b1b7b002b09d004f080
:10105c00c1f904f0c7f91b4b00221a730a321a703b
:10106c006fe704f083fa002800d16ae7002004f04f
:10107c0083fa04f0aff9134b0c221a7061e7144c8d
:10108c00208802f067ff608803f096fc0d4b0b2262
:10109c001a7056e70b4b01229a7301321a7050e703
:1010ac00084c606802f01cfa0123a3730f33237001
:1010bc0047e7044c606802f013fa0123a3730f3363
:1010cc0023703ee7cc8700206846000011500000da
:0410dc005088002018
:020000040000fa
:1010e00008d1002806d1f54204d801d3002a01d145
:1010f0006d0d09d10020c143090dc904f0bdf9d11e
:101100001242f7d1640df5d00020c14349054908ca
:10111000a6e000206146f0bdf0b50127ff070e00f4
:101120005e403e40b446be0a4c18dd18f442d7d2a9
:10113000f542e4d2640decd06d0dead06419c90219
:101140003943460dc0023143db023b43db0a10b496
:101150008e4685b297b26f43140c6c433e0ca419b3
:10116000260c2404bfb227439cb26c43a419190c6b
:101170006943250ca4b249190d04090c6419000c2b
:1011800095b245433e0c76193743bfb2360c150c69
:101190004543ad19a6b2240cad192e0437432e0ccd
:1011a00036199db24543ad19acb22e0c89191d0cf0
:1011b00045436d182e04290c3443704680b295b215
:1011c00045433e0c76193743bfb2360c150c4543e8
:1011d000ad19a6b2ad19240c2e0437432e0c3619c6
:1011e0009db24543ad19acb22e0c89191d0c454377
:1011f0006d182e043443290c75462d0c90b26843ab
:101200003e0c80190604bfb23e43070ca0b23f1843
:10121000120c6a43d019020c80b2240ca4189ab2a2
:101220006a43121914042043120c89181b0c6b43d7
:10123000c91810bc01273d05294203d1b619404108
:101240004941013cff077d0d013d641b0bdb6d0037
:10125000ac4209da240500254208be4168416141db
:0a12600066463143f0bd54e74ee747
:020000040000fa
:02126a00fee79d
:020000040000fa
:10126c0070b50500594c207fc0b2002800d0a7e013
:10127c0000294ad0002d48d0554c666807243440cc
:10128c00012c5ed0514805604260002444618461a9
:10129c0004614e488160002a58d04c4ad3604b4ab6
:1012ac00012111774a4a127e520705d5484a04207b
:1012bc00916a117e0142fbd1454a518b04200143b6
:1012cc005183117e80200143117640498a68c96898
:1012dc00914203d93d48c168891a01613c4949686a
:1012ec00490743d139498969914233d2374a116848
:1012fc00087837498862916901319161002b5ad085
:10130c00334b04229a7501205be0002b59d0002a44
:10131c0057d02f4c666807243440012c0cd02b4836
:10132c00056042600024446184610461002db0d1e9
:10133c00264900208860aee7002943d1dc07eed5b2
:10134c003fe0cc073dd4002be9d0f7e71f4a002142
:10135c00d160a4e71d4a1269002acfd01c4aff2194
:10136c0091621a490a69013a0a61c7e7174a9168fa
:10137c0049089160116949081161d1684908d16027
:10138c00916892698a420ad210490a681288d20579
:10139c00d20d0f4882628a6901328a61aee70b4a2c
:1013ac001269002aaad00a4a0a49916207490a69b5
:1013bc00013a0a61a2e7064b01229a75012000e06e
:1013cc00002070bdcc07b9d5fbe7c04618870020bc
:0813dc0000080042ff010000bf
:020000040000fa
:1013e40070b5504b586a504b9b7d002b54d04e49de
:1013f4004c68072214404b4b5a699d699e680b7eca
:101404005b0757d5896a474bdb68934252d9002c56
:1014140043d1444b5b6899540132434b1b7edb0739
:1014240016d5414b012119753e4b9b68ab4256d9e9
:101434003c4b1b68595d3c4b99620135394b1b6928
:10144400002b01d1b54262d0364bdb68934262d0a7
:10145400344b5a619d61344b1b7e9b0715d5334b2e
:101464001b78002b18d02f4bdb68934211d12d4be6
:1014740000221a772c4907240c752c490a701b6a20
:10148400002b09d0274b1b6a9847284b1b78002b4d
:1014940002d0254b02229a7570bd224b5b68540022
:1014a400e1520132204b1b7edb07d1d51e4b0121bb
:1014b400197508e01c4b1b7edb07c9d51a4b0121ab
:1014c4001975002cb0d0174b9b68ab4213d9154b40
:1014d4001b686900c95a144b99620135aee7114b78
:1014e4001b69002baad0104bff2199620d490b698f
:1014f400013b0b61a2e70b4b1b69002b9ed00a4bef
:101504000b49996207490b69013b0b6196e7074b4d
:10151400012119709ce7044b012199750331197558
:1015240096e7c0461887002000080042f188002092
:04153400ffff0000b5
:020000040000fa
:10153800f0b583b004004a4a107dc0b22c23d35cb6
:10154800dbb2002b00d086e0002800d086e0002c1b
:1015580000d181e02768002f7ed0002900d14149c1
:101568003b018b4205d9fb008b4275d80826032521
:1015780001e010260125080003f03afc0190300034
:1015880003f036fc061c380003f032fc011c301c4a
:1015980001f0f2fa011c019801f0dcfc061c03f0d2
:1015a800c5fb0700421e304b00209a4213d8301c5e
:1015b80002f082fe03f070fb011c301c03f02cffcc
:1015c8008221c90501f0d8fa03f0b0fb4003ff23dc
:1015d8005b0318403843254a136802218b43136084
:1015e800d369002bfcd180b2204b98816368022b11
:1015f80021d01e4a13681e490b406d031d438023ea
:101608005b041d4315605168a368e06803431948eb
:1016180001400b4361680b435360144ad369002ba4
:10162800fcd1124a136802210b431360d369002bc3
:10163800fcd1012010e00d4a13680d490b406d03e1
:101648001d4315605168a368e06803434720814340
:101658000b435360e1e7002003b0f0bd1800fbe73f
:10166800bc8600200024f400fe1f00000010004289
:08167800ff1ffff0b8dfffffc8
:020000040000fa
:101680000122d20703004b403dd430b4431a01d2ab
:10169000c01ac9184b004400240eff2c29d0002c7e
:1016a00024d01b0e20d0e31a182b1ddc0902114395
:1016b000c40d000210435d4219350a00aa40d20948
:1016c000d940451801d36d080234013ce405280acd
:1016d0000121c9072d062a438a4160414100090eb4
:1016e000ff2901d3c00dc00530bc7047c00fc00733
:1016f000fae742001823da41ff2af5d07f200001e3
:101700000c300005f0e7a4465140431a02d2534082
:10171000c01ac9184b00090211431b0e4400240ec5
:10172000ff2c41d0002b10d05b421b19012b10d392
:1017300022d1c30d4002401a10d3db050100400a3c
:10174000c90591415841644670472442fbd10020ad
:10175000f9e7c30d40024900401af4d000210131dd
:101760004000fcd38c4204d95b1adb05400ac01848
:10177000e9e7180ac007e6e7192be4d801330c00a3
:10178000d940dc414c40012c4941c30d00021043bb
:10179000441a01d4a4006408013bdb05200a240696
:1017a0009441584164467047ff2b01d04102cad092
:0a17b0007f2000010c300005c5e7a2
:020000040000fa
:0217ba00704776
:020000040000fa
:1017bc0070b5002841d00468002900d13649630077
:1017cc0099423cd3354b9c423bd8080003f00efbae
:1017dc00051c200003f00afb011c281c01f0b8fbbf
:1017ec00061c2f49281c01f0c5f92e49fff742ffb2
:1017fc00011c301c03f00efe03f096fa05002a4b78
:10180c009c4209d8ff235b00ff209d421cd8fe3868
:10181c00012d19d9680817e07e23ff33984212d89e
:10182c00032836d94000032101f022fc06020321d3
:10183c00280001f01dfc304306e0002028e00020c9
:10184c0026e0002024e019481749a1428941494269
:10185c00174a13680224a3431360d369002bfcd1ed
:10186c00134bd8601a6813480240090611431960db
:10187c001a6802210a431a601a00d369002bfcd1a2
:10188c000b4b10225a831a00d369002bfcd1012078
:10189c0070bd0948d8e7c0460024f40040420f0050
:1018ac0095bfd63300002041801a06007fff000050
:0c18bc0000040042fffffffc01020000de
:020000040000fa
:1018c80010b53f4b1a78072a06d893003d4ad358db
:1018d8009f463b4b01221a7010bd394b5b78002b99
:1018e800fad0374b02221a70f6e703f005fe0128fa
:1018f80006d0334b0022da709a7003321a70ebe785
:101908002f4b0122da709a701a70e5e703f0f4fda4
:10191800022806d02a4b0022da709a7004321a7014
:10192800dae7274b0222da70013a9a701a70d3e785
:1019380003f0e2fd042806d0214b0022da709a70e9
:1019480005321a70c8e71e4b0322da70023a9a7001
:101958001a70c1e703f0d0fd102806d0184b0022fa
:10196800da709a7006321a70b6e7154b0422da70ec
:10197800033a9a701a70afe703f0befd202806d02c
:101988000f4b0022da709a7007321a70a4e70c4bda
:101998000522da70043a9a701a709de703f0acfddc
:1019a800402806d0064b0022da7001329a701a706d
:1019b80092e7034b0622da70053a9a701a708be7a1
:0819c800e4880020984d0000a6
:020000040000fa
:1019d000f0b5de4657464e464546e0b583b08046f4
:1019e00000296ed00024384f0726384b9c469b4672
:1019f0009946009108e03648415549468a60621c84
:101a00000134009991424cd97a683240012a16d0ab
:101a10009d68da6892466a1c19698a4289410a40bf
:101a200092453fd04146095d786830400128e2d1b7
:101a30006d0027484155013500214155dde76246db
:101a40009568d26892466a1c614609698a42894152
:101a50000a40924526d0610001204044405c0002cb
:101a600082464046415c50460143019178683040cf
:101a7000012809d0694609798a46154950464855d2
:101a800059468a60621cbbe7690068460079104dc0
:101a9000aa4668540d0001350199090a504641557e
:101aa000eee7140003f07cfa002802d0064b012276
:101ab0009a75200003b03cbc90469946a246ab46be
:101ac000f0bd0c00eee7c046000c0042008600208e
:041ad000406b002047
:020000040000fa
:101ad40030b5002800d074e03b4a3423d35c012b9a
:101ae40002d00120404230bd1300342298545b7868
:101af4005bb2022b45d1344b1b78002b41d0324bc7
:101b04009b78002b44d1304b5b68002b47d12e4b84
:101b14009d68002d4ed0db6918005c7918330022d3
:101b2400002c07d00132aa4244d01800183344795b
:101b3400002cf7d1012343710b0702d5224b01245a
:101b44009c70214c636801336360a38d1b04ff25e3
:101b54002a401a430261a38d01339bb21b4a93426c
:101b640026d0194a938534230124d45400230360d6
:101b7400042421430171126942618360c3600069d6
:101b8400b1e7114a34230121d15401204042aae78c
:101b94000d4a34230121d15401204042a3e70b070d
:101ba400b5d5094a34230121d154012040429ae792
:101bb4000123d6e7044a34230121d15401204042b1
:101bc40091e7012040428ee780860020ffff00005d
:020000040000fa
:101bd400f0b5ce46474680b583b004000e000192ae
:101be4000278002a63d002228256022a5fd1012998
:101bf40034d0476a002f5ad03a68100aff2528408b
:101c04004100091849012e48411815402d01096960
:101c14006d18e9688a4241d1019a7a767a7e52b285
:101c240001321dd0fb683b613b6a994631002000bc
:101c340003f047f86b68002b34d028239846e35c04
:101c440001334246a354aa686b68494601989847f1
:101c54004346e35c013b4246a35423e0076ac9e7d9
:101c6400226b013202d000233b61dde7e26c116894
:101c7400994210d051688b420bd0916800228b425c
:101c840005d0fa616368db6898473861cce70232b3
:101c940002e0012200e000220132f2e731002000dc
:101ca40003f00ff8002e07d1200001f035fd03b03a
:101cb4000cbc90469946f0bd200001f085fef6e785
:041cc400f883002081
:020000040000fa
:101cc800f0b5d6464f464646c0b50426344da8461c
:101cd800a946334b9a465be04a46126a002a42d02c
:101ce800796a3b6a01209847bb6a01333a6b934291
:101cf8009241134037e05246926a5200e0b22949b5
:101d080088540132240a8c543ce003f053f9244be4
:101d18001b6a002bddd0224b596a3c23204ad35c36
:101d2800002b06d0936b9842d3d3136a00209847b0
:101d3800cfe71b4b9b6b9842cbd1194b1b6a0020fa
:101d48009847c6e7184b1b7e334223d0164b1c8d91
:101d5800a4b2ab6a01332a6b9342924113404246c4
:101d6800d26a9a42b8d00e4ad26a9a42ead00e4a49
:101d7800516807220a40012abdd0094a926ae4b292
:101d880008498c54064a93623423d35c002bbcd197
:101d9800034fd7e71cbc90469946a246f0bdc04603
:0c1da80000860020405b0020000c004280
:020000040000fa
:101db400f8b5374c656b63689b69984760616069e7
:101dc40003f098f8a66ae76a0023020092197b419f
:101dd400a262e362002d51d02d4c3022a35c01336a
:101de400a35402f0b3fb646b002c06d0a368002b51
:101df40003d101250027264e15e0264d00242e0090
:101e040029e0200001f080fda378002b00d1677049
:101e1400e368002b01d020699847746b002cecd048
:101e2400a368002be9d125756575a378002be8d14b
:101e3400e368002be5d0e06902f0e0f9e8e762012d
:101e4400144b9b186a689a60280000f077f90134f3
:101e54002035322c0dd06201b218527d002af6d002
:101e640061010c4a521800215175aa78012aeed159
:101e7400e5e7074930228b5c013b8b5403f0aafb56
:101e8400040000f063fd200003f0a8fbf8bdc04689
:081e940000850020407b0020c6
:020000040000fa
:101e9c00f0b5060085b00f0015001c008b4265d80c
:101eac0001d1824262d82100280003f06ff9390079
:101ebc000090300003f06af9009b21001b1a1a00f5
:101ecc002800039303f056f900900191019bbb424b
:101edc0046d802d1009bb34242d8009b019c039a86
:101eec0001200021f61aa74103f044f9039b002bb3
:101efc002fd0019b009adb0754081c43019b5d0803
:101f0c00039b9c46bd422ed801d1b4422bd8320043
:101f1c003b00121bab41012692185b410027b618ff
:101f2c005f4101235b429c446346002bead180193c
:101f3c007941039a04000d003000390003f00ef9ca
:101f4c00039a06000f0003f015f9241a8d412000a6
:101f5c0029000a9b002b01d01e605f6005b0f0bd0c
:101f6c0000200021c2e7b6197f41dae700200021ea
:021f7c00efe78d
:020000040000fa
:021f7e007047aa
:020000040000fa
:101f800010b5304b06225a6003f002fafef728fd26
:101f900003f0aafa01f0a6fd02f0f2f802f0d0f880
:101fa00002f062fa03f050f802f040fa01f01eff6e
:101fb00001f0c4fd01f01cf802f0c0f901f046fc8c
:101fc000fff7ddff00f080fd01f056fa00f08cfe17
:101fd00002f084ff02f02cf81b49002001f032fbd4
:101fe0001a4c20601a49002000f026fee0601949d2
:101ff000002000f023fb206102f08cff1649002036
:1020000000f004fd60601549002001f00ffda060a4
:1020100002f06cfe02f0e0ff03f07efa03f082fab9
:1020200003f04ef803f07cf803f082fa02f0c4feed
:1020300003f08ef801f06cf903f0b0fa00f0eef85e
:1020400010bdc046004000416c4e00003c8800209e
:102050004047000000430000c055000088540000c5
:020000040000fa
:10206000f0b5ce46474680b583b00125314ca04639
:10207000314a304eff23994616e058002f4f3f5cff
:10208000bc466f466146b97101302c49085cf87155
:1020900001331ae06b4606331b8849460b40138513
:1020a000244b1b7d002b20d1137e2b423dd0a068fa
:1020b000e368984236d05768072038400128dcd0c2
:1020c0001e48c75c6846877101333069834280418e
:1020d00003401848c360506807230340012bd9d13f
:1020e0006b4606331b881385dae703f0cff8114bf4
:1020f0001b68002bbcd0434659681b7f002b08d0bf
:102100000c4b9b699842b3d30a4b1b68032098473a
:10211000aee7084b9b699842aad1064b1b68032087
:102120009847a5e7044b01221a7503b00cbc9046f2
:102130009946f0bd00860020000c0042406b002054
:020000040000fa
:10214000f0b5de4657464e464546e0b585b0814679
:10215000002853d0304b596b83689a4600290cd025
:102160008b6852460392002290469a4548d300223b
:1021700000238b460092019305e08360264b586351
:10218000012034e0e3465e46b66834000025009a3c
:10219000019b12196b41009201935e46b669b446e9
:1021a000002e12d06646b66800210f00009a019bef
:1021b000b6185f41474529d8e4d1039b9e42e1d937
:1021c00060465946009a019b01e0300059464c4652
:1021d000a0618c61002051468a1a4b469a609b6927
:1021e000002b04d04a4691689a68521a9a6005b04a
:1021f0003cbc90469946a246ab46f0bd0020f6e7af
:10220000054b5863816100220120e4e7604659468e
:0c221000009a019bdbe7c046008500201f
:020000040000fa
:10221c00f0b5ce46474680b5bff35f8f62b6304b04
:10222c00c027bf00da59ff24a243c0200243da5171
:10223c0001221a60da592b4d2a40c0210904894623
:10224c000a43da5104221a60da591202120ac02621
:10225c0036063243da5108221a600437da59120270
:10226c00120a3243da5180221a60c22292009f581d
:10227c001d498c463940c0273f0239439950802173
:10228c008900196099580d4049462943995080217d
:10229c00c900196099580902090a0e439e50802200
:1022ac0012011a60c32189005a58a24302435a50a2
:1022bc00802252011a6008315a58a24310435850d8
:1022cc00802252031a605a586046024017435f50ee
:1022dc00802292031a600cbc90469946f0bdc04611
:0c22ec0000e100e0ffff00ffff00ffff2b
:020000040000fa
:1022f800f8b504000378002b33d01023c356022b03
:102308002fd1066ab369190aff252940742251435f
:102318002d4a52182b409d00ed18ed00d368ed189a
:102328001c202856431c0fd06a7f002a1ad11f325e
:1023380002400121914080b2400982231b049c463f
:102348006044c00103f052f96b6ab269934217d036
:10235800200002f079ff256a002d02d06b7d012b49
:1023680024d0f8bd1f2202400121914080b24009cb
:1023780082231b049c466044c00103f039f9e3e75b
:1023880001233375f769200002f05eff6b68002bac
:10239800e1d02626a35d0133a355aa686b683900ee
:1023a80001209847a35d013ba355d4e7280000f01e
:1023b8000df802236b752b696a68e968a868646977
:0c23c8006468a047cde7c0468483002075
:020000040000fa
:1023d400f0b587b0050082693048130aff210b402d
:1023e40074277b43c31811408c006418e400db6835
:1023f400e41823889c465f43c019836a9a423ad002
:1024040001a823000c330200c2cbc2c242cb42c299
:10241400742663465e43214b9e19326d63699b00ab
:102424009b588360726d23699b009b584360f26cd8
:10243400a3699b009b58c36073691b68002198477c
:10244400ab69b36220230022e2541c202056431cb3
:102454000fd0627f002a13d11f3202400121914024
:1024640080b2400982231b049c466044c00103f0ef
:10247400c1f807b0f0bd2023e35c002be5d0bfe733
:102484001f2202400121914080b2400982231b0493
:102494009c466044c00103f0abf8eae78483002063
:020000040000fa
:1024a400f0b5c64600b580460e00151e58d000286b
:1024b40005d001282bd0002004bc9046f0bd294a49
:1024c400a423d458a404a40e002919d0012704e09d
:1024d40001377b1edbb29e4212d9e1000919c90003
:1024e400214b1b6859184822280002f009ffbe42fc
:1024f40006d048350134e4b2402ce9d14446e7e73c
:102504003f231c40174a6933d4500120d4e7154aad
:10251400b423d458a404a40e00291ad00127e1003e
:102524000919c900104b5b6859184822280002f0a9
:10253400e7febe420dd048350134e4b22300403bef
:102544005a1e93415b421c4001377b1edbb2b342ef
:10255400e5d33f231c40034a7933d4500120abe731
:0c2564000020a9e7001c004208880020ad
:020000040000fa
:10257000f8b5294b1b785bb2002b03db264b1b788d
:102580009b072dd5244b1b785b0718d580239b0513
:102590000024214a01201026a52503e004331f4909
:1025a0008b4224d01c6091790142f7d091680e4291
:1025b000f4d115739179012739439171eee78023a6
:1025c0009b05002514491024a526144802e0043375
:1025d00083420cd01d608a681442f8d10e73f6e76e
:1025e00080239b0500210d4a02c39342fcd10c4b72
:1025f00098470c4b984702f053f80b4bff2293433c
:102600000a4a93600a4b98470a4b98470a4b9847e7
:1026100002f00efffee7c04600200040000001204f
:10262000bb170000bb1700000000000000ed00e039
:0c263000893a0000bb170000bb17000037
:020000040000fa
:10263c0070b5002852d12c4b1b78002b51d12a4b52
:10264c0001303d229854013a985418700c685c6023
:10265c0000229a604d68dd608d681d619882c86aa1
:10266c009861086bd8611a625a6228201a544a6b16
:10267c001a65ca68da620a691a634a695a638a690e
:10268c009a63ca691a640a6a5a644a6a9a648a6ab8
:10269c00da648a6bda65db6a013311d1636912493a
:1026ac0012489847104b1b6b013310d10e494b68e5
:1026bc001b680f4898470c4b02229a70002070bd83
:1026cc00094ad06ac0b20b4902f064feeae7064a36
:1026dc00106bc0b2084902f05dfeece701204042ed
:1026ec00ede701204042eae7f88300203f54000068
:0c26fc00294b0000814b0000554b0000f2
:020000040000fa
:10270800f0b505012d4c6419267bf6b22c4d3f27f8
:10271800ec5de4b2e8550f37ed5dad0702d1002559
:10272800002e3bd1264e4e25032777550501234e13
:102738007619023f3773234ead5b6d0533d5c91843
:102748000601204dad19696001011e4d495b09055f
:102758002ed5d21805011b4949198a601949050166
:102768006a5a9205920fd3409bb249194b80144a7a
:102778004021535c02252b435354516c536c9b04ea
:102788009b0e08220a4013430125002b06d10c4a50
:102798001169012383400b4313610125084a3f2334
:1027a800d4542800f0bd0601064dad196960cbe789
:1027b8000501044949198a60d0e7c0468085002090
:0827c800006000414085002083
:020000040000fa
:1027d000f0b583b005000c001700019308ab1e781c
:1027e00001f0d2fe002845d0244b1b785bb2022baf
:1027f00006d00124644202f02bfa200003b0f0bda1
:10280000002c31d0ac4232d31d4b1b78002b0bd0a7
:102810001c4b01201a78002a08d0013020333228be
:10282000f8d101246442e6e70020154b01221a701a
:1028300000225a701a755a759e705c60df60019aaa
:102840001a61641b9c60104a12880404240c100452
:102850000443dc61013293b20c4a934202d00a4a2b
:102860001380c8e70123fae701246442c3e7012487
:102870006442c0e701246442bfe7c04600850020ef
:10288000407b0020607b0020f6880020ffff0000d6
:020000040000fa
:10289000f0b5ce46474680b583b006002b4b984630
:1028a000ff270de002232b776888f3685b682a69ad
:1028b000e968984742e02a002100300001f02cfb33
:1028c000b56a002d3cd02b7f012b39d1ac69220a8f
:1028d0003a4013019b1a9b00434422003a405400a3
:1028e000a418e400db69e41873696269934207d0b5
:1028f00020001430f3685b690021984763697361b5
:102900002b7d022bced0042b0ed102232b776b68ac
:102910009c462a69e9686888ab680093f3689b68fd
:1029200099466346c84709e0012b09d102232b775a
:102930006888f3681b68aa68696898470028bad055
:1029400003b00cbc90469946f0bdc046808600207e
:020000040000fa
:10295000f0b5c64600b52a4b5a6b59691961002a71
:1029600042d09168274b994234d9254b5b690025a9
:102970001c00244a0023a4185d41214b98465b6843
:102980009b6998470027060043461b69834203d989
:102990001d4a0023b6185f41194b196a00230a002b
:1029a00092197b41ab4202d827d1a24225d98e1978
:1029b000134bde61124bdb691b0402d1104b012269
:1029c000da610f4bd86980b25b685b69984704bcd9
:1029d0009046f0bd91680a4b5b6900251c000023fe
:1029e0000a00a4185d41c8e7054b5b6900251c007f
:1029f000044a0023a4185d41bfe7014bdc61d9e71d
:0c2a000000850020ff7f0000ffff0000a9
:020000040000fa
:102a0c0070b50d1e47d0002848d1264c3823012222
:102a1c00e2540b686360db689847e0600026c822cc
:102a2c000023002101f064fb1f4a002301f022fc6b
:102a3c00022200238018594120620423eb56237292
:102a4c0026611a4ba3611a4be36100220023a26298
:102a5c00e36266633023e65463681b680021154803
:102a6c00984763681b69002b02d00e4a108b98475d
:102a7c000c4ce06980b263685b69984763685b687b
:102a8c009847c822d20000210b4802f03ffc0223d9
:102a9c002370200070bd01204042fbe70120404222
:102aac00f8e7c04600850020006cdc02ffff000048
:0c2abc00ff7f0000b51d0000407b0020e3
:020000040000fa
:102ac800f0b5ce46474680b51f4b0022190040316d
:102ad8001a705a609a601a7310338b42f8d11b48e7
:102ae8001b4b58631b4a9a631b4a5a613f260022b4
:102af8009a551a4a5a641a4a94460280124d01217c
:102b080029704d2403221a559955164f5f64164fa4
:102b1800b946078229741a5502279f55134f5f64d7
:102b2800674607842027e9551a559a55104e5e6462
:102b38004e460686302029541a550e4a1a800cbc77
:102b480090469946f0bdc04680850020408500200b
:102b580000600041c08500208181818100058000de
:102b68000904000000048000090800000009800032
:082b780000088000020f0000bc
:020000040000fa
:102b800030b405004d400124e407254042004b00cd
:102b9000120e32d01b0e3cd0ff2a33d0ff2b3fd079
:102ba000d21800022043000a09022143090ac4b2d4
:102bb0004c43000ac3b24b43000a4843210a5b1846
:102bc000190a091801d44900013a080a7f3a2adb98
:102bd000fe2a0fd2d2051c43240601d00124214332
:102be000c9b280295041802901d1400840002843c2
:102bf00030bc7047ff20c005f9e71b0eff2b0ad041
:102c00002800f5e7400206d1ff2bf3d1490202d19b
:102c1000f0e7ff2af4d17f2000010c300005e7e740
:102c20004902f8d1e6e743020132e9d15b120233ef
:062c3000e6d9d805e4e737
:020000040000fa
:022c36007047e5
:020000040000fa
:102c3800f8b5002847d1274b1b78002b46d1254be8
:102c48000130702298540132985401329854187007
:102c58000e685e61ca6a9a618a6ada6100221a623b
:102c68004c69dc608c699c605a60988401246442d9
:102c78009c6225301a545a704868d8628d681d6362
:102c8800cf685f630f699f63cf69df640f6a1f6551
:102c98004f6a5f65096bd96564215a549a66da668a
:102ca8000d4bff321c705a709a70da70431c01d0b9
:102cb8006b1c03d1f368074908489847054b022263
:102cc8001a740020f8bd01204042fbe70120404271
:102cd800f8e7c04684830020e0880020f92200003d
:020000040000fa
:102ce800244a137801210b431370110001224b6809
:102cf8001a42fcd11f4a204bd36113621f4b136346
:102d0800ff21516313611e4b002119810131998202
:102d18000131198401319985013119874031052024
:102d280058520c31013058520c31013058520c3184
:102d3800013058520c31013058520c310130585280
:102d48000c31013058520c31013058520c310130dd
:102d580058520c31013058520c3101305852137806
:102d680002210b431370110002224b681a42fcd156
:102d78007047c04600280040aaaaaaaaffff000080
:042d88008081002026
:020000040000fa
:102d8c0070b504000d1e00d1214d224a136802219a
:102d9c008b431360204b0022da609a601d4ad36982
:102dac00002bfcd1002c30d021686b0800209942fc
:102dbc0022d84900280000f05bf9164a136817491d
:102dcc000b4013601168a36865682b430b431360b9
:102ddc000138ff2800d9ff20c0b20e4b18735a6877
:102dec0007218a435a605a68e1680a435a601a00fc
:102dfc00d369002bfcd10120064a136802210b4336
:102e0c001360d369002bfcd170bd0020f4e7c046e1
:102e1c000024f4000008004218870020ffffffcfb9
:020000040000fa
:102e2c0070b50400b8229201002102f06ffa204a1a
:102e3c00936901210b439361110001228b691a42a2
:102e4c00fcd01b4b9a6902210a439a611948046011
:102e5c002104090c184d2943a022995090225201ab
:102e6c00a21842601204120c2a43b0215a5090222c
:102e7c009201a218c2601204120c802189050a4327
:102e8c00c0215a50b4229201944664440461240433
:102e9c00240c812252051443f0229c509a69bf39ac
:102eac008a439a61190001228b691a42fcd170bdc8
:0c2ebc00001c004208880020000040a01c
:020000040000fa
:102ec800f0b5d6464f464646c0b582461e4ad36a36
:102ed800956a002933d0ab4234d0040001201b4a44
:102ee80094469046184e12e04246d25c91465246ad
:102ef800013a4f4617540133326b934292411340c3
:102f0800884214d2421c0234ab4211d01000104a3d
:102f1800576807223a40012ae6d15a006746bf5c43
:102f2800277001326746ba5c62700133e4e71d001e
:102f3800054bdd621cbc90469946a246f0bd1d00bb
:102f48000800f5e70020f3e700860020405b00203a
:042f5800000c004227
:020000040000fa
:102f5c0030b405004d400124e407254042004b00ed
:102f6c00120e26d01b0e34d0ff2a2dd0ff2b35d0bd
:102f7c00d21a000220430902214343084908a00d3c
:102f8c005b1a02d2013a5b005b185b008b4200d3e8
:102f9c005b1a4041f9d37f3222ddff2a06d2d205db
:102fac00c91a8b425041284330bc7047ff20c005e2
:102fbc00f9e71b0e03d0ff2b12d1490210d07f2052
:102fcc0000010c300005efe74002f8d1ff2bedd1ea
:102fdc00f5e7ff2aead14002f1d1e7e74902eed149
:042fec002800e1e7f1
:020000040000fa
:102ff0001e4b1f4a1a601f4a9a81c02292025a60d1
:103000001a00d369002bfcd1184a136802210b4324
:103010001360d369002bfcd1174b00221a629a620d
:10302000da6234215a5408315a549a630021da87fb
:103030001a609a60da60197519779a610b4b5a68b1
:1030400007231340012b0ad00b4b802252011a6335
:103050001a61064b80229a757c3a9a757047064b26
:10306000802212011a631a61f3e7c046000c004285
:0c3070000421104008a0ffff0086002093
:020000040000fa
:10307c00002934d00123002210b488422cd301241f
:10308c002407a14204d2814202d209011b01f8e7b4
:10309c00e400a14204d2814202d249005b00f8e76d
:1030ac00884201d3401a1a434c08a04202d3001b99
:1030bc005c0822438c08a04202d3001b9c082243cc
:1030cc00cc08a04202d3001bdc082243002803d00a
:1030dc001b0901d00909e3e7101c10bc704701b5ae
:1030ec00002002f089fa02bd0029f8d003b5fff7e1
:0c30fc00c1ff0ebc4243891a1847c046b1
:020000040000fa
:1031080070b504008569036b002b07d13533c35ca8
:103118000026012b0bd134330022c2542e78002e06
:1031280007d00420285601f05ff93a23e054300014
:1031380070bd02f04dfa06006868431c0dd1a868fe
:10314800431c10d1e868431c13d12869431c16d1cd
:10315800300002f041fa0126e9e740b201f044f9f3
:103168003623e054ebe740b201f03ef93723e05450
:10317800e8e740b201f038f93823e054e5e740b217
:0a31880001f032f93923e054e2e7c8
:020000040000fa
:02319200fee756
:020000040000fa
:10319400f8b51e4b1b7d002b37d01c4a9368516831
:1031a4001b4a127ed2071dd599421bd918490726fe
:1031b400164a944617001500012409e03a68d25cc7
:1031c4000a85013368680a7e22420bd0984209d9e5
:1031d4004a683240012af1d1624612685800825a84
:1031e4000a85eee7094a936052689a420dd8074b64
:1031f40000221a755a60064a01211175db68002bfa
:1032040003d0024b1869db689847f8bdbc860020e0
:043214000010004264
:020000040000fa
:1032180010b582b0002301931a4a118c0f330b406a
:103228003f21545ce4b253540f31525cd2b2019244
:10323800019a0220920708d512494e228854190192
:10324800114a5218002111730138019ad20709d581
:103258000c494e220120885419010b4a52180021aa
:10326800117301301901084a52185268002a04d013
:10327800054a531899685b689847024a3f23d45413
:0c32880002b010bd0060004180850020f5
:020000040000fa
:1032940070b5040085692b78002b0cd03a23c15cef
:1032a4000420285601f042fe236b002b02d1353353
:1032b4000122e25470bd02f08df906006868431cd7
:1032c4000cd1a868431c0fd1e868431c12d12869ab
:1032d400431c15d1300002f081f9e5e73623e15ca7
:1032e40040b201f023feece73723e15c40b201f089
:1032f4001dfee9e73823e15c40b201f017fee6e782
:0c3304003923e15c40b201f011fee3e768
:020000040000fa
:1033100070b5194c01235b4223606360a360e360d6
:10332000002323746374a374e374fa25ad0001339e
:103330002a000021114800f059fc206001232a00d6
:1033400000210f4800f052fc606001232a00002198
:103350000c4800f04bfca06001232a0000210a4821
:1033600000f044fce06002f02bf802f039f802f0c3
:1033700047f802f04df870bd648800204955000000
:0c33800055550000615500006d5500001f
:020000040000fa
:10338c00f0b5c64600b580460e000300013b002098
:10339c001f2b28d8002929d0154ac423d458e4025d
:1033ac00e40e00250027e0000019c000114bdb687b
:1033bc0018184822310001f09fff48360123a34022
:1033cc001f430134e4b22300203b5a1e93415b425d
:1033dc001c400135edb2a845e5d1bff34f8f044a2f
:1033ec00d023d750012004bc9046f0bd0020fae752
:0833fc00001c004208880020bb
:020000040000fa
:1034040070b5002830d0194b1a7d0023002a29d129
:10341400164b1860596001321a755c68144b1b7e98
:10342400db0716d5002c17d00023114907260125e8
:1034340007e0c25c0a8501330a7e2a420bd09c4213
:103444000ad04a683240012af3d15a00825a0a85c6
:10345400f1e7002400e01c00044b9c60044b0122b3
:103464009a750123180070bd0023fbe7bc86002079
:043474000010004202
:020000040000fa
:10347800184b01229a6119008b691a42fcd0154b2e
:103488009a6902210a439a61134ada60134ada6197
:10349800bc22753199500c3270399950483a213113
:1034a80099509969c02292000a439a619a69012148
:1034b8008a439a61190001228b691a42fcd1084b90
:1034c80000221a605a609a60da601a615a619a6139
:1034d8007047c046001c0042f31f0000000d007e2c
:0434e8000888002030
:020000040000fa
:1034ec0070b500f0a3fc051e09d004682201121b64
:1034fc009200174b9b1834331b78012b00d070bdf6
:10350c00134eb6183300343300221a703000fff714
:10351c00f5fd0028f3d02900300001f073f93000dc
:10352c00fff7b2fe0a4a21010b1b9b00d318586807
:10353c00013858600020987001235b422b61687140
:10354c000c1ba4001219343202331370d7e7c04697
:04355c008086002045
:020000040000fa
:10356000f0b5c64600b590b000282bd01201073147
:103570000026402398466b465d1e144b144ca4460f
:1035800063449c4609e01b68db005b0d0f2b0dd0ec
:103590000136f6b28918b04214d0cb1fdc7847460a
:1035a0002742f0d01b68db00db08efe70e3bcc5c6a
:1035b000ec540133412bfad16746009b019c3b60e0
:1035c0007c60e5e710b004bc9046f0bd0000002030
:0435d000205b00007c
:020000040000fa
:1035d40010b5194a2c23d35c002b18d01300d269e0
:1035e4001b6a934213d2144b986a14490a8d92b2ff
:1035f4001b6a4c6807212140012909d00e498969b9
:10360400ca5401330c4a1362d2699a4205d010bde0
:10361400094989695c006252f3e7074b00222c21b7
:103624005a54da61054a583111755b6a002beed0a1
:10363400014b5b6a9847eae7bc8600200010004211
:020000040000fa
:1036440010b5002827d1174b1b78002b26d1154c19
:1036540001333422a3540132a35423700868e06078
:103664004a69a2614a68e2618a68a2600a69626280
:10367400ca6822620022a2626260a2702263a385e9
:103684008b6923616361836921000748984702239a
:103694006370002010bd01204042fbe7012040423e
:0c36a400f8e7c04680860020453c00008e
:020000040000fa
:1036b00010b5184b1a78052a06d89300164ad35825
:1036c0009f46144b01221a7010bd124b5b78002be1
:1036d000fad0104b03221a70f6e70e4bdb78002b62
:1036e00003d00c4b05221a70eee70a4b03221a7026
:1036f000eae701f059f8074b586004221a70e3e733
:10370000044b01229a701a70dee7024b01229a7074
:0c3710001a70d9e7d8880020385100005a
:020000040000fa
:10371c0070b50500446a002c2cd0237e012b29d1d6
:10372c0001332376036b01331fd043685b6a9847e0
:10373c00eb6d032b0dd9286b8021490001f006fba2
:10374c00286be3685b00a268a96bc0b2fef7d6ffda
:10375c0010e0286b002101f0f9fa286be368a268ed
:10376c00a96bc0b2fef7caff04e0e168a0686b6801
:06377c005b68984770bd78
:020000040000fa
:02378200fee760
:020000040000fa
:10378400fa0000000c0100000a0100000a01000018
:103794000a0100002e010000400100007201000037
:1037a400a0010000ac010000be010000f001000017
:1037b400200200002c0200004002000072020000ff
:1037c400a2020000b4020000c6020000f8020000d9
:1037d4002803000034030000400300004c030000f1
:0437e4005e03000080
:020000040000fa
:1037e8004b1801225205da4217d25b0d0722d2018b
:1037f8009b1a0fd9ff2b13d2db05ca0fd20713432d
:103808000903020d1143490ac200524100d901318e
:10381800c8187047c80fc007704706d1002804d1e0
:10382800c80f0002ff30c00570470123db070a00fc
:10383800c900400f084398431a4010435b0a1843d5
:023848007047c7
:020000040000fa
:02384a007047c5
:020000040000fa
:10384c00144b01221a601a00d369002bfcd1114bc6
:10385c00802252005a601a00d369002bfcd10d4b08
:10386c004a22da600c4a1a601a00d369002bfcd188
:10387c00084b10225a831a00d369002bfcd1074b3a
:10388c00002221215a5401395a54024b83329a7521
:10389c007047c0460004004216001000ec86002061
:020000040000fa
:1038ac00f8b50024144d154e03e077610134102c4b
:1038bc0020d063001b199b00eb181b899bb2a1b293
:1038cc008b42f3d173690127a7401f42eed06300ee
:1038dc001b199b0008495b58002be6d008006300bd
:1038ec0019198900411849681b199b001b580800bd
:1038fc009847dae7f8bdc0468081002000280040d8
:020000040000fa
:10390c0010b5164b5a6b002a24d0824205d183691c
:10391c00002b17d0002208e01a009369002b1bd053
:10392c009842f9d18369002b05d0846899680919ec
:10393c009960002a08d08369936100230022826178
:10394c00180010bd1a00f4e7044b5a6b92695a63c5
:10395c000123f3e70023f3e70023f1e700850020c0
:020000040000fa
:10396c0070b5040000f00afe002825d0200000f0fd
:10397c0021fc041e1ed043780025002b12d1836835
:10398c00002b01d1436883600c4a3023d35c002b9d
:10399c000cd1200000f0f8f8002323756375013377
:1039ac006370002501f04ef9280070bd2000fef771
:1039bc00c1fbf1e70125f5e70125f5e700850020be
:020000040000fa
:1039cc0070b50500046a002c29d0237e012b26d16a
:1039dc0001332376c36a01331cd0c36d032b0dd97d
:1039ec00c06a8021490001f0b1f9e86ae3685b0024
:1039fc006a6ba168c0b2fef781fe10e0c06a0021bc
:103a0c0001f0a4f9e86ae3686a6ba168c0b2fef73a
:103a1c0075fe04e0e168a0686b689b69984770bd0f
:020000040000fa
:103a2c0010b5134b1b78002b04d10133114a1370c2
:103a3c000f4a1370002815d1002916d00e4b1b7895
:103a4c005bb2002b02d00120404210bd88680a4bab
:103a5c0098604a685a6002241c7009685368984739
:103a6c000020f2e701204042efe701204042ece762
:0c3a7c00f3880020f288002098880020c9
:020000040000fa
:103a880000230e4a10b513600d4a13600d4a1360e7
:103a98000d4a13600d4a13600d4a536213610133d6
:103aa800936000f0cafe00f0c8fe0a4c0a4b9c4224
:103ab80000d310bd08cc9847f8e7c046ec88002032
:103ac800bc840020b8840020b0840020b484002086
:0c3ad800c0840020cc000000d0000000e2
:020000040000fa
:103ae40010b5124b18691a6902218a431a611a69be
:103af4000f4c22401a61014211d01a001b690b437a
:103b0400136111000422cb681a42fcd0074b1b69d5
:103b1400db0504d405490122cb681a42fcd0034bcf
:103b2400044ada6102225a6010bdc04600180040ff
:083b34001e003f000400020026
:020000040000fa
:103b3c00114b124a1a60124a9a81c02292025a60a0
:103b4c001a00d369002bfcd10b4a136802210b43da
:103b5c001360d369002bfcd10a4b00229a61da6105
:103b6c001a622c215a545a621a605a609a601a7559
:103b7c00da60da857047c04600100042042110401c
:083b8c0008a0ffffbc86002029
:020000040000fa
:103b9400f0b583b00190134c63689b6998476061ea
:103ba400606901f0a7f9050000f0d0fc01f012fdf6
:103bb400a66ae76a00232a0092197b41a262e362a3
:103bc40001f00cfd0198fef7b9fa002801d103b009
:103bd400f0bd01f0fffc0400fef7b8fe200001f088
:083be400fdfcf4e70085002060
:020000040000fa
:103bec0070b582b005000e001c1e01d100281ed03d
:103bfc00002a04d101246442200002b070bd0d4b98
:103c0c00d8680023002100f073fafa2292000023f6
:103c1c0000f030fb0100009433002a000020fef776
:103c2c00d1fd0400431ce7d0fff79afee4e7012422
:083c3c006442e1e7008500206d
:020000040000fa
:103c440070b504000378002b1ed00123c356022b49
:103c54001ad1826a9169080aff25284003011b1ab8
:103c64009b000c48c0182b000b405d00ed18ed00c4
:103c7400c369ed182b69994207d0200001f0dcfae2
:103c840029002000fef702fe70bd2900200000f08c
:083c940041f9f5e780860020ec
:020000040000fa
:103c9c0010b5114b00229a61da61104b83321a76ff
:103cac005a680f4c22405a601a00d369002bfcd181
:103cbc0000290cd0084a20330324d4544000084374
:103ccc00064b58621a00d369002bfcd110bd024a76
:103cdc0020230424d454f1e7ec8600200004004295
:043cec00fffffbffdc
:020000040000fa
:103cf00010b5134b9b7d002b1ad0114a137edbb2fb
:103d0000927d52b2002a14db0d4a137edbb2927d03
:103d1000d20703d5db0701d5fff73cfa084a137e2b
:103d2000dbb2927d520703d55b0701d5fff752fc4a
:103d300010bd5bb2002be7da00f01efbe4e7c046e3
:043d4000001000422d
:020000040000fa
:103d440010b5134b9b7d002b1ad0114a137edbb2a6
:103d5400927d52b2002a14db0d4a137edbb2927daf
:103d6400d20703d5db0701d5fef778f9084a137e9d
:103d7400dbb2927d520703d55b0701d5fdf7a2ffa5
:103d840010bd5bb2002be7da00f07af8e4e7c04636
:043d9400000c0042dd
:020000040000fa
:103d9800f8b5114ca3780f251d40a570e07801f007
:103da80027f800f085f900220c4bfdf7b1f9060061
:103db8000f00280001f01cf800f07af90022084be7
:103dc800fdf7a6f902000b0030003900fcf7e8fe09
:103dd800fff706fde060f8bd888800200000b03fce
:043de8000000304067
:020000040000fa
:103dec00104b01221a7019000b8c1342fcd10e4b94
:103dfc001b681a02e021c9000a409b065b0f1a439c
:103e0c00084b9a8500225a700b21597375319970a1
:103e1c001a815a8107229a711a00138c9bb2002bbb
:0c3e2c00fbd17047004400422060800081
:020000040000fa
:103e38000200431e033317d803041b0e16d1ff20bc
:103e480010400d4b9b68984212d243001b18db00b0
:103e58000949c8691818036993420bd143795a1e56
:103e680093415b42184070470020fce70020fae7c6
:0c3e78000020f8e70020f6e7808600201c
:020000040000fa
:103e840010b5104b5b8b0722134000d110bd0e4ab6
:103e9400d3870c4b80221a76793a5a831b7e5b07b0
:103ea40005d5084b04211a8d1a7e0a42fbd1064b14
:103eb4001b6a002bead0044b596a1b6a02209847fc
:0c3ec400e4e7c046000c0042008600202d
:020000040000fa
:103ed00010b5064c2378002b07d1054b002b02d0e0
:103ee000044800e000bf0123237010bdec870020d0
:103ef0000000000000000000044b10b5002b03d0b0
:103f00000349044800e000bf10bdc04600000000a7
:083f1000f08700200000000012
:020000040000fa
:103f1800f8b505000f001600c3681b6998472423ed
:103f2800f054f45c63425c41634202241c40013c4f
:103f38007475366a280001f07df9bb68002b0ad039
:103f48002b6b01332b63fa68bb683100200098475c
:083f58002b6b013b2b63f8bd4c
:020000040000fa
:103f600070b500f049ff0a49fef7f8ff051c094c3f
:103f70000949fef705fe094901f052faa060084917
:103f8000281cfef7fdfd074901f04afae06070bd0c
:103f900000ff7f475088002000002f43000034427c
:083fa00000809d430000444233
:020000040000fa
:103fa8000e4b002221215a5401395a540c4a1368e5
:103fb8001e398b431360d369002bfcd1084a136860
:103fc80002210b431360d369002bfcd1044b102250
:103fd8005a831a00d369002bfcd17047ec86002065
:043fe800000400428f
:020000040000fa
:103fec0070b504000d00002815d00c4a2c23d35cae
:103ffc000020002b00d070bd00f064fd074b9c61cd
:10400c00dd6100221a622c2101205854da85044b00
:10401c0084329a75efe70020ede7c046bc8600209d
:04402c00001000423e
:020000040000fa
:104030000e4b01221a6019008b681a42fcd10b4bff
:10404000982252011a6000225a61586908490143b6
:1040500059610221d9635a649a64da641a65ef32ad
:104060001a641a009368002bfcd1704700240042a8
:04407000000f3030dd
:020000040000fa
:1040740070b505000c4c48220021200001f04af9db
:1040840023000e3b5c60002222806d05ed0c6580f0
:104094003f321a750023054805495a5cc25401335e
:1040a400402bfad170bdc0460e000020160000203f
:0440b4004086002022
:020000040000fa
:1040b80041008c46012212068a420bd8090938238e
:1040c8001b06c918c30fdb07194340076346da42ca
:1040d80004d27047c10fc9070020704703d13823a5
:1040e8001b06c918704738231b06c9180122d204b9
:0440f80011437047b9
:020000040000fa
:1040fc00f7b597b201933b00140c86b2050c7343d1
:10410c006f4366436543f6191c0ca4199c46a742e1
:10411c0002d980235b02ed186346260c7519240422
:10412c009eb2019ba4194343200051435b195918bb
:04413c0003b0f0bd1f
:020000040000fa
:104140000c4b01221a6019000b691a42fcd1094b71
:1041500010221a600d3a1a73074a9a8333229a7210
:10416000064a0021116020225a721a001369002b9e
:10417000fcd17047003000427fbbffffc0880020a9
:020000040000fa
:104180000c4b01221a6019000b691a42fcd1094b31
:1041900010221a600d3a1a73074a9a8333229a72d0
:1041a000064a0021116001225a721a001369002b7d
:1041b000fcd17047003400427fbbffffc88800205d
:020000040000fa
:1041c000431e033314d803041b0c312b13d859019d
:1041d0000a4a5218d169002281420ad15a0107497c
:1041e000515c0022002904d05b01044a9a1800e0c7
:1041f0000022100070470022fbe7c046407b0020f1
:020000040000fa
:1042000010b5040000f0c0f9002817d02000fff717
:10421000d7ff041e10d04378002b08d1002323754c
:1042200063752370002400f013fd200010bdfff71c
:104230006dfb00236370f1e70124f4e70124f4e748
:020000040000fa
:1042400070b5040000f0a0f9002817d02000fff797
:10425000b7ff041e10d043780025002b03d100f0d7
:10426000f7fc280070bdfff751fb00232375637531
:1042700063706368a360f2e70125f0e70125f0e7ca
:020000040000fa
:10428000002b11d1002a0fd1002900d1002802d023
:104290000021c943081c07b4024802a1401802903b
:1042a00003bdc0466113000003b4684601b502981f
:1042b000fdf7f4fd019b9e4602b00cbc7047c04662
:020000040000fa
:1042c0004200110e7f390fd40123db0749421f3111
:1042d0000cdd400003d2c0011843c8407047c00144
:1042e0001843c8404042704700207047ff2109062c
:0e42f0008a4200d99843184000d4d843704742
:020000040000fa
:0242fe00704707
:020000040000fa
:10430000a44a00000100000078880020020000009c
:10431000030000002810004228100042ec51000069
:10432000785000007c54000070540000050000002c
:0c43300040820020a44e000003000000aa
:020000040000fa
:10433c000b4b00221a621a779a60da60094b8022c2
:10434c0092025a601a00d369002bfcd1054b07224c
:10435c001a73054a1a601a00d369002bfcd17047f6
:0c436c0018870020000800420e003000fe
:020000040000fa
:1043780010b50c4b5b8b0722134000d110bd0a4cc3
:10438800e38500f0a1fb074b84221a752c23002239
:10439800e254636a002bf1d0034b986a5b6a984732
:0c43a800ece7c04600100042bc8600207c
:020000040000fa
:1043b40070b50c4b3f229e5cf6b2985440241a5db3
:1043c4000225aa431a551d0002222b5d1342fcd17b
:1043d4000001054b181889b20180024a3f23d654c4
:0c43e400012070bd0060004140850020f9
:020000040000fa
:1043f00070b5050000f09aff0024002d0fdb0a497c
:104400000a681f232b40da400134144001229a40ed
:10441000130080228b50bff34f8fbff36f8f00f0dc
:0c44200003ff200070bdc04600e100e07a
:020000040000fa
:10442c000b4b01221a6019000b691a42fcd1084b84
:10443c00084a1a6000221a75022159750649196238
:10444c003f219972da801a001369002bfcd1704756
:0c445c000068004200800741ffff0000e4
:020000040000fa
:104468000c4b01221a8019000b691a42fcd1094b26
:10447800094a1a801900802212020b691342fcd1e2
:10448800044b00221a62190020320b691a42fcd12f
:0c4498007047c04600240040008bffff6e
:020000040000fa
:1044a4001c2101231b04984201d3000c10391b0a60
:1044b400984201d3000a08391b09984201d3000924
:1044c400043902a2105c40187047c046040302027b
:0c44d400010101010000000000000000d8
:020000040000fa
:1044e00010b50c4c2023e45c0023002c01d01800f4
:1044f00010bd084b9880d9605a6100229a601a61f9
:10450000012199701a7020315a542039fff7c6fbe7
:084510000123ece7ec8600201a
:020000040000fa
:1045180070b50c4d20242d5d0024002d01d0200005
:1045280070bd084ca080e360049b6361a1602261b8
:104538000023a37023702122a3540021fff7aafbb4
:084548000124ece7ec860020e1
:020000040000fa
:104550000c4b5b6b002b11d000280fd0002107e023
:104560009a68801a99609b69002b07d0002805d0b3
:104570009a688242f4d39a68101a9860014b5a697b
:084580001a617047008500205c
:020000040000fa
:1045880010b50c4a3023d35c0120002b04d13833fa
:10459800d35c0020012b00d010bd1400373300225b
:1045a800e25408202056fff71fff3123e054012072
:0845b800f2e7c0460085002077
:020000040000fa
:1045c000f8b50d001400fff737fc061e0ad002688c
:1045d00013019b1a9b00074fff183800fef794fd4c
:1045e000002800d1f8bdb560f4603800fef752fe37
:0845f000f8e7c04680860020b8
:020000040000fa
:1045f80070b50d00002811d10a4b5b79012b02d050
:104608000120404209e0074c0023637123681b68be
:104618001100280098470123637170bd01204042b2
:08462800fbe7c046d08800202a
:020000040000fa
:1046300070b50d00002811d10a4b5b79012b02d017
:104640000120404209e0074c002363712368db68c6
:104650001100280098470123637170bd012040427a
:08466000fbe7c046d0880020f2
:020000040000fa
:104668003e0f0000500f0000720f0000820f000084
:10467800960f0000c80f0000fe0f00000e1000008b
:1046880020100000521000008a100000a010000046
:08469800ac100000be10000090
:020000040000fa
:1046a00010b50b480168002905d14368002b02d1e1
:1046b000fff725fe10bd04008368064a9bb20c3448
:1046c0009b009b5842682000984780002018e9e72b
:0846d000d0050000f0520000cb
:020000040000fa
:1046d80010b50b4c2023e45c0023002c01d01800fb
:1046e80010bd074b9880dc605c6199601a619c7012
:1046f8001c7021229c540021fff7ccfa0123eee71d
:04470800ec8600201b
:020000040000fa
:10470c0010b50a4b5b7a002b0ed0084b987ac0b2ce
:10471c0033229a72064b1b68002b05d0002803d05d
:10472c00034b59681b68984710bdc04600300042c7
:04473c00c088002011
:020000040000fa
:104740006053000000000000010000002808004243
:10475000280800424487002001000000d84b0000d8
:10476000b8550000b055000004000000f48200209d
:044770006050000095
:020000040000fa
:1047740010b50a4b5b7a002b0ed0084b987ac0b266
:1047840033229a72064b1b68002b05d0002803d0f5
:10479400034b59681b68984710bdc046003400425b
:0447a400c8880020a1
:020000040000fa
:1047a8000b4b1b881bb2002b0adb094a138880219c
:1047b80009020b4313801100d20b0b691342fcd181
:1047c800034908220b691a42fcd1014b98697047ca
:0447d8000024004079
:020000040000fa
:1047dc00220800002a0800003a0800005e080000c9
:1047ec0080080000a0080000c208000004090000b6
:1047fc002409000046090000880900009609000001
:04480c00b6090000e9
:020000040000fa
:1048100070b528300024012501e028331800036812
:10482000002b0dd09a690e69b242f6d11a7f012a87
:10483000f3d19a6a02601c775d759c621c70eee78a
:0248400070bd49
:020000040000fa
:024842007047bd
:020000040000fa
:1048440010b5084b9a8992b207494a60074a9a817f
:104854009b890b68002b04d00b00486889681b688f
:10486400984710bd00240040a4880020ff81ffff6a
:020000040000fa
:1048740010b500280fd1094b5b79012b02d0012020
:10488400404207e0054c0023637123681b69984785
:104894000123637110bd01204042fbe7d088002052
:020000040000fa
:1048a40010b500280fd1094b5b79012b02d00120f0
:1048b400404207e0054c0023637123685b69984715
:1048c4000123637110bd01204042fbe7d088002022
:020000040000fa
:1048d40010b500280fd1094b5b79012b02d00120c0
:1048e400404207e0054c0023637123689b689847a6
:1048f4000123637110bd01204042fbe7d0880020f2
:020000040000fa
:1049040010b500280fd1094b5b79012b02d001208f
:10491400404207e0054c0023637123685b689847b5
:104924000123637110bd01204042fbe7d0880020c1
:020000040000fa
:1049340010b584b0094b0522da751a00173281b21a
:1049440058681c0008340294022401940f33009325
:10495400012300f007fb04b010bdc046ac87002063
:020000040000fa
:1049640010b584b0094b0622da751a00173281b2e9
:1049740058681c0008340294022401940f330093f5
:10498400012300f0effa04b010bdc046ac8700204c
:020000040000fa
:1049940010b584b0094b0722da751a00173281b2b8
:1049a40058681c0008340294022401940f330093c5
:1049b400012300f0d7fa04b010bdc046ac87002034
:020000040000fa
:1049c40010b500f017fa0649fef7c6fa0549fef7d6
:1049d400d5f8054900f022fd044b186110bdc0460e
:1049e40000ff7f470000fa420000c04050880020ca
:020000040000fa
:1049f40010b5084b5868084b9b689b0709d5064bb4
:104a040002229a60034b1b68002b02d0014b1b68e7
:0c4a1400984710bdb0880020001800403a
:020000040000fa
:104a200010b5084bdb685b070ad5064b04229a6079
:104a3000054b1b68002b03d0034b58681b68984735
:0c4a400010bdc04600140040b8880020e3
:020000040000fa
:104a4c00094a537980210b435371110004220b69dd
:104a5c001a42fcd104491f224b799343fcd1024bdf
:0c4a6c00988a80b27047c04600300042bb
:020000040000fa
:104a780010b500f011fcfbf7c7fe00f017fcfef7bd
:104a8800e0fe00f01dfcfbf72bfbfcf719fffef71f
:0c4a98000bfefcf747fa00f01dfc10bdff
:020000040000fa
:104aa400dd540000ed3f000081530000d1540000ac
:104ab400014c0000c554000005340000ad54000052
:0c4ac400b95400007153000039150000c7
:020000040000fa
:104ad000094b5b8b5b070dd0074b80221a76793a26
:104ae0005a831b7e5b0705d5034b04211a8d1a7e62
:0c4af0000a42fbd17047c0460010004293
:020000040000fa
:104afc00084b586c084a10409b69db0709d5054ade
:104b0c00936901218b439361110001228b691a4235
:0c4b1c00fcd17047001c0042e74700007d
:020000040000fa
:104b280010b5040043685b6a9847002806d1002343
:104b3800012200212000fdf749f810bd01220300e1
:0c4b4800524200212000fdf741f8f6e782
:020000040000fa
:104b540010b50c00012802d0022807d010bd002394
:104b6400012200212000fdf733f8f7e7012200239a
:0c4b7400524200212000fdf72bf8efe773
:020000040000fa
:104b800010b50c00012802d0022807d010bd002368
:104b9000012201212000fdf71df8f7e70122002383
:0c4ba000524201212000fdf715f8efe75c
:020000040000fa
:104bac0000030000a9500000f94500000549000071
:104bbc00d54800003146000075480000a5480000ab
:0c4bcc00372c000065520000fd55000071
:020000040000fa
:104bd8000000000001000000ffffffffffffffffd4
:104be800ffffffffffffffffffffffffffffffffcd
:084bf800ffffffffffffffffbd
:020000040000fa
:104c0000074a2c23d35c002b08d0064b84221a754c
:104c1000034b00222c215a54da611a62012070479a
:084c2000bc86002000100042d8
:020000040000fa
:104c280030b543001b189b00064ce3181b899bb248
:104c3800834200d030bd43001d18ad0029516019d2
:084c48004260f7e780810020c3
:020000040000fa
:104c500010b5084c3123e15c0820205600f068f9bb
:104c60003023e35c002b03d1024a38330121d154b5
:084c700010bdc04600850020c4
:020000040000fa
:104c780000b583b0074b0822da7519761a00173287
:104c880081b2586808330093022300f0cbf903b0cf
:084c980000bdc046ac870020fe
:020000040000fa
:104ca000c20f12029d3201000cd001d5494202d43c
:104cb000013a4900fcd5d205080a0906494100d34a
:064cc0000129504170477c
:020000040000fa
:104cc60001290bd002002432436a002b05d0596912
:104cd600116000221a765a611a717047020020325a
:044ce600036af2e784
:020000040000fa
:104cec0010b5064b00221a70012149425960996097
:104cfc001a7303490020fff791ff10bd6c87002049
:044d0c000d55000041
:020000040000fa
:104d100000b583b0064bd9751a00173281b25868b6
:104d200008330093012300f081f903b000bdc046b1
:044d3000cc8700200c
:020000040000fa
:104d340041000dd2090e7f390ad449421f3105d4ee
:104d440000020122d2071043c8407047c8177047b9
:044d54000020704784
:020000040000fa
:104d580070b50d00c4b2200000f026fb03490140e5
:104d680029432000fff722fb70bdc046fffcffff70
:020000040000fa
:104d7800002805d1054aa423d3587f30184070472e
:104d8800024ab423d3587f201840f8e7001c004299
:020000040000fa
:104d9800da180000e2180000f218000014190000e8
:104da800381900005c19000080190000a4190000df
:020000040000fa
:104db80010b5054b00221a700021044800f042fb90
:104dc80000f0dcf810bdc046d88800203d55000032
:020000040000fa
:104dd80000b583b0054b1a000f3281b2586808330a
:104de8000093062300f0aef803b000bdcc87002086
:020000040000fa
:104df8009d2201000ad002d4013a4900fcd5d2050f
:0e4e0800080a0906494100d3012950417047ac
:020000040000fa
:104e1600002310b5934206d103201840421e90414c
:0e4e26009b08c01810bdc45ccc540133f2e7e9
:020000040000fa
:104e3400054a136802210b431360110002220b6917
:0c4e44001a42fcd17047c046003000420a
:020000040000fa
:104e5000054a136802218b431360110002220b697b
:0c4e60001a42fcd17047c04600300042ee
:020000040000fa
:104e6c00884e000024880020010000000200000091
:0c4e7c0058840020d851000064000000a1
:020000040000fa
:104e8800e1440000d946000019450000a93f000090
:0c4e980051530000bd17000059540000e9
:020000040000fa
:104ea40001000000070000000000000000000000f6
:0c4eb400000000000000000000000000f2
:020000040000fa
:104ec00065540000354e0000514e0000a955000009
:0c4ed000b1510000c55100004d4a000027
:020000040000fa
:104edc00054b03225a7000229a7002321a70190084
:0c4eec000b691a42fcd1704700500042d4
:020000040000fa
:104ef800054b1b69834201d2c01a7047c01a802330
:0c4f08005b029c466044f8e70085002036
:020000040000fa
:104f1400054b01221a7000221a715a719a60da60e4
:0c4f24001a615a611a7070470058004270
:020000040000fa
:104f3000002907d0002805db1f2318401e3b8340b3
:0c4f4000014a13607047c04600e100e029
:020000040000fa
:104f4c0010b584b001240394069c02940193009242
:0c4f5c0000230022fbf70cfa04b010bd8b
:020000040000fa
:104f680010b584b004240394089c0294079c01940f
:0c4f7800069c0094fbf7fef904b010bd8d
:020000040000fa
:104f8400054a138802210b431380110002220b6986
:0c4f94001a42fcd17047c04600240040c7
:020000040000fa
:104fa000054b9868db68984201d3c01a7047024ae3
:0c4fb00012691018c01af9e700860020f2
:020000040000fa
:104fbc00054ad36a906a834201d8c01a7047024ae4
:0c4fcc00126b1018c01af9e700860020d4
:020000040000fa
:104fd80010b5044800230370034b9c466044fdf75a
:0c4fe80021ff10bd00000020202d000063
:020000040000fa
:104ff400431c05d0012802d1034b01221a737047c8
:0c500400014b00221a73fae7ac87002071
:020000040000fa
:10501000431c05d0012802d1034b01221a737047ab
:0c502000014b00221a73fae7cc87002035
:020000040000fa
:10502c0010b584b002240394069c029400240194cd
:0a503c000094fbf79df904b010bdcd
:020000040000fa
:10504800044b01225a8001321a701a00d368002bcf
:08505800fcd17047002c004060
:020000040000fa
:105060000100000007000000000000000000000038
:08507000000000000000000038
:020000040000fa
:10507800020000000000000000000800ffffffff22
:08508800ffffffffffffffff28
:020000040000fa
:10509000c92e0000bd4f000079520000d119000058
:0850a000e95500008d520000eb
:020000040000fa
:1050a800002805d1034b01225a71096819601a7149
:0850b8007047c046d0880020bb
:020000040000fa
:1050c000044b00221a7001214942596099601a73f9
:0850d0007047c0468c870020e8
:020000040000fa
:1050d800034b044ad17b9970127cda707047c04642
:0850e80088880020ac8700203d
:020000040000fa
:1050f000034b044ad17b1971127c5a717047c04628
:0851000088880020ac87002024
:020000040000fa
:10510800034b044ad17b9971127cda717047c0460f
:0851180088880020ac8700200c
:020000040000fa
:10512000044b00221a7001214942596099601a7398
:085130007047c046ac87002067
:020000040000fa
:10513800c2360000ca360000da360000f236000037
:08514800003700000a370000e7
:020000040000fa
:10515000044b00221a7001214942596099601a7368
:085160007047c046cc87002017
:020000040000fa
:10516800d0400b1cd1409c46203ad34018435242b1
:085178006346934018437047a1
:020000040000fa
:105180009140031c90409c46203a93401943524260
:085190006346d3401943704748
:020000040000fa
:1051980010b5002903d1fff781f9203002e0081c7f
:0851a800fff77cf910bdc046c1
:020000040000fa
:1051b000034b9883190040220b691a42fcd17047b7
:0451c0000030004279
:020000040000fa
:1051c400034bd883190080220b691a42fcd1704723
:0451d4000030004265
:020000040000fa
:1051d80001000000090000000000000000000000bd
:0451e80000000000c3
:020000040000fa
:1051ec0005000000060000000700000000000000a1
:0451fc0001000000ae
:020000040000fa
:10520000034b187e40080123584001231840704783
:045210000008004250
:020000040000fa
:10521400034b1b6d1840431e9841c0b27047c046f3
:04522400001c004228
:020000040000fa
:10522800002803d0bff35f8f62b6704772b6bff332
:045238005f8ffae7a3
:020000040000fa
:10523c00836a002b05d09a6a826200221a779a62de
:04524c001a7070471d
:020000040000fa
:10525000036a002b05d01a6a026200225a751a628c
:045260001a70704709
:020000040000fa
:10526400002802d1024b187970470320fce7c0469e
:04527400d0880020be
:020000040000fa
:1052780010b5034b1c6bfff79dfe013c201a10bdb7
:04528800008600207c
:020000040000fa
:10528c0010b5034b1c69fff785fe013c201a10bdbd
:04529c000086002068
:020000040000fa
:1052a000034b1b78002b02d1014b01221a7070476f
:0452b0006c870020e7
:020000040000fa
:1052b400034b1b78002b02d1014b01221a7070475b
:0452c400f888002046
:020000040000fa
:1052c800034b1b78002b02d1014b01221a70704747
:0452d8008c8700209f
:020000040000fa
:1052dc00034b1b78002b02d1014b01221a70704733
:0452ec00f088002026
:020000040000fa
:1052f0003f530000174e0000015600000156000009
:045300000156000052
:020000040000fa
:1053040010b5002a05d00023cc5cc4540133934269
:04531400fad110bdfd
:020000040000fa
:10531800002a06d00300c9b28218197001339342db
:04532800fbd17047fe
:020000040000fa
:10532c00eff3108072b6bff35f8f43425841c0b2a7
:02533c007047b8
:020000040000fa
:10533e008a18914201d10020704700230b70013171
:02534e00f7e77f
:020000040000fa
:10535000024a2123d05cc0b27047c046ec860020d0
:020000040000fa
:105360008d2d00006d1200000152000095540000c8
:020000040000fa
:10537000024bd88d80b20022da857047bc860020af
:020000040000fa
:10538000024a2c23d05cc0b27047c046bc860020c5
:020000040000fa
:10539000024b8022d2001a817047c04600040040b0
:020000040000fa
:1053a00003010248c0184160826070478085002078
:020000040000fa
:1053b00003010248c018008880b270474085002071
:020000040000fa
:1053c00010b5024b1868fef73bff10bd6488002043
:020000040000fa
:1053d00010b5024b5868fef7c9fa10bd648800206a
:020000040000fa
:1053e00010b5024b5868fef72bff10bd64880020f3
:020000040000fa
